:1000000051C100000C94BE160C9493160C94681603
:100010000C943D160C9412160C94E7150C94BC1518
:100020000C94911570C100006EC100006CC10000FD
:100030006AC1000068C1000066C1000064C1000020
:1000400062C1000060C100005EC100005CC1000030
:100050005AC1000058C1000056C100000C94471559
:1000600052C100000C9430130C9407134CC10000D3
:100070004AC1000048C1000046C1000044C1000060
:1000800042C1000040C100003EC100003CC1000070
:100090003AC1000038C1000036C1000034C1000080
:1000A00032C1000030C100002EC100002CC1000090
:1000B0002AC1000028C1000026C1000024C10000A0
:1000C00022C1000020C100001EC100000C94D1120A
:1000D0000C94A81218C1000016C1000014C1000041
:1000E00012C10000C73DFC3DCB3C683EBA3EB23C6D
:1000F000583F583F583F583F583F583F583F583F48
:10010000E43E643D3C45AD42C94205434E435E4535
:100110008145264628460A120D12FC1100120612CD
:100120004412111215121B121F12231229122D1222
:100130003112441237123B123F121F142414291497
:1001400033143D14B61447144F14571461146B1430
:10015000751484148E14B6149814A214AC140000F0
:1001600020002300260029002C002F00320000016F
:10017000000003010601090100000A0B02090C0D31
:100180000E0807030401000000000000000000004A
:10019000000000000000000000000000000000005F
:1001A000000000001211100000000000000000001C
:1001B000000000000000000000000000000000003F
:1001C00000000000000000000000002200250028C0
:1001D000002B002E00310034000201000005010850
:1001E000010B0100002100240027002A002D00300F
:1001F00000330001010000040107010A010102109F
:100200002020080810204010204080020102010830
:1002100004020101020408102040808040201008E0
:100220000402018004020180402010080402010839
:100230000402010102040810204080010204081099
:100240002040800840048080402010204010050598
:100250000505070508080808020202020A0A08083C
:10026000040404040101010101010101030303036A
:1002700003030303040707070C0C0C0C0C0C0C0CF9
:100280000202020206060606060606060B0B0B0B0A
:100290000B0B0B0B0A050A0A050A0A0404040A00E0
:1002A00097467F4611241FBECFEFD1E2DEBFCDBF00
:1002B00000E00CBF16E0A0E0B2E0E0EBFAE900E0FD
:1002C0000BBF02C007900D92AA3CB107D9F729E0F5
:1002D000AAECB6E001C01D92A33DB207E1F711E020
:1002E000C1E5D1E000E006C021970109802FFE01A1
:1002F0000E94F54AC035D10780E00807A9F70E949F
:10030000DC350C94474D7CCE82E10E94661321E0DF
:10031000892B09F420E02093D90681E080931C0703
:100320008091030790910407A0910507B0910607FB
:100330000196A11DB11D8093030790930407A0931C
:100340000507B0930607089583E10E94661321E034
:10035000892B09F420E020931D0780911D07882335
:1003600059F00E943B156093D5067093D606809392
:10037000D7069093D80608950E943B156093DE0639
:100380007093DF068093E0069093E10608956AEF8C
:1003900073E088E697E00E94F93468E074E088E64C
:1003A00097E00E94F93461E373E088E697E00E94E9
:1003B000F934609135097091360988E697E00E941A
:1003C000D7296BE074E088E697E00E94F9346DE08D
:1003D00074E088E697E00E94F93461E373E088E610
:1003E00097E00E94F93460915E0970915F0988E698
:1003F00097E00E94D7296BE074E088E697E00E94BE
:10040000F93460E174E088E697E00E94F93461E332
:1004100073E088E697E00E94F9346091E4067091F9
:10042000E50688E697E00E94D7296BE074E088E64D
:1004300097E00E94F93463E174E088E697E00E9457
:10044000F93461E373E088E697E00E94F934609143
:1004500055097091560988E697E00E94D7296BE00C
:1004600074E088E697E00E94F93466E174E088E67B
:1004700097E00E94F93461E373E088E697E00E9418
:10048000F93460912C0970912D0988E697E00E945B
:10049000D7296BE074E088E697E00E94F93469E1BF
:1004A00074E088E697E00E94F93461E373E088E63F
:1004B00097E00E94F934609151097091520980913E
:1004C0005309909154090E94E21F6BE074E088E6A2
:1004D00097E00E94F9346CE174E088E697E00E94AE
:1004E000F93461E373E088E697E00E94F9346091A3
:1004F00028097091290980912A0990912B090E945D
:10050000E21F6BE074E088E697E00E94F9346FE147
:1005100074E088E697E00E94F93461E373E088E6CE
:1005200097E00E94F93460915D0970E088E697E0F9
:100530000E94D7296BE074E088E697E00E94F934C6
:1005400062E274E088E697E00E94F93461E373E0C8
:1005500088E697E00E94F9346091D00670E088E662
:1005600097E00E94D7296BE074E088E697E00E944C
:10057000F93465E274E088E697E00E94F93461E3BB
:1005800073E088E697E00E94F9346091D20670E04B
:1005900088E697E00E94D7296BE074E088E697E050
:1005A0000E94F93468E274E088E697E00E94F9342A
:1005B00061E373E088E697E00E94F9346091D40625
:1005C00070E088E697E00E94D7296BE074E088E647
:1005D00097E00E94F9346BE274E088E697E00E94AD
:1005E000F93461E373E088E697E00E94F9346091A2
:1005F000D30670E088E697E00E94D7296BE074E0AC
:1006000088E697E00E94F9346EE274E088E697E0AD
:100610000E94F93461E373E088E697E00E94F934C0
:100620006091D10670E088E697E00E94D7296BE0E0
:1006300074E088E697E00E94F93461E374E088E6AC
:1006400097E00E94F93461E373E088E697E00E9446
:10065000F9346091340970E088E697E00E94D72968
:100660006BE074E088E697E00E94F93464E374E09C
:1006700088E697E00E94F93461E373E088E697E04A
:100680000E94F9346091D90670E088E697E00E94F4
:10069000D7296BE074E088E697E00E94F93467E3BD
:1006A00074E088E697E00E94F93461E373E088E63D
:1006B00097E00E94F9346091F30670E088E697E0D5
:1006C0000E94D7296BE074E088E697E00E94F93435
:1006D0006AE374E088E697E00E94F93461E373E02E
:1006E00088E697E00E94F9348AE00E94661361E090
:1006F00070E0892B11F060E070E088E697E00E94DE
:10070000D7296BE074E088E697E00E94F9346DE346
:1007100074E088E697E00E94F93461E373E088E6CC
:1007200097E00E94F93483E40E94661361E070E070
:10073000892B11F060E070E088E697E00E94D729ED
:100740006BE074E088E697E00E94F93460E474E0BE
:1007500088E697E00E94F93461E373E088E697E069
:100760000E94F93483E10E94661361E070E0892BF6
:1007700011F060E070E088E697E00E94D7296BE016
:1007800074E088E697E00E94F93463E474E088E658
:1007900097E00E94F93461E373E088E697E00E94F5
:1007A000F93482E00E946613BC0188E697E00E945B
:1007B000D7296BE074E088E697E00E94F93466E49C
:1007C00074E088E697E00E94F93461E373E088E61C
:1007D00097E00E94F93440910B0750910C0760910B
:1007E0000D0770910E072AE088E697E00E94BD2F62
:1007F0006BE074E088E697E00E94F93469E474E005
:1008000088E697E00E94F93461E373E088E697E0B8
:100810000E94F93440910F07509110076091110721
:10082000709112072AE088E697E00E94BD2F6BE0E6
:1008300074E088E697E00E94F9346CE474E088E69E
:1008400097E00E94F93461E373E088E697E00E9444
:10085000F934409113075091140760911507709176
:1008600016072AE088E697E00E94BD2F6BE074E04F
:1008700088E697E00E94F9346FE474E088E697E038
:100880000E94F93461E373E088E697E00E94F9344E
:100890006091760970917709809178099091790932
:1008A0002AEF30E040E050E00E94C049BA01A901BF
:1008B0002AE088E697E00E94BD2F6BE074E088E6AE
:1008C00097E00E94F93462E574E088E697E00E94C0
:1008D000F93461E373E088E697E00E94F9346091AF
:1008E000CE067091CF0688E697E00E94D7296BE08C
:1008F00074E088E697E00E94F93465E574E088E6E4
:1009000097E00E94F93461E373E088E697E00E9483
:10091000F93460910C0970910D0988E697E00E9406
:10092000D7296BE074E088E697E00E94F93468E527
:1009300074E088E697E00E94F93461E373E088E6AA
:1009400097E00E94F93460910B0970E088E697E027
:100950000E94D7296BE074E088E697E00E94F934A2
:100960006BE574E088E697E00E94F93461E373E098
:1009700088E697E00E94F9346091030970910409B8
:1009800088E697E00E94D7296BE074E088E697E05C
:100990000E94F9346EE574E088E697E00E94F9342D
:1009A00061E373E088E697E00E94F9346091FF0804
:1009B0007091000980910109909102090E94E21F43
:1009C00069E276E088E697E00C94F934CF92DF9202
:1009D000EF92FF920F931F93CF93DF93EC016A0185
:1009E0007B0188819981AA81BB81892B8A2B8B2BE2
:1009F00039F40E943B15688379838A839B8317C0EF
:100A00000E943B15088119812A813B81DC01CB01C1
:100A1000801B910BA20BB30B8C159D05AE05BF057A
:100A200030F0188219821A821B8281E001C080E0B6
:100A3000DF91CF911F910F91FF90EF90DF90CF90BA
:100A400008951092E20660E086E10E948E1360E055
:100A500070E089E00E94F81360E070E088E00E9496
:100A6000F81360E087E10E948E13809115028111D6
:100A700005C060E070E08DE00E94F8138AE00E94FB
:100A80006613892BA9F04091720950917309609106
:100A90007409709175098091760990917709A091F8
:100AA0007809B0917909481759076A077B0739F423
:100AB00083E090E09093E5068093E406089560E07B
:100AC00080917D0990917E090E94EB268AE00E9428
:100AD0006613892B11F1409172095091730960914D
:100AE0007409709175098091760990917709A091A8
:100AF0007809B0917909481759076A077B0769F0A7
:100B00008091D906882381F086E090E09093E506F5
:100B10008093E4061092D906089583E090E09093C4
:100B2000E5068093E406ECCF08950F931F93CF93CF
:100B300082E40E946613892B09F44CC0C1E0C09383
:100B4000F3060E943B150091DA061091DB06209116
:100B5000DC063091DD06DC01CB01801B910BA20B82
:100B6000B30B0091260210912702209128023091A8
:100B70002902081719072A073B07E0F41092F2062A
:100B80000E943B156093CA067093CB068093CC06F7
:100B90009093CD0648EE53E060E070E08AEC96E07A
:100BA00015DF811140C061E674E088E697E00E949D
:100BB000F934F0CF00912E0210912F0220913002D3
:100BC00030913102081719072A073B0760F5C093D7
:100BD000F20629C08091F206882399F01092F2065D
:100BE0001092D0068091E4069091E506019719F4E1
:100BF00087E090E002C086E090E09093E506809365
:100C0000E4068091E6069091E706A091E806B0918F
:100C1000E9068093DA069093DB06A093DC06B09396
:100C2000DD061092F306CF911F910F910895CF9298
:100C3000DF92EF92FF92CF93DF9369E674E085E055
:100C400098E00E94F93460912E0270912F028091F9
:100C50003002909131020E94C93560912E0270914C
:100C60002F02809130029091310228EEC22E23E0B3
:100C7000D22EE12CF12CA70196010E94C049A901B6
:100C800065E670E080EB98E00E94AF296091260253
:100C9000709127028091280290912902A701960164
:100CA0000E94C049A90166E670E080EB98E00E94CE
:100CB000AF2960911E0270911F02809120029091D5
:100CC0002102A70196010E94C049A90167E670E0D0
:100CD00080EB98E00E94AF2960912A0270912B026C
:100CE00080912C0290912D02A70196010E94C0498B
:100CF000A90168E670E080EB98E00E94AF2960915E
:100D00002202709123028091240290912502A70172
:100D100096010E94C049A90169E670E080EB98E065
:100D20000E94AF29C9E4D9E04E855F856CE770E089
:100D300080EB98E00E94AF29488959896EE770E0FE
:100D400080EB98E00E94AF294A895B896FE770E0E9
:100D500080EB98E00E94AF294F89588D62E870E0DF
:100D600080EB98E00E94AF29C0E2D9E04E855F8514
:100D700066E870E080EB98E00E94AF2948895989C5
:100D800068E870E080EB98E00E94AF294A895B89AF
:100D900069E870E080EB98E00E94AF294F89588D98
:100DA0006CE870E080EB98E00E94AF29C7EFD8E0D4
:100DB0004E855F8560E970E080EB98E00E94AF2986
:100DC0004889598962E970E080EB98E00E94AF2978
:100DD0004A895B8963E970E080EB98E00E94AF2963
:100DE0004F89588D66E970E080EB98E00E94AF294A
:100DF000C2E7D9E04B855C856BE970E080EB98E059
:100E00000E94AF2949855A856CE970E080EB98E033
:100E10000E94AF2940911C0250911D026DE970E0C3
:100E200080EB98E00E94AF2940911A0250911B027A
:100E30006EE970E080EB98E00E94AF294091E306F4
:100E40006AE970E080EB98E00E94C02940911502A9
:100E500069E970E080EB98E0DF91CF91FF90EF902F
:100E6000DF90CF900C94C0294F925F926F927F9247
:100E70008F929F92AF92BF92CF92DF92EF92FF92AA
:100E80000F931F93CF93DF93EC018DA10E94BF14AA
:100E9000C9A0DAA00D2C000CEE08FF088D8C9E8CEA
:100EA000092C000CAA08BB08498C5A8C052C000C94
:100EB000660877082BA13CA1A901330F660B770BBD
:100EC0009A01AB012C193D094E095F09DC010E9412
:100ED000BA4920E034E040E050E00E949449DA0151
:100EE000C9018C0D9D1DAE1DBF1D092E000CAA0B46
:100EF000BB0B9C01AD0124193509460957096F8DBB
:100F000078A1CB01770FAA0BBB0BBC01CD016819EF
:100F100079098A099B090E94E64A2B8D3C8D89013B
:100F2000330F220B330BA901980124193509460907
:100F300057090E949449820E931EA41EB51E97FC69
:100F400003C09D868C8602C01D861C866C857D85AF
:100F5000072E000C880B990B0E9451480E948F4A63
:100F60006B017C016E857F85072E000C880B990B29
:100F70000E945148A70196010E94B048688779876E
:100F80008A879B870E94564ACB01DF91CF911F91A0
:100F90000F91FF90EF90DF90CF90BF90AF909F9018
:100FA0008F907F906F905F904F900895AF92BF9217
:100FB000CF92DF92EF92FF920F931F93CF93DF9325
:100FC000EC01FC014191519161917191CF01FEDCE5
:100FD000882309F446C0CE0147DFC884D984EA8457
:100FE000FB84A888B9880F89188DB501601B710B27
:100FF000072E000C880B990B0E9451489B01AC01F5
:10100000C701B6010E944B4887FF05C08D899E89A4
:1010100001969E8B8D8BB501600F711F072E000C02
:10102000880B990B0E9451489B01AC01C701B60186
:101030000E94874A18162CF48D899E8901979E8BF1
:101040008D8B8D899E891816190614F01E8A1D8AAB
:101050008D899E898F3F910524F08FEF90E09E8BC4
:101060008D8B8D899E89DF91CF911F910F91FF907C
:10107000EF90DF90CF90BF90AF9008958F929F92A6
:10108000AF92BF92CF92DF92EF92FF92CF93DF9316
:1010900000D000D0CDB7DEB76CE774E088E697E00B
:1010A0000E94F93461E688E697E00E94A12F61E38F
:1010B00073E088E697E00E94F93460912E02709107
:1010C0002F02809130029091310228EEC22E23E04F
:1010D000D22EE12CF12CA70196010E94C049BA0141
:1010E000A9012AE088E697E00E94BD2F6BE074E03A
:1010F00088E697E00E94F93462E688E697E00E946D
:10110000A12F61E373E088E697E00E94F9346091D3
:101110002602709127028091280290912902A7014E
:1011200096010E94C049BA01A9012AE088E697E029
:101130000E94BD2F6BE074E088E697E00E94F934CE
:1011400063E688E697E00E94A12F61E373E088E6FA
:1011500097E00E94F93460911E0270911F02809105
:10116000200290912102A70196010E94C049BA0174
:10117000A9012AE088E697E00E94BD2F6BE074E0A9
:1011800088E697E00E94F93464E688E697E00E94DA
:10119000A12F61E373E088E697E00E94F934609143
:1011A0002A0270912B0280912C0290912D02A701AE
:1011B00096010E94C049BA01A9012AE088E697E099
:1011C0000E94BD2F6BE074E088E697E00E94F9343E
:1011D00065E688E697E00E94A12F61E373E088E668
:1011E00097E00E94F934609122027091230280916D
:1011F000240290912502A70196010E94C049BA01DC
:10120000A9012AE088E697E00E94BD2F6BE074E018
:1012100088E697E00E94F93466E688E697E00E9447
:10122000A12F61E373E088E697E00E94F9346091B2
:1012300030097091310988E697E00E94D7296BE068
:1012400074E088E697E00E94F93467E688E697E064
:101250000E94A12F61E373E088E697E00E94F934D1
:101260006091590970915A0988E697E00E94D72940
:101270006BE074E088E697E00E94F93468E688E65F
:1012800097E00E94A12F61E373E088E697E00E9457
:10129000F934609132097091330988E697E00E9431
:1012A000D7296BE074E088E697E00E94F93469E69C
:1012B00088E697E00E94A12F61E373E088E697E05B
:1012C0000E94F93460915B0970915C0988E697E0AF
:1012D0000E94D7296BE074E088E697E00E94F93419
:1012E0006BE688E697E00E94A12F61E373E088E651
:1012F00097E00E94F9346091090970910A0988E623
:1013000097E00E94D7296BE074E088E697E00E949E
:10131000F9346AE688E697E00E94A12F61E373E062
:1013200088E697E00E94F9346091070970910809F6
:1013300088E697E00E94D7296BE074E088E697E0A2
:101340000E94F9346DE688E697E00E94A12F61E3E0
:1013500073E088E697E00E94F93460911A02709178
:101360001B0288E697E00E94D72969E276E088E6CA
:1013700097E00E94F9340E943B156093CA0670936F
:10138000CB068093CC069093CD0680904602909039
:101390004702A0904802B09049020E943418F82EEB
:1013A000811117C00E943B15C090CA06D090CB0691
:1013B000E090CC06F090CD06DC01CB018C199D09A4
:1013C000AE09BF0988169906AA06BB0630F7F12CAC
:1013D00027C069E874E085E098E00E94F93461EF85
:1013E00078E085E098E00E940A2167E974E0CE0188
:1013F00001960E944A2FBE016F5F7F4F81EF98E0F8
:101400000E94B2206C01CE0101960E943D2FCD209A
:10141000C094E9F26AE276E081EF98E00E94132F2F
:101420008F2D26960FB6F894DEBF0FBECDBFDF918D
:10143000CF91FF90EF90DF90CF90BF90AF909F90B3
:101440008F900895CF93DF931F92CDB7DEB7698356
:10145000DC01ED91FC910280F381E02D41E050E050
:10146000BE016F5F7F4F19950F90DF91CF91089567
:10147000FC01818D928D0895CF93DF931F92CDB79C
:10148000DEB76983DC01ED91FC910280F381E02DF0
:1014900041E050E0BE016F5F7F4F19950F90DF91E3
:1014A000CF910895FC019485FB018485981303C0B6
:1014B00081E0983008F080E00895CF93DF931F9289
:1014C000CDB7DEB76983DC01ED91FC910280F38139
:1014D000E02D41E050E0BE016F5F7F4F19950F9006
:1014E000DF91CF910895FC01768765870895DC012F
:1014F000ED91FC91068CF78DE02D199591E08927EF
:101500000895862F089581E08627089521E0FC0143
:101510008485883008F020E0822F0895FC018485BE
:1015200095850895FC018489958908952CEE32E013
:10153000FC0131832083FB014089518962897389D1
:10154000FC0142835383648375830895DC01ED912C
:10155000FC91048CF58DE02D199480E0089580E0D5
:1015600090E00895FC01808D883040F4218D328D0B
:10157000232B21F00E94D83090E008958FEF9FEF49
:101580000895CF93DF93FC012485283018F08FEF66
:101590009FEF0EC0EC010190F081E02D0084F185F9
:1015A000E02D1995892B99F38C850E94D83090E015
:1015B000DF91CF910895CF93DF93FC01218D328D80
:1015C0002115310519F48FEF9FEF11C0EC0142177F
:1015D000530708F0A901888D0E944E33181619068A
:1015E00094F7298D3A8D281B390B3A8F298FDF917B
:1015F000CF9108950F931F93CF93DF931F92CDB791
:10160000DEB7FC01218D328D232B61F08C0141E08E
:1016100050E0BE016F5F7F4F808D0E944E331816E1
:1016200019061CF08FEF9FEF08C0F801818D928D95
:101630000197928F818F898190E00F90DF91CF91F8
:101640001F910F910895CF93DF931F92CDB7DEB70F
:1016500041E050E0BE016F5F7F4FFC0184850E9436
:101660004E33181619061CF4898190E002C08FEFE2
:101670009FEF0F90DF91CF910895FC018485883012
:1016800010F40C944E3380E090E00895FC018485C2
:10169000883010F40C94053180E090E008950F93A9
:1016A0001F93CF93DF93CDB7DEB728970FB6F8948B
:1016B000DEBF0FBECDBF8C01D80159964D915C9114
:1016C0005A974115510551F0ED91FC91048CF58D1F
:1016D000E02D60E070E0C8011995EECFF801808D33
:1016E0000E940531892B51F148E050E0BE016F5F47
:1016F0007F4FD80158968C910E944E3318161906C8
:10170000FCF4D801509684E0FE01319601900D92D0
:101710008A95E1F78D8190E0982F88272E81820F9E
:10172000911DF801958B848B8F8190E0982F8827ED
:101730002885820F911D928F818F02C080E090E0FA
:1017400028960FB6F894DEBF0FBECDBFDF91CF91C4
:101750001F910F910895AF92BF92CF92DF92EF92B7
:10176000FF920F931F93CF93DF93CDB7DEB7AF9761
:101770000FB6F894DEBF0FBECDBF8C015B016A01CE
:10178000CE0101960E94082D8CEEE82E82E0F82E04
:10179000FBA6EAA61CA61DA61EA61FA68091A4084D
:1017A0009091A508A091A608B091A7088EA39FA329
:1017B000A8A7B9A78B839C83AD83BE8318861F829D
:1017C000AE01465D5F4FB501CE0101960E94AB2A86
:1017D00081309105B1F4D801ED91FC910488F5892F
:1017E000E02DFDA2ECA28CA59DA5AEA5BFA58EA364
:1017F0009FA3A8A7B9A7A601BE016C5D7F4FC80132
:101800001995AF960FB6F894DEBF0FBECDBFDF912E
:10181000CF911F910F91FF90EF90DF90CF90BF90ED
:10182000AF900895CF93DF93FC01808D883028F42A
:10183000EF010E94583188E0888FDF91CF910895A1
:101840000F931F93CF93DF93EC018B01888D88302A
:1018500010F40E945831B80182E00E943B34888F16
:10186000883030F41D870C871A8E198E81E001C0F4
:1018700080E0DF91CF911F910F9108950F931F93F7
:10188000CF93DF93FC018485883068F4C52FD42F73
:101890008F010E94DA32009749F421E030E0F8012C
:1018A0003383228305C080E090E002C08D2F9C2FFF
:1018B000DF91CF911F910F910895EF92FF920F93B7
:1018C0001F93CF93DF937C0180911A07833311F428
:1018D000D4E001C0D8E008E517E0C0E0F8012191AC
:1018E00031918F01F701848195812817390729F0FB
:1018F000CF5FDC13F3CF80E006C08C2F0E941F3433
:101900008431B1F781E0DF91CF911F910F91FF906A
:10191000EF900895CF93DF93EC018C858830C8F465
:101920000E941F34843181F0882371F0883161F086
:101930008C3161F4E881F9810084F185E02DCE01DC
:10194000199521E0892B19F420E001C021E0822FB4
:1019500001C080E0DF91CF910895CF92DF92EF92A6
:10196000FF920F931F93CF93DF93CDB7DEB7AF975F
:101970000FB6F894DEBF0FBECDBF8C016B017A01AC
:10198000CE0101960E94082D8CEE92E09BA78AA7BB
:101990001CA61DA61EA61FA6D8011C968C918830D9
:1019A00060F40E941F34882321F0F80184850E948E
:1019B0003B3188E0D8011C968C938091A4089091CB
:1019C000A508A091A608B091A7088EA39FA3A8A7D9
:1019D000B9A78B839C83AD83BE8318861F82AE011B
:1019E000465D5F4FB601CE0101960E94AB2A00977B
:1019F000C1F0D801ED91FC910684F785E02D8CEEC5
:101A000092E09DA38CA38CA59DA5AEA5BFA58EA39A
:101A10009FA3A8A7B9A7A701BE016C5D7F4FC8010E
:101A20001995AF960FB6F894DEBF0FBECDBFDF910C
:101A3000CF911F910F91FF90EF90DF90CF9008957D
:101A4000CF92DF92EF92FF92CF93DF93EC018C85E0
:101A5000883030F50E943B310E943B156B017C01C0
:101A60008C850E941F348823C9F061E070E080E01B
:101A700090E0C9D70E943B15AB01BC014C195D0930
:101A80006E097F098D859E85A0E0B0E04817590753
:101A90006A077B0728F38C850E94583188E08C8781
:101AA000DF91CF91FF90EF90DF90CF900895CF938B
:101AB000DF93EC018C85883060F40E941F348731FD
:101AC00011F08C3131F48C850E94AE328115984032
:101AD00088F3DF91CF910895FC018485883010F45C
:101AE0000C94AE3280E090E008959F92AF92BF9246
:101AF000CF92DF92EF92FF920F931F93CF93DF93DA
:101B0000EC016B0180911A07811111C01B821A82AE
:101B100088EE93E0A0E0B0E08C839D83AE83BF832A
:101B20008EE492E09983888388E08C8756C0833363
:101B300019F434E0932E02C028E0922E88E5E82EB6
:101B400087E0F82E10E098E0B92EA12CD7012D9156
:101B50003C91F6018481958128173907F9F4812F8A
:101B60000E941F34082F873111F08C3159F4812FD6
:101B70000E940531892B71F40C3181F4812F0E9470
:101B80003B310CC0843141F0811108C0D7011D9256
:101B90001C9204C0B12E02C0AA24A3941F5FB2E01D
:101BA000EB0EF11C9112D2CFA11008C0D601ED911D
:101BB000FC910084F185E02DC60119951B821A82E3
:101BC00088EE93E0A0E0B0E08C839D83AE83BF837A
:101BD0008EE492E099838883BC8688EE93E09E87AA
:101BE0008D87CE01DF91CF911F910F91FF90EF90E4
:101BF000DF90CF90BF90AF909F9008958F929F926B
:101C0000AF92BF92CF92DF92EF92FF920F931F930A
:101C1000CF93DF93CDB7DEB72F970FB6F894DEBF23
:101C20000FBECDBF20911A07222361F1233319F48F
:101C300034E0E32E02C028E0E22E8A015B016C0151
:101C4000BC01CE01019651DF88E5882E87E0982EF1
:101C5000F12CF401219131914F01F601848195819C
:101C60002817390751F48F2D0E941F34873129F42A
:101C7000A801B5018F2D0E94DA32F394EF10E9CF5D
:101C8000C80102C080E090E02F960FB6F894DEBF46
:101C90000FBECDBFDF91CF911F910F91FF90EF90BD
:101CA000DF90CF90BF90AF909F908F900895DA0112
:101CB00090911B07E92FF0E0FE2FEE27E60FF71FAC
:101CC00090E0982F8827A901BD018E0F9F1F0C94CB
:101CD000F91608958CBD9DBD08957F928F929F92B5
:101CE000AF92BF92CF92DF92EF92FF920F931F932A
:101CF000CF93DF931F921F92CDB7DEB77C014B01CC
:101D0000742EC52EFC01A688B788D08CCE01019612
:101D10000E94D52789819A81DDDF8D2D0E949B301D
:101D2000072D1C2D8017910708F48C019801A40140
:101D3000B5018D2D0E94C631F70186899789800FE4
:101D4000911F978B868BC8010F900F90DF91CF91D9
:101D50001F910F91FF90EF90DF90CF90BF90AF90C9
:101D60009F908F907F9008951F93CF93DF931F9242
:101D70001F92CDB7DEB7FC01108DCE0101960E94F7
:101D8000D52789819A81A6DF60E270E0812F0E94C9
:101D9000E91662E070E0812F0E948D3284FD17C049
:101DA00062E070E0812F0E948D3283FF08C048E11D
:101DB00062E070E0812F0E946F3280E00FC0CE01A0
:101DC00001960E94D52789819A8184DFE2CF40E184
:101DD00062E070E0812F0E946F3281E090E00F900E
:101DE0000F90DF91CF911F910895DF92EF92FF92B4
:101DF0000F931F93CF93DF931F921F92CDB7DEB740
:101E0000FB01DC0157961C921E92569722812111EC
:101E100009C02381211106C02481211103C025811D
:101E20002223F1F041155105D9F07A018F01FC010F
:101E3000D08CCE0101960E94D52789819A814ADFF4
:101E4000A8014E5F5F4F24E030E06CE070E08D2D24
:101E50000E94B431B7018D2D0E94453281E001C04E
:101E600080E090E00F900F90DF91CF911F910F9144
:101E7000FF90EF90DF900895EF92FF921F93CF9322
:101E8000DF931F921F92CDB7DEB77C01FC01648106
:101E9000758181E20E943B34182F8830F8F4CE011E
:101EA00001960E94D52789819A8114DF812F0E9493
:101EB000AB32833181F462E070E0812F8AD7F70181
:101EC00084819581E12FF0E0EE0FFF1FE85AF84F73
:101ED0009183808303C0812F0E943B310F900F902C
:101EE000DF91CF911F91FF90EF9008950F931F9373
:101EF000CF93DF931F921F92CDB7DEB7FC012485ED
:101F00002830C0F48C01CE0101960E94D52789812A
:101F10009A81E0DE22E030E0AE014F5F5F4F60E18A
:101F200070E0F8018485C3DE89819A81982789272A
:101F3000982702C080E090E00F900F90DF91CF9142
:101F40001F910F910895EF92FF920F931F93CF93DC
:101F5000DF9300D01F92CDB7DEB78C017B01FB0170
:101F60008485883050F08CEE92E0F8019183808374
:101F700012821382148215821EC0CE0101960E9425
:101F8000D52789819A81A6DE24E030E0AE014F5F3B
:101F90005F4F6CE070E0F701848589DE8CEE92E0A3
:101FA000F8019183808389819A81AB81BC8182838E
:101FB0009383A483B583C8010F900F900F900F9067
:101FC000DF91CF911F910F91FF90EF9008950F93A4
:101FD0001F93CF93DF931F921F92CDB7DEB7FC0103
:101FE00024852830C0F48C01CE0101960E94D527AB
:101FF00089819A816FDE22E030E0AE014F5F5F4F52
:1020000064E070E0F801848552DE89819A81982726
:102010008927982702C080E090E00F900F90DF9111
:10202000CF911F910F910895AF92BF92CF92DF92FF
:10203000EF92FF920F931F93CF93DF931F921F9204
:10204000CDB7DEB78C016B015A01FC018485883065
:1020500058F40E941F34882321F0F80184850E94DF
:102060003B3188E0F8018487F60182819381A48165
:10207000B5810097A105B10509F456C08F3F9F4F68
:10208000AF4FBF4F09F450C060E070E081E20E94A2
:102090003B34F82EF8018487F7E0F81708F444C0C1
:1020A000CE0101960E94D52789819A8113DEA6016F
:1020B0004E5F5F4F24E030E06CE070E08F2D0E94B7
:1020C000B431B5018F2D0E94453264E070E08F2D50
:1020D00080D6D1D46B017C01F80184850E941F3425
:1020E000873129F18C3119F18823F1F0C4D4AB0187
:1020F000BC014C195D096E097F09F801858596853B
:10210000A0E0B0E084179507A607B70730F061E0BC
:1021100070E080E090E077D4DFCFF80184850E9402
:10212000583188E0F801848780E090E002C081E0C7
:1021300090E00F900F90DF91CF911F910F91FF9042
:10214000EF90DF90CF90BF90AF9008958EBD0000CC
:102150000DB407FEFDCF8EB50895AF92BF92CF921A
:10216000DF92EF92FF920F931F93CF93DF936B0158
:1021700024E0C20ED11CEB0100E010E05C01A61AC5
:10218000B70A7501EC0EFD1EC7010E9474496991E2
:10219000861729F0C7010E9486490F5F1F4FCC1593
:1021A000DD0579F7C801DF91CF911F910F91FF9065
:1021B000EF90DF90CF90BF90AF900895FC01538DCA
:1021C000448D252F30E0842F90E0821B930B541711
:1021D00010F0CF96089501970895FC01918D828D9E
:1021E000981761F0828DDF01A80FB11D5D968C916B
:1021F000928D9F5F9F73928F90E008958FEF9FEF76
:102200000895FC01918D828D981731F0828DE80F31
:10221000F11D858D90E008958FEF9FEF0895FC01EB
:10222000918D228D892F90E0805C9F4F821B9109B8
:102230008F739927089588E697E0F1DF21E0892BD5
:1022400009F420E0822F089585E098E0E8DF21E09E
:10225000892B09F420E0822F0895FC01848DDF0191
:10226000A80FB11DA35ABF4F2C91848D90E0019609
:102270008F739927848FA689B7892C93A089B189F8
:102280008C91837080648C93938D848D981306C099
:102290000288F389E02D80818F7D80830895EF92FD
:1022A000FF920F931F93CF93DF93EC0181E0888F10
:1022B0009B8D8C8D981305C0E889F989808185FDF7
:1022C00025C0F62E0B8D10E00F5F1F4F0F731127E7
:1022D000E02E8C8DE8120BC00FB607FCFACFE88910
:1022E000F989808185FFF5CFCE01B7DFF2CF8B8DE5
:1022F000FE01E80FF11DE35AFF4FF0829FB7F894FB
:102300000B8FEA89FB89808180620AC09FB7F894AD
:10231000EE89FF896083E889F98980818370806410
:1023200080839FBF81E090E0DF91CF911F910F915B
:10233000FF90EF900895CF93DF93EC01888D882371
:10234000C1F0EA89FB89808185FD05C0A889B9892A
:102350008C9186FD0EC00FB607FCF5CF808185FFFE
:10236000F2CFA889B9898C9185FFEDCFCE0175DFB9
:10237000E8CFDF91CF91089580E090E0892B19F0AC
:1023800063DF811120C080E090E0892B41F080E084
:1023900090E0892B21F00E940000811117C080E09D
:1023A00090E0892B19F047DF811113C080E090E0A5
:1023B000892BA1F080E090E0892B81F00E94000041
:1023C00081110AC008950E940000DDCF0E94000024
:1023D000E6CF0E940000EACF0C940000089590E040
:1023E000FC013197E231F10508F04EC08827E5572E
:1023F000FF4F8F4F0C94F54A809180008F7703C078
:10240000809180008F7D809380000895809180006E
:10241000877FF9CF84B58F7702C084B58F7D84BD67
:1024200008958091B0008F7703C08091B0008F7DB8
:102430008093B0000895809190008F7707C08091BD
:1024400090008F7D03C080919000877F80939000E3
:1024500008958091A0008F7707C08091A0008F7DA4
:1024600003C08091A000877F8093A0000895809191
:1024700020018F7707C0809120018F7D03C080915C
:102480002001877F8093200108950895FC01208119
:102490002EBD9B012150310941F051810DB407FE41
:1024A000FDCF4EB55EBD4193F5CF61507109FC0182
:1024B000E60FF71F0DB407FEFDCF8EB5808308959C
:1024C0008F929F92AF92BF92CF92DF92EF92FF9244
:1024D0000F931F93CF93DF937C018B016C0182E0FC
:1024E000C80ED11C4701E5E08E0E911CC0E0D0E083
:1024F000F60141916F0150E060E070E02AE0C80110
:102500000E94BD2F5C016EE2C8010E94A12F8A0DBE
:102510009B1DC80FD91FC814D90451F7F701458175
:1025200050E060E070E02AE0C8010E94BD2F8C0FEF
:102530009D1FDF91CF911F910F91FF90EF90DF9042
:10254000CF90BF90AF909F908F9008950E94FE4CC7
:102550001F920F920FB60F9211240BB60F922F936A
:102560003F934F935F936F937F938F939F93AF931B
:10257000BF93EF93FF9388E697E06FDEFF91EF91B3
:10258000BF91AF919F918F917F916F915F914F918B
:102590003F912F910F900BBE0F900FBE0F901F9089
:1025A00018951F920F920FB60F9211240BB60F922F
:1025B0002F938F939F93EF93FF93E0917807F09180
:1025C00079078081E0917E07F0917F0782FD12C03C
:1025D0009081809181078F5F8F732091820782178E
:1025E00051F0E0918107F0E0E859F84F958F809322
:1025F000810701C08081FF91EF919F918F912F9171
:102600000F900BBE0F900FBE0F901F9018951F924A
:102610000F920FB60F9211240BB60F922F933F9388
:102620004F935F936F937F938F939F93AF93BF93DA
:10263000EF93FF9385E098E010DEFF91EF91BF915B
:10264000AF919F918F917F916F915F914F913F914A
:102650002F910F900BBE0F900FBE0F901F901895EB
:102660001F920F920FB60F9211240BB60F922F9359
:102670008F939F93EF93FF93E0911508F0911608C5
:102680008081E0911B08F0911C0882FD12C09081AE
:1026900080911E088F5F8F7320911F08821751F061
:1026A000E0911E08F0E0EB5FF74F958F80931E08D6
:1026B00001C08081FF91EF919F918F912F910F9099
:1026C0000BBE0F900FBE0F901F901895CF93DF9306
:1026D000282F30E0F901E858FE4F8491F901E350CA
:1026E000FE4FD491F901E25BFD4FC491CC2389F0F8
:1026F000811175DEEC2FF0E0EE0FFF1FE25AFE4F66
:10270000A591B491EC91ED2381E090E021F480E07B
:1027100002C080E090E0DF91CF9108951F93CF93A6
:10272000DF93282F30E0F901E858FE4F8491F9013A
:10273000E350FE4FD491F901E25BFD4FC491CC23ED
:10274000B9F0162F81114BDEEC2FF0E0EE0FFF1FDA
:10275000E753FE4FA591B4919FB7F894111104C0AF
:102760008C91D095D82302C0EC91DE2BDC939FBFD7
:10277000DF91CF911F910895CF93DF9390E0FC01FB
:10278000E350FE4F2491FC01E25BFD4F84918823CE
:1027900061F190E0880F991FFC01ED51FE4FC5914A
:1027A000D491FC01E753FE4FA591B491611109C08A
:1027B0009FB7F8948881209582238883EC912E23FB
:1027C0000BC0623061F49FB7F8948881322F309546
:1027D00083238883EC912E2B2C939FBF06C08FB749
:1027E000F894E8812E2B28838FBFDF91CF91089535
:1027F0001F93CF93DF93182FEB0161E0BDDF20978C
:1028000011F460E004C0CF3FD10531F461E0812FC5
:10281000DF91CF911F9182CFE12FF0E0E858FE4F7A
:10282000E4918E2F90E0FC013197E231F10508F040
:102830009DC08827E356FF4F8F4F0C94F54A84B50F
:10284000806884BDC7BD97C084B5806284BDC8BDA3
:1028500092C080918000806880938000D09389002E
:10286000C093880088C0809180008062809380003F
:10287000D0938B00C0938A007EC0809180008860D6
:1028800080938000D0938D00C0938C0074C08091A1
:10289000B00080688093B000C093B3006CC080919A
:1028A000B00080628093B000C093B40064C0809197
:1028B0009000806880939000D0939900C093980016
:1028C0005AC080919000806280939000D0939B00CA
:1028D000C0939A0050C080919000886080939000CF
:1028E000D0939D00C0939C0046C08091A00080685A
:1028F0008093A0008091A0008F7B8093A000D09354
:10290000A900C093A80037C08091A0008062809386
:10291000A000D093AB00C093AA002DC08091A0006E
:1029200088608093A000D093AD00C093AC0023C01A
:1029300080912001806880932001D0932901C09369
:10294000280119C080912001806280932001D093DA
:102950002B01C0932A010FC08091200188608093D1
:102960002001D0932D01C0932C0105C0C038D105A2
:102970000CF04CCF46CFDF91CF911F910895863355
:1029800008F0865390917B00282F2870977F922B18
:1029900090937B008770806480937C0080917A00A4
:1029A000806480937A0080917A0086FDFCCF8091CC
:1029B00078002091790090E0922B08953FB7F89429
:1029C0008091F9069091FA06A091FB06B091FC0661
:1029D00026B5A89B05C02F3F19F00196A11DB11D7A
:1029E0003FBFBA2FA92F982F8827820F911DA11DB5
:1029F000B11DBC01CD0142E0660F771F881F991FF2
:102A00004A95D1F708958F929F92AF92BF92CF923D
:102A1000DF92EF92FF926B017C01D0DF4B015C01F2
:102A2000C114D104E104F104E9F0C8DFDC01CB01F9
:102A300088199909AA09BB09883E9340A105B105E7
:102A400078F321E0C21AD108E108F10888EE880E77
:102A500083E0981EA11CB11CC114D104E104F1044F
:102A600021F7DECFFF90EF90DF90CF90BF90AF9037
:102A70009F908F9008952FB7F8946091F50670910C
:102A8000F6068091F7069091F8062FBF08951F92E1
:102A90000F920FB60F9211242F933F938F939F9312
:102AA000AF93BF938091F5069091F606A091F7063B
:102AB000B091F8063091F40623E0230F2D3720F46F
:102AC0000196A11DB11D05C026E8230F0296A11D88
:102AD000B11D2093F4068093F5069093F606A0931B
:102AE000F706B093F8068091F9069091FA06A09146
:102AF000FB06B091FC060196A11DB11D8093F9065D
:102B00009093FA06A093FB06B093FC06BF91AF9199
:102B10009F918F913F912F910F900FBE0F901F901B
:102B200018951F920F920FB60F9211240BB60F92A9
:102B30002F933F934F935F936F937F938F939F93C5
:102B4000AF93BF93EF93FF93E0910E02F0910F02CA
:102B50001995FF91EF91BF91AF919F918F917F91C7
:102B60006F915F914F913F912F910F900BBE0F90FE
:102B70000FBE0F901F9018951F920F920FB60F92D5
:102B800011240BB60F922F933F934F935F936F9344
:102B90007F938F939F93AF93BF93EF93FF93E091B6
:102BA0000C02F0910D021995FF91EF91BF91AF9139
:102BB0009F918F917F916F915F914F913F912F9155
:102BC0000F900BBE0F900FBE0F901F9018951F9285
:102BD0000F920FB60F9211240BB60F922F933F93C3
:102BE0004F935F936F937F938F939F93AF93BF9315
:102BF000EF93FF93E0910202F09103021995FF9188
:102C0000EF91BF91AF919F918F917F916F915F9164
:102C10004F913F912F910F900BBE0F900FBE0F90D1
:102C20001F9018951F920F920FB60F9211240BB69A
:102C30000F922F933F934F935F936F937F938F9355
:102C40009F93AF93BF93EF93FF93E0910002F091B6
:102C500001021995FF91EF91BF91AF919F918F91D3
:102C60007F916F915F914F913F912F910F900BBE8C
:102C70000F900FBE0F901F9018951F920F920FB6D6
:102C80000F9211240BB60F922F933F934F935F93A4
:102C90006F937F938F939F93AF93BF93EF93FF9324
:102CA000E0910A02F0910B021995FF91EF91BF910B
:102CB000AF919F918F917F916F915F914F913F91D4
:102CC0002F910F900BBE0F900FBE0F901F90189575
:102CD0001F920F920FB60F9211240BB60F922F93E3
:102CE0003F934F935F936F937F938F939F93AF9394
:102CF000BF93EF93FF93E0910802F09109021995B9
:102D0000FF91EF91BF91AF919F918F917F916F91C3
:102D10005F914F913F912F910F900BBE0F900FBE7F
:102D20000F901F9018951F920F920FB60F921124BB
:102D30000BB60F922F933F934F935F936F937F93B5
:102D40008F939F93AF93BF93EF93FF93E09106020E
:102D5000F09107021995FF91EF91BF91AF919F916B
:102D60008F917F916F915F914F913F912F910F9034
:102D70000BBE0F900FBE0F901F9018951F920F92D1
:102D80000FB60F9211240BB60F922F933F934F93D0
:102D90005F936F937F938F939F93AF93BF93EF93C3
:102DA000FF93E0910402F09105021995FF91EF91D4
:102DB000BF91AF919F918F917F916F915F914F9153
:102DC0003F912F910F900BBE0F900FBE0F901F9051
:102DD0001895CF93C82F462F61E070E00E946F32A4
:102DE00061E070E08C2F0E948D328111F9CFCF917C
:102DF0000895AF92BF92CF92DF92EF92FF920F931E
:102E00001F93CF93DF9300D01F92CDB7DEB78C0115
:102E10006B017A0180911A078333D1F45B01680159
:102E2000C40ED51E0C151D0509F45AC00E9453305E
:102E30008FE08CD9812F8AD9802F88D90F5F1F4FBF
:102E400080E084D9F50181935F010E944930EACF87
:102E50008433E1F40E94533019830A838F2D8F77D6
:102E60008B83EC8264E070E0CE0101960FDBA7015A
:102E700060E070E0C6010E940B4DE114F10419F00E
:102E8000B701C60103DB0E9449302AC00E945330BB
:102E90000F3F110509F020F419820A831B821DC01F
:102EA00017FD0BC019820A8333E0169507953A95F2
:102EB000E1F7007E08600B8310C0C80126E09695FC
:102EC00087952A95E1F719830A83807E0115104CB6
:102ED00010F4806101C088618B8363E070E0C4CF2F
:102EE000C7010F900F900F900F90DF91CF911F911E
:102EF0000F91FF90EF90DF90CF90BF90AF9008952B
:102F0000AF92BF92CF92DF92EF92FF920F931F93F7
:102F1000CF93DF93CDB7DEB728970FB6F894DEBF17
:102F20000FBECDBF8C017B016A0180911A078333EC
:102F3000C1F45801A40EB51E0A151B0509F482C080
:102F40000E94533080EF02D9812F00D9802FFED804
:102F50000F5F1F4FF70181917F01F8D80E94493020
:102F6000EBCF843309F50E94533019830A838D2DEA
:102F700080688B83CC8264E070E0CE01019686DAB3
:102F800087010C0D1D1DE016F10659F0F701819126
:102F90007F01DCD8F8CFB6016D5F7F4FCE0101967F
:102FA00075DA0E9449304EC00E9453300F3F110520
:102FB00009F020F419820A8384E01CC017FD0BC0BD
:102FC00019820A8333E0169507953A95E1F7007E5A
:102FD0000C600B8310C0C80126E0969587952A9552
:102FE000E1F719830A83807E0115104C10F4846187
:102FF00001C08C618B8326E0C216D10498F420E0D6
:10300000822F90E08C159D0530F6E4E0F0E0EC0FA7
:10301000FD1FE80FF91FD701A80FB91F8C918083FE
:103020002F5FEECF63E070E0CE0101962FDA8701CB
:103030000C0D1D1DF70181917F0188D8E016F10666
:10304000C9F7AFCFC60128960FB6F894DEBF0FBE02
:10305000CDBFDF91CF911F910F91FF90EF90DF9047
:10306000CF90BF90AF9008951F93CF93DF931F929F
:103070001F92CDB7DEB788E697E0D1D818161906AB
:103080000CF588E697E0A9D8182F8093FD068A30C2
:1030900041F460EA74E085E098E00E94F93481E050
:1030A00012C089831A8241E050E0BE016F5F7F4FFA
:1030B00081EF98E00E94512E612F85E098E00E94F8
:1030C000A12FD9CF80E00F900F90DF91CF911F916A
:1030D0000895CF92DF92EF92FF920F931F93CF93B9
:1030E000DF9300D000D0CDB7DEB765EA74E088E6A4
:1030F00097E00E94F93460EB74E088E697E00E9464
:10310000F93461E373E088E697E00E94F9346BEEEE
:1031100078E088E697E00E940A216BE074E088E698
:1031200097E00E94F93463EB74E088E697E00E9430
:10313000F93461E373E088E697E00E94F93465EEC4
:1031400078E088E697E00E940A216BE074E088E668
:1031500097E00E94F93466EB74E088E697E00E94FD
:10316000F93461E373E088E697E00E94F9346091F6
:10317000FE0670E088E697E00E94D7296BE074E0D5
:1031800088E697E00E94F93469EB74E088E697E0FE
:103190000E94F93461E373E088E697E00E94F93415
:1031A000609157097091580988E697E00E94D729E5
:1031B0006BE074E088E697E00E94F9346CEB74E011
:1031C00088E697E00E94F93461E373E088E697E0CF
:1031D0000E94F93460912E0970912F0988E697E0DA
:1031E0000E94D7296BE074E088E697E00E94F934EA
:1031F0006FEB74E088E697E00E94F93461E373E0D6
:1032000088E697E00E94F93460917B0970917C090F
:1032100088E697E00E94D7296BE074E088E697E0A3
:103220000E94F93462EC74E088E697E00E94F93479
:1032300061E373E088E697E00E94F93460917D09CC
:1032400070917E0988E697E00E94D7296BE074E0D0
:1032500088E697E00E94F93465EC74E088E697E030
:103260000E94F93461E373E088E697E00E94F93444
:10327000609105097091060988E697E00E94D729B8
:103280006BE074E088E697E00E94F93468EC74E043
:1032900088E697E00E94F93461E373E088E697E0FE
:1032A0000E94F93460910E0970910F0988E697E049
:1032B0000E94D7296BE074E088E697E00E94F93419
:1032C0006BEC74E088E697E00E94F93461E373E008
:1032D00088E697E00E94F934609160097091610975
:1032E00088E697E00E94D7296BE074E088E697E0D3
:1032F0000E94F9346EEC74E088E697E00E94F9349D
:1033000061E373E088E697E00E94F9346091370941
:103310007091380988E697E00E94D7296BE074E045
:1033200088E697E00E94F93461ED74E088E697E062
:103330000E94F93461E373E088E697E00E94F93473
:103340006091150270E088E697E00E94D72969E253
:1033500076E088E697E00E94F93469E276E085E05D
:1033600098E00E94F93487DB6093CA067093CB061D
:103370008093CC069093CD067EDB6093CA06709353
:10338000CB068093CC069093CD06C0904602D09099
:103390004702E0904802F090490266DE182F811142
:1033A00016C069DB0091CA061091CB062091CC06AD
:1033B0003091CD06DC01CB01801B910BA20BB30B2E
:1033C000C816D906EA06FB0640F710E025C069E8F2
:1033D00074E085E098E00E94F93461EF78E085E0E0
:1033E00098E018D764ED74E0CE0101960E944A2F50
:1033F000BE016F5F7F4F81EF98E0B4D67C01CE01B4
:1034000001960E943D2FEF20E094F9F26AE276E007
:1034100081EF98E00E94132F812F26960FB6F89423
:10342000DEBF0FBECDBFDF91CF911F910F91FF90F7
:10343000EF90DF90CF900895CF92DF92EF92FF92BE
:103440000F931F93CF93DF93CDB7DEB7A4970FB63B
:10345000F894DEBF0FBECDBF6BED74E085E098E061
:103460000E94F93481EF98E008D740E050E06AE329
:1034700081EF98E00E94162E8C019C0140E050E004
:1034800061EF78E0CE014F960E945E2F6BE275E00F
:10349000CE014F960E94322E8823F1F00E94C70180
:1034A00066E575E0CE0101960E944A2FBE016F5F6E
:1034B0007F4F81EF98E056D67C01CE0101960E94A5
:1034C0003D2FEF20E09411F40E94C7016AE276E0FC
:1034D00081EF98E00E94132F69EE74E0CE014F96C1
:1034E0000E94322E882361F087E090E09093E506F9
:1034F0008093E4066AE276E081EF98E00E94132F61
:1035000067EF74E0CE014F960E94322E882309F4B3
:10351000F2C080ED97E0A0E0B0E080932E0290939F
:103520002F02A0933002B093310280E797E1A0E030
:10353000B0E08093260290932702A0932802B093D4
:10354000290288EE93E0A0E0B0E080931E02909301
:103550001F02A0932002B093210280EA9FE0A0E026
:10356000B0E080932A0290932B02A0932C02B09398
:103570002D0280EC97E2A9E0B0E0809322029093C4
:103580002302A0932402B093250284EF91E090934C
:1035900031098093300984E190E090935A09809337
:1035A000590980E991E0909333098093320980E1D1
:1035B00090E090935C0980935B0988EC90E0909395
:1035C00008098093070980EA90E090930A098093A4
:1035D000090960913E0270913F0268537A44CE011E
:1035E00001961FD662E075E0CE0107960E944A2F31
:1035F0004D815E8169817A81CE0107960E94512EAC
:10360000811104C0CE0107960E94E22EBE01695FBF
:103610007F4F8BEE98E00E94282FCE0107960E94E4
:103620003D2FCE0101960E943D2F6DE075E085EEA5
:1036300098E00E94132F81E08093FE0623E030E0A3
:10364000309358092093570923E630E030932F092F
:1036500020932E092AE530E030937C0920937B09E2
:103660002CE330E030937E0920937D0924E130E0A3
:10367000309306092093050925E030E030930F09C7
:1036800020930E09EE24E394F12CF0926109E0926C
:1036900060092AE030E0309338092093370980939D
:1036A000150282ED94E090931B0280931A020AD6D1
:1036B0000E943E0864E170E080E090E0A4D96AE2F4
:1036C00076E081EF98E00E94132F03DD64E170E063
:1036D00080E090E098D96AE276E081EF98E00E947D
:1036E000132FF092E506E092E4066AE276E081EFBD
:1036F00098E00E94132F6DE375E0CE014F960E9473
:10370000322E811139C469E175E0CE014F960E94D5
:10371000322E811131C466E375E0CE014F960E94CE
:10372000322E811129C46FE475E0CE014F960E94BC
:10373000322E811121C46EE575E0CE014F960E94B4
:10374000322E882309F4ECC140E050E06AE081EFBA
:1037500098E00E94162E9C01A8014F5F5F4F61EF19
:1037600078E0CE0101960E945E2F6AE675E085E062
:1037700098E00E94F934CE0101967FD5E0902E02A8
:10378000F0902F02BE016F5F7F4FCE0107960E941F
:10379000422FA701BE01695F7F4F81E60E94772417
:1037A00028EEE22E23E0F22E9C012E9DC0012F9DDB
:1037B000900D3E9D900D1124092E000CAA0BBB0B01
:1037C00080932E0290932F02A0933002B093310287
:1037D000CE0107960E943D2FC0902602D09027026E
:1037E000BE016F5F7F4FCE0107960E94422FA60158
:1037F000BE01695F7F4F82E60E9477249C012E9D67
:10380000C0012F9D900D3E9D900D1124092E000C9E
:10381000AA0BBB0B8093260290932702A093280249
:10382000B0932902CE0107960E943D2FC0901E0240
:10383000D0901F02BE016F5F7F4FCE0107960E949E
:10384000422FA601BE01695F7F4F83E60E94772465
:103850009C012E9DC0012F9D900D3E9D900D112429
:10386000092E000CAA0BBB0B80931E0290931F0223
:10387000A0932002B0932102CE0107960E943D2F13
:10388000C0902A02D0902B02BE016F5F7F4FCE0105
:1038900007960E94422FA601BE01695F7F4F84E612
:1038A0000E9477249C012E9DC0012F9D900D3E9D6E
:1038B000900D1124092E000CAA0BBB0B80932A0239
:1038C00090932B02A0932C02B0932D02CE01079669
:1038D0000E943D2FC0902202D0902302BE016F5F54
:1038E0007F4FCE0107960E94422FA601BE01695F5D
:1038F0007F4F85E6FCD79C012E9DC0012F9D900D2A
:103900003E9D900D1124092E000CAA0BBB0B809339
:10391000220290932302A0932402B0932502CE01A9
:1039200007960E943D2FE0903009F0903109BE01CA
:103930006F5F7F4FCE0107960E94422FA701BE0105
:10394000695F7F4F86E6D3D7909331098093300922
:10395000CE0107960E943D2FE0905909F0905A0938
:10396000BE016F5F7F4FCE010D960E94422F6DE129
:1039700074E0CE0107960E944A2FA701BE01635F43
:103980007F4FCE010796FDD790935A09809359092E
:10399000CE0107960E943D2FCE010D960E943D2F2D
:1039A000E0903209F0903309BE016F5F7F4FCE0186
:1039B00007960E94422FA701BE01695F7F4F88E6EC
:1039C00096D79093330980933209CE0107960E94CF
:1039D0003D2FE0905B09F0905C09BE016F5F7F4F67
:1039E000CE0107960E94422FA701BE01695F7F4F5B
:1039F00089E67DD790935C0980935B09CE01079699
:103A00000E943D2FE0900709F0900809BE016F5F0A
:103A10007F4FCE0107960E94422FA701BE01695F2A
:103A20007F4F8AE664D79093080980930709CE01F7
:103A300007960E943D2F63E775E085E098E00E94BD
:103A4000F9348091090990910A0929D4E090090973
:103A5000F0900A09BE016F5F7F4FCE0107960E946A
:103A6000422FA701BE01695F7F4F8BE640D790933D
:103A70000A0980930909CE0107960E943D2F6FE83D
:103A800075E085E098E00E94F934809109099091F1
:103A90000A0905D4E0901A02F0901B02BE016F5F84
:103AA0007F4FCE0107960E94422FA701BE01695F9A
:103AB0007F4F8DE61CD790931B0280931A02CE0194
:103AC00007960E943D2FFED36AE276E081EF98E0F0
:103AD0000E94132F6AEA75E088E697E00E94F934A5
:103AE0006AEA75E085E098E00E94F93464EB75E0DD
:103AF00085E098E00E94F9348091590990915A0923
:103B0000CED36DEC75E085E098E00E94F9348091A9
:103B1000300990913109C3D3CE0101960E943D2F07
:103B200067EE75E0CE014F960E94322E882309F48D
:103B30000AC240E050E06AE081EF98E00E94162E51
:103B4000A8014F5F5F4F9C0161EF78E0CE010196C5
:103B50000E945E2F61EF75E085E098E00E94F934E5
:103B60008BEE98E08AD36BEE78E0CE0143960E940C
:103B7000422FBE016F5F7F4FCE010D960E94422FF4
:103B800060EB74E0CE0107960E944A2F9E012D5EE5
:103B90003F4FAE01435F5F4FBE01695F7F4FCE0174
:103BA0004996FAD2BE01675E7F4F8BEE98E00E9485
:103BB000A82ECE0149960E943D2FCE0107960E9465
:103BC0003D2FCE010D960E943D2FCE0143960E94BF
:103BD0003D2F63E076E085E098E00E94F9348BEEBB
:103BE00098E04BD365EE78E0CE0143960E94422FD9
:103BF000BE016F5F7F4FCE010D960E94422F63EB97
:103C000074E0CE0107960E944A2F9E012D5E3F4F21
:103C1000AE01435F5F4FBE01695F7F4FCE014996A2
:103C2000BBD2BE01675E7F4F85EE98E00E94A82E52
:103C3000CE0149960E943D2FCE0107960E943D2F4E
:103C4000CE010D960E943D2FCE0143960E943D2F3E
:103C50000091FE0610E0BE016F5F7F4FCE010D9612
:103C60000E94422F66EB74E0CE0107960E944A2F15
:103C7000A801BE01635F7F4FCE01079682D621E087
:103C8000892B09F420E02093FE06CE0107960E94BE
:103C90003D2FCE010D960E943D2F009157091091A6
:103CA0005809BE016F5F7F4FCE010D960E94422FD3
:103CB00069EB74E0CE0107960E944A2FA801BE016D
:103CC000635F7F4FCE0107965CD69093580980932F
:103CD0005709CE0107960E943D2FCE010D960E94F6
:103CE0003D2F00912E0910912F09BE016F5F7F4F6C
:103CF000CE010D960E94422F6CEB74E0CE01079628
:103D00000E944A2FA801BE01635F7F4FCE01079634
:103D100038D690932F0980932E09CE0107960E94E2
:103D20003D2FCE010D960E943D2F00917B091091F1
:103D30007C09BE016F5F7F4FCE010D960E94422F1E
:103D40006FEB74E0CE0107960E944A2FA801BE01D6
:103D5000635F7F4FCE01079614D690937C098093C2
:103D60007B09CE0107960E943D2FCE010D960E9441
:103D70003D2F00917D0910917E09BE016F5F7F4F3D
:103D8000CE010D960E94422F62EC74E0CE010796A0
:103D90000E944A2FA801BE01635F7F4FCE010796A4
:103DA000F0D590937E0980937D09CE0107960E94FD
:103DB0003D2FCE010D960E943D2F009105091091D7
:103DC0000609BE016F5F7F4FCE010D960E94422F04
:103DD00065EC74E0CE0107960E944A2FA801BE014F
:103DE000635F7F4FCE010796CCD5909306098093F1
:103DF0000509CE0107960E943D2FCE010D960E9427
:103E00003D2F00910E0910910F09BE016F5F7F4F8A
:103E1000CE010D960E94422F68EC74E0CE01079609
:103E20000E944A2FA801BE01635F7F4FCE01079613
:103E3000A8D590930F0980930E09CE0107960E9492
:103E40003D2FCE010D960E943D2F009160091091EB
:103E50006109BE016F5F7F4FCE010D960E94422F18
:103E60006BEC74E0CE0107960E944A2FA801BE01B8
:103E7000635F7F4FCE01079684D59093610980934D
:103E80006009CE0107960E943D2FCE010D960E943B
:103E90003D2F0091370910913809BE016F5F7F4FA8
:103EA000CE010D960E94422F6EEC74E0CE01079673
:103EB0000E944A2FA801BE01635F7F4FCE01079683
:103EC00060D59093380980933709CE0107960E94F8
:103ED0003D2FCE010D960E943D2F0091150210E05E
:103EE000BE016F5F7F4FCE010D960E94422F61EDA4
:103EF00074E0CE0107960E944A2FA801BE01635FBD
:103F00007F4FCE0107963DD521E0892B09F420E0B3
:103F100020931502CE0107960E943D2FCE010D96EB
:103F20000E943D2FCFD16AE276E081EF98E00E94B7
:103F3000132F64E176E088E697E00E94F934CE0121
:103F400001960E943D2F6AE276E081EF98E00E94A0
:103F5000132FCE014F960E943D2FA4960FB6F894D2
:103F6000DEBF0FBECDBFDF91CF911F910F91FF90AC
:103F7000EF90DF90CF9008956AE276E081EF98E0CD
:103F80000E94132FD8CB0F931F93CF93DF93182F3B
:103F9000062FC0EBD8E08C819D810E94954B82E07A
:103FA0008E8382E090E00E94FD4AFC019D838C8319
:103FB00010581083018383E08F83DF91CF911F918D
:103FC0000F9108954F925F926F927F928F929F927E
:103FD000AF92BF92CF92DF92EF92FF92CF936B019D
:103FE0007C019B01AC010E94CD4A882319F06CE151
:103FF00076E027C046015701E894B7F82FEF3FEF6E
:104000004FE75FE7C501B4010E94CD4A81110DC0A1
:104010002FEF3FEF4FE75FE7C501B4010E944B4828
:1040200018161CF460E276E00CC02FEF3FEF4FE76C
:104030005FE4C701B6010E94874A18169CF464E247
:1040400076E088E697E0CF91FF90EF90DF90CF90F9
:10405000BF90AF909F908F907F906F905F904F90A8
:104060000C94A82F2FEF3FEF4FE75FECC701B6018D
:104070000E944B4887FDE3CF20E030E0A901C70153
:10408000B6010E944B4887FF0BC06DE288E697E0BF
:104090000E94A12F5C01F7FAF094F7F8F09402C0A7
:1040A000A12CB12C2AE037ED43EA5BE3C701B6014E
:1040B0000E94F2492B013C010E945B4A6B017C018A
:1040C0000E944F489B01AC01C301B2010E94F1491B
:1040D0002B013C012AE0B701A60188E697E00E9487
:1040E000BD2F7C01EA0CFB1C6EE288E697E00E9483
:1040F000A12FE80EF91EC3E0C15029F120E030E005
:1041000040E251E4C301B2010E94B0482B013C01DE
:104110000E945B4A4B01A12CB12C2AE0B501A401FD
:1041200088E697E00E94BD2FE80EF91EC501B40194
:104130000E944F489B01AC01C301B2010E94F149AA
:104140002B013C01D9CFC701CF91FF90EF90DF90B9
:10415000CF90BF90AF909F908F907F906F905F9027
:104160004F900895CF93DF93FC0124813581232B59
:1041700071F0FB01DC01CD91DC9160817181CE0198
:104180000E942D4D009719F08C1B9D0B02C08FEFE4
:104190009FEFDF91CF910895CF92DF92EF92FF9240
:1041A0000F931F93CF93DF93EC018A016901CA013A
:1041B000D9DF97FD1BC0AC016DE3C8010E94162E2C
:1041C00001967C01181619068CF4AC0166E2C80150
:1041D0000E94162E97FF03C0F801848195819C01EF
:1041E000A701B801CE010E945E2F0AC01982188271
:1041F0001B821A821D821C82B601CE010E94A82E4B
:10420000CE01DF91CF911F910F91FF90EF90DF9042
:10421000CF900895FB0144815581608171810C9498
:104220005A2A0F931F93CF93DF93CDB7DEB76197D1
:104230000FB6F894DEBF0FBECDBF8C01CB01F801E5
:104240001182108213821282158214824AE0BE010A
:104250006F5F7F4F0E942248BE016F5F7F4FC80192
:104260000E94132F61960FB6F894DEBF0FBECDBF2C
:10427000DF91CF911F910F910895CF93DF93BC01F0
:1042800085E098E0C7DFEC0168E276E085E098E041
:104290000E94A82F8C0F9D1FDF91CF910895CF937F
:1042A000DF93BC0185E098E00E94D729EC0168E229
:1042B00076E085E098E00E94A82F8C0F9D1FDF918B
:1042C000CF9108956F927F928F929F92AF92BF92FB
:1042D000CF92DF92EF92FF920F931F93CF93DF93D2
:1042E000CDB7DEB7E6970FB6F894DEBF0FBECDBFF1
:1042F000609157097091580984E090E00E940F2A5C
:104300006091590970915A0986E090E00E940F2A45
:1043100060915B0970915C0988E090E00E940F2A2F
:1043200060916009709161098AE090E00E940F2A13
:1043300060915E0970915F098CE090E00E940F2A05
:1043400060912E0970912F098EE090E00E940F2A53
:10435000609130097091310980E190E00E940F2A4C
:10436000609132097091330982E190E00E940F2A36
:10437000609137097091380984E190E00E940F2A1A
:10438000609135097091360986E190E00E940F2A0C
:10439000609105097091060988E190E00E940F2A5A
:1043A00060910709709108098AE190E00E940F2A44
:1043B0006091090970910A098CE190E00E940F2A2E
:1043C00060910E0970910F098EE190E00E940F2A12
:1043D00060910C0970910D0980E290E00E940F2A13
:1043E0008091720990917309A0917409B091750937
:1043F0008F839887A987BA87BE01695F7F4F82E262
:1044000090E00E94AD108091760990917709A0917B
:104410007809B09179098B879C87AD87BE87BE01EB
:10442000655F7F4F86E290E00E94AD1060917D094C
:1044300070917E098AE290E0F2D760917B097091D9
:104440007C098CE290E0EBD780912E0290912F02B4
:10445000A0913002B09131028F87988BA98BBA8BD3
:10446000BE01615F7F4F8EE290E00E94AD108091AF
:104470002A0290912B02A0912C02B0912D028B8BDD
:104480009C8BAD8BBE8BBE016D5E7F4F82E390E057
:104490000E94AD108091260290912702A0912802DF
:1044A000B09129028F8B988FA98FBA8FBE01695E58
:1044B0007F4F86E390E00E94AD10809122029091A0
:1044C0002302A0912402B09125028B8F9C8FAD8F87
:1044D000BE8FBE01655E7F4F8AE390E00E94AD1003
:1044E00080911E0290911F02A0912002B0912102A2
:1044F0008F8F98A3A9A3BAA3BE01615E7F4F8EE3FD
:1045000090E00E94AD108091130790911407A09144
:104510001507B09116078BA39CA3ADA3BEA3BE0144
:104520006D5D7F4F82E490E00E94AD1080910F0797
:1045300090911007A0911107B09112078FA398A72F
:10454000A9A7BAA7BE01695D7F4F86E490E00E94EB
:10455000AD1080910B0790910C07A0910D07B091C1
:104560000E078BA79CA7ADA7BEA7BE01655D7F4FB9
:104570008AE490E00E94AD108091070790910807AF
:10458000A0910907B0910A078FA798ABA9ABBAAB66
:10459000BE01615D7F4F8EE490E00E94AD1080917E
:1045A000030790910407A0910507B09106078BAB14
:1045B0009CABADABBEABBE016D5C7F4F82E590E0C6
:1045C0000E94AD1060911C0270911D0286E590E082
:1045D00026D760911A0270911B0288E590E01FD7E0
:1045E00040E050E06EE28BEE98E00E94162E4C0107
:1045F0006C018FEFC81AD80AA6016EE28BEE98E024
:104600000E94162E5C018C010F5F1F4FA8016EE205
:104610008BEE98E00E94162E7C01940140E050E061
:104620006BEE78E0CE0101960E945E2FCE010196DE
:104630000E940B2E60933402CE0101960E943D2F02
:104640009501A6016BEE78E0CE0101960E945E2FE7
:10465000CE0101960E940B2E60933502CE01019689
:104660000E943D2F9701A8016BEE78E0CE010196E4
:104670000E945E2FCE0101960E940B2E609336029F
:10468000CE0101960E943D2F3701EFEF6E1A7E0A90
:104690002091EF083091F008A3016BEE78E0CE0195
:1046A00001960E945E2FCE0101960E940B2E609310
:1046B0003702CE0101960E943D2F940140E050E068
:1046C0006BEE78E0CE0101960E945E2FCE0101963E
:1046D0000E943D2F9501A6016BEE78E0CE01019678
:1046E0000E945E2FCE0101960E943D2F9701A801E6
:1046F0006BEE78E0CE0101960E945E2FCE0101960E
:104700000E943D2F2091EF083091F008A3016BEE3D
:1047100078E0CE0101960E945E2FCE0101960E94A4
:104720003D2F40E050E06EE285EE98E00E94162EAC
:104730004C016C01FFEFCF1ADF0AA6016EE285EE95
:1047400098E00E94162E5C018C010F5F1F4FA8019C
:104750006EE285EE98E00E94162E7C01940140E006
:1047600050E065EE78E0CE0101960E945E2FCE010A
:1047700001960E940B2E60931602CE0101960E94B4
:104780003D2F9501A60165EE78E0CE0101960E94CD
:104790005E2FCE0101960E940B2E60931702CE0170
:1047A00001960E943D2F9701A80165EE78E0CE01A9
:1047B00001960E945E2FCE0101960E940B2E6093FF
:1047C0001802CE0101960E943D2F37018FEF681A23
:1047D000780A2091E9083091EA08A30165EE78E0B3
:1047E000CE0101960E945E2FCE0101960E940B2EF3
:1047F00060931902CE0101960E943D2F940140E082
:1048000050E065EE78E0CE0101960E945E2FCE0169
:1048100001960E943D2F9501A60165EE78E0CE013C
:1048200001960E945E2FCE0101960E943D2F9701B6
:10483000A80165EE78E0CE0101960E945E2FCE01C0
:1048400001960E943D2F2091E9083091EA08A301CA
:1048500065EE78E0CE0101960E945E2FCE010196B2
:104860000E943D2F84E3A82E82E0B82E9FEFC92E30
:1048700096E0D92E26E1E22E22E0F22E0AE510E0A3
:10488000F50161915F01C80100D6F60161916F01E8
:10489000C8010196FAD5F70161917F01C80102961E
:1048A000F4D50D5F1F4F0636110551F760911502C3
:1048B00070E086E690E0B3D56091FE0670E088E691
:1048C00090E0ADD5E6960FB6F894DEBF0FBECDBF33
:1048D000DF91CF911F910F91FF90EF90DF90CF90DC
:1048E000BF90AF909F908F907F906F900895CF92E0
:1048F000DF92EF92FF920F931F93CF93DF9300D03D
:1049000000D0CDB7DEB77B018A0140E050E0682FD0
:10491000C7010E94162E97FD24C0AC016DE3C701AC
:104920000E94162E01966C0118161906D4F4AC01DB
:1049300066E2C7010E94162E97FF03C0F70184812B
:1049400095819C01A601B701CE0101960E945E2FC0
:10495000CE0101960E940B2E8B01CE0101960E9482
:104960003D2FC80126960FB6F894DEBF0FBECDBF0F
:10497000DF91CF911F910F91FF90EF90DF90CF903B
:104980000895CF92DF92EF92FF920F931F93CF93F0
:10499000DF9300D000D0CDB7DEB77B018A01BC0128
:1049A000C701E0DB97FD24C0AC016DE3C7010E94A5
:1049B000162E01966C0118161906D4F4AC0166E2A5
:1049C000C7010E94162E97FF03C0F70184819581CD
:1049D0009C01A601B701CE0101960E945E2FCE0177
:1049E00001960E940B2E8B01CE0101960E943D2F55
:1049F000C80126960FB6F894DEBF0FBECDBFDF917B
:104A0000CF911F910F91FF90EF90DF90CF9008957D
:104A10003F924F925F926F927F928F929F92AF924E
:104A2000BF92CF92DF92EF92FF920F931F93CF939B
:104A3000DF9300D000D0CDB7DEB78C016A017B01D7
:104A400061E082E00E948E134090760950907709D1
:104A50006090780970907909C414D504E604F704CD
:104A600010F42601370120917F0930918009200F31
:104A7000311F3E832D836BE276E085E098E00E9453
:104A8000F934609172097091730980917409909161
:104A900075090E94C9358091720990917309A0919E
:104AA0007409B0917509481659066A067B0608F024
:104AB00064C089E396E00E94B83560E08091830984
:104AC0000E948E13812C912C5401332433948D81B8
:104AD0009E81092E000CAA0BBB0B89839A83AB83A2
:104AE000BC830E94DE146B017C0183E40E94661388
:104AF000892B09F4BCC0D701C60188199909AA09F4
:104B0000BB0929813A814B815C81281739074A0703
:104B10005B0738F74D815E810417150724F4415077
:104B200051095E834D8360917A09632560937A0908
:104B3000809185090E948E1380917A09811103C0AA
:104B400046015701C4CF8091720990917309A091D9
:104B50007409B09175090197A109B109809372098F
:104B600090937309A0937409B09375098415950502
:104B7000A605B70509F46BC0E3CF84E496E00E9474
:104B8000B83561E0809183090E948E13812C912CAD
:104B90005401332433948D819E81092E000CAA0B7D
:104BA000BB0B89839A83AB83BC830E94DE146B01A9
:104BB0007C018AE00E946613892B29F481E596E046
:104BC0000E94B83554C0D701C60188199909AA09AD
:104BD000BB0929813A814B815C81281739074A0733
:104BE0005B0718F74D815E810417150724F44150C7
:104BF00051095E834D8360917A09632560937A0938
:104C0000809185090E948E1380917A09811103C0D9
:104C100046015701C0CF8091720990917309A0910C
:104C20007409B09175090196A11DB11D8093720997
:104C300090937309A0937409B09375098415950531
:104C4000A605B70529F786E596E00E94B83581E00C
:104C500040917209509173096091740970917509BE
:104C6000441555056605770519F080E001C081E01F
:104C700026960FB6F894DEBF0FBECDBFDF91CF9161
:104C80001F910F91FF90EF90DF90CF90BF90AF906A
:104C90009F908F907F906F905F904F903F9008957E
:104CA0002F923F924F925F926F927F928F929F923C
:104CB000AF92BF92CF92DF92EF92FF920F931F932A
:104CC000CF93DF938C01362E61E082E00E948E1339
:104CD00082E696E00E94B835C0917F09D0918009A4
:104CE000C00FD11F60E0809183090E948E1361E0A4
:104CF000809181090E948E13412C512C3201222473
:104D000023944E010D2E000CAA08BB080E94DE144D
:104D10006B017C0183E40E946613892B31F489E6E0
:104D200096E00E94B83581E043C080911D07811153
:104D300002C031103DC0D701C60184199509A609EA
:104D4000B70988169906AA06BB0600F70C171D07B7
:104D50000CF4219760917A09622560937A09809119
:104D600085090E948E1380917A09811103C0260162
:104D70003701C7CF8091720990917309A09174098E
:104D8000B09175090197A109B109809372099093B7
:104D90007309A0937409B0937509892B8A2B8B2B07
:104DA00031F78EE696E00E94B83510921C0780E03D
:104DB000DF91CF911F910F91FF90EF90DF90CF90F7
:104DC000BF90AF909F908F907F906F905F904F902B
:104DD0003F902F9008952F923F924F925F926F9243
:104DE0007F928F929F92AF92BF92CF92DF92EF927B
:104DF000FF920F931F93CF93DF938C01262E61E0D8
:104E000082E00E948E138AE796E00E94B8351092E5
:104E10001C07C0917F09D0918009C00FD11F61E0AC
:104E2000809183090E948E1361E0809181090E9424
:104E30008E1310921C07812C912C54012E010D2EE3
:104E4000000C6608770830901C0731101EC00E94C5
:104E5000DE146B017C018AE00E946613892BC9F085
:104E600080911D078823C1F02220B1F04091720982
:104E70005091730960917409709175094C505E4F9F
:104E80006F4F7F4FC801C4DD4FC010921C07312CFB
:104E90004BC03324339448C0D701C60188199909FF
:104EA000AA09BB09481659066A067B0660F60C1764
:104EB0001D070CF4219760917A0981E068276093BF
:104EC0007A09809185090E948E1380917A09811157
:104ED00003C046015701B2CF8091720990917309C6
:104EE000A0917409B09175090196A11DB11D80931F
:104EF000720990937309A0937409B0937509409156
:104F00007609509177096091780970917909841731
:104F10009507A607B707E9F681E080931C0784E8A8
:104F200096E00E94B835D5CF832DDF91CF911F91A8
:104F30000F91FF90EF90DF90CF90BF90AF909F9038
:104F40008F907F906F905F904F903F902F9008953B
:104F50000F931F93CF93DF938C01EB0186E090E0DA
:104F60000E94FD4AFC0111830083D383C283158212
:104F700014828091B0089091B108892B29F4F093A4
:104F8000B108E093B00808C0A091B208B091B3088E
:104F90001596FC93EE931497F093B308E093B20840
:104FA000DF91CF911F910F91089520E5FC0120839F
:104FB00021E021830895CF92DF92EF92FF921F9319
:104FC000CF93DF93CDB7DEB76C970FB6F894DEBF03
:104FD0000FBECDBFFA012CEE32E03A8329835FEF9A
:104FE0005B835C835D831E8238872F83C280D3807E
:104FF000E480F580C986DA86EB86FC86FB01428177
:105000005381648175814F87588B698B7A8B3C8B78
:105010002B8BFC0182819381A481B5818D8B9E8B2A
:10502000AF8BB88F80911F078111EBC060E372E0F6
:1050300080E090E00E9403151FB7F89480911E074E
:10504000811127C0E3E8F2E08491E2E3F2E0949179
:10505000E82FF0E0EE0FFF1FED51FE4FA591B49148
:10506000EC91E92321F461E085E30E948E1361E075
:1050700085E30E94BC138CB580618CBD8CB58064C7
:105080008CBD61E084E30E94BC1361E083E30E9475
:10509000BC1380911E078F5F80931E071FBFE4E93A
:1050A000F2E0E491F0E0EE0FFF1FE753FE4F859131
:1050B00094919093190780931807E3E4F2E0E49148
:1050C000E093170761E086E40E94BC13E2D7CE01AB
:1050D00049966BDF898D9A8D0E946A0E84E38093D6
:1050E0001A070E9484308823D9F088E0FAD7E6D7DF
:1050F0008830B1F480E1F5D7E1D7803189F480E0E0
:10510000F0D7DCD781110CC041E050E0BE01675EF2
:105110007F4F8FE190E00E94F916898D833051F125
:1051200087E380931A07F0D78823C1F188E0D9D7A5
:10513000C5D7883099F580E1D4D7C0D7182F8031F2
:1051400069F580E0CED7BAD7811128C041E050E0A0
:10515000BE01675E7F4F89E390E00E94F916898D5A
:105160008430E1F410931B070E94690E81E0809364
:105170001F0747C080E480931B0710E042E06EE108
:1051800070E0812F0E946F3242E06FE170E0812F6A
:105190000E946F321F5F183089F7E6CF83E3809358
:1051A0001A07B2D7882341F180E19BD787D7803196
:1051B00019F582E196D782D78231F1F480E091D758
:1051C0007DD7811119C084E080931B0715E51C8FE2
:1051D00041E050E0BE01645E7F4F8BE190E00E94B1
:1051E00080171B8F41E050E0BE01655E7F4F8AE172
:1051F00090E00E948017B8CF10921A070E94690EA3
:1052000038C0CE014996D1DE898D9A8D0E946A0EF2
:1052100046E050E068E372E089E090E00E94801789
:1052200044E050E0BE016B5E7F4F8FE090E00E9453
:10523000801744E050E0BE01675F7F4F81E090E05F
:105240000E94801744E050E0BE016D5F7F4F85E013
:1052500090E00E9480170E94690E8F859889A98925
:10526000BA898093A4089093A508A093A608B09348
:10527000A7086C960FB6F894DEBF0FBECDBFDF91C6
:10528000CF911F91FF90EF90DF90CF900895CF9234
:10529000DF92EF92FF92CF93DF93CDB7DEB76297A5
:1052A0000FB6F894DEBF0FBECDBF2CEE32E03A83CE
:1052B0002983FA01C280D380E480F580CB82DC822E
:1052C000ED82FE8238872F83FB0142815381648106
:1052D000758149875A876B877C873E872D87FC01BC
:1052E00082819381A481B5818F87988BA98BBA8B9A
:1052F000AE014F5F5F4FBE01695F7F4FCE010D96DC
:105300005ADE88EB98E00E943C0F62960FB6F89444
:10531000DEBF0FBECDBFDF91CF91FF90EF90DF904A
:10532000CF900895DC01ED91FC91309749F0808198
:1053300091818617970739F00480F581E02DF5CF2C
:1053400080E090E00895CF010895ECDF009721F010
:10535000FC0182819381089580E090E00895CF93CD
:10536000DF93EA016F5B7346DDDF009729F0FC01F4
:10537000D383C28381E001C080E0DF91CF910895A3
:10538000CF93DF93411103C0C0E0D0E002C0C0E082
:10539000DFEF6F5F7F4FC6DF009729F0FC01D383FB
:1053A000C28381E001C080E0DF91CF910895CF9268
:1053B000DF92EF92FF920F931F93CF93DF936B01D6
:1053C000770FEE08FF08F7FE19C0EC016DE2B9D5C2
:1053D0008C0144275527BA014C195D096E097F09D4
:1053E0002AE0CE01CAD5800F911FDF91CF911F9186
:1053F0000F91FF90EF90DF90CF9008952AE0B701D2
:10540000A601DF91CF911F910F91FF90EF90DF9058
:10541000CF90B3C541E050E06BE075E042C4EF923D
:10542000FF920F931F93CF93DF931F921F92CDB7DD
:10543000DEB78C017A8369830E947449698186177B
:1054400039F0C8010E948649EE24E394F12C02C091
:10545000E12CF12C0F5F1F4FC8010E9474496A8133
:10546000861731F0C8010E9486498FEFE81AF80AC2
:1054700081E0EF2809F480E00F900F90DF91CF9149
:105480001F910F91FF90EF9008951F93CF93DF939B
:10549000EC01162F0E947449811731F0612FCE0163
:1054A0000E94864981E001C080E0DF91CF911F9189
:1054B00008950895CF92DF92EF92FF920F931F937A
:1054C000CF93DF936C017A018B01C0E0D0E0CE1561
:1054D000DF0581F0D8016D918D01D601ED91FC9130
:1054E0000190F081E02DC6011995892B11F02196CC
:1054F000EECF7E01C701DF91CF911F910F91FF90F9
:10550000EF90DF90CF9008950F931F93CF93DF9389
:10551000EC0188819981009729F02A813B81261727
:10552000370788F48B016F5F7F4F0E941E4C0097F6
:1055300061F0998388831B830A832C813D81232B0F
:1055400011F4FC01108281E001C080E0DF91CF9175
:105550001F910F9108954F925F926F927F928F9259
:105560009F92AF92BF92CF92DF92EF92FF920F93F2
:105570001F93CF93DF93CDB7DEB763970FB6F89441
:10558000DEBF0FBECDBF7C015B013A01FB0120E015
:1055900080E090E06AE03191332309F140ED430F60
:1055A0004A3080F4689FA001699F500D1124CA0100
:1055B000C097830F911D37FD9A958F3F910559F341
:1055C00050F313C03E3289F4233079F0D301A20F97
:1055D000B11D12968C932F5F80E090E0DCCF2330DA
:1055E00021F4F301858381E021C0F70142815381D9
:1055F000648175818091AA089091AB08A091AC0854
:10560000B091AD08481759076A077B0709F491C1A3
:105610000E943B158701085F1F4F6F7077277C5FE3
:10562000C8010E94200C813019F080E090E0D9C1BF
:105630008CEE92E09A838983F70182819381A48121
:10564000B5818B839C83AD83BE8345E350E0BE016F
:105650006F5F7F4FC8010E94F50E892B19F4C12C92
:10566000D12C62C10E943B15F7017783668342E02B
:1056700050E0B7016A5F7F4FC8010E946D0E81E064
:1056800090E09A83898342E050E0BE016F5F7F4FD4
:10569000C8010E946D0E80E091E09A83898342E008
:1056A00050E0BE016F5F7F4FC8010E946D0E1A82ED
:1056B000198242E050E0BE016F5F7F4FC8010E9437
:1056C0006D0E42E050E0BE016F5F7F4FC8010E9447
:1056D0006D0E42E050E0BE016F5F7F4FC8010E9437
:1056E0006D0E4501F5018081882301F164015601A9
:1056F000F60181912F01882321F08E3211F0620191
:10570000F6CFC818D9081C141D0474F4CD8641E0E6
:1057100050E0BE01635F7F4FC8010E946D0EA6017D
:10572000B401C8010E946D0E4201DCCF1D8641E02C
:1057300050E0BE01635F7F4FC8010E946D0EC12C17
:10574000DD24D394DA82C98242E050E0BE016F5F6B
:105750007F4FC8010E946D0EDA82C98242E050E09C
:10576000BE016F5F7F4FC8010E946D0EC8010E948D
:10577000B40E892B09F473CFE3E0AE2EB12C2301D4
:1057800022E0420E511C0E943B153B014C01C80116
:105790000E944F0B18161906A4F00E943B15DC015D
:1057A000CB0186199709A809B90989389341A10540
:1057B000B105D0F462E370E080E090E00E94031550
:1057C000E6CFF7014281538164817581808D918D8F
:1057D000A28DB38D481759076A077B0749F4848D5A
:1057E000958DC59729F409C0CC24CA94DC2C93C0AC
:1057F0005EEFC52EDD24DA948EC0F70181A192A15F
:105800000C970CF4E9C04CE050E0BE016F5F7F4F95
:10581000C8010E94DB0A8B819C81982789279827E1
:105820009A8B898BF7014681578129813A814217EA
:10583000530709F0C2C097FFC0C08F709270892BC8
:1058400009F0C0C06F8078847624672476246114C0
:10585000710409F4BCC0C12CD12C8D819E81982784
:1058600089279827C816D90608F466C0812C912C80
:1058700041E050E0BE016D5E7F4FC8010E94DB0A2F
:105880004B89842F807C09F076C0442331F050E0AE
:1058900060E070E0C8010E94DB0A8B898111E8CFCB
:1058A00042E050E0BE01615F7F4FC8010E94DB0A09
:1058B00042E050E0BE01635F7F4FC8010E94DB0AF7
:1058C00044E050E060E070E0C8010E94DB0A42E082
:1058D00050E0BE016F5E7F4FC8010E94DB0A8F85DA
:1058E000988949895A898115914009F04DC0CD8424
:1058F000DE84DC24CD24DC2481E0C816D10409F048
:1059000043C04115544009F053C044E050E0B20197
:10591000C8010E94DB0A21E0A21AB10829F0FFEFBA
:10592000CF16DF0609F42FCFC8010E94120CC60162
:1059300058C08EEF9FEF55C041E050E0BE01635F5D
:105940007F4FC8010E94DB0A4D85442331F050E0AF
:1059500060E070E0C8010E94DB0A8D858111ECCF08
:1059600044E050E060E070E0C8010E94DB0AFFEF15
:10597000CF1ADF0A72CF41E050E060E070E0C8016A
:105980000E94DB0A1B8A89CF54274527542760E0F1
:1059900070E0C8010E94DB0AFFEF8F1A9F0A6814AB
:1059A000790409F065CF96EFC92EDD24DA94B3CFE0
:1059B00077EFC72EDD24DA94AECF4CEFC42EDD2472
:1059C000DA94A9CF3BEFC32EDD24DA94A4CF2AEFDB
:1059D000C22EDD24DA949FCF8DEFC82EDD24DA9419
:1059E0009ACF63960FB6F894DEBF0FBECDBFDF919E
:1059F000CF911F910F91FF90EF90DF90CF90BF90CC
:105A0000AF909F908F907F906F905F904F90089590
:105A1000FC018CEE92E091838083128213821482C7
:105A200015821386128648EE53E060E070E04487EA
:105A300055876687778722E832E031872087978B02
:105A4000868B108E118E128E138E88E080A308959F
:105A50008F929F92AF92BF92CF92DF92EF92FF927E
:105A60000F931F93CF93DF93CDB7DEB760970FB639
:105A7000F894DEBF0FBECDBF7C0190911A07992329
:105A800009F4B5C0933311F008E001C004E05B01F4
:105A9000CE0101968ADA89819A810E946A0E9E015E
:105AA0002F5F3F4F6901490110E0812F54D5F40168
:105AB00081934F018823C9F01F5F0113F6CF10E0D7
:105AC000F60181916F018D3159F0883149F08A5189
:105AD000823030F01F5F0113F3CF0E94690E87C040
:105AE00060E170E0812F0E94E916C12ED12CF601F1
:105AF000EE0FFF1FE85AF84F1182108283EE93E0F9
:105B00000197F1F742E860E070E0812FE8D44FEFB1
:105B100062E070E0812FE3D4A114B10411F0B5016B
:105B200013C0809132029091330201968115F0ECFE
:105B30009F0710F480E090EC909333028093320240
:105B40006091320270913302812FB4D486E0E8E78D
:105B5000F2E0DE01199601900D928A95E1F7F701C6
:105B600083818F778C8784818D8785818E87A7013C
:105B70004E5F5F4F24E030E06CE070E0812FF4D3A3
:105B8000B501812F82D426E030E0AE01475F5F4F40
:105B900066E070E0812FE8D361E070E0812F0E9421
:105BA000E91627E02C9DC0012D9D900D11249C012C
:105BB000205E384F7901F9011182108222E030E035
:105BC000AE01415F5F4F68E270E0812F0E94570E87
:105BD0008F859889982789279827F701938382834F
:105BE0001682158214820E94690E812F01C088E0FE
:105BF00060960FB6F894DEBF0FBECDBFDF91CF9198
:105C00001F910F91FF90EF90DF90CF90BF90AF90DA
:105C10009F908F900895FC0180819181009711F0F1
:105C20000C94DD4760E070E0CB010895CF93DF93E3
:105C3000FC01248135814217530778F4C081D1815A
:105C4000062E000C770BCE01840F951F0E94124D7B
:105C5000009719F08C1B9D0B02C08FEF9FEFDF9117
:105C6000CF910895FC0124813581232B31F421E06B
:105C700061157105A1F0FB0108C0FC0180819181D3
:105C80006115710531F421E0FC018081882339F030
:105C900005C00E941D4D21E0892B09F020E0822FD4
:105CA0000895EF92FF920F931F93CF93DF936115A7
:105CB000710511F480E01BC041155105B9F07B015D
:105CC000EC018C819D818A01080F191FB801CE015A
:105CD0001BDC882379F3288139818C819D81B70170
:105CE000820F931F0E94264D1D830C8381E0DF915C
:105CF000CF911F910F91FF90EF900895EF92FF9237
:105D00000F931F93CF93DF9300D01F92CDB7DEB7D1
:105D10007C01862F4AE08E010F5F1F4FB80190E093
:105D20000E940348F80101900020E9F73197AF0184
:105D3000401B510BB801C701B4DF0F900F900F90BB
:105D40000F90DF91CF911F910F91FF90EF900895E9
:105D50000F931F93CF93DF938C01EB01FC018081A4
:105D60009181009739F06881798161157105A1F4FD
:105D70000E94954B88819981F801918380838A8163
:105D80009B81938382838C819D81958384831982F7
:105D900018821B821A820FC0F801428153812C8124
:105DA0003D814217530720F30E94264D8C819D812F
:105DB000F801958384831D821C82DF91CF911F910E
:105DC0000F910895CF93DF93EC018881998100971B
:105DD00011F00E94954B198218821D821C821B8231
:105DE0001A82DF91CF910895EF92FF920F931F9344
:105DF000CF93DF93EC017B018A01BA0185DB81112E
:105E000003C0CE01DFDF07C01D830C83B70188818B
:105E100099810E94264DCE01DF91CF911F910F9164
:105E2000FF90EF900895CF93DF93EC01611571051A
:105E300051F0FB0101900020E9F73197AF01461BBB
:105E4000570BD2DF01C0BEDFCE01DF91CF910895A5
:105E5000CF93DF93EC01FB018617970751F0608128
:105E600071816115710521F044815581BDDF01C04B
:105E7000A9DFCE01DF91CF910895FC01808191814E
:105E80000C94954BFC0111821082138212821582B0
:105E90001482DECFFC0111821082138212821582DD
:105EA00014826115710549F0FB0101900020E9F7AA
:105EB0003197AF01461B570B97CF0895BF92CF92F2
:105EC000DF92EF92FF920F931F93CF93DF937C01AA
:105ED0006B018A01E9012417350720F4812F89011C
:105EE000C42FD82F6AE276E0C701D4DFD60114961A
:105EF0008D919C91159708171907C0F48C179D0771
:105F000008F4EC01D601ED91FC911197EC0FFD1F07
:105F1000B08010826D917C91600F711FC70183DF8B
:105F2000D601ED91FC91EC0FFD1FB082C701DF910E
:105F3000CF911F910F91FF90EF90DF90CF90BF9086
:105F40000895DC01ED91FC910190F081E02D199410
:105F50006115710579F0FB0101900020E9F7319797
:105F6000AF01461B570BDC01ED91FC910280F381E0
:105F7000E02D199480E090E008958F929F92AF9267
:105F8000BF92EF92FF920F931F93CF93DF93CDB702
:105F9000DEB7A1970FB6F894DEBF0FBECDBF7C0170
:105FA000FA01CB0119A2223008F42AE08E010F5D1C
:105FB0001F4F822E912CA12CB12CBF01A501940161
:105FC0000E94C049F901CA01015011096A3014F454
:105FD000605D01C0695CD8016C93232B242B252BB9
:105FE00061F7B801C701B4DFA1960FB6F894DEBF20
:105FF0000FBECDBFDF91CF911F910F91FF90EF901A
:10600000BF90AF909F908F90089520911A0790E0D5
:10601000233311F40C9601C04896982F990F990FCD
:10602000990F80E008950895FF920F931F93CF93E7
:10603000DF931F921F92CDB7DEB7F82E22E030E03B
:10604000AE014F5F5F4F66E270E00E94570E09811C
:106050001A8110270127102722E030E0AE014F5FA0
:106060005F4F66E270E08F2D0E94570E89819A8102
:106070009827892798270817190711F08C01ECCF6A
:10608000C8010F900F90DF91CF911F910F91FF905A
:106090000895E0911807F0911907908180911707F2
:1060A000892B80830895E0911807F091190790815A
:1060B000809117078095892380830895CF93DF937C
:1060C0001F92CDB7DEB741E050E0BE016F5F7F4F5A
:1060D00080E090E00E94F91689810F90DF91CF91C6
:1060E0000895CF93DF931F92CDB7DEB7898341E048
:1060F00050E0BE016F5F7F4F80E090E00E9480170C
:106100000F90DF91CF910895CF93DF9380E8E9DF7F
:10611000C4E1D0E0D3DF882351F061E070E080E09B
:1061200090E00E9403152197A9F780E001C081E06B
:10613000DF91CF910895EF92FF921F93CF93DF935A
:106140001F921F92CDB7DEB7182F22E030E0AE01CC
:106150004F5F5F4F60E270E00E94570EE980FA8067
:10616000FE24EF24FE2422E030E0AE014F5F5F4FBB
:1061700060E270E0812F0E94570E89819A819827F2
:1061800089279827E816F90611F07C01ECCF87E003
:10619000189FF0011124E05EF84FF582E482C701F8
:1061A0000F900F90DF91CF911F91FF90EF90089586
:1061B0001F93CF93DF931F921F92CDB7DEB7182F97
:1061C000CE0101960E94D52789819A810E946A0E8C
:1061D000812F1BDF27E0129FF0011124E05EF84FB2
:1061E00022813381377041E050E0BE016F5F7F4F05
:1061F000820F931F0E94F9160E94690E89810F90E9
:106200000F90DF91CF911F910895EF92FF920F931E
:106210001F93CF93DF931F921F92CDB7DEB7482F06
:1062200087E0489F90011124F901E05EF84F7F015B
:10623000808191810097B1F4142FCE0101960E94C4
:10624000D52789819A810E946A0E812FEDDE8C010B
:106250000E94690EF70186819801281B3109C90146
:10626000318320830F900F90DF91CF911F910F9179
:10627000FF90EF9008951F93CF93DF931F921F928B
:10628000CDB7DEB7182FCE0101960E94D5278981A0
:106290009A810E946A0E68E070E0812F0E94E916E0
:1062A0000E94690E0F900F90DF91CF911F9108957A
:1062B0001F93CF93DF931F921F92CDB7DEB7182F96
:1062C000CE0101960E94D52789819A810E946A0E8B
:1062D00060E170E0812F0E94E9160E94690E0F9024
:1062E0000F90DF91CF911F910895CF92DF92EF929F
:1062F000FF920F931F93CF93DF9300D000D0CDB7C1
:10630000DEB78C016B017A01FC01808D883008F4C6
:10631000CFDF8CEE92E09A838983F60182819381AC
:10632000A481B5818B839C83AD83BE83B701CE01ED
:1063300001968EDBF801808F883030F4F586E48694
:10634000128E118E81E001C080E026960FB6F8947F
:10635000DEBF0FBECDBFDF91CF911F910F91FF9098
:10636000EF90DF90CF900895DA0190911B07E92F0D
:10637000F0E0FE2FEE27E60FF71F90E0982F88271A
:10638000A901BD018E0F9F1F0C9480177F928F92E1
:106390009F92AF92BF92CF92DF92EF92FF920F93B4
:1063A0001F93CF93DF931F921F92CDB7DEB7782E46
:1063B0008B014A01590122E030E0AE014F5F5F4F8F
:1063C00064E270E00E94570EE980FA80FE24EF2418
:1063D000FE24E00EF11E9701377040911A07072D39
:1063E00010E0C801433311F4089601C04096982F7D
:1063F0008827990F990F990F820F931F473319F42C
:10640000A501B40120C0A9014A0D5B1D41305840CF
:10641000B8F360E078E06B01C21AD30AA601B401B8
:106420000E948017A5014C195D09B4016C0D7D1DFA
:1064300080911A07833331F5085F1F4F902F990F12
:10644000990F990F80E00E948017EA0CFB1CF982DB
:10645000EA8222E030E0AE014F5F5F4F64E270E01D
:10646000872D82DF0F900F90DF91CF911F910F91B9
:10647000FF90EF90DF90CF90BF90AF909F908F9064
:106480007F900895005F1F4FD9CFCF93DF931F9266
:106490001F92CDB7DEB779836A8322E030E0AE0188
:1064A0004F5F5F4F60E170E05FDF0F900F90DF9113
:1064B000CF910895CF93DF931F921F92CDB7DEB790
:1064C00079836A8322E030E0AE014F5F5F4F64E082
:1064D00070E04ADF0F900F90DF91CF910895CF9336
:1064E000DF931F92CDB7DEB790911B07292F30E0C5
:1064F000322F2227260F371F90E0982F88274983B5
:1065000041E050E0BE016F5F7F4F820F931F0E94FA
:1065100080170F90DF91CF910895CF93DF931F9253
:10652000CDB7DEB790911B07292F30E0322F2227FD
:10653000260F371F90E0982F882741E050E0BE01DA
:106540006F5F7F4F820F931F0E94F91689810F9012
:10655000DF91CF91089563E070E0DFCFFF920F935A
:106560001F93CF93DF931F921F92CDB7DEB7F82E04
:10657000CE0101960E94D52789819A810E946A0ED8
:106580008F2DD9DD8C018F2DE6DFF82E0E94690E4C
:1065900087E1F81631F08CE1F81619F080E090E010
:1065A00001C0C8010F900F90DF91CF911F910F9103
:1065B000FF900895AF92BF92CF92DF92EF92FF9239
:1065C0000F931F93CF93DF931F921F92CDB7DEB728
:1065D000F82E6B018A014130584010F000E018E0BD
:1065E000CE0101960E94D52789819A810E946A0E68
:1065F0008F2DA1DD5C018F2DAEDFE82E0E94690E8C
:1066000087E1E81619F08CE1E81204C0A016B10683
:1066100038F302C000E010E0CE0101960E94D527B9
:1066200089819A810E946A0E9801A60160E070E05B
:106630008F2DACDE60E270E08F2D0E94E91662E0E3
:1066400070E08F2D6ADF84FD14C08F2D84DF8111EF
:1066500005C00E94690E80E090E013C00E94690EA0
:10666000CE0101960E94D52789819A810E946A0EE7
:10667000E6CF40E162E070E08F2D31DF0E94690ECD
:10668000C8010F900F90DF91CF911F910F91FF9054
:10669000EF90DF90CF90BF90AF9008954F925F92B0
:1066A0007F928F929F92AF92BF92CF92DF92EF92A2
:1066B000FF920F931F93CF93DF931F921F92CDB73B
:1066C000DEB7782E6B014A01A82EB12C27E0829FFD
:1066D000C0011124AC01405E584F7A01FA010081DB
:1066E0001181CE0101960E94D52789819A810E944D
:1066F0006A0E081519054CF4872D96DCF7012681E2
:106700008C01021B1109118300830115110591F4FD
:10671000872D21DF843109F47DC0882309F47AC0F4
:1067200001E010E08C3111F400E010E011950195CA
:10673000110970C0801691060CF4840187E08A9DCF
:10674000F0018B9DF00D1124E05EF84FE280F380A4
:10675000C114D10449F12701F7E05F22872D55DCF0
:10676000840D951D20911A07273319F4A801B6014D
:1067700019C09801240D351D21303840B8F320E0B0
:1067800038E0490184189508A401B6010E94F91661
:106790002601480C591C6801C818D908872D35DC1A
:1067A000A601B2010E94F916E00EF11E87E08A9D53
:1067B000F0018B9DF00D1124E05EF84FF382E28230
:1067C00080819181801B910B918380832681A80118
:1067D000420F511D4A3F510510F4892BD1F487E037
:1067E0008A9DF0018B9DF00D1124E05EF84F16821A
:1067F000F982EA8222E030E0AE014F5F5F4F68E24B
:1068000070E0872DB1DD60E470E0872D0E94E9160D
:1068100001C046830E94690EC8010F900F90DF915E
:10682000CF911F910F91FF90EF90DF90CF90BF908D
:10683000AF909F908F907F905F904F9008951F939F
:10684000CF93DF931F921F92CDB7DEB7182FCE01E3
:1068500001960E94D52789819A810E946A0E812F14
:106860007ADE182F0E94690E812F0F900F90DF9112
:10687000CF911F9108958F929F92BF92CF92DF92F6
:10688000EF92FF920F931F93CF93DF93CDB7DEB7B5
:106890002A970FB6F894DEBF0FBECDBF90911A07AE
:1068A000992309F493C0933319F028E0B22E02C063
:1068B00094E0B92E6B01082FCE0101960E94D527D6
:1068C00089819A810E946A0E9E012F5F3F4F790154
:1068D000490110E0812F3FDEF40181934F018823AD
:1068E000C9F01F5FB112F6CF10E0F70191917F015F
:1068F0009D3159F0983149F09A51923030F01F5F34
:10690000B112F3CF0E94690E61C060E170E0812F87
:106910000E94E916E12EF12CF701EE0FFF1FE85A55
:10692000F84F1182108283EE93E00197F1F7402F28
:1069300060E070E0812FD3DD4FEF62E070E0812FE7
:10694000CEDDC114D10411F0B60113C08091320222
:106950009091330201968115F0EC9F0710F480E0CE
:1069600090EC9093330280933202609132027091E6
:106970003302812F9FDD61E070E0812F0E94E916D4
:1069800027E02E9DC0012F9D900D11249C01205EBB
:10699000384F7901F9011182108222E030E0AE0116
:1069A000475F5F4F68E270E0812F0E94570E898534
:1069B0009A85982789279827F701938382831682DF
:1069C000158214820E94690E812F01C088E02A96E8
:1069D0000FB6F894DEBF0FBECDBFDF91CF911F91F0
:1069E0000F91FF90EF90DF90CF90BF909F908F908E
:1069F0000895AECAFC01A089B18982E08C93A48578
:106A0000B5851C92A685B7858FEC8C93108EA489D2
:106A1000B58986E08C93A289B3898C9180618C932F
:106A2000A289B3898C9188608C93A289B3898C9157
:106A300080688C930288F389E02D80818F7D80832C
:106A40000895CF92DF92EF92FF920F931F930E94CF
:106A50003B15AB01BC01E091C708F091C8088091DB
:106A6000E1089091E2080091C9081091CA082091AC
:106A7000CB083091CC086A017B01C01AD10AE20A26
:106A8000F30A319761F5FC01EE0FFF1FE353F74F57
:106A900000811181012E000C220B330BC016D10690
:106AA000E206F30608F458C0880F991FFC01E9526A
:106AB000F74F80819181892B29F41092E20810927E
:106AC000E1084AC01092C8081092C7084093C9084C
:106AD0005093CA086093CB087093CC083DC0FC016A
:106AE000EE0FFF1FE952F74F00811181012E000CBC
:106AF000220B330BC016D106E206F30668F1880FAD
:106B0000991FFC01E353F74F80819181892B29F470
:106B10001092E2081092E1080EC081E090E090939C
:106B2000C8088093C7084093C9085093CA08609367
:106B3000CB087093CC088091E1089091E20801960F
:106B40009093E2088093E1082091E3083091E408F3
:106B50008217930709F4B1CF6091C7088091C508E7
:106B60001F910F91FF90EF90DF90CF900C948E13B8
:106B7000CF93DF93BC0185E098E0EAD9EC0168E2AD
:106B800076E085E098E0E4D98C0F9D1FDF91CF91EE
:106B90000895CF93DF93AB01BC012AE085E098E034
:106BA000ECD9EC0168E276E085E098E0D1D98C0F71
:106BB0009D1FDF91CF910895CF93DF93CDB7DEB7BF
:106BC0006D970FB6F894DEBF0FBECDBF789484B535
:106BD000826084BD84B5816084BD85B5826085BDD9
:106BE00085B5816085BD80916E00816080936E0067
:106BF0001092810080918100826080938100809159
:106C00008100816080938100809180008160809309
:106C100080008091B10084608093B1008091B000C9
:106C200081608093B0008091910082608093910098
:106C300080919100816080939100809190008160AB
:106C4000809390008091A10082608093A100809148
:106C5000A10081608093A1008091A0008160809359
:106C6000A000809121018260809321018091210107
:106C700081608093210180912001816080932001B7
:106C800080917A00846080937A0080917A0082609B
:106C900080937A0080917A00816080937A0080915D
:106CA0007A00806880937A001092C10085E098E0B5
:106CB000A1DE84EF92E05CDF88E697E09BDE64EF84
:106CC00071E080E090E00E94031561E086E10E949F
:106CD000BC1360E082E10E94BC1360E083E10E948B
:106CE000BC1361E089E00E94BC1361E08DE00E946A
:106CF000BC1361E082E00E94BC1360E082E40E9469
:106D0000BC1360E08AE00E94BC1360E083E40E9450
:106D1000BC1360E084E40E94BC1360E085E40E9440
:106D2000BC1361E08CE20E94BC1361E08BE20E9424
:106D3000BC1361E08AE20E94BC1360E086E30E941B
:106D4000BC1360E087E30E94BC1360E088E30E940C
:106D5000BC1360E081E40E94BC1361E087E10E9403
:106D6000BC1361E088E00E94BC1360E08CE30E94E9
:106D7000BC1360E086E10E948E1360E089E00E940F
:106D80008E1360E08DE00E948E1360E087E10E9428
:106D90008E1360E088E00E948E1360E082E00E9423
:106DA0008E1361E08CE20E948E1381E090E00E94DD
:106DB000814990933F0280933E0283E090E00E94DD
:106DC00074498093140284E090E00E94814990937A
:106DD00058098093570986E090E00E94814990937A
:106DE0005A098093590988E090E00E948149909364
:106DF0005C0980935B098AE090E00E94814990934E
:106E00006109809360098CE090E00E948149909331
:106E10005F0980935E098EE090E00E948149909323
:106E20002F0980932E0980E190E00E948149909380
:106E300031098093300982E190E00E94814990936A
:106E400033098093320984E190E00E948149909354
:106E500038098093370986E190E00E948149909338
:106E600036098093350988E190E00E94814990932A
:106E70000609809305098AE190E00E948149909378
:106E80000809809307098CE190E00E948149909362
:106E90000A09809309098EE190E00E94814990934C
:106EA0000F0980930E0980E290E00E94814990933F
:106EB0000D0980930C0982E290E00E947C49609366
:106EC000720970937309809374099093750986E22F
:106ED00090E00E947C4960937609709377098093D3
:106EE0007809909379098AE290E00E948149909311
:106EF0007E0980937D098CE290E00E948149909305
:106F00007C0980937B098EE290E00E947C4960932B
:106F10002E0270932F02809330029093310282E30D
:106F200090E00E947C4960932A0270932B02809328
:106F30002C0290932D0286E390E00E947C4960939E
:106F400026027093270280932802909329028AE3F5
:106F500090E00E947C496093220270932302809308
:106F60002402909325028EE390E00E947C49609376
:106F70001E0270931F02809320029093210282E4EC
:106F800090E00E947C4960931307709314078093EC
:106F900015079093160786E490E00E947C49609361
:106FA0000F077093100780931107909312078AE4DC
:106FB00090E00E947C4960930B0770930C078093CC
:106FC0000D0790930E078EE490E00E947C49609339
:106FD0000707709308078093090790930A0782E5D3
:106FE00090E00E947C4960930307709304078093AC
:106FF00005079093060786E590E00E9481499093EB
:107000001D0280931C0288E590E00E9481499093C4
:107010001B0280931A0214E3A12E12E0B12E0FEF8F
:10702000C02E06E0D02E86E1E82E82E0F82E0AE59A
:1070300010E0C8010E947449D5018D935D01C8011B
:1070400001960E947449F60181936F01C80102966E
:107050000E947449D7018D937D010D5F1F4F063645
:10706000110539F76AE276E08BEE98E00E94132F63
:10707000609134028BEE98E00E947E2E8BEE98E0B9
:107080000E940A2A609135028BEE98E00E947E2EC3
:107090008BEE98E00E940A2A609136028BEE98E00F
:1070A0000E947E2E8BEE98E00E940A2A60913702A1
:1070B0008BEE98E00E947E2E6AE276E085EE98E004
:1070C0000E94132F6091160285EE98E00E947E2E9A
:1070D00085EE98E00E940A2A6091170285EE98E0FA
:1070E0000E947E2E85EE98E00E940A2A6091180286
:1070F00085EE98E00E947E2E85EE98E00E940A2A96
:107100006091190285EE98E00E947E2E86E690E05E
:107110000E94814921E0892B09F420E02093150287
:1071200088E690E00E94814921E0892B09F420E063
:107130002093FE06809114021A8219821C821B82FF
:107140001E821D82888B198ABE01605F7F4FCE012F
:1071500001960E94132F4D815E8169817A818DE8AD
:1071600099E00E94512ECE0101960E943D2F8DE89C
:1071700099E00E940A2A60913E0270913F02CE017E
:1071800001960E9411214D815E8169817A818DE88D
:1071900099E00E94512ECE0101960E943D2F0E943F
:1071A0003B156093CA067093CB068093CC069093F0
:1071B000CD0648EE53E060E070E08AEC96E00E9475
:1071C000E60481118AC06AEF72E088E697E011DC7C
:1071D0006DE879E088E697E00E940A2163E373E0B6
:1071E00088E697E006DC63E979E088E697E00E94AC
:1071F0000A216BE473E088E697E0FBDB6DE879E059
:1072000088E697E00E940A2168E573E088E697E047
:10721000F0DB67E879E088E697E00E940A2169E2FE
:1072200076E088E697E0E5DB0E943B156093CA06AE
:107230007093CB068093CC069093CD060E943418B1
:1072400081111CC00E943B150091CA061091CB060B
:107250002091CC063091CD06DC01CB01801B910B37
:10726000A20BB30B893E9340A105B10538F366E646
:1072700073E085E098E0BDDB0C942C4667E773E093
:1072800085E098E0B6DB61EF78E085E098E00E9469
:107290000A2162E873E0CE0101960E944A2FBE01E6
:1072A0006F5F7F4F81EF98E00E94B2208C01CE018A
:1072B00001960E943D2F0F3F1F4F51F088E893E049
:1072C00057DC6AE276E081EF98E00E94132F05C058
:1072D00085E993E04DDC0C942C460E943B156093AD
:1072E000CA067093CB068093CC069093CD0648EEE9
:1072F00053E060E070E08AEC96E00E94E6048111C1
:107300000BC00E943E08811107C06AE276E081EF5F
:1073100098E00E94132FEBCF0E943B156093CA06A2
:107320007093CB068093CC069093CD0648EE53E045
:1073300060E070E08AEC96E00E94E60481110BC0E8
:107340000E946918811107C06AE276E081EF98E037
:107350000E94132FEBCF68EC70E080E090E00E9479
:10736000031584EA91E090930902809308028091CA
:1073700069008F7C806180936900EA9A84E891E0DB
:1073800090930B0280930A02809169008F7380644E
:1073900080936900EB9AF4EF6F2E772473947092C8
:1073A000800960927F0960ED77E080E090E00E94C4
:1073B00003158CEE92E09A838983409116025091D6
:1073C000170260911802709119024B835C836D83E0
:1073D0007E83998B888B40911002509111026091AD
:1073E0001202709113024A8B5B8B6C8B7D8B9F8B8F
:1073F0008E8B8091340290913502A0913602B0912B
:107400003702888F998FAA8FBB8FAE014F5F5F4F76
:10741000BE01605F7F4FCE0146960E94472960E023
:1074200070E085EA9CE90E94A82760E070E086EAA7
:107430009CE90E94A82760E070E087EA9CE90E942E
:10744000A82760E070E088EA9CE90E94A82760E035
:1074500070E089EA9CE90E94A82760E070E08AEA6F
:107460009CE90E94A82760E070E08BE690E00E9413
:10747000A82760E070E08CEA9CE90E94A82760E001
:1074800070E08DEA9CE90E94A82760E070E08EEA37
:107490009CE90E94A82760E070E08FEA9CE90E94C6
:1074A000A82760E070E080E790E00E94A82760E0F5
:1074B00070E081E790E00E94A82760E070E082E73A
:1074C00090E00E94A82760E070E083E790E00E94CF
:1074D000A82760E070E084E790E00E94A82760E0C1
:1074E00070E085E790E00E94A82760E070E086EBFE
:1074F0009CE90E94A82760E070E087EB9CE90E946D
:10750000A82760E070E088E790E00E94A82760E08C
:1075100070E089E790E00E94A82760E070E08AE7C9
:1075200090E00E94A82760E070E08BE790E00E9466
:10753000A82760E070E08CEB9CE90E94A82760E03F
:1075400070E08DEB9CE90E94A82760E070E08EEB74
:107550009CE90E94A82760E070E08FEB9CE90E9404
:10756000A82760E070E080EC9CE90E94A82760E01A
:1075700070E081E890E00E94A82760E070E082EC73
:107580009CE90E94A82760E070E083EC9CE90E94DF
:10759000A82760E070E086EC9CE90E94A82760E0E4
:1075A00070E087EC9CE90E94A82760E070E088EC1E
:1075B0009CE90E94A82760E070E089EC9CE90E94A9
:1075C000A82760E070E08AEC9CE90E94A82760E0B0
:1075D00070E08BE890E00E94A82760E070E08CECFF
:1075E0009CE90E94A82760E070E08DEC9CE90E9475
:1075F000A82760E070E080ED9CE90E94A82760E089
:1076000070E081ED9CE90E94A82760E070E082EDC7
:107610009CE90E94A82760E070E083ED9CE90E944D
:10762000A82760E070E084ED9CE90E94A82760E054
:1076300070E085E990E00E94A82760E070E086EDA8
:107640009CE90E94A82760E070E087ED9CE90E9419
:10765000A82760E070E08AE990E00E94A82760E037
:1076600070E08BE990E00E94A82760E070E08CED6C
:107670009CE90E94A82760E070E08DED9CE90E94E3
:10768000A82760E070E08EED9CE90E94A82760E0EA
:1076900070E08FED9CE90E94A82768EE73E080E01F
:1076A00090E00E94031581E090E09093E5068093BE
:1076B000E40685E40E94BF145C0184E40E94BF14C8
:1076C0008C018CE30E94BF146C01B801110F880B70
:1076D000990B0E9451482CEE31E548E75FE30E9488
:1076E000B0480E94564A7093630960936209A2EC05
:1076F000EA2EFF24F394F0926509E0926409109257
:107700006709109266090CE211E010936909009371
:10771000680910926B0910926A09B8EE8B2EB3E0DB
:107720009B2E90926D0980926C09B501BB0C880B61
:10773000990B0E9451482CEE31E548E75FE30E9427
:10774000B0480E94564A70933A0960933909F09202
:107750003C09E0923B0910923E0910923D091093BA
:10776000400900933F0910924209109241099092FA
:10777000440980924309B601DD0C880B990B0E94E5
:10778000514822E538EB4EED5EE30E94B0480E947E
:10779000564A7093110960931009F0921309E09210
:1077A00012091092150910921409109317090093E9
:1077B0001609109219091092180970921B0960920B
:1077C0001A090E94170680911502882339F06091EA
:1077D0003509709136098DE00E94F813EDECF8E060
:1077E000138612861192119227ED38E02E173F076B
:1077F000B9F788EC90E09093CE088093CD089093F1
:10780000D8088093D70881E090E09093E4088093B3
:10781000E30817D968EE462E63E0562E78EC672E03
:10782000712C22242394312C0CD90E9434188823E3
:1078300021F00E941C1A0E9417060E943B156093BB
:10784000E6067093E7068093E8069093E90648EE13
:1078500053E060E070E08AEE96E00E94E604882340
:1078600009F439C668EB78E0CE0101960E94750DE7
:107870008D85883008F072C3CE0101960E948A0C73
:10788000882309F46BC38EEB98E09D8F8C8F8C015D
:10789000CE0101960E94460B892B51F48091C308BA
:1078A00081508093B6089091C008911157C30DC0C4
:1078B000CE0101960E94230BD8018D938D01E5EC3A
:1078C000F8E0EA17FB0721F7E9CF9091C108911181
:1078D00045C3893C08F042C390E00E94FD4A909362
:1078E000B5088093B40800E010E0CE0101960E9434
:1078F000460B892B11F5C090B408D090B508D6017D
:107900002C911196ED90FC901297FE24EF24FE240A
:1079100013960D911C911497102701271027822F81
:1079200090E0FC013197E031F10508F0C1C28827F1
:10793000EE58FF4F8F4F0C94F54AE090B408F0904A
:10794000B508E00EF11ECE0101960E94230BF7014F
:1079500080830F5F1F4F8091B60890E008171907CA
:1079600021F6C9CFA801B70180EB98E00E94AF29AA
:10797000811102C062E00BC0B7016F5B734680EB00
:1079800098E00E94A5290817190719F064E086E01D
:1079900091C282E096C0C80101978D37910510F021
:1079A00063E00CC0FFEBEF1AF3E6FF0AB70180EBD0
:1079B00098E00E949229892B19F462E083E07AC250
:1079C000C6010E94954BC8010196D82EDD0CD092BD
:1079D000B6088D2D90E00E94FD4A9093B5088093E3
:1079E000B408009711F464E0E9CF23E0DC012C93A4
:1079F000DA94DA941196DC9253E0C52ED12C015022
:107A0000110908F45DC0B70180EB98E00E94A52938
:107A1000E091B408F091B508EC0DFD1D319790830D
:107A2000E091B408F091B508EC0DFD1D8083EFEFF7
:107A3000EE1AFE0AF2E0CF0ED11CE1CFE1E0DC014C
:107A4000EC93DA94DA941196DC920F5F1F4FCC24FA
:107A5000C394D12CB12CB6016E0D7F1D80EB98E044
:107A60000E94A529E091B408F091B508A601A3E011
:107A700056954795AA95E1F79A012E5F3F4F8115DC
:107A80009F4F11F00C943446E20FF31F208181E0E8
:107A900090E0A0E0B0E00B2C04C0880F991FAA1F53
:107AA000BB1F0A94D2F7822B8083B39488E0B8126C
:107AB00001C0B12CFFEFCF1ADF0A0C151D0559F6D6
:107AC00083E08093B708F8C1D60115968C91980190
:107AD000215031092B37310578F490E09801220FBD
:107AE000331F8217930741F4A12CB12C4701BFEB40
:107AF0008B1AB3E69B0A08C063E023C0EFEFAE1A0F
:107B0000BE0AA016B10659F0B4016A0D7B1D80EBC8
:107B100098E00E949229892B89F762E012C0C60181
:107B20000E94954B85E08093B60885E090E00E9426
:107B3000FD4AFC019093B5088093B408892B19F491
:107B400064E080E1B7C180E18083F182E282138248
:107B50000483A12CB12CF2E0CF0ED11C0A151B0519
:107B600009F4AECFD60114964C91149750E0542FDF
:107B7000442715968C91482BB7016A0D7B1D80EB2D
:107B800098E00E94AF29BFEFAB1ABB0AE4CFC8014F
:107B90000197803D974010F063E02CC0B7016F5F04
:107BA0007F4F80EB98E00E949229892B11F462E0CC
:107BB00021C0C6010E94954BC80123E09695879588
:107BC0002A95E1F7980127703327232B11F48E5F54
:107BD00001C08D5F8093B608D090B6088D2D90E0DF
:107BE0000E94FD4A9093B5088093B408009709F06D
:107BF00025CF64E081E05EC1C8010197803D9740D8
:107C000010F063E029C0B7016F5E784D80EB98E01B
:107C10000E949229892B59F2C6010E94954BC801F6
:107C200073E0969587957A95E1F798012770332749
:107C3000232B11F48E5F01C08D5F8093B608D09026
:107C4000B6088D2D90E00E94FD4A9093B508809370
:107C5000B408009719F464E082E02CC122E0FC0132
:107C60002083DA94DA94D1826801FFEFCF1ADF0A19
:107C7000B12C01E010E020EFE21A28EDF20AB70182
:107C8000600F711F80EB98E00E94A529E091B40875
:107C9000F091B508A80163E0569547956A95E1F71C
:107CA0009A012E5F3F4F81159F4F09F0F0C7E20FF9
:107CB000F31F208181E090E0A0E0B0E00B2C04C035
:107CC000880F991FAA1FBB1F0A94D2F7822BF0C7F7
:107CD000C80101978D37910510F063E020C09FEC3B
:107CE000E91A9AE8F90AB70180EB98E00E94922914
:107CF000892B09F45CCFC6010E94954BC8010196FF
:107D0000D82EDD0CD092B6088D2D90E00E94FD4A51
:107D10009093B5088093B408009719F464E084E068
:107D2000C9C024E0DC012C93DA94DA941196DC9239
:107D300043E0C42ED12C0150110908F4C1CEB70183
:107D400080EB98E00E94A529E091B408F091B50875
:107D5000EC0DFD1D31979083E091B408F091B508CA
:107D6000EC0DFD1D8083EFEFEE1AFE0AF2E0CF0E60
:107D7000D11CE1CF01152FEF120729F001151105D4
:107D800011F063E01FC0DD24D394012B09F4D12C42
:107D90004D2DB70180EB98E00E94C029811102C0EF
:107DA00062E010C0B7016F5F7F4F80EB98E00E94E8
:107DB000A52921E081159F4F09F020E02D1509F438
:107DC000E8CD64E085E076C0D60115962C91C80117
:107DD00033E0969587953A95E1F7A80147705527C6
:107DE000452B09F00196A80141505109403B5740ED
:107DF00058F430E02817390739F4A12CB12C470189
:107E0000EFEF8E1A9E0A08C063E023C0FFEFAF1A9F
:107E1000BF0AA016B10659F0B4016A0D7B1D80EBB4
:107E200098E00E949229892B89F762E012C0C6016E
:107E30000E94954B85E08093B60885E090E00E9413
:107E4000FD4AFC019093B5088093B408892B19F47E
:107E500064E08FE02FC08FE08083F182E2821383A1
:107E60000483A12CB12C912CB7016A0D7B1D0A153E
:107E70001B0509F425CE2FEFA21AB20AF50183E003
:107E8000F695E7958A95E1F7EC0DFD1D468150E0EA
:107E9000092C02C0559547950A94E2F7417080EB92
:107EA00098E00E94C029939438E09312DDCFDBCF95
:107EB00061E0822F0E94C31F8091B708813009F4CE
:107EC00045C00DB71EB72091B608822F90E0AC01D7
:107ED0004F5F5F4F5093C2082F5F2093C3084A5FE4
:107EE0005F4FADB7BEB7A41BB50B0FB6F894BEBFBE
:107EF0000FBEADBF6DB77EB76F5F7F4FDB01CDB6F5
:107F0000DEB6E8E0CE0ED11CEC8DFD8D2191FD8F0B
:107F1000EC8F2D93CA16DB06B9F72091B408309187
:107F2000B508D9017D01E21AF30AE816F9062CF426
:107F3000FD90F601F1926F01F5CFCE0101960E94FE
:107F40003E0C0FB6F8941EBF0FBE0DBF8091B40853
:107F50009091B5080E94954B1092B6084091E406A6
:107F60005091E50664E670E080EB98E00E94AF294E
:107F70004091D0066AE670E080EB98E00E94C0294C
:107F800040910B0750910C076BE670E080EB98E096
:107F90000E94AF2940910F07509110076CE670E0E6
:107FA00080EB98E00E94AF2940911307509114078D
:107FB0006DE670E080EB98E00E94AF2940911307D6
:107FC000509114076EE670E080EB98E00E94AF29B4
:107FD00082E00E94661341E0892B09F440E06FE6DD
:107FE00070E080EB98E00E94C02982E40E94661352
:107FF00041E0892B09F440E060E770E080EB98E015
:108000000E94C02983E40E94661341E0892B09F095
:1080100040E061E770E080EB98E00E94C0298AE0D0
:108020000E94661341E0892B09F040E062E770E0AE
:1080300080EB98E00E94C02982E10E94661341E033
:10804000892B09F040E063E770E080EB98E00E9444
:10805000C02983E10E94661341E0892B09F440E0C6
:1080600064E770E080EB98E00E94C0296091760997
:108070007091770980917809909179092AEF30E021
:1080800040E050E00E94C049A90165E770E080EB44
:1080900098E00E94AF298091760990917709A0918C
:1080A0007809B091790900917209109173092091B2
:1080B000740930917509BC01CD01601B710B820BF5
:1080C000930B2AEF30E040E050E00E94C04930932B
:1080D000CF062093CE06A90166E770E080EB98E01A
:1080E0000E94AF2988E30E94661341E0892B09F0C2
:1080F00040E067E770E080EB98E00E94C02986E3EB
:108100000E94661341E0892B09F040E068E770E0C7
:1081100080EB98E00E94C02987E30E94661341E04B
:10812000892B09F040E069E770E080EB98E00E945D
:10813000C02989E30E94661341E0892B09F040E0E1
:108140006AE770E080EB98E00E94C02940915509F1
:10815000509156096BE770E080EB98E00E94AF29E0
:10816000609151097091520980915309909154097D
:108170000E945B4AAB016DE770E080EB98E00E94E3
:10818000AF2940915D0960E870E080EB98E00E94C3
:10819000C02940915E0950915F0961E870E080EB71
:1081A00098E00E94AF2940912C0950912D0965E873
:1081B00070E080EB98E00E94AF29609128097091EF
:1081C000290980912A0990912B090E945B4AAB01F1
:1081D00067E870E080EB98E00E94AF294091340995
:1081E0006AE870E080EB98E00E94C0294091350970
:1081F000509136096BE870E080EB98E00E94AF295F
:1082000040910309509104096FE870E080EB98E019
:108210000E94AF296091FF087091000980910109C7
:10822000909102090E945B4AAB0161E970E080EB2A
:1082300098E00E94AF2940910B0964E970E080EB5F
:1082400098E00E94C02940910C0950910D0965E900
:1082500070E080EB98E00E94AF2965EA7CE980EB52
:1082600098E00E94A5299093E5068093E40666EACB
:108270007CE980EB98E00E94A5299C01249DC00127
:10828000259D900D349D900D1124A0E0B0E08093C9
:108290002E0290932F02A0933002B093310267EA2E
:1082A0007CE980EB98E00E94A529DC01A49DC00137
:1082B000A59D900DB49D900D1124A0E0B0E0809399
:1082C000260290932702A0932802B093290268EA1D
:1082D0007CE980EB98E00E94A529FC01E49DC001A7
:1082E000E59D900DF49D900D1124A0E0B0E08093E9
:1082F0001E0290931F02A0932002B093210269EA0C
:108300007CE980EB98E00E94A5299C01249DC00196
:10831000259D900D349D900D1124A0E0B0E0809338
:108320002A0290932B02A0932C02B0932D026AEAAA
:108330007CE980EB98E00E94A529DC01A49DC001A6
:10834000A59D900DB49D900D1124A0E0B0E0809308
:10835000220290932302A0932402B09325026DEB96
:108360007CE980EB98E00E94A529909358098093BE
:1083700057096FEB7CE980EB98E00E94A529909368
:108380005A098093590960EC7CE980EB98E00E94DF
:10839000A52990935C0980935B0963EC7CE980EBF1
:1083A00098E00E94A529909361098093600967EC89
:1083B0007CE980EB98E00E94A52990932F09809397
:1083C0002E0969EC7CE980EB98E00E94A529909346
:1083D0003109809330096AEC7CE980EB98E00E94D7
:1083E000A52990933309809332096DEC7CE980EBE9
:1083F00098E00E94A529909338098093370961ED90
:108400007CE980EB98E00E94A5299093060980936F
:10841000050963ED7CE980EB98E00E94A529909323
:1084200008098093070964ED7CE980EB98E00E94DD
:10843000A52990930A098093090967ED7CE980EBEF
:1084400098E00E94A52990930F0980930E096AE98C
:1084500070E080EB98E00E94A52921E081159F4FF4
:1084600009F020E0209315026BE970E080EB98E0C2
:108470000E94A52921E081159F4F09F020E020935B
:10848000E3066CED7CE980EB98E00E94A5299093CF
:108490007E0980937D096DED7CE980EB98E00E9478
:1084A000A52990937C0980937B096EED7CE980EB94
:1084B00098E00E94A52990931D0280931C026FED05
:1084C0007CE980EB98E00E94A52990931B028093A1
:1084D0001A020E94622180911502882331F080E205
:1084E00099E00E94D607BC0102C060E070E08DE018
:1084F0000E94F81386E30E94661321E0892B09F09D
:1085000020E02093D40687E30E94661321E0892BA4
:1085100009F020E02093D30688E30E94661321E04F
:10852000892B09F020E02093D20689E30E9466138C
:1085300021E0892B09F020E02093D106E091E406A8
:10854000F091E5063197E930F10508F07FC38827FF
:10855000EE57FF4F8F4F0C94F54AEDECF8E0138681
:1085600012861192119227ED38E02E173F07B9F7C6
:108570007092CE086092CD087092D8086092D708A9
:108580003092E4082092E3080E9421050E946221B3
:108590005FC3EDECF8E0138612861192119287ED1D
:1085A00098E08E179F07B9F75092CE084092CD08F9
:1085B0005092D8084092D7083092E4082092E308FD
:1085C00089E499E00E94340780E299E00E94340730
:1085D00010925D09109234090E94950580911D0743
:1085E000882309F435C340911E0250911F02609107
:1085F00020027091210285ED96E00E94E604882316
:1086000009F426C384E090E01AC061E080917D09FE
:1086100090917E090E94502680911D0781112AC0E9
:1086200061E080917D0990917E090E94EB26809106
:10863000D906882349F01092D90686E090E09093FD
:10864000E5068093E40604C380911D07882309F49E
:10865000F6C285E090E09093E5068093E4060E94E0
:108660003B156093EE067093EF068093F0069093AF
:10867000F106EEC283E40E946613892B09F027C33A
:108680008091720990917309A0917409B091750954
:10869000892B8A2B8B2B09F41AC3DAC21091E206BC
:1086A00011110DC061E086E10E948E1389E499E00A
:1086B0000E94D607BC0189E00E94F81304C060E064
:1086C00086E10E948E1380E299E00E94D607BC01E9
:1086D0008DE00E94F81361E087E10E948E1387EF1E
:1086E00098E00E94D607BC0188E00E94F8138091B0
:1086F0001D07811161C040912A0250912B026091A7
:108700002C0270912D028EED96E00E94E6048823E3
:1087100009F452C0E2E0F0E0F093E506E093E406ED
:108720000E943B15C090EE06D090EF06E090F00658
:10873000F090F1066C197D098E099F0928EE33E04F
:1087400040E050E01DD669017A0120930B07309379
:108750000C0740930D0750930E072091130730919B
:108760001407409115075091160749015A01FFEF70
:108770008F1A9F0AAF0ABF0A60910F077091100706
:10878000809111079091120721D76C0D7D1D8E1DD0
:108790009F1DA5019401F4D520930F073093100776
:1087A0004093110750931207809213079092140779
:1087B000A0921507B092160782E40E946613892BD7
:1087C00071F044EF51E060E070E08AED96E00E94C5
:1087D000E604882321F021E012271093E20610928C
:1087E0005D091092340910920B096091090970918A
:1087F0000A09072E000C880B990B53D49B01AC017E
:108800006091FF087091000980910109909102091F
:1088100042D487FF03C031E030930B098091E20618
:10882000811119C060915B0970915C09072E000CE1
:10883000880B990B36D49B01AC0160915109709162
:108840005209809153099091540925D487FF03C0A0
:1088500041E040935D096091320970913309072E20
:10886000000C880B990B1DD49B01AC016091280969
:108870007091290980912A0990912B090CD487FFC6
:1088800003C081E08093340963EA73E085E098E0F7
:108890000E94F93460915D0970E085E098E00E94E3
:1088A000D72965EB73E085E098E00E94F934609188
:1088B000340970E085E098E00E94D72962EC73E00B
:1088C00085E098E00E94F93460910B0970E085E042
:1088D00098E00E94D72961ED73E085E098E00E945E
:1088E000F9346091E20670E085E098E00E94D729B3
:1088F00080913409882309F1EDECF8E013861286A3
:108900001192119298E0E73DF907C1F77092CE08F5
:108910006092CD087092D8086092D7085092D00823
:108920004092CF085092DA084092D908A2E0B0E015
:10893000B093E408A093E3088BC180915D0988237C
:1089400031F1EDECF8E0138612861192119227EDC9
:1089500038E02E173F07B9F77092CE086092CD0825
:108960007092D8086092D7087092D0086092CF08B1
:108970007092DA086092D9085092D2084092D108D9
:108980005092DC084092DB0883E090E030C0809198
:108990000B09882389F1EDECF8E013861286119219
:1089A000119238E0E73DF307C1F77092CE0860926C
:1089B000CD087092D8086092D7087092D008609263
:1089C000CF087092DA086092D9087092D20860924B
:1089D000D1087092DC086092DB085092D408409273
:1089E000D3085092DE084092DD0884E090E0909336
:1089F000E4088093E3082CC18091E206EDECF8E0F6
:108A0000882321F1138612861192119287ED98E046
:108A10008E179F07B9F7ACEDB5E0B093CE08A093E1
:108A2000CD08E2E3F0E0F093D808E093D708F093A4
:108A3000D008E093CF08F093DA08E093D90822E059
:108A400030E03093E4082093E30802C113861286D5
:108A50001192119287ED98E08E179F07B9F7509207
:108A6000CE084092CD081092D8081092D7083092C4
:108A7000E4082092E308ECC0EDECF8E013861286DF
:108A80001192119298E0E73DF907C1F77092CE0874
:108A90006092CD087092D8086092D7083092E408AE
:108AA0002092E3080E9495058091E306882309F44B
:108AB000CFC01092E306A7E0B0E0C3C0EDECF8E051
:108AC000138612861192119227ED38E02E173F0778
:108AD000B9F77092CE086092CD087092D808609273
:108AE000D7083092E4082092E30860E080917D0985
:108AF00090917E090E9450263092E5062092E4066D
:108B0000A7C0EDECF8E0138612861192119287ED62
:108B100098E08E179F07B9F77092CE086092CD0843
:108B20007092D8086092D7083092E4082092E30847
:108B300083E40E946613892B39F060E080917D09FF
:108B400090917E090E94502610927209109273092A
:108B500010927409109275098FEF9DE5A0EDB2EBAC
:108B60008093760990937709A0937809B093790957
:108B700060E070E0CB010E94C93560E080917B0924
:108B800090917C090E94EB2668EE73E080E090E013
:108B90000E9403158AE00E94661340917209509169
:108BA0007309609174097091750920917B09309166
:108BB0007C09892B29F4445F51406109710904C083
:108BC000445C594061097109C9010E9408258091DE
:108BD000720990917309A0917409B09175098093FD
:108BE000760990937709A0937809B093790968EE94
:108BF00073E080E090E00E9403150E94170662EE89
:108C000073E085E098E00E94F934609172097091F8
:108C1000730980917409909175090E94C9356EEEAF
:108C200073E085E098E00E94F934609176097091D4
:108C3000770980917809909179090E94C935A2E05D
:108C4000B0E0B093E506A093E40602C00E942105BF
:108C50000E94BC110C94143C6AE276E081EF98E02B
:108C60000E94132F0C94D938E20FF31F81E090E09B
:108C7000A0E0B0E00B2C04C0880F991FAA1FBB1FF7
:108C80000A94D2F78095908189230C94543DE20F89
:108C9000F31F81E090E0A0E0B0E00B2C04C0880F4F
:108CA000991FAA1FBB1F0A94D2F780959081892330
:108CB0008083B39488E0B81201C0B12C0F5F1F4FBE
:108CC000C016D10611F00C943F3E0C94603D3092DA
:108CD000E5062092E4068091070790910807A0918D
:108CE0000907B0910A070196A11DB11D80930707DE
:108CF00090930807A0930907B0930A07A9CF85EEC0
:108D000098E00E943D2F8BEE98E00E943D2F81EF6E
:108D100098E00E943D2F87E899E00E943D2F8DE862
:108D200099E00E943D2F83E999E00C943D2FCF9369
:108D3000DF93E8E6F7E01382128248EE53E060E04A
:108D400070E044835583668377838EEB92E0918352
:108D5000808325ED30E03587248724ED30E03787A8
:108D6000268720ED30E0318B208B21ED30E0338BF6
:108D7000228B22ED30E0358B248B26ED30E0378BD3
:108D8000268B118E128E138E148EE5E0F8E013827E
:108D9000128244835583668377839183808385EC35
:108DA00090E09587848784EC90E09787868780ECB5
:108DB00090E0918B808B81EC90E0938B828B82ECA6
:108DC00090E0958B848B86EC90E0978B868B118E50
:108DD000128E138E148EEFE9F9E08CEE92E09183FF
:108DE00080831282138214821582E5EAF9E091836E
:108DF00080831282138214821582EBEAF9E0918358
:108E000080831282138214821582E1EBF9E0918350
:108E100080831282138214821582E7EBF9E091833A
:108E200080831282138214821582EDEBF9E0918324
:108E300080831282138214821582E2EAF8E0918321
:108E400080831282138214821582E8EAF8E091830B
:108E500080831282138214821582E3ECF9E09183FD
:108E600080831282138214821582E9ECF9E09183E7
:108E70008083128213821482158224E630E03093BC
:108E8000AF082093AE08E9E9F9E09183808312826C
:108E900013821482158260E976E083E999E00E94EA
:108EA0004A2F64EA76E08DE899E00E944A2F6DEA45
:108EB00076E087E899E00E944A2FE2E7F9E0108621
:108EC0008CE290E0908B87878BE290E0928B818B95
:108ED0008AE290E0948B838BE9E4F9E084E690E009
:108EE000A0E0B0E080839183A283B38324E430E0E8
:108EF00036A325A329E030E030A727A3E0E2F9E07C
:108F000080839183A283B38325E430E036A325A335
:108F10002DE030E030A727A3E7EFF8E080839183CE
:108F2000A283B3838CE390E096A385A388E090E0CE
:108F300090A787A36AE276E081EF98E00E944A2F2B
:108F40006CEB76E08BEE98E00E944A2F6DE075E0C6
:108F500085EE98E00E944A2FC5ECD8E01D8E1C8E4D
:108F60001F8E1E8E82E090E09983888361E00E94CC
:108F7000BC131B821A821C821D821E821F82E0EBA0
:108F8000F8E011821082138212821386128680ED1D
:108F900092E09187808786EF91E095878487809122
:108FA0003E0290913F02E8E3F2E094838583885388
:108FB00080933702DF91CF9108951F93FC01992789
:108FC0008827BC01E89411911032E9F3193010F0B0
:108FD0001E30C8F31B3249F01D3241F4689405C0BD
:108FE0001CD0610F711D811D911D119110531A30FC
:108FF000B8F33EF490958095709561957F4F8F4FB3
:109000009F4F1F910895BB274A3031F4992322F4D2
:10901000BDE2909581959F4F16C0592F482F372F4D
:10902000262F660F771F881F991F660F771F881FCF
:10903000991F620F731F841F951F660F771F881F6C
:10904000991F0895BB27FB015527AA27880F991F51
:10905000AA1FA41710F0A41B83955051B9F7A05D67
:10906000AA3308F0A95DA193009779F7B111B193E4
:109070001192CB0100C0DC01FC01672F71917723B5
:10908000E1F7329704C07C916D9370836291AE17C3
:10909000BF07C8F3089540D008F481E00895E8942C
:1090A00009C097FB3EF490958095709561957F4F30
:1090B0008F4F9F4F9923A9F0F92F96E9BB279395DE
:1090C000F695879577956795B795F111F8CFFAF4EE
:1090D000BB0F11F460FF1BC06F5F7F4F8F4F9F4F1F
:1090E00016C0882311F096E911C0772321F09EE87D
:1090F000872F762F05C0662371F096E8862F70E0E3
:1091000060E02AF09A95660F771F881FDAF7880FBC
:109110009695879597F90895990F0008550FAA0B12
:10912000E0E8FEEF16161706E807F907C0F012167A
:109130001306E407F50798F0621B730B840B950B7D
:1091400039F40A2661F0232B242B252B21F40895D2
:109150000A2609F4A140A6958FEF811D811D08956F
:109160000BD078C069D028F06ED018F0952309F0A4
:109170005AC05FC01124A2C07ED0A0F3959FD1F346
:10918000950F50E0551F629FF001729FBB27F00DB5
:10919000B11D639FAA27F00DB11DAA1F649F66270A
:1091A000B00DA11D661F829F2227B00DA11D621F59
:1091B000739FB00DA11D621F839FA00D611D221F13
:1091C000749F3327A00D611D231F849F600D211DF7
:1091D000822F762F6A2F11249F5750408AF0E1F09A
:1091E00088234AF0EE0FFF1FBB1F661F771F881FE3
:1091F00091505040A9F79E3F510570F014C05EC0D9
:109200005F3FECF3983EDCF3869577956795B795CD
:10921000F795E7959F5FC1F7FE2B880F911D9695F7
:10922000879597F9089597F99F6780E870E060E067
:1092300008959FEF80EC089500240A9416161706EF
:1092400018060906089500240A9412161306140637
:1092500005060895092E0394000C11F4882352F09A
:10926000BB0F40F4BF2B11F460FF04C06F5F7F4F52
:109270008F4F9F4F089557FD9058440F551F59F039
:109280005F3F71F04795880F97FB991F61F09F3FF3
:1092900079F087950895121613061406551FF2CF1C
:1092A0004695F1DF08C0161617061806991FF1CF6C
:1092B00086957105610508940895E894BB27662793
:1092C0007727CB0197F90895DC01CB01FC01F999CF
:1092D000FECF06C0F2BDE1BDF89A319600B40D9202
:1092E00041505040B8F70895F999FECF92BD81BD25
:1092F000F89A992780B50895A6E1B0E044E050E0DF
:10930000E5CFA8E1B0E042E050E0E0CF262FF999A8
:10931000FECF1FBA92BD81BD20BD0FB6F894FA9A58
:10932000F99A0FBE01960895052E97FB16F4009446
:109330000FD057FD05D024D007FC02D046F408C05A
:1093400050954095309521953F4F4F4F5F4F089571
:1093500090958095709561957F4F8F4F9F4F0895A1
:1093600031D0A59F900DB49F900DA49F800D911DAD
:1093700011240895B7FFF4CFF3DF821B930B0895F8
:10938000A1E21A2EAA1BBB1BFD010DC0AA1FBB1F09
:10939000EE1FFF1FA217B307E407F50720F0A21B7B
:1093A000B30BE40BF50B661F771F881F991F1A94E8
:1093B00069F760957095809590959B01AC01BD0112
:1093C000CF010895A29FB001B39FC001A39F700D6C
:1093D000811D1124911DB29F700D811D1124911DBD
:1093E00008955058BB27AA270ED034CF25DF30F080
:1093F0002ADF20F031F49F3F11F41EF41ACF0EF44F
:10940000E095E7FB10CFE92F36DF80F3BA1762074C
:1094100073078407950718F071F49EF54ECF0EF48C
:10942000E0950B2EBA2FA02D0B01B90190010C0174
:10943000CA01A0011124FF27591B99F0593F50F48C
:10944000503E68F11A16F040A22F232F342F4427E4
:10945000585FF3CF469537952795A795F0405395DC
:10946000C9F77EF41F16BA0B620B730B840BBAF0AC
:109470009150A1F0FF0FBB1F661F771F881FC2F717
:109480000EC0BA0F621F731F841F48F4879577952B
:109490006795B795F7959E3F08F0B3CF9395880FE2
:1094A00008F09927EE0F97958795089504D0689452
:1094B000B11104CF0895E7DE88F09F5790F0B92FDF
:1094C0009927B751A0F0D1F0660F771F881F991F19
:1094D0001AF0BA95C9F712C0B13081F0EEDEB1E0F2
:1094E0000895EBCE672F782F8827B85F39F0B93F02
:1094F000CCF3869577956795B395D9F73EF490951B
:109500008095709561957F4F8F4F9F4F089504DE32
:1095100008F48FEF089511F40EF48BCE42C0B3DE41
:10952000D0F39923D9F3CEF39F57550B87FF47D03C
:109530000024A0E640EA900180585695979528F4BB
:10954000805C660F771F881F20F0261737074807B3
:1095500030F4621B730B840B202931294A2BA6950A
:1095600017940794202531254A2758F7660F771F4F
:10957000881F20F026173707480730F4620B730B5B
:10958000840B200D311D411DA09581F7B901842F59
:109590009158880F969587950895BEDD880B990B95
:1095A00008959F3F31F0915020F487957795679506
:1095B000B795880F911D9695879597F908959150C5
:1095C0005040660F771F881FD2F70895DB018F93F5
:1095D0009F93C6DEBF91AF91A29F800D911DA39F67
:1095E000900DB29F900D11240895EE0FFF1F881F5C
:1095F0008BBF0790F691E02D19940F931F93CF9393
:10960000DF938230910510F482E090E0E091D1097F
:10961000F091D20920E030E0A0E0B0E0309719F1FD
:10962000408151810281138148175907C8F084177E
:10963000950769F4109731F012960C9312971396D0
:109640001C9327C00093D1091093D20922C0211581
:10965000310519F04217530718F49A01BD01EF01C3
:10966000DF01F801DBCF21153105F9F0281B390B9B
:109670002430310580F48A819B816115710521F0C8
:10968000FB019383828304C09093D2098093D10914
:10969000FE01329644C0FE01E20FF31F81939193C5
:1096A00022503109398328833AC02091CF09309163
:1096B000D009232B41F42091420230914302309390
:1096C000D0092093CF092091400230914102211509
:1096D000310541F42DB73EB7409144025091450207
:1096E000241B350BE091CF09F091D009E217F30765
:1096F000A0F42E1B3F0B2817390778F0AC014E5F02
:109700005F4F2417350748F04E0F5F1F5093D00965
:109710004093CF098193919302C0E0E0F0E0CF0144
:10972000DF91CF911F910F910895CF93DF93009711
:1097300009F481C0FC01329713821282A091D109F1
:10974000B091D209109781F420813181820F931F4B
:109750002091CF093091D0092817390751F5F0939E
:10976000D009E093CF0967C0ED0120E030E0CE17CB
:10977000DF0740F44A815B819E0141155105F1F0FC
:10978000EA01F5CFD383C28340815181840F951FB5
:10979000C817D90759F488819981840F951F0296BB
:1097A000918380838A819B819383828321153105F4
:1097B00029F4F093D209E093D1093DC0E901FB837C
:1097C000EA8349915991C40FD51FEC17FD0761F445
:1097D00080819181840F951F0296E9019983888386
:1097E000828193819B838A83E0E0F0E012968D91E1
:1097F0009C911397009719F0FD01DC01F7CF8D9133
:109800009C9111979D012E5F3F4F820F931F2091D6
:10981000CF093091D0092817390769F4309729F416
:109820001092D2091092D10902C013821282B09311
:10983000D009A093CF09DF91CF9108956F927F92C5
:109840008F929F92AF92BF92CF92DF92EF92FF9250
:109850000F931F93CF93DF93009781F4CB01DF9198
:10986000CF911F910F91FF90EF90DF90CF90BF901D
:10987000AF909F908F907F906F90BFCEFC01E60FCE
:10988000F71F9C0122503109E217F30708F4A5C025
:10989000EC01D9010D911C91119706171707A8F03B
:1098A0000530110508F497C0C8010497861797077B
:1098B00008F491C002501109061B170B0193119374
:1098C0006D937C93CF0131DF86C05B01A01AB10A92
:1098D0004C01800E911EA091D109B091D209612C4A
:1098E000712CE12CF12C109709F446C08D919C91BC
:1098F0001197A815B905B1F56C0142E0C40ED11C51
:10990000CA14DB0478F14C018A189B08640142E018
:10991000C40ED11C1296BC9012971396AC91B5E070
:10992000CB16D10440F0B282A38391828082D90108
:109930006D937C9309C00E5F1F4F800F911FF9013B
:1099400091838083EB2DFA2FE114F10431F0D701DC
:109950001396FC93EE9312973EC0F093D209E093D6
:10996000D10939C06816790608F43C017D011296C8
:109970000D90BC91A02DB7CF8091CF099091D009C7
:1099800088169906E1F466167706C8F480914002BD
:1099900090914102009741F48DB79EB740914402E7
:1099A00050914502841B950BE817F907B0F4F0932A
:1099B000D009E093CF09F901718360830CC0CB011A
:1099C0001CDE7C01009749F0A801BE011BD0CE012E
:1099D000ACDEC70104C0CE0102C080E090E0DF91A0
:1099E000CF911F910F91FF90EF90DF90CF90BF909C
:1099F000AF909F908F907F906F90089581E090E05E
:109A0000F89445C0FB01DC0102C001900D92415069
:109A10005040D8F70895DC0101C06D93415050408B
:109A2000E0F70895FC018191861721F08823D9F78A
:109A3000992708953197CF010895FB01DC018D919D
:109A4000019080190110D9F3990B0895FB01DC01F5
:109A500001900D920020E1F70895FB0151915523EB
:109A6000A9F0BF01DC014D9145174111E1F759F40F
:109A7000CD010190002049F04D9140154111C9F3ED
:109A8000FB014111EFCF81E090E00197089511E0D3
:109A9000C1E5D1E000E005C0802FFE01A6DD2196E2
:109AA000011DC235D10780E00807B1F7F894FFCF58
:109AB00045124512451245124512451245124512EE
:109AC000080808084101C0A85601D2049426E803FA
:109AD0000000E093040070170000B80B0000D007EE
:109AE000000000C0C0A85600DEADBEEF0000784602
:109AF0000000D3098000E8030000000000005D0AB8
:109B00003E0C6C0D570D460B230BC10A1410AD0C07
:109B10003D0B200D8A0C860A830A810A520A770AB5
:109B2000E70FA30F760F730A01005E00000000002C
:109B30000000220A6D0EAF0A1330380AFA0AB20A80
:109B4000200C7531120CF50EAB0BB40E4F0BDB0A6B
:109B5000A60A960A920A8E0A00000000A6125A2A45
:109B6000AF0A592AA612A612A612000000004F1131
:109B70005A2ADE109B110F11ED1001110000000098
:109B80003C0AFE0DAF0A592A3C0F5D0C0000000094
:109B9000A6125A2AAF0A592A0000000060120000DB
:109BA0000000A612535441525400506172616D5727
:109BB0006966693A4D4F44453D41502649503D3113
:109BC00039322E3136382E312E313526534E3D3234
:109BD00035352E3235352E3235352E302653534914
:109BE000443D002650573D6F736D6F736570617310
:109BF000732650726F647569743D00264E756D5002
:109C0000726F647569743D0026436F6465566572B2
:109C100073696F6E3D0041705F4641494C20746925
:109C20006D656F75740A00726563657041506F6B86
:109C30003D0041705F4F4B00203D3E20417020743D
:109C40007275650A00203D3E2041702066616C738C
:109C5000650A0064656661757420736F7566666C6D
:109C60006167653D00646566617574206173706944
:109C70003D00646566617574207065726970683D49
:109C800000736F7566666C61676520636F7570C37E
:109C9000A90063757272656E537465703A007374CF
:109CA0006570426F74746F6D3A00706172616D73AC
:109CB0005374617475743A00626100260062620038
:109CC000626300626400626500626600626700624F
:109CD0006800626900626A00626B00626C00626D1B
:109CE00000626E00626F006270006271006272005A
:109CF00062730062740062750062760062770062CF
:109D000079007A61007A62007A63007A64007A6589
:109D10000057616B6555703A0074656D706F425005
:109D20004E6574746F796167653A20007061726185
:109D30006D7354656D706F3A00726563657074651C
:109D40006D706F6F6B3D0054656D706F5F4F4B00B2
:109D50007472756500706172616D734754433A00A7
:109D600063610063620063630063640063650063B2
:109D70006600636700636800636900636A00636B81
:109D800000636C004754435F4F4B000A7372656178
:109D90006473657269616C3D0061707072656E74A8
:109DA0006973736167650072657365745573696E75
:109DB00065003139322E3136382E312E00313932AC
:109DC0002E3136382E312E310072656365704F4B5F
:109DD0006E6565645374617475743A6E6565645339
:109DE00074617475740072656365704F4B7265635E
:109DF00065704F4B6E656564537461747574007261
:109E0000656365704F4B72656365704F4B007061A1
:109E100072616D7354656D706F000A735061726189
:109E20006D3D004245464F52453A2050657269707B
:109E3000682E736575696C4465666175743D004193
:109E4000465445523A205065726970682E736575A4
:109E5000696C4465666175743D0054656D706F5F33
:109E60004F4B0A00536F7566666C6167652E636FB2
:109E70006E7369676E6544656269743D0041737015
:109E800069726174696F6E2E636F6E7369676E6558
:109E900044656269743D00706172616D734754433B
:109EA000004245464F52453A2061646472657373BF
:109EB000653D0041465445523A20616464726573C1
:109EC00073653D004754435F4F4B0A006E616E005F
:109ED000696E66006F7666000D0A006375727265C2
:109EE0006E7420737465703A006D6F766520746FC0
:109EF000207570006D6F766520746F20646F776ECB
:109F0000004644434200504F532052454143484588
:109F100044006D6F6E746572004644434800696E7C
:109F20007465727275707465640064657363656EE0
:109F300064726500494E5445525255505445440090
:109F4000536D61727420466C6F772032303020760A
:109F5000322E320053463230302E322E00534632EB
:109F6000303076325F313930393034003139322E89
:0A9F70003136382E312E3131320027
:00000001FF
