:100000000C945D030C948E030C948E030C948E035D
:100010000C948E030C948E030C948E030C948E031C
:100020000C948E030C948E030C948E030C948E030C
:100030000C948E030C948E030C948E030C948E03FC
:100040000C948E030C948E030C948E030C948E03EC
:100050000C948E030C948E030C948E030C949E5C73
:100060000C948E030C94745C0C944A5C0C948E0378
:100070000C948E030C948E030C948E030C948E03BC
:100080000C948E030C948E030C948E030C948E03AC
:100090000C94205C0C94F65B0C948E030C948E03F1
:1000A0000C948E030C948E030C948E030C948E038C
:1000B0000C948E030C948E030C948E030C948E037C
:1000C0000C948E030C948E030C948E030C94CC5BD6
:1000D0000C94A25B0C948E030C948E030C948E03F0
:1000E0000C948E030C948E520C94FB540C944B5233
:1000F0000C949E570C94DC0C0C94503D0C94B55110
:100100000C945D400C9458500C94A9080C94A54A8A
:100110000C94B3310C94644B0C940F080C942D5D2B
:100120000C94EC700C94A30D0C94B1080C949156A3
:100130000C940D2B0C94070A0C942F0A0C94355533
:100140000C9471710C94C0090C9491080C94835117
:100150000C9467570C944D0D0C94892D0C940C56EF
:100160000C9476080C9432520C9471700C94934B4E
:100170000C949E520C943A560C9468070C94F20C12
:100180000C9423560C9486550C94F2370C94CE5153
:100190000C94C0550C9420300C9424510C9449506C
:1001A0000C949B6F0C9469400C94EB4F0C942F2B88
:1001B0000C9450440C94840D0C9486770C94F84F56
:1001C0000C9450510C9469510C94EF330C94F541FC
:1001D0000C9410570C94E7510C949B540C94D04BF6
:1001E0000C943A510C94E52A0C943A500C94CB544C
:1001F0000C94AD080C94A8560C94AF500C94250A9E
:100200000C9438340C94BF560C9454070C94AC09DD
:100210000C9445070C949A2E0C94D6560C940E51BF
:100220000C94880D0C94F8500C94C0320C943D71D1
:100230000C94390D0C94FD190C940D500C947B38D2
:100240000C9495080C94982D0C94F4360C94C74B90
:100250000C9467370C9438310C94440D0C943C4B3F
:100260000C9402400C9495500C94DA090C94FD0601
:100270000C94DE550C944A6F0C94EB540C94F27170
:100280000C9457560C94B54B0C9440380C94B94FC1
:100290000C94C8500C94A3080C94F3560C943C0D89
:1002A0000C94AC4B0C9400520C94764B0C94F5557A
:1002B0000C948C0D0C94C63C0C9474560C940A4B04
:1002C0000C94792F0C94F86F0C9480080C94BB5408
:1002D0000C94FD090C9469550C94370D0C94880806
:1002E0000C9418550C947F4B0C949F080C948A1C0A
:1002F0000C944A570C949B080C942D570C94FE06B2
:100300000C94B6080C949D090C9471420C94D94B32
:100310000C943B450C9415380C94734F0C94DB549F
:100320000C9452550C947C080C949C0D0C94FF0674
:100330000C949C510C94A34B0C94BF430C9470529E
:100340000C94C8090C94080D0C94A2090C945B4BF6
:100350000C94B6090C94CA2A0C94813F0C946943FE
:100360000C9417330C9428500C9498310C94E25050
:100370000C94BE4B0C949A4B0C947F520C94AE4050
:100380000C94A3550C94AE520C94EE090C948A4B29
:100390000C947C500C94FE440C940C380C94233137
:1003A0000C94682B0C942D0D0C94974F0C94C20751
:1003B0000C94BB080C946D4B0C94290D0C94840880
:1003C0000C94130D0C94524B0C9419520C94F90686
:1003D0000C94B7080C941B0A0C9461520C94064BB5
:1003E0000C946A500C94C84F0C94D0090C943C3F68
:1003F0000C94E4090C9495090C9484570C94FF42D6
:100400000C94EE6E0C94FB2F0C948B080C947607D6
:100410000C94AB540C942A440C94110A0C940E3492
:100420004E414E494E495459494E46CDCCCC3D0AD9
:10043000D7233C17B7D13877CC2B329595E6241FBC
:10044000B14F0A000020410000C84200401C462075
:10045000BCBE4CCA1B0E5AAEC59D7400407A10F348
:100460005A00A0724E18090010A5D4E80000E876E2
:1004700048170000E40B54020000CA9A3B00000039
:10048000E1F505000080969800000040420F000052
:1004900000A08601000000102700000000E8030013
:1004A0000000006400000000000A000000000001DD
:1004B00000000000002C76D888DC674F0823DFC1DD
:1004C000DFAE59E1B1B796E5E3E453C63AE6519998
:1004D0007696E8E6C28426EB898C9B62ED407C6FC1
:1004E000FCEFBC9C9F40F2BAA56FA5F490055A2A78
:1004F000F75C936B6CF9676DC11BFCE0E40D47FE84
:10050000F520E6B500D0ED902E0300943577050078
:1005100080841E080000204E0A000000C80C3333FF
:1005200033330F986E12831141EF8D2114893BE60E
:100530005516CFFEE6DB18D1844B381BF77C1D9097
:100540001DA4BBE424203284725E228100C9F12400
:10055000ECA1E53D2700002100240027002A002D02
:10056000003000330001010000040107010A01000E
:10057000002200250028002B002E0031003400024C
:10058000010000050108010B0100000A0B02090C23
:100590000D0E080703040100000000000000000029
:1005A000000000000000000000000000000000004B
:1005B0000000000000121110000000000000000008
:1005C000000000000000000000000000000000002B
:1005D00000000000000000000000005EBCE2613F7F
:1005E000DD83C29C7E20A3FD1F41009D23BE46DB10
:1005F00065F88C11AF32CA57E9740000200023005F
:10060000260029002C002F00320000010000030109
:100610000601090105050505070508080808020285
:1006200002020A0A0808040404040101010101018C
:1006300001010303030303030303040707070C0C6F
:100640000C0C0C0C0C0C0202020206060606060636
:1006500006060B0B0B0B0B0B0B0B0A050A0A050A04
:100660000A0404040A010210202008081020401087
:100670002040800201020108040201010204081066
:100680002040808040201008040201800402018084
:1006900040201008040201080402010102040810AD
:1006A000204080010204081020408008400480801F
:1006B0004020102040102D5D867711241FBECFEF03
:1006C000D1E2DEBFCDBF00E00CBF1AE0A0E0B2E097
:1006D000E8E9F5E001E00BBF02C007900D92AC34F1
:1006E000B107D9F722E1ACE4BAE001C01D92A93C00
:1006F000B207E1F713E0CCE5D3E000E006C02197B4
:100700000109802FFE010E944F80CB35D10780E088
:100710000807A9F70E9458620C94BA820C94000052
:10072000FC01A089B18982E08C93A485B5851C92D7
:10073000A685B7858FEC8C93108EA489B58986E049
:100740008C93A289B3898C9180618C93A289B3899F
:100750008C9188608C93A289B3898C9180688C93EA
:100760000288F389E02D80818F7D80830895411573
:10077000510561057105D1F020E0009719F0FC01E9
:10078000208101962EBD415051096109710951F036
:10079000009719F0FC01208101960DB407FEFDCFF2
:1007A0003EB5F0CF0DB407FEFDCF8EB508958CBDDC
:1007B0009DBD08958F929F92AF92BF92CF92DF928C
:1007C000EF92FF92CF93DF93EC018AAD811131C09C
:1007D000EE8DFF8DC080D180E280F380CEA2DFA2BB
:1007E000E8A6F9A6EC8DFD8D80819181A281B3816F
:1007F0008AA79BA7ACA7BDA78EA89FA8A8ACB9AC99
:10080000A5019401C701B6010E94E37F18162CF4DC
:100810008EA29FA2A8A6B9A60CC08AA89BA8ACA825
:10082000BDA8A5019401C701B6010E94057D87FD01
:10083000EFCF81E08AAFDF91CF91FF90EF90DF9013
:10084000CF90BF90AF909F908F900895CF93DF93FC
:10085000C82F80916B0B90916C0B44971CF1809189
:100860001B1290911C12DC01ED91FC910284F38526
:10087000E02D199597FFF3CF1092F9111092FA110C
:100880001092FB11109215121092141210926C0B10
:1008900010926B0B8CEF91E19093111280931012D8
:1008A0001092FC1180916B0B90916C0B01969093C0
:1008B0006C0B80936B0BE0911012F0911112CF0131
:1008C00001969093111280931012C183C350DD0BD7
:1008D000229710F410921812DF91CF910895E091B1
:1008E0001012F091111281E1EC3FF807A9F0A0F08D
:1008F0008FEF808380911012909111120197909345
:1009000011128093101280916B0B90916C0B0197D8
:1009100090936C0B80936B0B089580911B129091B8
:100920001C12DC01ED91FC910084F185E02D1995FC
:100930001816190694F780911B1290911C12DC0175
:10094000ED91FC910284F385E02D19950895CF93E4
:10095000C82F109217121092161280911B129091AC
:100960001C12DC01ED91FC910084F185E02D1995BC
:10097000892BE1F48DEF9FEF90931712809316125D
:1009800020911612309117122D3F3F4FE1F48091C4
:10099000FB11882341F0E0911F12F0912012309753
:1009A00011F0C111199590E080E073C080911B1285
:1009B00090911C12DC01ED91FC910284F385E02DF5
:1009C00019959927DDCFC82FE0911012F0911112DF
:1009D0008081813009F467C008F453C0823009F483
:1009E00077C0E0911012F091111290818DEF890F74
:1009F000823008F07EC0909118122C2F992319F0A4
:100A00002091690B2C272093690BE92FF0E0ED5919
:100A1000F44FC083953009F0B6C02111AEC080916B
:100A2000FB118E3008F0A2C0A091FA112A2F30E0FD
:100A300090E04091630B5091640B6091650B76E000
:100A4000009709F47BC02150310910F42FE030E009
:100A5000729FF001739FF00D1124E756FE4EB08196
:100A6000B4136AC0B181B51367C0B281B61364C054
:100A70008091660B83838091670B84831092181298
:100A800017C0CA3061F0CB3081F1C73021F081E06E
:100A900090E0CF91089584E00E942604A2CF1092A6
:100AA0006A0B86E0F9CFCA30D1F328F4C63069F773
:100AB0000E946F04ECCFCB30C1F0C53141F70E94EA
:100AC0006F048CEF9FEF9093171280931612DFCF75
:100AD000C73009F330F4C530D1F60E946F0483E0CB
:100AE000DBCFCA30E1F2CB3091F610926A0B87E08F
:100AF000D3CF9650923058F680916A0B813009F42A
:100B00004CC008F444C0823011F6C093620B83E0FD
:100B100080936A0B8091600B8A3009F04CC0E091A1
:100B20002112F09122123097E1F16C2F8091610B2C
:100B300019950E948D04BCCF019782CF86E0A89FB3
:100B4000D0011124A756BE4EE3E6FBE001900D92C2
:100B50008A95E1F78091FA118F5F8F708093FA1177
:100B60008091FB118F5F8093FB1188CF8BEF9FEFFC
:100B7000909317128093161281CF28EF3FEF309396
:100B80001712209316129F5F9093181280CFC09374
:100B9000600B81E080936A0B7ACFC093610B82E097
:100BA000F9CF8091620B81508093620B882309F208
:100BB0000E948D04F6CF8B3009F0BBCFE091231259
:100BC000F0912412309709F0B0CF8091620B8150E0
:100BD0008093620B882309F4ACCF80911B12909113
:100BE0001C12DC01ED91FC910084F185E02D19953A
:100BF0001816190694F780911B1290911C12DC01B3
:100C0000ED91FC910284F385E02D199580911B12E2
:100C100090911C12DC01ED91FC910284F385E02D92
:100C20001995D3CF20E3FC0120833296862F82953D
:100C30008F706F706A3030F4605D6293682F81113D
:100C4000F5CF0895695CF9CF9091AF12E091B012A1
:100C5000F091B112292F209580FF14C0F894828161
:100C6000822382838181892B8183A3E2B0E0119763
:100C7000F1F78281982B9283789487ED90E0019729
:100C8000F1F70895F8948281822382838181892BF0
:100C90008183AFEFB0E01197F1F78281982B9283B7
:100CA00078948FE090E0EBCF8091AF12E091B0129A
:100CB000F091B112F8949181982B91832281382F71
:100CC000309523232283A7E0B0E01197F1F79181BB
:100CD00093239183A3E2B0E01197F1F79081789488
:100CE000EFECF0E03197F1F7982381E009F480E030
:100CF0000895FF920F931F93CF93DF93F82E062F43
:100D0000C8E0D0E011E081E09F2D912309F480E05C
:100D10000E942406110F2197B1F7011113C0F89416
:100D2000E091B012F091B11291818091AF12809553
:100D300098239183E091B012F091B11292818923AE
:100D400082837894DF91CF911F910F91FF90089546
:100D50008091AF12E091B012F091B112F8949181AC
:100D6000282F20959223918378943DE743E050E02B
:100D7000315029F1DA011197F1F790819823C1F3ED
:100D8000F8949281922392839181982B9183789405
:100D9000ABE7B7E01197F1F7F89491819223918333
:100DA000A3E1B1E01197F1F79081982381E009F078
:100DB00080E07894E3E6F6E03197F1F7089580E07B
:100DC00008950F931F93CF93DF938C0160E085E527
:100DD0000E947906E801085F1F4F60E089910E9438
:100DE0007906C017D107C9F7DF91CF911F910F91F5
:100DF0000895FC01818D928D089508950895AF9214
:100E0000BF92CF92DF92EF92FF920F931F93CF93F7
:100E1000DF936C017B018B01040F151FEB015E0159
:100E2000AE18BF08C017D10759F06991D601ED91EE
:100E3000FC910190F081E02DC6011995892B79F77D
:100E4000C501DF91CF911F910F91FF90EF90DF903F
:100E5000CF90BF90AF900895FC01A089B1898C918B
:100E6000A689B78982FD0FC09C91818D8F5F8F739A
:100E7000228D821749F0A18DAE0FBF2FB11D5D9657
:100E80009C93818F08958C910895FC01538D448D1E
:100E9000252F30E0842F90E0821B930B541710F025
:100EA000CF96089501970895FC01918D828D981732
:100EB00061F0A28DAE0FBF2FB11D5D968C91928D0A
:100EC0009F5F9F73928F90E008958FEF9FEF08953B
:100ED000FC01918D828D981731F0828DE80FF11D04
:100EE000858D90E008958FEF9FEF0895FC01918D1F
:100EF000228D892F90E0805C9F4F821B91098F7318
:100F0000992708958DE69BE00E94760721E0892BC2
:100F100009F420E0822F08958AE09CE00E94760781
:100F200021E0892B09F420E0822F089587EA9CE0D4
:100F30000E94760721E0892B09F420E0822F089592
:100F4000FC01A48DA80FB92FB11DA35ABF4F2C913E
:100F5000848D90E001968F739927848FA689B78935
:100F60002C93A089B1898C91837080648C93938D2C
:100F7000848D981306C00288F389E02D80818F7DCF
:100F800080830895EF92FF920F931F93CF93DF9387
:100F9000EC0181E0888F9B8D8C8D98131AC0E889B5
:100FA000F989808185FF15C09FB7F894EE89FF8984
:100FB0006083E889F98980818370806480839FBF22
:100FC00081E090E0DF91CF911F910F91FF90EF9022
:100FD0000895F62E0B8D10E00F5F1F4F0F73112732
:100FE000E02E8C8D8E110CC00FB607FCFACFE8896D
:100FF000F989808185FFF5CFCE010E94A007F1CF4E
:10100000EB8DEC0FFD2FF11DE35AFF4FF0829FB7E0
:10101000F8940B8FEA89FB8980818062CFCFCF93D0
:10102000DF93EC01888D8823B9F0AA89BB89E88910
:10103000F9898C9185FD03C0808186FD0DC00FB6B6
:1010400007FCF7CF8C9185FFF2CF808185FFEDCF34
:10105000CE010E94A007E9CFDF91CF91089580E0F3
:1010600090E0892B29F00E94960781110E940000D0
:1010700080E090E0892B29F00E948C0781110E946A
:10108000000080E090E0892B29F00E948207811106
:101090000E94000080E090E0892B49F080E090E021
:1010A000892B29F00E94000081110C940000089502
:1010B0008150823108F05AC0E82FF0E08827EC59BF
:1010C000F74F8F4F0C944F808408880876087C086F
:1010D0008008B6088B08910895089B089F08A3080C
:1010E000A908AD08B608B108B708BB088091800010
:1010F0008F77809380000895809180008F7DF9CF55
:1011000080918000877FF5CF84B58F7784BD089567
:1011100084B58F7DFBCF8091B0008F778093B00036
:1011200008958091B0008F7DF9CF809190008F77E6
:10113000809390000895809190008F7DF9CF8091E9
:101140009000877FF5CF8091A0008F778093A000DB
:1011500008958091A0008F7DF9CF8091A000877FB6
:10116000F5CF809120018F778093200108958091A1
:1011700020018F7DF9CF80912001877FF5CFCF931C
:10118000DF93282F30E0F901E757FA4F8491F901F6
:10119000EB59F94FD491F901EC5EF94FC491CC238E
:1011A000A1F081110E945808EC2FF0E0EE0FFF1F14
:1011B000E650FA4FA591B491EC91ED2381E090E0D7
:1011C00009F480E0DF91CF91089580E090E0FACFBC
:1011D0001F93CF93DF93282F30E0F901E757FA4FA1
:1011E0008491F901EB59F94FD491F901EC5EF94F73
:1011F000C491CC23A9F0162F81110E945808EC2F1E
:10120000F0E0EE0FFF1FE159FA4FA591B4918FB7AF
:10121000F894EC91111108C0D095DE23DC938FBFB8
:10122000DF91CF911F910895DE2BF8CFCF93DF93FD
:1012300090E0FC01EB59F94F24918C5E994FFC0131
:1012400084918823D1F090E0880F991FFC01EB5A1C
:10125000FA4FA591B491FC01E159FA4FC591D4918F
:1012600061110EC09FB7F8948C91E22FE0958E2308
:101270008C932881E223E8839FBFDF91CF9108956B
:101280008FB7F894EC91E22BEC938FBFF6CF61E02F
:1012900085E30E94E80861E085E30E9416098CB5A9
:1012A00080618CBD8CB580648CBD61E084E30E945C
:1012B000160961E083E30C9416091F93CF93DF9323
:1012C000182FEB0161E00E941609209739F460E0C5
:1012D000812FDF91CF911F910C94E808CF3FD1056A
:1012E00011F461E0F5CFE12FF0E0E757FA4FE49118
:1012F000E150E23108F0B3C0F0E08827ED57F64F37
:101300008F4F0C944F8095099D09A209AC09B6092D
:101310002F0AC009C809D009DA09E409EE09FD0954
:10132000070A2F0A110A1B0A250A84B5806884BDA2
:10133000C7BDDF91CF911F91089584B5806284BDB0
:10134000C8BDF7CF80918000806880938000D093E3
:101350008900C0938800EDCF8091800080628093E7
:101360008000D0938B00C0938A00E3CF80918000EF
:10137000886080938000D0938D00C0938C00D9CF7B
:101380008091B00080688093B000C093B300D1CF4B
:101390008091B00080628093B000C093B400C9CF48
:1013A00080919000806880939000D0939900C093C2
:1013B0009800BFCF80919000806280939000D0937E
:1013C0009B00C0939A00B5CF809190008860809375
:1013D0009000D0939D00C0939C00ABCF8091A00063
:1013E00080688093A0008091A0008F7B8093A000F4
:1013F000D093A900C093A8009CCF8091A0008062E8
:101400008093A000D093AB00C093AA0092CF8091AC
:10141000A00088608093A000D093AD00C093AC0082
:1014200088CF80912001806880932001D09329018A
:10143000C09328017ECF809120018062809320019B
:10144000D0932B01C0932A0174CF80912001886032
:1014500080932001D0932D01C0932C016ACFC03816
:10146000D1050CF03ECF33CF863308F08653209160
:101470007B00982F9870277F922B90937B0087702A
:10148000806480937C0080917A00806480937A00ED
:1014900080917A0086FDFCCF809178009091790050
:1014A00008953FB7F8948091F40A9091F50AA091BD
:1014B000F60AB091F70A26B5A89B05C02F3F19F090
:1014C0000196A11DB11D3FBFBA2FA92F982F8827C4
:1014D000BC01CD01620F711D811D911D42E0660F9F
:1014E000771F881F991F4A95D1F708958F929F9271
:1014F000AF92BF92CF92DF92EF92FF924B015C01CD
:101500000E94510A6B017C010E94510A6C197D09ED
:101510008E099F09683E734081059105A8F321E07B
:10152000821A9108A108B10888EEC80E83E0D81E7F
:10153000E11CF11C81149104A104B10429F7FF906E
:10154000EF90DF90CF90BF90AF909F908F900895D5
:101550002FB7F8946091F00A7091F10A8091F20A25
:101560009091F30A2FBF0895CF92DF92EF92FF92EE
:101570000E94A80A20911212309113126901330FB0
:10158000EE08FF08C60ED71EE81EF91E0E94A80A24
:101590006C157D058E059F05F8F480E00E94A70478
:1015A000019771F40E94A80A20911212309113122F
:1015B0006901330FEE08FF08C60ED71EE81EF91E9C
:1015C000E0911012F091111280818111DFCFFF9014
:1015D000EF90DF90CF9008958FEF9FEF90931712C9
:1015E00080931612F4CFEF92FF920F931F93CF9335
:1015F000DF93E82EC62FF42ED52F0E94B40A109246
:101600001712109216120BE112E1D8018D919C91E4
:10161000DC01ED91FC910190F081E02D61E01995E4
:10162000F80180819181DC01ED91FC910190F081C4
:10163000E02D6E2D1995F80180819181DC01ED91ED
:10164000FC910190F081E02D6C2F199561E0C62787
:10165000CE25F80180819181DC01ED91FC91019012
:10166000F081E02D6D2F1995CF25F80180819181B2
:10167000DC01ED91FC910190F081E02D6F2D199529
:10168000F801808191816D2F6C27DC01ED91FC9137
:101690000190F081E02D199581E00E94260490E0F0
:1016A00080E0DF91CF911F910F91FF90EF9008950F
:1016B0000F931F93CF93DF93EC010E94B40A0BE1C9
:1016C00012E1D8018D919C91DC01ED91FC9101908A
:1016D000F081E02D64E01995F80180819181DC01B1
:1016E000ED91FC910190F081E02D6C2F1995F8019E
:1016F00080819181BE01F4E06F27DC01ED91FC91C6
:101700000190F081E02D199581E0DF91CF911F913B
:101710000F910C942604FC0120812EBD9B012150C9
:10172000310941F051810DB407FEFDCF4EB55EBDCC
:101730004193F5CF61507109860F971F0DB407FED5
:10174000FDCF2EB5FC0120830895E091EC0AF091C5
:10175000ED0A80819091EB0A892B80830895E091B6
:10176000EC0AF091ED0A90818091EB0A8095892333
:10177000808308958EBD00000DB407FEFDCF8EB5A9
:101780000895AF92BF92CF92DF92EF92FF920F93A4
:101790001F93CF93DF9300D000D01F921F92CDB73D
:1017A000DEB78C016B017A0180915D0B8333E9F424
:1017B0005B016801C40ED51EC016D10609F46CC0C9
:1017C0000E94AF0B80EF0E94BA0B812F0E94BA0BD0
:1017D000802F0E94BA0B0F5F1F4FF50181915F01AF
:1017E0000E94BA0B0E94A50BE7CF8433A9F40E9494
:1017F000AF0B19830A838F2D80688B83EC8264E0A2
:1018000070E0CE0101960E948B0BA70170E060E0B2
:10181000C6010E94B7033EC00E94AF0B0F3F1105E7
:1018200009F028F419820A8384E08B830CC017FD29
:101830001AC019820A8333E0169507953A95E1F7A5
:10184000007E0C600B8386E0E816F104B8F5F60123
:10185000DE01149696012E0D3F1D2E173F0799F0BD
:1018600081918D93FACFC80126E0969587952A95A8
:10187000E1F7807E19830A830115104C10F484610E
:10188000D4CF8C61D2CFB7016D5F7F4FCE0101966F
:101890000E948B0B0E94A50BC70128960FB6F894E7
:1018A000DEBF0FBECDBFDF91CF911F910F91FF9093
:1018B000EF90DF90CF90BF90AF90089563E070E01D
:1018C000A0CFCF93DF931F92CDB7DEB7898341E0DE
:1018D00050E0BE016F5F7F4F90E080E00E94C10B3F
:1018E0000F90DF91CF91089590E020915D0B23330D
:1018F00039F40C96982F990F990F990F80E008955D
:101900004896F8CFDA01E091EE0AF0E0FE2FEE27DC
:10191000E60FF71F90E0982F8827A901BD018E0FD1
:101920009F1F0C94C10BCF93DF931F921F92CDB7D3
:10193000DEB779836A8322E030E0AE014F5F5F4F0C
:1019400060E170E00E94820C0F900F90DF91CF91C8
:101950000895CF93DF931F921F92CDB7DEB779839F
:101960006A8322E030E0AE014F5F5F4F64E070E0D9
:101970000E94820C0F900F90DF91CF910895CF932A
:10198000DF931F92CDB7DEB72091EE0A30E0322F01
:101990002227260F371F90E0982F8827498341E0A0
:1019A00050E0BE016F5F7F4F820F931F0E94C10BFB
:1019B0000F90DF91CF910895CF93DF931F92CDB712
:1019C000DEB76983DC01ED91FC910280F381E02DAB
:1019D00041E050E0BE016F5F7F4F19950F90DF919E
:1019E000CF910895CF93DF931F92CDB7DEB7698370
:1019F000DC01ED91FC910280F381E02D41E050E0AB
:101A0000BE016F5F7F4F19950F90DF91CF910895C1
:101A1000FC019485FB018485981303C081E092301A
:101A200008F080E00895CF93DF931F92CDB7DEB723
:101A30006983DC01ED91FC910280F381E02D41E0AE
:101A400050E0BE016F5F7F4F19950F90DF91CF91EE
:101A50000895FC01768765870895DC01ED91FC917E
:101A600002A0F3A1E02D199591E089270895862F12
:101A7000089581E08627089521E0FC018485823065
:101A800008F020E0822F0895089544E050E0BC0162
:101A90008FE090E00C94C10B0895FF920F931F9379
:101AA000CF93DF93EB01FC01178A168A2A8121115B
:101AB00009C02B81211106C02C81211103C02D8169
:101AC000222301F141155105E9F08A01FC01F08C56
:101AD00080E591E00E94D703AE014E5F5F4F24E0A6
:101AE00030E06CE070E08F2D0E94820CB8018F2DE9
:101AF0000E94930C81E090E0DF91CF911F910F91B4
:101B0000FF90089580E0F7CFFC01848595850895C6
:101B1000FC018489958908952EEB32E0FC01318324
:101B20002083FB014089518962897389FC014283CA
:101B30005383648375830895DC01ED91FC91048CDB
:101B4000F58DE02D199490E080E00895FC018081EE
:101B50009181009749F0FC012081318126173707D8
:101B600019F084819581F5CF0895CF93DF93EA0131
:101B70006F5B73460E94A60D009739F0FC01D3837A
:101B8000C28381E0DF91CF91089580E0FBCF0E9476
:101B9000A60D009721F0FC0182819381089590E0C9
:101BA00080E008954F925F926F927F928F929F9202
:101BB000AF92BF92CF92DF92EF92FF920F931F935B
:101BC000CF93DF93EC014AAB5BAB6CAB7DAB0EAB61
:101BD0001FAB28AF39AF8AAD882309F447C068012D
:101BE00079012A013B010E8D1F8DF80180809180C3
:101BF000A280B380A5019401C701B6010E94057DB2
:101C000087FF1AC0F801C082D182E282F3828EA0DF
:101C10009FA0A8A4B9A4CEA8DFA8E8ACF9ACA701FE
:101C20009601C501B4010E94E37F18169CF4CEA270
:101C3000DFA2E8A6F9A61AC0A5019401C301B2016A
:101C40000E94E37F18161CF7F801408251826282DD
:101C50007382DDCFCAA8DBA8ECA8FDA8A701960176
:101C6000C501B4010E94057D87FDE1CFDF91CF91D1
:101C70001F910F91FF90EF90DF90CF90BF90AF90AA
:101C80009F908F907F906F905F904F9008954F92AC
:101C90005F926F927F928F929F92AF92BF92CF92FC
:101CA000DF92EF92FF920F931F93CF93DF9300D0B9
:101CB00000D0CDB7DEB79E838D832A013B0148015A
:101CC000590120E030E0A901CB01B2010E94057D5D
:101CD00087FD89C020E030E0A901C501B8010E945C
:101CE000057D87FD80C020E030E0A901C701B60175
:101CF0000E94057D87FD77C081E0ED81FE81228D08
:101D0000338D2130310509F080E0ED81FE8183AF14
:101D1000408251826282738284829582A682B782D7
:101D2000C086D186E286F38666A577A580A991A9AB
:101D30000E940A7D20E030E04AE754E40E943B7FA5
:101D400069837A838B839C83ED81FE8144865586EB
:101D5000668677869B01AC01C501B4010E946B7D4C
:101D60004B015C01ED81FE81808A918AA28AB38A4F
:101D700029813A814B815C81C701B6010E943B7F7A
:101D80006B017C01ED81FE81C48AD58AE68AF78ADF
:101D9000808D918D019739F5A301920160E070E08B
:101DA000CB010E94CE7EED81FE8164877587868798
:101DB0009787A501940160E070E0CB010E94CE7E80
:101DC000ED81FE81608B718B828B938BA7019601D5
:101DD00060E070E0CB010E94CE7EED81FE81648BDD
:101DE000758B868B978B26960FB6F894DEBF0FBE49
:101DF000CDBFDF91CF911F910F91FF90EF90DF90BA
:101E0000CF90BF90AF909F908F907F906F905F909A
:101E10004F9008952F923F924F925F926F927F92D0
:101E20008F929F92AF92BF92CF92DF92EF92FF92EA
:101E30000F931F93CF93DF93CDB7DEB760970FB6A5
:101E4000F894DEBF0FBECDBFDC01DA96BC91BD8336
:101E5000B1111BC01D828D8160960FB6F894DEBF54
:101E60000FBECDBFDF91CF911F910F91FF90EF90EB
:101E7000DF90CF90BF90AF909F908F907F906F90AA
:101E80005F904F903F902F900895988B8F870E947E
:101E9000A80A6E837F8388879987EF85F88982A156
:101EA00093A1A4A1B5A14E815F8168857985481B66
:101EB000590B6A0B7B0B86A597A5A0A9B1A948175A
:101EC00059076A077B0730F2048CF58DE02D80817D
:101ED0009181A281B38189839A83AB83BC83AF85CF
:101EE000B8899096ED91FC9129813A814B815C8172
:101EF00060817181828193810E94CE7E4B015C0161
:101F0000EF85F88922A533A544A555A569817A8175
:101F10008B819C810E94CE7E6B017C01AF85B8894C
:101F200050962D913D914D915C915397C501B4010F
:101F30000E946B7DEF85F88926A137A140A551A5A8
:101F40000E94CF7E2B013C01AF85B88996964D92B9
:101F50005D926D927C929997DB96BC91BA87B11194
:101F600018C0EF85F8892485358546855785C701D2
:101F7000B6010E946B7D9B01AC01C301B2010E94BE
:101F8000CE7EAF85B88996966D937D938D939C9305
:101F90009997EF85F88946A057A060A471A416A967
:101FA00007A930AC21AC212F302F432D522DC30176
:101FB000B2010E94E37F18160CF076C0812F902F9B
:101FC000A32DB22DEF85F88986A397A3A0A7B1A76B
:101FD000FA85FF2309F481C0AF85B8891C962D913D
:101FE0003D914D915C911F97C501B4010E946B7D9D
:101FF0004B015C01EF85F889248935894689578929
:10200000C701B6010E946B7D9B01AC01AF85B88909
:1020100096966D917D918D919C9199970E94CE7E1F
:10202000A50194010E94CF7E6B017C019B01AC0154
:10203000612F702F832D922D0E94057D87FD14C086
:10204000EF85F88912A903A934A825A8212F302FDC
:10205000432D522DB601C7010E94057D87FD04C0A6
:102060001C2D0D2D3E2C2F2CAF85B8895E96ED9141
:10207000FC91812F902FA32DB22D80839183A28379
:10208000B38389819A81AB81BC81EF85F88982A76E
:1020900093A7A4A7B5A78E819F81A885B98582A3A0
:1020A00093A3A4A3B5A3D7CEAF85B889D2968D91BB
:1020B0009D910D90BC91A02D8B879C87AD87BE878D
:1020C0009C01AD01C301B2010E94057D87FF80CF55
:1020D0008B859C85AD85BE8575CF812C912C540157
:1020E00089CFCF92DF92EF92FF920F931F93CF93FE
:1020F000DF93EC01FC01EB5AFF4F60818EAD0E9433
:10210000E808FE01E45BFF4FC080D180E280F380ED
:102110008E01085B1F4FC701B6010E94AD7F9B0176
:10212000AC01A4E6B0E00E94AC7E2FEF30E040E0CE
:1021300050E00E948D7ECA01B9010E940C7DF80119
:102140006083718382839383C701B6010E94AD7F50
:102150008FADDF91CF911F910F91FF90EF90DF90A6
:10216000CF900C945D098F929F92AF92BF92CF92C5
:10217000DF92EF92FF92CF93DF93EC0120E030E00B
:1021800048EC52E46E8D7F8D88A199A10E946B7DF1
:102190000E94AD7F6B017C0120E030E048EC52E40E
:1021A0006A8D7B8D8C8D9D8D0E946B7D0E94AD7F95
:1021B0004B015C0188810E94340AA701960128190D
:1021C00039094A095B09DC010E94B77E20E034E04E
:1021D00040E050E00E948D7ECA01B901680D791D72
:1021E0008A1D9B1D0E940C7D20E030E048EC52E4EB
:1021F0000E943B7F6A877B878C879D87DF91CF9189
:10220000FF90EF90DF90CF90BF90AF909F908F9016
:1022100008954F925F926F927F928F929F92AF92AA
:10222000BF92CF92DF92EF92FF920F931F93CF93C3
:10223000DF93CDB7DEB72E970FB6F894DEBF0FBE93
:10224000CDBF8C0120E030E048EC52E4DC015E962A
:102250006D917D918D919C9191970E946B7D0E94D3
:10226000AD7F6B017C0120E030E048EC52E4F801E6
:10227000628D738D848D958D0E946B7D0E94AD7FE4
:102280004B015C01D8018C910E94340AA701960190
:10229000281939094A095B09DC010E94B77E20E050
:1022A00034E040E050E00E948D7ECA01B901680D23
:1022B000791D8A1D9B1D0E940C7D20E030E048ECBA
:1022C00052E40E943B7F6B017C01F801C286D386F9
:1022D000E486F58686A097A0A0A4B1A48B869C86F0
:1022E000AD86BE8642A053A064A075A020E030E079
:1022F00040E251E4C301B2010E946B7D0E94AD7FB8
:1023000069837A838B839C8320E030E048EC52E43D
:10231000F80162897389848995890E946B7D0E9486
:10232000AD7F6D837E838F83988720E030E048EC1B
:1023300052E4C701B6010E946B7D0E94AD7F6B0124
:102340007C018D809E80AF80B884C818D908EA08C7
:10235000FB0820E030E040E251E46B857C858D8510
:102360009E850E946B7D0E94AD7F89809A80AB80A4
:10237000BC80681979098A099B09A70196010E9406
:102380005B7E6B017C0120E030E048EC52E4D80138
:1023900056966D917D918D919C9159970E946B7D80
:1023A0000E94AD7F9B01AC018D809E80AF80B88480
:1023B000281939094A095B09C701B6010E948D7EB7
:1023C00069817A818B819C81620F731F841F951FA5
:1023D0000E940C7D20E030E040E251E40E943B7F0F
:1023E0006B017C01AC019B01C301B2010E94E37F40
:1023F00018160CF45DC0D8011596CD92DD92ED92C1
:10240000FC921897D80115962D913D914D915C91B4
:1024100018976B857C858D859E850E94057D87FF3D
:102420000BC08B849C84AD84BE84D80115968D929C
:102430009D92AD92BC921897F801C684D784E0882B
:10244000F18820E030E0A901C701B6010E94057DB6
:10245000882381F0A7019601D80115966D917D9191
:102460008D919C9118970E94CF7EF80165837683A9
:1024700087839087D80115966D917D918D919C9160
:1024800018972E960FB6F894DEBF0FBECDBFDF9122
:10249000CF911F910F91FF90EF90DF90CF90BF9061
:1024A000AF909F908F907F906F905F904F90089526
:1024B000F8014582568267827086A4CFCF92DF9260
:1024C000EF92FF920F931F9384E79EE00E94DA033E
:1024D00000E010E02FE733E440E050E0BA0184E789
:1024E0009EE00E94D20DC090D20ED090D30EE0900C
:1024F000D40EF090D50E0091CE0E1091CF0E2091FB
:10250000D00E3091D10E4091CA0E5091CB0E6091F9
:10251000CC0E7091CD0E84E79EE00E94470E809114
:10252000AE0E882309F446C080918C0E90918D0EDA
:10253000019709F43FC02091800E3091810E4091A7
:10254000820E5091830E60E070E0CB010E94CE7E3F
:102550006093800E7093810E8093820E9093830E11
:102560002091840E3091850E4091860E5091870EF9
:1025700060E070E0CB010E94CE7E6093840E709389
:10258000850E8093860E9093870E2091880E309151
:10259000890E40918A0E50918B0E60E070E0CB0165
:1025A0000E94CE7E6093880E7093890E80938A0E6F
:1025B00090938B0E81E090E090938D0E80938C0E23
:1025C00082EE90E10E94DA0300E010E02FE733E4AE
:1025D00040E050E0BA0182EE90E10E94D20DC0903E
:1025E0003B11D0903C11E0903D11F0903E110091D4
:1025F0003711109138112091391130913A114091D1
:10260000331150913411609135117091361182EE71
:1026100090E10E94470E88E590E10E94DA0300E015
:1026200010E02FE733E440E050E0BA0188E590E1A4
:102630000E94D20DC090AB10D090AC10E090AD10C5
:10264000F090AE100091A7101091A8102091A91041
:102650003091AA104091A3105091A4106091A51040
:102660007091A61088E590E10E94470E85E99FE0F1
:102670000E94DA0300E010E02FE733E440E050E08E
:10268000BA0185E99FE00E94D20DC090E80FD0907A
:10269000E90FE090EA0FF090EB0F0091E40F10913A
:1026A000E50F2091E60F3091E70F4091E00F509138
:1026B000E10F6091E20F7091E30F85E99FE00E94C6
:1026C000470E87EF9FE00E94DA0360914C107091F3
:1026D0004D10072E000C880B990B0E940C7D6B018E
:1026E0007C0160914E1070914F10072E000C880BEA
:1026F000990B0E940C7DAB01BC019701860187EF0D
:102700009FE00E94D20DC0904810D0904910E090F8
:102710004A10F0904B1000914410109145102091F8
:1027200046103091471040914010509141106091F7
:1027300042107091431087EF9FE00E94470E1F9157
:102740000F91FF90EF90DF90CF9008950F931F931C
:10275000CF93DF938CE380936B0F8AE080931F0B02
:102760008FE38093340BCDEEDEE01A8E1B8E1C8E31
:102770001D8E80E090E0A0E2B1E48E8F9F8FA8A331
:10278000B9A307E11FE0F801128E138E148E158E87
:10279000868F978FA0A3B1A360E08CE30E941609F7
:1027A0008EE38093410F60E00E94160985E4F801F2
:1027B000808360E00E94160984E4888360E0DF91F2
:1027C000CF911F910F910C941609CF93DF934091F5
:1027D000150B5091160B64E670E086EE9DE00E94AA
:1027E000B50D409118025091190265E670E086EE31
:1027F0009DE00E94B50D409112025091130267E6D0
:1028000070E086EE9DE00E94B50D4091140250915B
:10281000150268E670E086EE9DE00E94B50D4091DD
:1028200016025091170269E670E086EE9DE00E9464
:10283000B50D4091200B5091210B6AE670E086EEB9
:102840009DE00E94B50DC7E1DBE0488159816FE64C
:1028500070E086EE9DE00E94B50D4A815B8160E7E5
:1028600070E086EE9DE00E94B50D4C815D8161E7D0
:1028700070E086EE9DE00E94B50D20E030E048EC6F
:1028800052E46091A3107091A4108091A5109091D2
:10289000A6100E946B7D0E94B47FAB016BE870E0D4
:1028A00086EE9DE00E94B50D20E030E048EC52E459
:1028B0006091A7107091A8108091A9109091AA1012
:1028C0000E946B7D0E94B47FAB016CE870E086EEE5
:1028D0009DE00E94B50D20E030E048EC52E46091AC
:1028E000AB107091AC108091AD109091AE100E9421
:1028F0006B7D0E94B47FAB016FE870E086EE9DE0D7
:102900000E94B50D4091B5105091B61060E970E08D
:1029100086EE9DE00E94B50D4091B3105091B41029
:1029200061E970E086EE9DE00E94B50D20E030E0A8
:1029300048EC52E46091E00F7091E10F8091E20F5A
:102940009091E30F0E946B7D0E94B47FAB016BE915
:1029500070E086EE9DE00E94B50D20E030E048EC8E
:1029600052E46091E40F7091E50F8091E60F909131
:10297000E70F0E946B7D0E94B47FAB016CE970E0B1
:1029800086EE9DE00E94B50D20E030E048EC52E478
:102990006091E80F7091E90F8091EA0F9091EB0F31
:1029A0000E946B7D0E94B47FAB016DE970E086EE02
:1029B0009DE00E94B50D20E030E048EC52E46091CB
:1029C000CA0E7091CB0E8091CC0E9091CD0E0E94CC
:1029D0006B7D0E94B47FAB0160EB70E086EE9DE002
:1029E0000E94B50D20E030E048EC52E46091CE0E3C
:1029F0007091CF0E8091D00E9091D10E0E946B7D80
:102A00000E94B47FAB0161EB70E086EE9DE00E9416
:102A1000B50D20E030E048EC52E46091D20E7091A8
:102A2000D30E8091D40E9091D50E0E946B7D0E94A2
:102A3000B47FAB0162EB70E086EE9DE00E94B50DC5
:102A400020E030E048EC52E46091D60E7091D70E51
:102A50008091D80E9091D90E0E946B7D0E94B47F18
:102A6000AB0160EE70E086EE9DE00E94B50D20E0C7
:102A700030E048EC52E46091DA0E7091DB0E809108
:102A8000DC0E9091DD0E0E946B7D0E94B47FAB0145
:102A900061EE70E086EE9DE00E94B50D20E030E032
:102AA00048EC52E46091DE0E7091DF0E8091E00EF2
:102AB0009091E10E0E946B7D0E94B47FAB0162EEAB
:102AC00070E086EE9DE00E94B50D4091E40E5091BD
:102AD000E50E63EB70E086EE9DE00E94B50D40913F
:102AE000E20E5091E30E64EB70E086EE9DE00E94F2
:102AF000B50D20E030E048EC52E460913311709164
:102B0000341180913511909136110E946B7D0E9495
:102B1000B47FAB016CEB70E086EE9DE00E94B50DDA
:102B200020E030E048EC52E46091371170913811A8
:102B30008091391190913A110E946B7D0E94B47F6F
:102B4000AB016DEB70E086EE9DE00E94B50D20E0DC
:102B500030E048EC52E460913B1170913C1180915F
:102B60003D1190913E110E946B7D0E94B47FAB019C
:102B70006EEB70E086EE9DE00E94B50D609147110E
:102B8000709148118091491190914A110E94B47F2F
:102B9000AB016FEB70E086EE9DE00E94B50DCBE6D9
:102BA000DFE020E030E040E251E46AA17BA18CA1AB
:102BB0009DA10E946B7D0E94B47FAB0161EC70E02F
:102BC00086EE9DE00E94B50D20E030E040E251E449
:102BD0006EA17FA188A599A50E946B7D0E94B47FFC
:102BE000AB0162EC70E086EE9DE00E94B50D20E046
:102BF00030E040E251E46A897B898C899D890E949A
:102C00006B7D0E94B47FAB0163EC70E086EE9DE0CB
:102C10000E94B50D20E030E040E251E46E897F89EA
:102C2000888D998D0E946B7D0E94B47FAB0164EC0E
:102C300070E086EE9DE00E94B50DC1E4DFE020E08B
:102C400030E040E251E46AA17BA18CA19DA10E94E9
:102C50006B7D0E94B47FAB016EEC70E086EE9DE070
:102C60000E94B50D20E030E040E251E46EA17FA16A
:102C700088A599A50E946B7D0E94B47FAB016FEC83
:102C800070E086EE9DE00E94B50D20E030E040E26D
:102C900051E46A897B898C899D890E946B7D0E94A1
:102CA000B47FAB0160ED70E086EE9DE00E94B50D53
:102CB00020E030E040E251E46E897F89888D998D73
:102CC0000E946B7D0E94B47FAB0161ED70E086EEE7
:102CD0009DE00E94B50DC7E1DFE020E030E040E27A
:102CE00051E46AA17BA18CA19DA10E946B7D0E94F1
:102CF000B47FAB0163ED70E086EE9DE00E94B50D00
:102D000020E030E040E251E46EA17FA188A599A5C2
:102D10000E946B7D0E94B47FAB0164ED70E086EE93
:102D20009DE00E94B50D20E030E040E251E46A8968
:102D30007B898C899D890E946B7D0E94B47FAB0149
:102D400065ED70E086EE9DE00E94B50D20E030E07C
:102D500040E251E46E897F89888D998D0E946B7D58
:102D60000E94B47FAB0166ED70E086EE9DE00E94AC
:102D7000B50DCDEEDEE020E030E040E251E46AA1A6
:102D80007BA18CA19DA10E946B7D0E94B47FAB01B1
:102D900068ED70E086EE9DE00E94B50D20E030E029
:102DA00040E251E46EA17FA188A599A50E946B7DA8
:102DB0000E94B47FAB0169ED70E086EE9DE00E9459
:102DC000B50D20E030E040E251E46A897B898C89CE
:102DD0009D890E946B7D0E94B47FAB016AED70E01B
:102DE00086EE9DE00E94B50D20E030E040E251E427
:102DF0006E897F89888D998D0E946B7D0E94B47F3A
:102E0000AB016BED70E086EE9DE00E94B50D409148
:102E10000C0B50E063EE70E086EE9DE00E94B50D75
:102E200062E370E080E090E0DF91CF910C94760A4D
:102E30004F925F926F927F928F929F92AF92BF92CA
:102E4000CF92DF92EF92FF920F931F93CF93DF9376
:102E500000D01F92CDB7DEB74C01270138010C8D91
:102E60001D8DDC015F965C934E935E975D967C931F
:102E70006E935C9791963C932E939097DA961C9262
:102E8000FC0112AA13AA14AA15AA80E090E0AFE7E9
:102E9000B3E486AB97ABA0AFB1AF84E690E0A0E01F
:102EA000B0E086A797A7A0ABB1AB118F008F20E051
:102EB00030E0A901C301B7010E94057D87FD84C0F0
:102EC00020E030E0A901C601B5010E94057D87FD23
:102ED0007BC020E030E0A901688D798D8A8D9B8DC3
:102EE0000E94057D87FD70C081E090E0D4015B9673
:102EF0009C938E935A97DB968C93DB97F4014082D8
:102F00005182628273821496AD92BD92CD92DC9210
:102F10001797888D998DAA8DBB8D80879187A28701
:102F2000B38744865586668677862DEC3CEC4CEC60
:102F30005DE3C601B5010E946B7D69837A838B8353
:102F40009C83F401608B718B828B938B2DEC3CEC1A
:102F50004CEC5DE3688D798D8A8D9B8D0E943B7F63
:102F60006B017C01D4015496CD92DD92ED92FC92DE
:102F700057970130110541F5A301920160E070E01F
:102F8000CB010E94CE7EF401648775878687978780
:102F900029813A814B815C8160E070E0CB010E9425
:102FA000CE7ED40150966D937D938D939C935397D1
:102FB000A701960160E070E0CB010E94CE7EF40193
:102FC000648B758B868B978B0E94A80AD4019E9682
:102FD0000D911D912D913C91D197601B710B820B2E
:102FE000930BF40162A373A384A395A30F900F9096
:102FF0000F900F90DF91CF911F910F91FF90EF9065
:10300000DF90CF90BF90AF909F908F907F906F9008
:103010005F904F9008952F923F924F925F926F92E0
:103020007F928F929F92AF92BF92CF92DF92EF9258
:10303000FF920F931F93CF93DF93EC01362E242E34
:103040002C018AE5480E511CF201A080B180C2809B
:10305000D3803E01F6E56F0E711CF301E080F18034
:10306000028113819E012C5B3F4FAE01445B5F4F99
:10307000BE01605C7F4F1F9281E08F934E01FEE5A1
:103080008F0E911CF40183818F9382818F938181B4
:103090008F9380818F93CE010E9418172FAE61E02D
:1030A000822D0E9416093EAE61E0832D0E94160912
:1030B000FE01E958FF4F108280E090E0A0E2B1E409
:1030C000F30180839183A283B383F2011082118282
:1030D00012821382F40110821182128213823496BA
:1030E00080839183A283B3833496108211821282EB
:1030F000138234961082118212821382349684E6EF
:1031000090E09183808332961182108236961082ED
:103110008CE28DAF0F900F900F900F900F900F904B
:10312000DF91CF911F910F91FF90EF90DF90CF90A3
:10313000BF90AF909F908F907F906F905F904F90D7
:103140003F902F900895CF930E944709CCB561E03E
:1031500088E40E94160961E086E40E94160960E096
:1031600088E40E94E80861E086E40E94E8080E9482
:1031700047098CB58F7D8CBD8CB5837F8CBD61E09C
:1031800088E40E94E80880E10E94BA0B88E50E946A
:10319000BA0B60E088E40E94E808CCBD81E080932F
:1031A0005F0B80E0CF9108952F923F924F925F92F4
:1031B0006F927F928F929F92AF92BF92CF92DF9247
:1031C000EF92FF920F931F93CF93DF93CDB7DEB7AC
:1031D00062970FB6F894DEBF0FBECDBFE0915F0BD4
:1031E000EE2309F4F1C028013901598B488B6B019A
:1031F0005C012CB52A8B0E9447098CB58F7D8CBD54
:103200008CB5837F8CBDCE0101964C01212CBAE098
:103210003B2E61E088E40E94E80882E9820D0E946A
:10322000BA0B80E00E94BA0B8F87082F10E060E095
:1032300088E40E94E8088F858F7090E0E2E02E120B
:1032400061C09801F4E036952795FA95E1F7217071
:10325000239D800D911D1124A5E016950795AA9533
:10326000E1F70170F4E10F9F800D911D11249E8301
:103270008D832394F2E08F0E911C27E02212C9CF98
:10328000A114B10419F08F81F5018083C114D10418
:1032900019F08985F601808328893989211531053E
:1032A00019F08B85F90180836114710419F08D8503
:1032B000F30180834114510419F08D81F201808360
:1032C000E114F10419F08B81F7018083FA89FCBDC8
:1032D00080E062960FB6F894DEBF0FBECDBFDF91DF
:1032E000CF911F910F91FF90EF90DF90CF90BF9003
:1032F000AF909F908F907F906F905F904F903F9096
:103300002F90089523E0221219C0980174E0369599
:1033100027957A95E1F72170239D800D911D112449
:10332000E5E016950795EA95E1F7017034E1039F12
:10333000800D911D112498878F839BCF44E0241228
:1033400003C09A87898795CF980164E036952795C1
:103350006A95E1F72170239D800D911D1124E5E010
:103360002E1203C09C878B8784CF980145E0369549
:1033700027954A95E1F72170F4E12F9F800D911D6B
:103380001124980156E0369527955A95E1F721705A
:1033900038E2239F800D911D112446E0241210C0B5
:1033A000000F012F001F110B1195E0E5E09F900128
:1033B000E19F300D1124820F931F9E878D8759CF77
:1033C000F4019183808355CF8FEF83CFCF93DF9329
:1033D000EC0188819981009711F00E940181198286
:1033E00018821D821C821B821A82DF91CF91089560
:1033F000FC01808191810C9401810C9401810F93D7
:103400001F93CF93DF93182F062FC6EEDDE08C813C
:103410009D810E94018182E08E8382E090E00E9483
:103420006580FC019D838C8310581083018383E0A9
:103430008F83DF91CF911F910F9108950F931F9369
:10344000462F90E0FC01EB59F94F6491FC01EC5ED2
:10345000F94FE4914111462FF0E0EE0FFF1FE650C7
:10346000FA4F8591949100E412E42FE030E00E943D
:10347000E85C611571058105910529F06F5F7F4F4B
:103480008F4F9F4F9F701F910F910895DC018EEB1E
:1034900092E08D939D9384E0FB0101900D928A95BB
:1034A000E1F70895EF92FF920F931F93CF93DF936D
:1034B000FB0101900020E9F731977F01E61AF70A36
:1034C0002FEFE216F10411F008F052C08B01EC016D
:1034D0000E94B40A80911B1290911C12DC01ED91A4
:1034E000FC910190F081E02D62E0199580911B1212
:1034F00090911C12DC01ED91FC910190F081E02D86
:103500006C2F1995B2E0CB2780911B1290911C1261
:10351000DC01ED91FC910190F081E02D6E2D19956B
:10352000EC26FD26E801699180911B1290911C12F6
:10353000DC01ED91FC910190F081E02D662351F0CA
:103540001995FE0131972081022E000C330BE226E3
:10355000F326E9CF6E2D199581E00E94260490E0B4
:1035600080E0DF91CF911F910F91FF90EF90089530
:103570008FEF9FEFF6CF2F923F924F925F926F9215
:103580007F928F929F92AF92BF92CF92DF92EF92F3
:10359000FF920F931F93CF93DF93CDB7DEB7A3971F
:1035A0000FB6F894DEBF0FBECDBF9BA38AA34A011E
:1035B0005B0119A220E030E0A901CB01B4010E9417
:1035C000057D87FF92C0C501B40190582AE037ED10
:1035D00043EA5BE30E94CF7E6B017C010E94B47FD3
:1035E000162F672E782E092F0E940A7D9B01AC01B1
:1035F000C701B6010E94CE7E20E030E040E251E4F7
:103600000E946B7D6B017C010E94AD7F20E3260F41
:103610002F8F072E000C880B990B0E940C7D9B01AD
:10362000AC01C701B6010E94CE7E20E030E040E24E
:1036300051E40E946B7D0E94AD7F605D68A38EE2C5
:103640008E8F6E018EE1C80ED11C8AE0282E312C9F
:10365000412C512C612F762D872D902FA2019101A5
:103660000E946B7E9AE0929F101911241A300CF080
:1036700041C0105DF60112937F01122F632E742E4C
:10368000052F232B242B252B99F520E030E0A901D1
:10369000C501B4010E94057D87FF07C0F70131977E
:1036A0008DE28083C60102977C01B7018AA19BA1AC
:1036B0000E94521A90E080E0A3960FB6F894DEBF05
:1036C0000FBECDBFDF91CF911F910F91FF90EF9073
:1036D000DF90CF90BF90AF909F908F907F906F9032
:1036E0005F904F903F902F900895C501B4016ECF29
:1036F0006701B0CF195CBECF4F925F926F927F92FD
:103700008F929F92AF92BF92CF92DF92EF92FF92F1
:103710000F931F93CF93DF93CDB7DEB7A1970FB66B
:10372000F894DEBF0FBECDBF6C014A015B01B7FE4E
:1037300007C044275527BA01481959096A097B0966
:10374000142FE52FCB0119A27E0121E2E20EF11C1C
:103750002AE0422E512C612C712C0AE0612F7E2F21
:10376000A30192010E948D7E029F101911241A302C
:103770009CF5105DF7011293BF01122FE32FCA01D0
:10378000232B242B252B31F5B7FE08C0615071097E
:103790008DE2FB018083B70162507109C6010E946E
:1037A000521A90E080E0A1960FB6F894DEBF0FBEEB
:1037B000CDBFDF91CF911F910F91FF90EF90DF90E0
:1037C000CF90BF90AF909F908F907F906F905F90C1
:1037D0004F9008957B01C2CF195CCCCFAB01770F1E
:1037E000660B770B0E947C1B90E080E00895FB0144
:1037F00001900020E9F73197AF01461B570BDC0120
:10380000ED91FC910280F381E02D19948F929F92AB
:10381000AF92BF92EF92FF920F931F93CF93DF93DC
:10382000CDB7DEB7A1970FB6F894DEBF0FBECDBF00
:103830007C01FA01CB0119A2223008F42AE08E01A2
:103840000F5D1F4F822E912CB12CA12CBF01A50121
:1038500094010E946B7EF901CA016A300CF5605D2B
:10386000D8016E938D01232B242B252B79F790E023
:1038700080E0109721F0BD01C7010E94F71BA196BF
:103880000FB6F894DEBF0FBECDBFDF91CF911F9171
:103890000F91FF90EF90BF90AF909F908F90089501
:1038A000695CDECFCF92DF92EF92FF92CF93DF93EE
:1038B0006C01990FEE08FF08F7FE23C06DE287EA5E
:1038C0009CE00E94C207EC0144275527BA014C191D
:1038D0005D096E097F092AE087EA9CE00E94061CC8
:1038E000C80FD91F60EC72E087EA9CE00E94F71BCA
:1038F0008C0F9D1FDF91CF91FF90EF90DF90CF90C5
:1039000008952AE0B701A60187EA9CE00E94061C00
:10391000EC01E8CF8F929F92AF92BF92CF92DF924D
:10392000EF92FF920F931F93CF93DF937C01EB01F4
:103930006C0182E0C80ED11C4701E5E08E0E911C9F
:1039400010E000E0F60141916F0150E070E060E0AE
:103950002AE0CE010E94061C5C01E881F9810190F9
:10396000F081E02D6EE2CE0119958A0D9B1D080FA6
:10397000191FC814D90431F7F701458150E070E0F0
:1039800060E02AE0CE010E94061C800F911FDF91AB
:10399000CF911F910F91FF90EF90DF90CF90BF904C
:1039A000AF909F908F900895CF93DF93BC0187EAEB
:1039B0009CE00E94F71BEC0160EC72E087EA9CE05F
:1039C0000E94F71B8C0F9D1FDF91CF9108958F925E
:1039D0009F92AF92BF92CF92DF92EF92FF920F939E
:1039E0001F93CF93DF9300D000D000D0CDB7DEB7C8
:1039F00005E212E15E018AE0A80EB11CF80182899D
:103A000081115BC00E94A8067801F4E0EF0EF11C62
:103A1000C7010E94E10661E084E40E94790664E641
:103A200070E080E090E00E94760A0E94A806C7013C
:103A30000E94E10660E08EEB0E947906CE010196BD
:103A40007C0188E0882E912CD12CCC24C3940E9438
:103A500054068111DC28CC0C91E0891A9108B9F741
:103A6000F701D1927F01AE16BF0659F769817A81BD
:103A7000072E000C880B990B0E940C7D20E030E093
:103A800040E85DE30E946B7D6B017C012AE037ED2D
:103A900043E25CE30E94E37F181684F520E030E007
:103AA00048EA52E4C701B6010E94057D87FF26C09F
:103AB000F801C082D182E282F382095E1F4FF2E1F7
:103AC00001381F0709F09ACF87E19FE00E94091192
:103AD0008DEE9EE029960FB6F894DEBF0FBECDBFE7
:103AE000DF91CF911F910F91FF90EF90DF90CF90DA
:103AF000BF90AF909F908F900C94091183EC92E04F
:103B00000E94D41CDACFBC0187EA9CE00C94F71B1E
:103B1000AF92BF92CF92DF92EF92FF920F931F93DB
:103B2000CF93DF93CDB7DEB75C01CDB6DEB6FB0138
:103B300004811581C80101962DB73EB7281B390BAA
:103B40000FB6F8943EBF0FBE2DBFEDB7FEB731964E
:103B50007F01892B21F001151105B9F41082B701FD
:103B6000C5010E94521A90E080E00FB6F894DEBEC4
:103B70000FBECDBEDF91CF911F910F91FF90EF90BF
:103B8000DF90CF90BF90AF900895FB01608171816D
:103B9000A801C7010E94AB82F701E00FF11FDECF41
:103BA000CF93DF93FC01248135816217730788F47A
:103BB0009B01C081D1816EE270E0CE01820F931F24
:103BC0000E949082009729F08C1B9D0BDF91CF9172
:103BD00008958FEF9FEFFACFFF920F931F93CF932C
:103BE000DF93EC01162FF72E0E94397E8117E1F04A
:103BF000612FCE010E944D7E01E010E02196CE01A2
:103C00000E94397E8F1531F06F2DCE010E944D7EBE
:103C10000F5F1F4F81E0012B09F480E0DF91CF910E
:103C20001F910F91FF90089510E000E0E7CF0F93F0
:103C30001F93CF93DF938C01FC01C081658170E0FD
:103C4000D0E0CE010E94EC1DF801668170E0CE014B
:103C50000296DF91CF911F910F910C94EC1D1F9351
:103C6000CF93DF93EC01162F0E94397E811749F024
:103C7000612FCE010E944D7E81E0DF91CF911F9197
:103C8000089580E0FACFAF92BF92CF92DF92EF9289
:103C9000FF920F931F93CF93DF936B0124E0C20E2B
:103CA000D11CEB0110E000E05C01A61AB70A750117
:103CB000EC0EFD1EC7010E94397E6991861729F01E
:103CC000C7010E944D7E0F5F1F4FCC15DD0579F7B0
:103CD000C801DF91CF911F910F91FF90EF90DF907E
:103CE000CF90BF90AF900895EF92FF920F931F93E4
:103CF000CF93DF93CDB7DEB760970FB6F894DEBFF2
:103D00000FBECDBF7C01FC01038182899389A48908
:103D1000B58989839A83AB83BC8310E0BE016F5F52
:103D20007F4FC8010E94431EF70186899789A08DA5
:103D3000B18D8D839E83AF83B887BE016B5F7F4F4C
:103D4000C80104960E94431EF70182A193A1A4A179
:103D5000B5A189879A87AB87BC87BE01675F7F4F14
:103D6000C80108960E94431EF70186A197A1A0A54D
:103D7000B1A58D879E87AF87B88BBE01635F7F4FEC
:103D8000C8010C960E94431EF70161817281C8012F
:103D900040960E94EC1D60960FB6F894DEBF0FBEF1
:103DA000CDBFDF91CF911F910F91FF90EF900895BC
:103DB000AF92BF92CF92DF92EF92FF920F931F9339
:103DC000CF93DF936B0124E0C20ED11CEB0110E016
:103DD00000E05C01A61AB70A7501EC0EFD1EC701D2
:103DE0000E94397E6991861729F0C7010E944D7E95
:103DF0000F5F1F4FCC15DD0579F7C801DF91CF911B
:103E00001F910F91FF90EF90DF90CF90BF90AF90F8
:103E10000895EF92FF920F931F93CF93DF9300D0FB
:103E20001F92CDB7DEB787EA9CE00E94540787EA6D
:103E30009CE00E9454078E010F5F1F4F78018A3368
:103E400041F0F80181938F0187EA9CE00E945407BA
:103E5000F6CFC7010E949078182F87EA9CE00E9455
:103E600054078053990B8230910520F4682F812FDD
:103E70000E94E80887EA9CE00E9454078A3011F00B
:103E80008D30C1F787EA9CE00E9468078A3021F4F0
:103E900087EA9CE00E9454070F900F900F900F90BC
:103EA000DF91CF911F910F91FF90EF900895FC014A
:103EB00080819181009711F00C94AE7860E070E001
:103EC000CB0108950F931F93CF93DF938C01EB01E8
:103ED000FC01808191810097E1F068817981611511
:103EE0007105A9F0428153812C813D81421753070E
:103EF00070F00E94A4828C819D81F8019583848357
:103F00001D821C82DF91CF911F910F9108950E9415
:103F1000018188819981F801918380838A819B81C5
:103F2000938382838C819D819583848319821882F7
:103F30001B821A82E5CF0F931F93CF93DF93EC017F
:103F400088819981009759F02A813B81261737078C
:103F500030F081E0DF91CF911F910F9108958B0197
:103F60006F5F7F4F0E948A81009759F09983888301
:103F70001B830A832C813D81232B59F7FC0110827E
:103F8000E8CF80E0E7CFEF92FF920F931F93CF939C
:103F9000DF936115710541F480E0DF91CF911F91AE
:103FA0000F91FF90EF90089541155105B1F07B01FD
:103FB000EC010C811D81040F151FB8010E949B1F8D
:103FC000882351F3288139818C819D81B701820F2B
:103FD000931F0E94A4821D830C8381E0DECFCF93C8
:103FE000DF93EC0145E050E065ED72E00E94C31FF5
:103FF000811103C0CE010E94E619CE01DF91CF915D
:104000000895CF93DF93EC01FB01448155816081DA
:1040100071810E94C31F811103C0CE010E94E61965
:10402000CE01DF91CF910895EF92FF920F931F93EE
:10403000CF93DF9300D000D01F921F92CDB7DEB791
:104040007C01CB014AE08E010F5F1F4FB8010E9437
:10405000E978F80101900020E9F73197AF01401BA2
:10406000510BB801C7010E94C31F28960FB6F894E0
:10407000DEBF0FBECDBFDF91CF911F910F91FF909B
:10408000EF900895EF92FF920F931F93CF93DF93DA
:1040900000D01F92CDB7DEB77C01862F4AE08E019B
:1040A0000F5F1F4FB80190E00E94E978F80101907E
:1040B0000020E9F73197AF01401B510BB801C70150
:1040C0000E94C31F0F900F900F900F90DF91CF9120
:1040D0001F910F91FF90EF900895FB010190002038
:1040E000E9F73197AF01461B570B0C94C31FFB0137
:1040F00044815581608171810C94C31FEF92FF92BE
:104100000F931F93CF93DF93EC017B018A01BA01D8
:104110000E949B1F81110BC0CE010E94E619CE01A7
:10412000DF91CF911F910F91FF90EF9008951D8324
:104130000C83B701888199810E94A482F0CFFB0192
:1041400001900020E9F73197AF01461B570B0C9403
:104150007E20CF93DF93EC01FB018617970749F090
:10416000608171816115710541F0448155810E9422
:104170007E20CE01DF91CF9108950E94E619F9CFFC
:10418000FC011182108213821282158214820C9417
:10419000A920FC01118210821382128215821482DE
:1041A0006115710551F0FB0101900020E9F731978D
:1041B000AF01461B570B0C947E200895AF92BF921F
:1041C000CF92DF92EF92FF920F931F93CF93DF93E3
:1041D0006C015B017A0189012417350720F48F2DCA
:1041E0007901042F182F62EC72E0C6010E94C920E9
:1041F000D5011496CD91DC91EC16FD06E0F40C1778
:104200001D0708F4E801D501ED91FC911197EC0F21
:10421000FD1F108110826D917C916E0D7F1DC60176
:1042200061157105A1F00E949F20F50180819181A7
:10423000C80FD91F1883C601DF91CF911F910F912D
:10424000FF90EF90DF90CF90BF90AF9008950E94C5
:10425000E619EBCFCF93DF93EC01FB01248135818D
:104260000E94DE20CE01DF91CF9108954F925F92A0
:104270006F927F928F929F92AF92BF92CF92DF9276
:10428000EF92FF920F931F93CF93DF9300D000D054
:10429000CDB7DEB770E060E08AED9DE00E94D01DF2
:1042A0005C017C018FEFE81AF80AB7018AED9DE006
:1042B0000E94D01D6C013C01EFEF6E1A7E0AB30123
:1042C0008AED9DE00E94D01D8C01950150E040E0F8
:1042D0006AED7DE0CE0101960E94DE20CE010196BE
:1042E0000E94571F80EE482E8DE0582EF201628307
:1042F000CE0101960E94F8199601A7016AED7DE0B2
:10430000CE0101960E94DE20CE0101960E94571F29
:10431000F2016383CE0101960E94F8199801A3016E
:104320006AED7DE0CE0101960E94DE20CE0101966D
:104330000E94571FF2016483CE0101960E94F81972
:104340004801FFEF8F1A9F0AA4016AED7DE0CE01BC
:1043500001960E942A21CE0101960E94571FF20168
:104360006583CE0101960E94F819950150E040E066
:104370006AED7DE0CE0101960E94DE20CE0101961D
:104380000E94F8199601A7016AED7DE0CE01019621
:104390000E94DE20CE0101960E94F8199801A30127
:1043A0006AED7DE0CE0101960E94DE20CE010196ED
:1043B0000E94F819A4016AED7DE0CE0101960E94E9
:1043C0002A21CE0101960E94F81970E060E084ED88
:1043D0009DE00E94D01D5C017C01FFEFEF1AFF0AF7
:1043E000B70184ED9DE00E94D01D6C013C018FEF70
:1043F000681A780AB30184ED9DE00E94D01D8C01FB
:10440000950150E040E064ED7DE0CE0101960E9410
:10441000DE20CE0101960E94571F9CE0492E92E0BB
:10442000592EF2016083CE0101960E94F81996017F
:10443000A70164ED7DE0CE0101960E94DE20CE0151
:1044400001960E94571FF2016183CE0101960E94DE
:10445000F8199801A30164ED7DE0CE0101960E9458
:10446000DE20CE0101960E94571FF2016283CE0129
:1044700001960E94F8194801FFEF8F1A9F0AA401C4
:1044800064ED7DE0CE0101960E942A21CE010196C5
:104490000E94571FF2016383CE0101960E94F81912
:1044A000950150E040E064ED7DE0CE0101960E9470
:1044B000DE20CE0101960E94F8199601A70164ED55
:1044C0007DE0CE0101960E94DE20CE0101960E9481
:1044D000F8199801A30164ED7DE0CE0101960E94D8
:1044E000DE20CE0101960E94F819A40164ED7DE062
:1044F000CE0101960E942A21CE0101960E94F81950
:1045000070E060E088EC9DE00E94D01D5C017C01C1
:10451000FFEFEF1AFF0AB70188EC9DE00E94D01D63
:104520006C013C018FEF681A780AB30188EC9DE0BA
:104530000E94D01D8C01950150E040E068EC7DE0C8
:10454000CE0101960E94DE20CE0101960E94571FE7
:1045500028E0422E22E0522EF2016083CE01019625
:104560000E94F8199601A70168EC7DE0CE01019642
:104570000E94DE20CE0101960E94571FF201618346
:10458000CE0101960E94F8199801A30168EC7DE024
:10459000CE0101960E94DE20CE0101960E94571F97
:1045A000F2016283CE0101960E94F8194801FFEFE3
:1045B0008F1A9F0AA40168EC7DE0CE0101960E944B
:1045C0002A21CE0101960E94571FF2016383CE017A
:1045D00001960E94F819950150E040E068EC7DE0FA
:1045E000CE0101960E94DE20CE0101960E94F819AC
:1045F0009601A70168EC7DE0CE0101960E94DE20C5
:10460000CE0101960E94F8199801A30168EC7DE0A3
:10461000CE0101960E94DE20CE0101960E94F8197B
:10462000A40168EC7DE0CE0101960E942A21CE0112
:1046300001960E94F81926960FB6F894DEBF0FBEB9
:10464000CDBFDF91CF911F910F91FF90EF90DF9041
:10465000CF90BF90AF909F908F907F906F905F9022
:104660004F9008956F927F928F929F92AF92BF92D8
:10467000CF92DF92EF92FF920F931F93CF93DF932E
:10468000CDB7DEB7C855D1090FB6F894DEBF0FBE5F
:10469000CDBF8C01609112027091130203960E94AB
:1046A000EC1D6091140270911502C80105960E94DC
:1046B000EC1D6091160270911702C80107960E94C6
:1046C000EC1D6091200B7091210BC80109960E948E
:1046D000EC1D6091180270911902C8010D960E949C
:1046E000EC1D6091460B70E0C8010F960E94EC1D16
:1046F0006091190B70911A0BC80141960E94EC1D34
:104700006091170B7091180BC80143960E94EC1D25
:1047100060911B0B70911C0BC80145960E94EC1D0B
:10472000780187E1E80EF11C0E94362182EE882E86
:104730008DE0982E9CE0A92E92E0B92E28E0C22EA2
:1047400022E0D22E3801E3E26E0E711CF401619179
:104750004F01C7010E942F1EF50161915F01C70142
:1047600001960E942F1EF60161916F01C70102960A
:104770000E942F1EF3E0EF0EF11CE614F70431F750
:104780000B5D1F4FC0901F11C00ED12ED11C009188
:104790001E118091331190913411A0913511B09177
:1047A000361125968CAF9DAFAEAFBFAF259710E009
:1047B000BE016F5B7F4FC8010E94431E809137117D
:1047C00090913811A0913911B0913A1129968CAF7E
:1047D0009DAFAEAFBFAF2997BE016B5B7F4FC801E6
:1047E00004960E94431E80913B1190913C11A09130
:1047F0003D11B0913E112D968CAF9DAFAEAFBFAFC6
:104800002D97BE01675B7F4FC80108960E94431E2B
:104810008091471190914811A0914911B0914A118E
:1048200061968CAF9DAFAEAFBFAF6197BE01635BCA
:104830007F4FC8010C960E94431E60915F1170E08B
:10484000C80140960E94EC1D60914C1170914D1171
:10485000C80142960E94EC1D6091601170E0C80191
:1048600044960E94EC1D6091611170916211C80123
:1048700046960E94EC1D60914C1170914D11C8013B
:1048800048960E94EC1D60914E1170914F11C80125
:104890004A960E94EC1D8091591190915A11092E4F
:1048A000000CAA0BBB0B65968CAF9DAFAEAFBFAF34
:1048B0006597BE016F5A7F4FC8014C960E94D81E63
:1048C00080915B1190915C11092E000CAA0BBB0B1F
:1048D00069968CAF9DAFAEAFBFAF6997BE016B5A03
:1048E0007F4FC8014E960E94D81E0091B10EC00E97
:1048F000D11C0091B00E8091CA0E9091CB0EA09168
:10490000CC0EB091CD0E89A79AA7ABA7BCA710E09B
:10491000BE01675D7F4FC8010E94431E8091CE0E8D
:104920009091CF0EA091D00EB091D10E8DA79EA7E1
:10493000AFA7B8ABBE01635D7F4FC80104960E946C
:10494000431E8091D20E9091D30EA091D40EB091BF
:10495000D50E89AB9AABABABBCABBE016F5C7F4FE6
:10496000C80108960E94431E8091D60E9091D70EE2
:10497000A091D80EB091D90E8DAB9EABAFABB8AFB6
:10498000BE016B5C7F4FC8010C960E94431E809154
:10499000DA0E9091DB0EA091DC0EB091DD0E89AFA6
:1049A0009AAFABAFBCAFBE01675C7F4FC80140960A
:1049B0000E94431E8091DE0E9091DF0EA091E00ECA
:1049C000B091E10E21968CAF9DAFAEAFBFAF2197F6
:1049D000BE01635C7F4FC80144960E94431E6091F4
:1049E000E20E7091E30EC80148960E94EC1D6091A2
:1049F000E40E7091E50EC8014A960E94EC1D60918C
:104A0000E60E7091E70E8091E80E9091E90E0E94FB
:104A1000B47FC8014C960E94EC1DF090EA0E025E35
:104A20001F4FC8010E94397E682FFF2009F48DC1F5
:104A30006160861719F0C8010E944D7E00919510A3
:104A4000C00ED11C009194108091A3109091A410DD
:104A5000A091A510B091A610898F9A8FAB8FBC8FB3
:104A600010E0BE01675E7F4FC8010E94431E809127
:104A7000A7109091A810A091A910B091AA108D8FA5
:104A80009E8FAF8FB8A3BE01635E7F4FC8010496AF
:104A90000E94431E8091AB109091AC10A091AD107C
:104AA000B091AE1089A39AA3ABA3BCA3BE016F5D66
:104AB0007F4FC80108960E94431E6091B310709109
:104AC000B410C8010C960E94EC1D6091B510709155
:104AD000B610C8010E960E94EC1D6091BA1070E0ED
:104AE000C80140960E94EC1D6091C0107091C110E9
:104AF000C80142960E94EC1D6091BC107091BD10DF
:104B00008091BE109091BF100E94B47F6DA37EA3D0
:104B10008FA398A7BE016B5D7F4FC80144960E948A
:104B2000D81E00913410C00ED11C0091331080911A
:104B3000401090914110A0914210B09143108D8788
:104B40009E87AF87B88B10E0BE01635F7F4FC801BF
:104B50000E94431E8091441090914510A0914610F0
:104B6000B0914710898B9A8BAB8BBC8BBE016F5E6B
:104B70007F4FC80104960E94431E80914810909177
:104B80004910A0914A10B0914B108D8B9E8BAF8B2A
:104B9000B88FBE016B5E7F4FC80108960E94431E0E
:104BA00060914C1070914D10C8010C960E94EC1D44
:104BB00060914E1070914F10C8010E960E94EC1D2E
:104BC0006091501070915110C80140960E94EC1DE8
:104BD0006091521070915310C80142960E94EC1DD2
:104BE00000916F0F0C0D1D2D111D8BE69FE00E9493
:104BF000741EC090D20FC00ED12ED11C0091D10FC7
:104C00008091E00F9091E10FA091E20FB091E30F3E
:104C100089839A83AB83BC8310E0BE016F5F7F4FB3
:104C2000C8010E94431E8091E40F9091E50FA0916E
:104C3000E60FB091E70F8D839E83AF83B887BE01E7
:104C40006B5F7F4FC80104960E94431E8091E80F5E
:104C50009091E90FA091EA0FB091EB0F89879A87A5
:104C6000AB87BC87BE01675F7F4FC80108960E9473
:104C7000431E6091F30F70E0C8010C960E94EC1D7A
:104C80006091F50F7091F60FC8010E960E94EC1D11
:104C9000E090450FCE0CD11C81E49FE00E94741E71
:104CA000E0901B0FEC0CFD2CF11C87E19FE00E94B3
:104CB000741E0091F10EE00EF11C8DEE9EE00E943C
:104CC000741E0091DC100E0D1F2D111D8BED90E157
:104CD0000E94171E8091D510080F111D84ED90E1E0
:104CE0000E94171E6091FC0A70E0C8010E94EC1D32
:104CF0006091050B7091060BC80102960E94EC1D95
:104D00006091100270911102C80104960E94EC1D7E
:104D100060910C0B70E0C80106960E94EC1DC85A09
:104D2000DF4F0FB6F894DEBF0FBECDBFDF91CF913E
:104D30001F910F91FF90EF90DF90CF90BF90AF90B9
:104D40009F908F907F906F9008956E7F72CE7F922C
:104D50008F929F92AF92BF92CF92DF92EF92FF928B
:104D60000F931F93CF93DF9300D000D01F92CDB746
:104D7000DEB78091C80A882309F4F4C00E94A31802
:104D80005091E10A4091E30A8091E50A9091E70A87
:104D90002091DF0A3091E90A6CE069835A834B83E2
:104DA0003C832D839E838F8380915F0B882309F43E
:104DB00066C09CB40E9447098CB58F7D8CBD8CB5B4
:104DC000837F8CBDCE0101966C01F12C80E5882E8D
:104DD00098E2B92E24E1A22E3AE0E32E8981FF2049
:104DE00021F091E0F91214C08A816B2D0E9443805A
:104DF000282F892F2295220F220F207C6A2D0E94B6
:104E00004380182F892F1295110F107E210F11C08A
:104E1000E2E08B81FE1609F47AC0F3E0FF1211C0C4
:104E20008C816A2D0E944380282F892F2295220F82
:104E3000207E6E2D0E9443808295807F182F120F56
:104E40006CC084E0F8125FC00D8110E0702E710E0E
:104E5000F60171926F0161E088E40E94E80882E146
:104E60008F0D0E94BA0B872D0E94BA0B60E088E478
:104E70000E94E808F394F7E0FF12B0CF9CBC6AE010
:104E800070E080E090E00E94760A1092C80A80915B
:104E9000DF0A9091E00A0E94521C8091E90A9091E9
:104EA000EA0A0E94521C8091E70A9091E80A0E9447
:104EB000521C8091E50A9091E60A0E94521C809152
:104EC000E30A9091E40A0E94521C8091E10A9091B9
:104ED000E20A0E94521C88EE93E00E943223279639
:104EE0000FB6F894DEBF0FBECDBFDF91CF911F91FB
:104EF0000F91FF90EF90DF90CF90BF90AF909F9079
:104F00008F907F90089595E0F91209C08E816E2DE3
:104F10000E944380182F1295107F092F97CFE6E04B
:104F2000FE1294CF4F81842F682D0E944380282F3A
:104F3000892F2795222727956B2D0E944380382F94
:104F4000842F0E944380892F6A2D0E944380182F4E
:104F5000892F3295330F330F307C1295110F107E4D
:104F6000130F54CFF12CE12C10E000E030E020E0F2
:104F700050E040E070E060E0CE0101960E94D4185D
:104F800087FD86C08981082E000C990B9093EA0A50
:104F90008093E90AF12CE12C10E000E030E020E001
:104FA00050E040E0BE016F5F7F4F90E080E00E94E4
:104FB000D41887FD6FC08981082E000C990B90933F
:104FC000E00A8093DF0ACE0101967C0110E000E048
:104FD00030E020E050E040E070E060E090E080E011
:104FE0000E94D41887FD58C08981082E000C990BA7
:104FF0009093E20A8093E10AF12CE12C8E010F5F7D
:105000001F4F30E020E050E040E070E060E090E0D2
:1050100080E00E94D41887FD41C08981082E000CD1
:10502000990B9093E40A8093E30AF12CE12C10E0B1
:1050300000E030E020E0AE014F5F5F4F70E060E0E5
:1050400090E080E00E94D41887FD2AC08981082E54
:10505000000C990B9093E80A8093E70AF12CE12C5D
:1050600010E000E09E012F5F3F4F50E040E070E015
:1050700060E090E080E00E94D41887FD13C0898131
:10508000082E000C990B9093E60A8093E50A27CF2F
:105090008FEF79CF8FEF90CF8FEFA7CF8FEFBECF6E
:1050A0008FEFD5CF8FEFECCFCF92DF92EF92FF92C1
:1050B0001F93CF93DF9300D000D0CDB7DEB76C0144
:1050C0007B0150E040E065E070E08AE090E00E9403
:1050D000F30AF70160817181CE0101960E94C92017
:1050E000BE016F5F7F4F90E080E00E94881DCE017F
:1050F00001960E94F81961E871E18AE090E00E944F
:10510000881D11E01093400BD092DE0AC092DD0A98
:10511000B7018BE791E10E94A9201093DC0A269643
:105120000FB6F894DEBF0FBECDBFDF91CF911F91B8
:10513000FF90EF90DF90CF9008952F923F924F9283
:105140005F926F927F928F929F92AF92BF92CF9217
:10515000DF92EF92FF920F931F93CF93DF9300D0D4
:1051600000D0CDB7DEB71C016B0149015A01270100
:10517000380150E040E065E070E08AE090E00E9495
:10518000F30AF60160817181CE0101960E94C92067
:10519000BE016F5F7F4F90E080E00E94881DCE01CE
:1051A00001960E94F81961E871E18AE090E00E949E
:1051B000881D3092DB0A2092DA0A81E08093400B4E
:1051C000B6018BE791E10E94A9208092D60A9092C5
:1051D000D70AA092D80AB092D90A4092D20A509225
:1051E000D30A6092D40A7092D50A26960FB6F89424
:1051F000DEBF0FBECDBFDF91CF911F910F91FF900A
:10520000EF90DF90CF90BF90AF909F908F907F9066
:105210006F905F904F903F902F900895EF92FF9284
:105220000F931F93CF93DF9300D000D0CDB7DEB79D
:105230007C018B0150E040E065E070E08AE090E0A6
:105240000E94F30AF80160817181CE0101960E94EB
:10525000C920BE016F5F7F4F90E080E00E94881DF3
:10526000CE0101960E94F81961E871E18AE090E0B0
:105270000E94881DF092D10AE092D00A81E08093CA
:10528000400B8093CF0AB8018BE791E10E94A920DF
:1052900026960FB6F894DEBF0FBECDBFDF91CF913B
:1052A0001F910F91FF90EF900895AF92BF92CF9210
:1052B000DF92EF92FF920F931F93CF93DF9300D073
:1052C00000D0CDB7DEB75C018B016A01790150E0F7
:1052D00040E065E070E08AE090E00E94F30AB0925E
:1052E000D10AA092D00AF80160817181CE010196A5
:1052F0000E94C920BE016F5F7F4F90E080E00E9456
:10530000881DCE0101960E94F81961E871E18AE0DA
:1053100090E00E94881D81E08093CE0A8093400B2C
:10532000B8018BE791E10E94A920D092CD0AC092EA
:10533000CC0AF092CB0AE092CA0A26960FB6F894ED
:10534000DEBF0FBECDBFDF91CF911F910F91FF90B8
:10535000EF90DF90CF90BF90AF9008950F931F9381
:10536000CF93DF93CDB7DEB762970FB6F894DEBF69
:105370000FBECDBF8C01CB01F801118210821382C8
:1053800012821582148250E0BE016F5F7F4F0E942F
:10539000DE78BE016F5F7F4FC8010E949F2062963A
:1053A0000FB6F894DEBF0FBECDBFDF91CF911F9136
:1053B0000F9108950F931F93CF93DF938C01FC01FE
:1053C000C081D0E0CE010E94477E21E0892B09F404
:1053D00020E0F8012583CE0102960E94477E21E05D
:1053E000892B09F420E0F8012683DF91CF911F91EA
:1053F0000F910895AF92BF92CF92DF92EF92FF92FA
:105400000F931F93CF93DF9300D01F92CDB7DEB7DA
:105410008C016B017A0180915D0B8333E9F45B01B0
:105420006801C40ED51EC016D106A9F10E94AF0BAB
:105430008FE00E94BA0B812F0E94BA0B802F0E942E
:10544000BA0B0F5F1F4F80E00E94BA0BF5018193EA
:105450005F010E94A50BE7CF843369F50E94AF0B73
:1054600019830A838F2D8F778B83EC8264E070E041
:10547000CE0101960E948B0BA70170E060E0C6018F
:105480000E948982E114F10421F0B701C6010E9453
:105490008B0B0E94A50BC7010F900F900F900F90E0
:1054A000DF91CF911F910F91FF90EF90DF90CF9000
:1054B000BF90AF9008950E94AF0B0F3F110509F008
:1054C00030F419820A831B8263E070E0D1CF17FDAC
:1054D0000BC019820A8333E0169507953A95E1F7D8
:1054E000007E08600B83F0CFC80126E09695879573
:1054F0002A95E1F7807E19830A830115104C18F470
:1055000080618B83E1CF8861FCCFCF93DF931F92C3
:10551000CDB7DEB72091EE0A30E0322F2227260FDA
:10552000371F90E0982F882741E050E0BE016F5F61
:105530007F4F820F931F0E94FA2989810F90DF917C
:10554000CF910895CF93C82F462F61E070E00E945D
:10555000BF0C61E070E08C2F0E94852A8111F9CF89
:10556000CF910895CF93C82F80E591E00E94D70393
:1055700068E070E08C2FCF910C94A22ACF93C82FB3
:1055800080E591E00E94D70360E170E08C2FCF911D
:105590000C94A22ACF93DF93EC01888D823020F403
:1055A0000E94BE2A82E0888FDF91CF91089563E048
:1055B00070E00C94852ACF93C82F80E591E00E947B
:1055C000D7038C2FCF910C94D72ACF93DF93EC0184
:1055D0002091590B30915A0B8C819D8128173907E6
:1055E00059F020915B0B30915C0B8C819D812817C9
:1055F000390749F090E00DC080E00E94DB2A843139
:1056000081F791E006C081E00E94DB2A91E08431BD
:1056100089F7892FDF91CF910895CF93DF93EC0124
:105620008C858230D0F40E94DB2A843189F0882373
:1056300079F0883169F021E08C3159F4E881F98101
:105640000084F185E02DCE01199521E0892B09F424
:1056500020E0822FDF91CF91089580E0FBCFCF92A1
:10566000DF92EF92FF92CF93DF93EC018C85823033
:1056700068F40E94B22A0E94A80A6B017C018C8502
:105680000E94DB2A811109C082E08C87DF91CF91D3
:10569000FF90EF90DF90CF90089561E070E080E0A0
:1056A00090E00E94760A0E94A80AAB01BC014C1946
:1056B0005D096E097F098D859E85B0E0A0E04817E1
:1056C00059076A077B07D8F28C850E94BE2ADCCF77
:1056D000CF93FC01C08D80E591E00E94D70360E28A
:1056E00070E08C2F0E94A22A62E070E08C2F0E9452
:1056F000852A84FD16C062E070E08C2F0E94852A06
:1057000083FF0AC048E162E070E08C2F0E94BF0C6A
:1057100080E090E0CF91089580E591E00E94D7036A
:10572000E3CF40E162E070E08C2F0E94BF0C81E08B
:10573000F0CFCF93DF931F92CDB7DEB741E050E0BB
:10574000BE016F5F7F4F90E080E00E94FA2989815F
:105750000F90DF91CF910895CF93DF93C4E1D0E014
:105760000E94992B882361F061E070E080E090E076
:105770000E94760A2197A1F780E0DF91CF910895EA
:1057800081E0FBCF1F93CF93DF931F921F92CDB782
:10579000DEB760E372E080E090E00E94760A0E944B
:1057A0004709EAE5F6E0E491F0E0EE0FFF1FE1596A
:1057B000FA4F859194919093ED0A8093EC0AEBEA6D
:1057C000F6E0E491E093EB0A61E086E40E941609BA
:1057D0000E94A50B80E591E00E94D70384E38093AB
:1057E0005D0B80E80E94610C0E94AC2B882309F4B9
:1057F00052C088E00E94610C0E94992B883009F009
:105800004AC080E10E94610C0E94992B803109F00E
:1058100042C080E00E94610C0E94992B81113BC024
:1058200041E050E0BE016F5F7F4F8FE190E00E944A
:10583000FA298981833079F580E48093EE0A42E089
:105840006EE170E080E00E94BF0C42E06FE170E02A
:1058500080E00E94BF0C42E06EE170E081E00E94B7
:10586000BF0C42E06FE170E081E00E94BF0C12E0EB
:1058700040E06EE170E0812F0E94BF0C40E06FE1DC
:1058800070E0812F0E94BF0C1F5F183089F781E004
:1058900080935E0B6AC087E380935D0B80E80E9473
:1058A000610C0E94AC2B882329F188E00E94610CD6
:1058B0000E94992B8830F1F480E10E94610C0E94D3
:1058C000992B182F8031B1F480E00E94610C0E9466
:1058D000992B81110FC041E050E0BE016F5F7F4FF7
:1058E00089E390E00E94FA298981843019F41093A9
:1058F000EE0ACDCF83E380935D0B80E80E94610CBC
:105900000E94AC2B882371F180E10E94610C0E94FF
:10591000992B803139F582E10E94610C0E94992B0C
:10592000823101F580E00E94610C0E94992B811167
:1059300019C084E08093EE0A15E51A8341E050E037
:10594000BE016E5F7F4F8BE190E00E94C10B198317
:1059500041E050E0BE016F5F7F4F8AE190E00E941E
:10596000C10B95CF10925D0B80E00F900F90DF91EF
:10597000CF911F910895CF92DF92EF92FF92CF9334
:10598000DF93CDB7DEB7C254D1090FB6F894DEBFAE
:105990000FBECDBFFC014281538164817581239686
:1059A0004CAF5DAF6EAF7FAF239781E023968FAF93
:1059B00023972396CCACDDACEEACFFAC2397CBAAFF
:1059C000DCAAEDAAFEAA4DA75EA76FA778AB88ABAD
:1059D000CDA4DEA4EFA4F8A8CFA2D8A6E9A6FAA683
:1059E0008EABCBA8DCA8EDA8FEA8C9A2DAA2EBA2D8
:1059F000FCA22EEB32E03C8B2B8B9FEF9D8B9E8B82
:105A00009F8B188E3E872D878AA7CFA0D8A4E9A4A4
:105A1000FAA4CF86D88AE98AFA8A8CA389A19AA1A6
:105A2000ABA1BCA189879A87AB87BC873A832983BE
:105A30004B835C836D837E8380915E0B8823F1F1C1
:105A400080E591E00E94D70346E050E065E272E015
:105A500089E090E00E94C10BCE0103960E94450DA3
:105A600044E050E0BE01615F7F4F81E090E00E9422
:105A7000C10B44E050E0BE016B5E7F4F85E090E0DB
:105A80000E94C10B81E08C8789859A85AB85BC8596
:105A900080936A0D90936B0DA0936C0DB0936D0D78
:105AA000CE5BDF4F0FB6F894DEBF0FBECDBFDF91E8
:105AB000CF91FF90EF90DF90CF9008950E94C22B7E
:105AC000882371F3BDCF1F93CF93DF931F92CDB780
:105AD000DEB7182F80E591E00E94D703812F0E9446
:105AE000740C27E0129FF0011124E55BF44F228132
:105AF0003381377041E050E0BE016F5F7F4F820F0E
:105B0000931F0E94FA2989810F90DF91CF911F91F5
:105B10000895FC01808D823040F4218D328D232B3D
:105B200021F00E94632D90E008958FEF9FEF08957C
:105B3000CF93DF93FC012485223028F08FEF9FEF75
:105B4000DF91CF910895EC010190F081E02D008468
:105B5000F185E02D1995892B89F38C850E94632DA1
:105B600090E0EECFDA01E091EE0AF0E0FE2FEE27B2
:105B7000E60FF71F90E0982F8827A901BD018E0F2F
:105B80009F1F0C94FA29AF92BF92CF92DF92EF92AF
:105B9000FF921F93CF93DF9300D000D01F921F92EC
:105BA000CDB7DEB720915D0B222309F4C1C06B0194
:105BB0007C0180E591E00E94D70380E00E94D72A13
:105BC000182F8823E9F081E00E94D72A882309F45E
:105BD000AAC01D3179F0183169F01A51123050F015
:105BE0008D3131F0883121F08A51823008F0A0C027
:105BF00011E001C010E060E170E0812F0E94A22A54
:105C0000A12EB12CF501EE0FFF1FE75AF44F1182C0
:105C1000108283EE93E00197F1F742E870E060E0D4
:105C2000812F0E94BF0C4FEF62E070E0812F0E9435
:105C3000BF0CB601C114D10491F48091210290915E
:105C400022020196811520EC920708F46EC0909311
:105C50002202809321026091210270912202812F01
:105C60000E94A90C86E0E6E3F2E0DE0111960190C5
:105C70000D928A95E1F7F70183818F778C83848178
:105C80008D8385818E83A7014E5F5F4F24E030E0D6
:105C90006CE070E0812F0E94820CB601812F0E947F
:105CA000930C26E030E0AE014F5F5F4F66E070E09E
:105CB000812F0E94820C61E070E0812F0E94A22A55
:105CC00027E02A9DC0012B9D900D11249C01255B8E
:105CD000344F7901F9011182108222E030E0AE01E7
:105CE000495F5F4F68E270E0812F0E94B22D8F8183
:105CF0009885982789279827F701938382831682AE
:105D000015821482812F28960FB6F894DEBF0FBE3D
:105D1000CDBFDF91CF911F91FF90EF90DF90CF909B
:105D2000BF90AF90089511E06BCF80E090EC8FCFE3
:105D300012E0E8CFCF92DF92EF92FF920F931F9382
:105D4000CF93DF9300D000D0CDB7DEB78C016B01CD
:105D50007A01FC01808D823010F40E94BE2A8EEB05
:105D600092E09A838983F60182819381A481B5812F
:105D70008B839C83AD83BE83B701CE0101960E94C5
:105D8000C32DF801808F8230A0F4F586E486128E50
:105D9000118E81E026960FB6F894DEBF0FBECDBF00
:105DA000DF91CF911F910F91FF90EF90DF90CF90F7
:105DB000089580E0EFCFCF92DF92EF92FF920F93A2
:105DC0001F93CF93DF931F921F92CDB7DEB7082F9B
:105DD0006B0180E591E00E94D70380E00E94D72A02
:105DE000182F8823F1F081E00E94D72A882309F434
:105DF0007BC01D3181F0183171F01A51123058F00A
:105E00008D3139F0883129F08A5112E0823008F062
:105E10005FC011E001C010E060E170E0812F0E94DE
:105E2000A22AE12EF12CF701EE0FFF1FE75AF44FE3
:105E30001182108283EE93E00197F1F7402F70E01A
:105E400060E0812F0E94BF0C4FEF62E070E0812F75
:105E50000E94BF0CB601CD2891F48091210290914F
:105E600022020196811520EC920708F43FC090931E
:105E70002202809321026091210270912202812FDF
:105E80000E94A90C61E070E0812F0E94A22A27E005
:105E90002E9DC0012F9D900D1124FC01E55BF44F58
:105EA0007F011182108222E030E0AE014F5F5F4F30
:105EB00068E270E0812F0E94B22D89819A81982733
:105EC00089279827F701938382831682158214828B
:105ED000812F0F900F90DF91CF911F910F91FF9025
:105EE000EF90DF90CF90089511E09BCF80E090EC91
:105EF000BECFCF92DF92EF92FF921F93CF93DF93AB
:105F0000EC017B016A018C85823048F40E94DB2A17
:105F1000882319F08C850E94B22A82E08C87F701D1
:105F200082819381A481B5810097A105B10551F4C7
:105F300090E080E0DF91CF911F91FF90EF90DF9094
:105F4000CF9008958F3F9F4FAF4FBF4F89F3809100
:105F50005D0B811103C082E08C87EACF70E060E0C6
:105F600081E20E94DB2E182F8C87823008F780E5B3
:105F700091E00E94D703A7014E5F5F4F24E030E01D
:105F80006CE070E0812F0E94820CB601812F0E948C
:105F9000930C64E070E0812F0E94A22A0E94A80A5C
:105FA0006B017C018C850E94DB2A873109F18C31E1
:105FB000F9F0882309F4BCCF0E94A80AAB01BC0108
:105FC0004C195D096E097F098D859E85B0E0A0E0C2
:105FD00084179507A607B70738F061E070E080E006
:105FE00090E00E94760ADECF8C850E94BE2AB3CF55
:105FF00081E090E09FCF0F931F93CF93DF93EC014D
:106000008B01888D823010F40E94BE2A80915D0B36
:10601000811107C092E0988FDF91CF911F910F916E
:106020000895B80182E00E94DB2E888F823030F420
:106030001D870C871A8E198E81E0EECF80E0ECCFA1
:106040000F931F93CF9320915D0B222359F18C0165
:10605000DC0114966D917C9181E20E94DB2EC82FA9
:10606000823000F580E591E00E94D7038C2F0E94DA
:10607000D72A833131F08C2FCF911F910F910C943F
:10608000B22A62E070E08C2F0E94A22AEC2FF0E08E
:10609000EE0FFF1FE75AF44FD80114968D919C9193
:1060A00091838083CF911F910F9108957F928F925A
:1060B0009F92AF92BF92CF92DF92EF92FF920F9397
:1060C0001F93CF93DF931F921F92CDB7DEB7782E29
:1060D0008B014A01590122E030E0AE014F5F5F4F72
:1060E00064E270E00E94B22DE980FA80FE24EF2481
:1060F000FE24E00EF11E9701377040915D0B072DD5
:1061000010E0433309F042C0085F1F4F102F0027F3
:10611000110F110F110FC901800F911F4733C9F1E2
:10612000A9014A0D5B1D4130584098F160E078E0CC
:106130006B01C21AD30AA601B4010E94C10BA501CA
:106140004C195D09B4016C0D7D1DC8010E94C10B85
:10615000EA0CFB1CF982EA8222E030E0AE014F5FDC
:106160005F4F64E270E0872D0E94820C0F900F90C9
:10617000DF91CF911F910F91FF90EF90DF90CF9023
:10618000BF90AF909F908F907F900895005F1F4FBA
:10619000BDCFA501B401DACFEF92FF921F93CF9349
:1061A000DF931F921F92CDB7DEB7182F22E030E0A9
:1061B000AE014F5F5F4F60E270E00E94B22DE98058
:1061C000FA80FE24EF24FE2422E030E0AE014F5F8F
:1061D0005F4F60E270E0812F0E94B22D89819A8129
:1061E000982789279827E816F90689F487E0189FE9
:1061F000F0011124E55BF44FF582E482C7010F90B2
:106200000F90DF91CF911F91FF90EF9008957C0147
:10621000DBCF1F93CF93DF93182F80E591E00E948F
:10622000D703812F0E94CC30EC01812F0E94D72A06
:10623000873121F08C3111F0D0E0C0E0CE01DF9148
:10624000CF911F910895CF93DF93EC018C8582301D
:1062500060F40E94DB2A873111F08C3131F48C8597
:106260000E9409318115984088F3DF91CF910895FC
:10627000FC018485823010F40C94093190E080E0B8
:106280000895CF92DF92EF92FF921F93CF93DF9307
:10629000182F7B01EA014130584010F0C0E0D8E0EF
:1062A00080E591E00E94D703812F0E94CC306C01E1
:1062B000812F0E94D72A873111F08C3121F5CC161D
:1062C000DD0670F380E591E00E94D7039E01A701EF
:1062D00070E060E0812F0E94563060E270E0812F14
:1062E0000E94A22A62E070E0812F0E94852A84FD2C
:1062F0000DC0812F0E94D72A8823B9F080E591E054
:106300000E94D703EFCFD0E0C0E0DCCF40E162E0F5
:1063100070E0812F0E94BF0CCE01DF91CF911F91C1
:10632000FF90EF90DF90CF900895D0E0C0E0F4CFE1
:106330000F931F93CF93DF938C01EA01FC018485B7
:10634000823048F40E944131892B39F481E090E099
:10635000F80193838283D0E0C0E0CE01DF91CF913A
:106360001F910F9108959F92AF92BF92CF92DF92AB
:10637000EF92FF920F931F93CF93DF938C015B01FA
:10638000942EE52EFC01C688D788F08C80E591E03C
:106390000E94D7038F2D0E94CC30C92DDE2D8C1783
:1063A0009D0708F4EC019E01A501B6018F2D0E9406
:1063B0005630F801868997898C0F9D1F978B868BA5
:1063C000CE01DF91CF911F910F91FF90EF90DF9061
:1063D000CF90BF90AF909F900895FF920F931F931F
:1063E000CF93DF931F921F92CDB7DEB7F82E22E036
:1063F00030E0AE014F5F5F4F66E270E00E94B22D69
:1064000009811A8110270127102722E030E0AE0110
:106410004F5F5F4F66E270E08F2D0E94B22D898141
:106420009A819827892798270817190749F4C801DE
:106430000F900F90DF91CF911F910F91FF900895D2
:106440008C01E3CF1F93CF93DF93182F87E0189F22
:10645000E0011124C55BD44F88819981009761F4D4
:1064600080E591E00E94D703812F0E94ED312E81BB
:10647000821B910999838883DF91CF911F910895A1
:10648000AF92BF92CF92DF92EF92FF920F931F9342
:10649000CF93DF93EC017B0180915D0B811120C0D4
:1064A0001B821A8288EE93E0A0E0B0E08C839D838B
:1064B000AE83BF8380E492E09983888382E08C87F7
:1064C00088EE93E09E878D87CE01DF91CF911F915B
:1064D0000F91FF90EF90DF90CF90BF90AF90089515
:1064E00089E5C82E8BE0D82E10E092E0B92EA12CC1
:1064F000D6012D913D916D01F70184819581281779
:10650000390791F4812F0E94DB2A082F873111F07F
:106510008C3141F5812F0E942232892B61F50C319B
:1065200019F4812F0E94B22A1130D1F4A11008C0B1
:10653000D701ED91FC910084F185E02DC7011995FB
:106540001B821A8288EE93E0A0E0B0E08C839D83EA
:10655000AE83BF8380E492E099838883BC86B0CF0A
:1065600011E0C6CF843149F08111DECFF6013297B8
:1065700011821082D9CFB12ED7CFAA24A394D4CF21
:10658000CF92DF92EF92FF920F931F93CF93DF93FF
:10659000CDB7DEB72F970FB6F894DEBF0FBECDBFD5
:1065A0007C016B018A0180915D0B8823E9F1B701C1
:1065B000CE0101960E9440322091590B30915A0B26
:1065C000F701848195812817390751F480E00E94F2
:1065D000DB2A873129F4A801B60180E00E9441310D
:1065E00020915B0B30915C0BF7018481958128171A
:1065F000390751F481E00E94DB2A873129F4A80190
:10660000B60181E00E944131C8012F960FB6F8947F
:10661000DEBF0FBECDBFDF91CF911F910F91FF90D5
:10662000EF90DF90CF90089510E000E0EDCFFC01F7
:106630008485823010F40C94223290E080E008953A
:106640004F925F927F928F929F92AF92BF92CF9222
:10665000DF92EF92FF920F931F93CF93DF931F92DE
:106660001F92CDB7DEB7782E6B014A01A82EB12C50
:1066700027E0829FC0011124FC01E55BF44F7F01FC
:106680000081118180E591E00E94D703081519056A
:1066900054F4872D0E94ED31F70126818C01021BF5
:1066A0001109118300830115110519F5872D0E9429
:1066B000D72A843159F0882349F001E010E08C3169
:1066C00011F410E000E0119501951109C8010F9037
:1066D0000F90DF91CF911F910F91FF90EF90DF907E
:1066E000CF90BF90AF909F908F907F905F904F9092
:1066F0000895801691060CF4840187E08A9DF001CC
:106700008B9DF00D1124E55BF44FE280F380C11402
:10671000D10451F12701F7E05F22872D0E94740C0C
:10672000840D951D20915D0B273309F453C098010A
:10673000240D351D2130384008F44CC020E038E0ED
:10674000490184189508A401B6010E94FA2926017E
:10675000480C591C6801C818D908872D0E94740C70
:10676000A601B2010E94FA29E00EF11E87E08A9D7F
:10677000F0018B9DF00D1124E55BF44FF382E28272
:1067800020813181201B310B318320838681800F52
:10679000912F911D8A3F910510F4232BF1F487E08E
:1067A0008A9DF0018B9DF00D1124E55BF44F16825C
:1067B000F982EA8222E030E0AE014F5F5F4F68E28B
:1067C00070E0872D0E94820C60E470E0872D0E94AB
:1067D000A22A7CCFA801B601C5CF868377CFCF93FD
:1067E000DF93FC01218D328D2115310529F48FEFC6
:1067F0009FEFDF91CF910895EC01808D42175307F1
:1068000008F0A9010E9420331816190684F7298D73
:106810003A8D281B390B3A8F298FEBCF0F931F939B
:10682000CF93DF931F92CDB7DEB7FC01218D328D60
:10683000232B41F48FEF9FEF0F90DF91CF911F91AA
:106840000F9108958C0141E050E0BE016F5F7F4FD2
:10685000FC01808D0E942033181619065CF7F801A0
:10686000818D928D0197928F818F898190E0E4CF05
:106870000F931F93CF93DF9300D000D01F921F92EE
:10688000CDB7DEB78C01D80159964D915C915A97DE
:106890004115510551F0ED91FC91048CF58DE02DE1
:1068A00070E060E0C8011995EECFF801808D0E947C
:1068B0002232892BB1F148E050E0BE016F5F7F4F7B
:1068C000D80158968C910E94203318161906F4F4BA
:1068D000D801509684E0FE01319601900D928A9580
:1068E000E1F78D8190E0982F88272E81820F911DEE
:1068F000F801958B848B8F81282F30E0322F22274F
:106900008885820F932F911D928F818F28960FB6C5
:10691000F894DEBF0FBECDBFDF91CF911F910F91D5
:10692000089590E080E0F2CF4F925F926F927F9255
:106930008F929F92AF92BF92CF92DF92EF92FF928F
:106940000F931F93CF93DF93CDB7DEB763970FB647
:10695000F894DEBF0FBECDBF7C016B013A01FB0195
:1069600020E090E080E06AE03191332309F461C0D7
:1069700040ED430F4A3008F04DC0689FA001699F69
:10698000500D1124CA01C097830F911D37FD9A95B0
:106990008F3F910549F340F3F701428153816481B0
:1069A00075818091760D9091770DA091780DB091C1
:1069B000790D481759076A077B0709F40DC287014B
:1069C000085F1F4F0E94A80A6F7077277C5FC8017D
:1069D0000E94FB2F813009F004C28EEB92E09A8373
:1069E0008983F70182819381A481B5818B839C8304
:1069F000AD83BE8345E350E0BE016F5F7F4FC801AA
:106A00000E944D0D892BA9F5D12CC12CC8010E94E3
:106A1000CA2A17C03E3209F0BFCF233009F4BCCFD9
:106A2000D301A20FB11D12968C932F5F90E080E0EE
:106A30009BCF233009F0B0CFF3018583CC24C394DE
:106A4000D12CC60163960FB6F894DEBF0FBECDBF42
:106A5000DF91CF911F910F91FF90EF90DF90CF903A
:106A6000BF90AF909F908F907F906F905F904F906E
:106A700008950E94A80AF7017783668342E050E0F8
:106A8000B7016A5F7F4FC8010E94B33181E090E097
:106A90009A83898342E050E0BE016F5F7F4FC80157
:106AA0000E94B33180E091E09A83898342E050E014
:106AB000BE016F5F7F4FC8010E94B3311A821982F5
:106AC00042E050E0BE016F5F7F4FC8010E94B331CA
:106AD00042E050E0BE016F5F7F4FC8010E94B331BA
:106AE00042E050E0BE016F5F7F4FC8010E94B331AA
:106AF0005601F6018081882301F16501F60181913B
:106B00002F01882311F08E32B1F446018A189B08B8
:106B10001814190474F48D8641E050E0BE01635FDF
:106B20007F4FC8010E94B331A401B501C8010E9482
:106B3000B3315201DECF6201E1CF1D8641E050E06A
:106B4000BE01635F7F4FC8010E94B331C12CDD24B9
:106B5000D394DA82C98242E050E0BE016F5F7F4F7A
:106B6000C8010E94B331DA82C98242E050E0BE011E
:106B70006F5F7F4FC8010E94B331C8010E94682B2C
:106B8000892B09F441CFF3E0AF2EB12C230122E091
:106B9000420E511CD4C0F70142815381648175813A
:106BA000808D918DA28DB38D481759076A077B0799
:106BB00009F008C1848D958DC59709F003C181A1A5
:106BC00092A15DEFC52EDD24DA940C970CF4ADC0D4
:106BD0004CE050E0BE016F5F7F4FC8010E94EF3371
:106BE0008B819C819827892798279A8B898BF7011D
:106BF0004681578129813A814217530709F0E7C03E
:106C000097FFE5C08F7092703BEFC32EDD24DA94BE
:106C1000892B09F08AC06F807884762467247624D3
:106C20002AEFC22EDD24DA946114710409F47DC0C8
:106C3000D12CC12C8D819E81982789279827C81631
:106C4000D906F8F441E050E0BE01635F7F4FC80110
:106C50000E94EF334D85442331F050E070E060E056
:106C6000C8010E94EF338D858111ECCF44E050E0E4
:106C700070E060E0C8010E94EF33FFEFCF1ADF0A37
:106C8000D9CF912C812C41E050E0BE016D5E7F4F49
:106C9000C8010E94EF334B89842F807C09F06CC0BF
:106CA000442331F050E070E060E0C8010E94EF330F
:106CB0008B898111E8CF42E050E0BE01615F7F4FD8
:106CC000C8010E94EF3342E050E0BE01635F7F4F96
:106CD000C8010E94EF3344E050E070E060E0C8017A
:106CE0000E94EF3342E050E0BE016F5E7F4FC8016B
:106CF0000E94EF338F85988949895A89811591407F
:106D000009F043C0CD84DE84DC24CD24DC2481E082
:106D1000C816D104D1F54115544009F04AC044E0E9
:106D200050E0B201C8010E94EF3321E0A21AB1087D
:106D300009F46CCEFFEFCF16DF0609F067CE0E9494
:106D4000A80A3B014C01C8010E94383418161906E4
:106D50000CF421CF0E94A80A6619770988099909BD
:106D6000693873418105910548F562E370E080E080
:106D700090E00E94760AE7CF41E050E070E060E0EA
:106D8000C8010E94EF331B8A93CF5427452754270D
:106D900070E060E0C8010E94EF33FFEF8F1A9F0A96
:106DA0006814790409F06FCF96EFC92EDD24DA94C8
:106DB000BCCFE7EFCE2EDD24DA94B7CFCC24CA9433
:106DC000DC2CB3CF6EEFC62EDD24DA94AECF4CEFC1
:106DD000C42EDD24DA94A9CF8EEFC82EDD24DA94F8
:106DE00030CED12CC12C2DCECF92DF92EF92FF92DC
:106DF0000F931F93CF93DF93CDB7DEB7AF970FB647
:106E0000F894DEBF0FBECDBF7C016A010EEB12E02D
:106E10001A8309831C861B8688EE93E0A0E0B0E00D
:106E20008D879E87AF87B88B82E792E09A878987A4
:106E3000188F0F8B198E1A8E1B8E1C8E82E089A3E1
:106E40001BA70AA71CA61DA61EA61FA680916A0D39
:106E500090916B0DA0916C0DB0916D0D8EA39FA3C1
:106E6000A8A7B9A78B839C83AD83BE8318861F8296
:106E7000AE01465D5F4FCE0101960E949434813091
:106E80009105B1F4D701ED91FC910488F589E02DCD
:106E90001DA30CA38CA59DA5AEA5BFA58EA39FA3E6
:106EA000A8A7B9A7A601BE016C5D7F4FC7011995C0
:106EB000AF960FB6F894DEBF0FBECDBFDF91CF9176
:106EC0001F910F91FF90EF90DF90CF900895CF9298
:106ED000DF92EF92FF920F931F93CF93DF93CDB783
:106EE000DEB7AF970FB6F894DEBF0FBECDBF8C01F3
:106EF0006B017A018EEB92E09A8389831B821C825C
:106F00001D821E821C861B8648EE53E060E070E006
:106F10004D875E876F87788B22E732E03A87298733
:106F2000988F8F8B198E1A8E1B8E1C8E22E029A3B0
:106F30009BA78AA71CA61DA61EA61FA6D8011C9645
:106F40008C91823060F40E94DB2A882321F0F801C2
:106F500084850E94B22A82E0D8011C968C9380918D
:106F60006A0D90916B0DA0916C0DB0916D0D8EA37B
:106F70009FA3A8A7B9A78B839C83AD83BE831886E4
:106F80001F82AE01465D5F4FB601CE0101960E94A1
:106F900094340097C1F0D801ED91FC910684F785F7
:106FA000E02D8EEB92E09DA38CA38CA59DA5AEA5B4
:106FB000BFA58EA39FA3A8A7B9A7A701BE016C5D1B
:106FC0007F4FC8011995AF960FB6F894DEBF0FBE7C
:106FD000CDBFDF91CF911F910F91FF90EF90DF9088
:106FE000CF900895CF93DF931F92CDB7DEB741E0E6
:106FF00050E0BE016F5F7F4FFC0184850E9420330B
:107000001816190634F4898190E00F90DF91CF9122
:1070100008958FEF9FEFF9CFFC018485823010F443
:107020000C94203390E080E008950F931F93CF934A
:10703000DF931F921F92CDB7DEB7FC01248522306B
:10704000E0F48C0180E591E00E94D70322E030E07B
:10705000AE014F5F5F4F60E170E0F80184850E94F0
:10706000B22D89819A819827892798270F900F90B0
:10707000DF91CF911F910F91089590E080E0F6CFBE
:10708000EF92FF920F931F93CF93DF9300D01F9245
:10709000CDB7DEB78C017B01FB0184858230A8F07F
:1070A0008EEB92E0F8019183808312821382148226
:1070B0001582C8010F900F900F900F90DF91CF9124
:1070C0001F910F91FF90EF90089580E591E00E944D
:1070D000D70324E030E0AE014F5F5F4F6CE070E01B
:1070E000F70184850E94B22DBE016F5F7F4FC801FA
:1070F0000E94461ADECF0F931F93CF93DF931F9208
:107100001F92CDB7DEB7FC0124852230E0F48C015C
:1071100080E591E00E94D70322E030E0AE014F5FAE
:107120005F4F64E070E0F80184850E94B22D898190
:107130009A819827892798270F900F90DF91CF91F8
:107140001F910F91089590E080E0F6CF7F928F928B
:107150009F92AF92BF92CF92DF92EF92FF920F93E6
:107160001F93CF93DF93CDB7DEB7A6970FB6F894F2
:10717000DEBF0FBECDBF8C01762E942E852E20E271
:10718000A22ECE0101967C01DC01EA2D1D92EA952A
:10719000E9F76801F3E4CF0ED11C8EEB92E09AA3DD
:1071A00089A38FEF8BA38CA38DA38EA343E450E020
:1071B000BE016F5D7F4FC6010E944D0D019609F41F
:1071C000BFC081E089838A8386E0B82EBB821C829F
:1071D000D80114966D917D918D919C9117970E9485
:1071E00057806D837E838F83988789869A8680E80F
:1071F00090E09C878B874CE150E0B701C6010E946C
:10720000B331FE0137968AE1DF011D928A95E9F7D5
:107210004801B8E08B0E911CF401D70101900D924A
:10722000BA94E1F740E150E0B701C6010E94B331E2
:10723000F7011192AA94E9F796E0A92EB12C40E249
:1072400050E0B701C6010E94B331F1E0AF1AB108B6
:10725000B1F783E6898392E89A8393E59B838C83D5
:1072600085E38D8381E08E837F829DE3988797E01D
:1072700099878A8786E0F401DE011B9601900D92C2
:107280008A95E1F78CE0898B8A8B6BED72E0CE01F9
:1072900043960E94A482D8011B966C91CE01499618
:1072A0000E941206F8016485CE014B960E941206D8
:1072B000D8011D966C91CE014D960E9412064EE1AA
:1072C00050E0B701C6010E94B331B3E07B121EC08B
:1072D00082E3898384E08A83F80196859B8397857E
:1072E0009C8390899D8391899E8396E39F83888761
:1072F000828D8987838D8A87848D8B87858D8C8706
:107300004CE050E0B701C6010E94B33187E38983A6
:1073100086E08A8391E09B8393E09C838D838FE05A
:107320008E838AE38F838BE388878FEF898749E099
:1073300050E0B701C6010E94B331C6010E94682B1C
:10734000A6960FB6F894DEBF0FBECDBFDF91CF91EA
:107350001F910F91FF90EF90DF90CF90BF90AF9073
:107360009F908F907F9008953F924F925F926F927F
:107370007F928F929F92AF92BF92CF92DF92EF92C5
:10738000FF920F931F93CF93DF93CDB7DEB7EA97AA
:107390000FB6F894DEBF0FBECDBF7C012A013B01C2
:1073A00069010E94A80A4B015C0187010D5B1F4F18
:1073B000C8010E943834181619069CF00E94A80AC9
:1073C000681979098A099B094616570668067906DD
:1073D00008F466C162E370E080E090E00E94760A03
:1073E000E7CF42E250E0BE016F5F7F4FC8010E94CD
:1073F000EF3389818230D1F0312C832DEA960FB69C
:10740000F894DEBF0FBECDBFDF91CF911F910F91DA
:10741000FF90EF90DF90CF90BF90AF909F908F90B4
:107420007F906F905F904F903F900895F80184890E
:1074300095898334910501F76D817E818F819885CF
:107440000E9457804B015C01F60180829182A282EA
:10745000B38246E050E0B701685F7F4FCE014D96A2
:107460000E947382892B41F6F70180819181A2816C
:10747000B38188169906AA06BB0608F4BDCF84819D
:107480009581A681B78188159905AA05BB0508F4E1
:10749000B3CF89899A89AB89BC8986879787A08B66
:1074A000B18B4EEC50E070E060E0C8010E94EF3319
:1074B000312CC701829698AB8FA7F701B696FAAB2D
:1074C000E9AB08969CAB8BAB67019AE1C90ED11C66
:1074D000BD96FEABEDABC701429698AF8FABFD9763
:1074E000FAAFE9AF4701FEE18F0E911CF801818DE3
:1074F000928D181619060CF080CFC8010E940E3428
:107500008333910509F4B2C014F58130910509F473
:1075100064C044F4892B51F3C8010E940E34AC01BD
:10752000552775C08330910509F462C00697A1F70D
:10753000C8010E940E34B82E44E050E0B401C801E6
:107540000E94EF33EB2DE450FF0BAF0160C08A3394
:10755000910509F45FC084F585339105B1F1C697B3
:10756000D9F6C8010E940E345C01B601CE0189969D
:107570000E94461A8BA59CA5ADA5BEA5892B8A2B7A
:107580008B2BB1F0EDA9FEA9408051806280738001
:10759000B601CE0183960E94461A8DA19EA1AFA18D
:1075A000B8A5A501481659066A067B0609F0B8CFAA
:1075B00044E050E0B60118C08B33910509F440C097
:1075C0008F3F910509F492CFA7CFC8010E940E34D6
:1075D000C8010E940E34382E89CFC8010E940E3493
:1075E00044E050E06FA978ADC8010E94EF337ECF30
:1075F000C8010E940E34B82E44E050E069AD7AAD67
:10760000C8010E94EF338B2D8450990BAC0170E0C0
:1076100060E0EACFC8010E940E3444E050E069A95E
:107620007AA9C8010E94EF33F70166A177A180A56E
:1076300091A50E94578066A377A380A791A756CFF4
:10764000C8010E940E3444E050E06BA97CA9C80137
:107650000E94EF33F70162A573A584A595A50E944A
:10766000578062A773A784A795A740CFC8010E943F
:107670000E3444E050E06FA578A9C8010E94EF33B2
:10768000F70162A173A184A195A10E94578062A312
:1076900073A384A395A366A777A780AB91AB26CFEE
:1076A00033243A94AACE9C01CB0144E050E0B901C6
:1076B0000E94297E84E090E00895EF92FF920F935C
:1076C0001F93CF93DF9300D01F92CDB7DEB77C011D
:1076D000FC01038110E0BE016F5F7F4FC8010E9473
:1076E000533B89819A81AB81BC81F701828B938B5B
:1076F000A48BB58BBE016F5F7F4FC80104960E94BB
:10770000533B89819A81AB81BC81F701868B978B32
:10771000A08FB18FBE016F5F7F4FC80108960E9496
:10772000533B89819A81AB81BC81F70182A393A3EA
:10773000A4A3B5A3BE016F5F7F4FC8010C960E9442
:10774000533B89819A81AB81BC81F70186A397A3C2
:10775000A0A7B1A7C80140960E94477EF701928377
:1077600081830F900F900F900F90DF91CF911F9119
:107770000F91FF90EF900895CF92DF92EF92FF92DA
:107780000F931F93CF93DF93CDB7DEB7E6970FB676
:10779000F894DEBF0FBECDBF62EC72E0CE018596DD
:1077A0000E94C9206AE070E0CE0185960E949B1F6E
:1077B0008091E90A9091EA0A65EF73E00A9714F064
:1077C00062EC72E0CE0185960E949F206091E90AEA
:1077D0007091EA0A4AE0CE0101960E94AE29BE01EC
:1077E0006F5F7F4FCE0185960E947720CE01019674
:1077F0000E94F81962E373E0CE0185960E946D2025
:107800008091E70A9091E80A0A9734F465EF73E0F3
:10781000CE0185960E946D206091E70A7091E80A7A
:107820004AE0CE0101960E94AE29BE016F5F7F4FF4
:10783000CE0185960E947720CE0101960E94F8190C
:1078400062E373E0CE0185960E946D208091E50A87
:107850009091E60A0A9734F465EF73E0CE018596BD
:107860000E946D206091E50A7091E60A4AE0CE011F
:1078700001960E94AE29BE016F5F7F4FCE018596B3
:107880000E947720CE0101960E94F8196EE575E0FE
:10789000CE0185960E946D208091E30A9091E40AC2
:1078A0000A9734F465EF73E0CE0185960E946D204F
:1078B0006091E30A7091E40A4AE0CE0101960E94C9
:1078C000AE29BE016F5F7F4FCE0185960E94772063
:1078D000CE0101960E94F81964E37AE0CE01859604
:1078E0000E946D208091E10A9091E20A0A9734F497
:1078F00065EF73E0CE0185960E946D206091E10AEC
:107900007091E20A4AE0CE0101960E94AE29BE01C2
:107910006F5F7F4FCE0185960E947720CE01019642
:107920000E94F81962EC72E0CE018B960E94C92089
:1079300063E270E0CE018B960E949B1F64E373E0CC
:10794000CE01C1960E94C920E0911F02F091200251
:107950003197E331F10508F08FC28827ED54F34CDD
:107960008F4F0C944F80503DAE403C3F5D403C3FBC
:10797000FE44504402403C3F69407142BF433B4596
:107980002A44FF42F5416943C63C813F0091150BF3
:107990001091160B6BE373E00115110529F001300E
:1079A000110531F466E473E0CE01C1960E949F2078
:1079B00080911E02882309F456C0012B81F441E016
:1079C00050E062E270E081E290E00E94F30A50E051
:1079D00040E06AE270E081E290E00E94F30A809168
:1079E000150B9091160B019781F450E040E062E294
:1079F00070E081E290E00E94F30A41E050E06AE228
:107A000070E081E290E00E94F30A63E671E186E6AD
:107A100090E00E94881DBE016F5C7F4F87E490E07C
:107A20000E94881D6091190B70911A0B89E490E0F7
:107A30000E94EE1B6091170B7091180B8BE490E085
:107A40000E94EE1B6DA17EA1CE0101960E94C9206D
:107A5000BE016F5F7F4F81E690E00E94881DCE01DE
:107A600001960E94F8196091F20E7091F30E8091C8
:107A7000F40E9091F50E0E94AD7F86E490E00E9496
:107A8000EE1B60911C0F70911D0F80911E0F909145
:107A90001F0F0E94AD7F81E590E00E94EE1BECC1BC
:107AA0008091150B9091160B6BE373E0009721F01A
:107AB000019731F466E473E0CE01C1960E946D2017
:107AC00080911E02882309F45BC069A97AA9CE01BE
:107AD00001960E94C920BE016F5F7F4F8BE190E04D
:107AE0000E94881DCE0101960E94F8196091170B23
:107AF0007091180B89E090E00E94EE1B6091190BC9
:107B000070911A0B89E190E00E94EE1B4091500E9B
:107B100050E06BE070E08BE190E00E94F30A40914E
:107B20005D1150E063E070E08BE190E00E94F30AA9
:107B30004091D11050E064E070E08BE190E00E9451
:107B4000F30A4091C81050E065E070E08BE190E0EE
:107B50000E94F30A4091DF10411102C04091D810F9
:107B600050E066E070E08BE190E00E94F30A409103
:107B7000C90E50E068E070E08BE190E00E94F30AEB
:107B8000809116029091170227E1289FF001299F0A
:107B9000F00D1124EB5DFD4E20E030E040E251E4B9
:107BA00060817181828193810E946B7D6B017C0178
:107BB00020E030E0A9010E94E37F20E030E040E0D7
:107BC0005FE387FD76C1C701B6010E94CF7E0E94A8
:107BD000AD7F2AE030E040E050E00E948D7EBA01A7
:107BE000A9018AE290E00E947C1B8091140290918E
:107BF000150227E1289FF001299FF00D1124EB5D6C
:107C0000FD4E20E030E040E251E4608171818281EC
:107C100093810E946B7D6B017C0120E030E0A90123
:107C20000E94E37F20E030E040E05FE387FD46C153
:107C3000C701B6010E94CF7E0E94AD7F2AE030E0EE
:107C400040E050E00E948D7EBA01A90184E290E0FC
:107C50000E947C1B809112029091130227E1289FC1
:107C6000F001299FF00D1124EB5DFD4E20E030E086
:107C700040E251E460817181828193810E946B7D39
:107C80006B017C0120E030E0A9010E94E37F20E04D
:107C900030E040E05FE387FD16C1C701B6010E94F6
:107CA000CF7E0E94AD7F2AE030E040E050E00E94AD
:107CB0008D7EBA01A90189E290E00E947C1B80912F
:107CC000200B9091210B27E1289FF001299FF00DB7
:107CD0001124EB5DFD4E20E030E040E251E4608194
:107CE0007181828193810E946B7D6B017C0120E018
:107CF00030E0A9010E94E37F20E030E040E05FE354
:107D000087FDE6C0C701B6010E94CF7E0E94AD7F0D
:107D10002AE030E040E050E00E948D7EBA01A901E7
:107D200081E290E00E947C1B40911C0F50911D0F3E
:107D300060911E0F70911F0F89E590E00E94BB1AA1
:107D4000C090F20ED090F30EE090F40EF090F50E8D
:107D500020E030E0A901C701B6010E94E37F20E0E6
:107D600030E040E05FE387FDB8C0C701B6010E9484
:107D7000CF7E0E94AD7FAB01BC0188E590E00E9400
:107D80007C1B60919D1070919E108BE590E00E948D
:107D9000EE1B6091DA0F7091DB0F8AE590E00E9494
:107DA000EE1BC090BC0ED090BD0EE090BE0EF090C9
:107DB000BF0E20E030E0A901C701B6010E94E37FB9
:107DC00020E030E040E05FE387FD8CC0C701B601F2
:107DD0000E94CF7E0E94AD7FAB01BC018CE590E09C
:107DE0000E947C1B60912D1170912E118DE590E009
:107DF0000E94EE1BC0903F11D0904011E0904111C5
:107E0000F090421120E030E0A901C701B6010E94C4
:107E1000E37F20E030E040E05FE387FD68C0C7011A
:107E2000B6010E94CF7E0E94AD7FAB01BC0180E213
:107E300090E00E947C1BC090300BD090310BE09002
:107E4000320BF090330B20E030E0A901C701B601FE
:107E50000E94E37F20E030E040E05FE387FD4CC01C
:107E6000C701B6010E94CF7E0E94AD7FAB01BC016D
:107E70008EE190E00E947C1B10921E02CE01C19602
:107E80000E94F819CE018B960E94F819CE018596B2
:107E90000E94F819E6960FB6F894DEBF0FBECDBF6C
:107EA000DF91CF911F910F91FF90EF90DF90CF90D6
:107EB0000895C701B6010E94CE7E89CEC701B601E2
:107EC0000E94CE7EB9CEC701B6010E94CE7EE9CE19
:107ED000C701B6010E94CE7E19CFC701B6010E942C
:107EE000CE7E47CFC701B6010E94CE7E73CFC701B9
:107EF000B6010E94CE7E97CFC701B6010E94CE7E0A
:107F0000B3CF80911E02882309F4B6CF80914B1124
:107F100062EE72E0811102C062EC72E0CE014F9617
:107F20000E94C9208091350B63EF72E0811102C07D
:107F300062EC72E0CE0149960E94C92080911D0B2F
:107F400066E073E0811102C062EC72E07E0123E121
:107F5000E20EF11CC7010E94C920BE01615E7F4F85
:107F6000CE0101960E94C020BE01675E7F4FCE0108
:107F700007960E94C020B701CE010D960E94C02036
:107F80008E010F5F1F4F89E690E0D80114962D9166
:107F90003C911597232B69F0ED91FC9120812223D0
:107FA00041F06C01BFEFCB1ADB0AB8010E94881DBB
:107FB000C6010A5F1F4FE016F10639F78C010C3637
:107FC0001105C4F0CE010D960E94F819CE01079656
:107FD0000E94F819CE0101960E94F819C7010E946B
:107FE000F819CE0149960E94F819CE014F960E94C9
:107FF000F81942CF62EC72E0C8010E94521A0F5F7A
:108000001F4FDDCF80911E02882309F435CF609188
:10801000DA0D7091DB0DCE0101960E94C920BE01E0
:108020006F5F7F4F86E290E00E94881DCE0101962F
:108030000E94F8196091D40D7091D50DCE01019672
:108040000E94C920BE016F5F7F4F85E290E00E94D1
:10805000881DCE0101960E94F8196091C80D70919B
:10806000C90DCE0101960E94C920BE016F5F7F4FEE
:1080700088E290E00E94881DCE0101960E94F819C6
:108080006091CE0D7091CF0DCE0101960E94C92056
:10809000BE016F5F7F4F87E290E00E94881DCE0196
:1080A00001960E94F8194091460B50E062E070E0A2
:1080B00090E080E00E94F30ADFCE80911E028823C8
:1080C00009F4DACE67E871E18DE190E00E94881D45
:1080D000D3CE80911E02882309F4CECE6091170B77
:1080E0007091180B8FE190E00E94EE1B6091190BCC
:1080F00070911A0B82E290E00E94EE1B60911B0BC4
:1081000070911C0B83E290E00E94EE1B4091BC102A
:108110005091BD106091BE107091BF1080E390E04F
:108120000E94BB1A4091150B5091160B70E060E055
:1081300090E080E00E94F30A4091180250911902E9
:1081400061E070E090E080E00E94F30A40910C0B47
:1081500050E068E070E08EE190E0ACCF80911E02CC
:10816000882309F489CE8091DF0A9091E00A019773
:1081700031F461E573E0CE018B960E946D20809111
:10818000DF0A9091E00A029731F469E573E0CE01CD
:108190008B960E946D208091DF0A9091E00A0397F0
:1081A00031F462E673E0CE018B960E946D208091DF
:1081B000DF0A9091E00A049731F46DE673E0CE0196
:1081C0008B960E946D208091DF0A9091E00A0597BE
:1081D00031F467E773E0CE018B960E946D208091A9
:1081E000DF0A9091E00A069731F46FE773E0CE0161
:1081F0008B960E946D208091DF0A9091E00A07978C
:1082000031F469E873E0CE018B960E946D20809175
:10821000E90A9091EA0A0A9734F465EF73E0CE0117
:108220008B960E946D206091E90A7091EA0A4AE0FB
:10823000CE0101960E94AE29BE016F5F7F4FCE0135
:108240008B960E947720CE0101960E94F8196EE568
:1082500075E0CE018B960E946D208091E70A909187
:10826000E80A019731F461E973E0CE018B960E9430
:108270006D208091E70A9091E80A029731F46AE94B
:1082800073E0CE018B960E946D208091E70A909159
:10829000E80A039731F464EA73E0CE018B960E94FA
:1082A0006D208091E70A9091E80A049731F46BEA17
:1082B00073E0CE018B960E946D208091E70A909129
:1082C000E80A059731F462EB73E0CE018B960E94C9
:1082D0006D208091E70A9091E80A069731F467EBE8
:1082E00073E0CE018B960E946D208091E70A9091F9
:1082F000E80A079731F46DEB73E0CE018B960E948C
:108300006D208091E70A9091E80A089731F463ECB8
:1083100073E0CE018B960E946D208091E70A9091C8
:10832000E80A099731F46BEC73E0CE018B960E945A
:108330006D208091E70A9091E80A0A9731F466ED82
:1083400073E0CE018B960E946D208091E70A909198
:10835000E80A0B9731F46FED73E0CE018B960E9423
:108360006D208091E70A9091E80A0C9731F469EE4C
:1083700073E0CE018B960E946D208091E50A90916A
:10838000E60A63EF73E00A9714F067EF73E0CE013B
:108390008B960E946D206091E50A7091E60A4AE092
:1083A000CE0101960E94AE29BE016F5F7F4FCE01C4
:1083B0008B960E947720CE0101960E94F819BE018B
:1083C000655D7F4F8DE490E00E94881D6091E30A17
:1083D0007091E40A8FE590E00E94EE1B6091E10A43
:1083E0007091E20A80E690E058CB80911E028823CB
:1083F00009F46AC040915F1150E061E070E08EE1E5
:1084000090E00E94F30A4091601150E067E070E054
:108410008EE190E00E94F30A60912D1170912E116F
:1084200081E490E00E94EE1B409133115091341191
:10843000609135117091361184E390E00E94BB1A6F
:1084400040913711509138116091391170913A1162
:1084500085E390E00E94BB1A40913B1150913C1182
:1084600060913D1170913E1186E390E00E94BB1A2D
:1084700040914711509148116091491170914A11F2
:1084800087E390E00E94BB1A60914C1170914D11EE
:1084900082E590E00E94EE1B6091591170915A1193
:1084A00085E590E00E94EE1B60914E1170914F1196
:1084B00083E590E00E94EE1B60915B1170915C116E
:1084C00084E590E00E94EE1B40913F1150914011D5
:1084D000609141117091421180E490E00E94BB1ABA
:1084E000CBCC80911E02882309F472C04091EC0E1F
:1084F00050E070E060E08EE190E00E94F30A40916D
:10850000EA0E50E06FE070E08EE190E00E94F30A26
:108510004091CA0E5091CB0E6091CC0E7091CD0E51
:108520008DE090E00E94BB1A4091CE0E5091CF0E8C
:108530006091D00E7091D10E8CE090E00E94BB1A39
:108540004091D20E5091D30E6091D40E7091D50E01
:108550008EE090E00E94BB1A4091D60E5091D70E4B
:108560006091D80E7091D90E86E590E00E94BB1AFA
:108570004091DA0E5091DB0E6091DC0E7091DD0EB1
:1085800087E590E00E94BB1A4091DE0E5091DF0E0D
:108590006091E00E7091E10E8EE590E00E94BB1AB2
:1085A0004091BC0E5091BD0E6091BE0E7091BF0EF9
:1085B00081E190E00E94BB1A4091E60E5091E70ED7
:1085C0006091E80E7091E90E80E390E00E94BB1A82
:1085D00040911C0F50911D0F60911E0F70911F0F45
:1085E0008CE290E00E94BB1A4091F20E5091F30E83
:1085F0006091F40E7091F50E8BE090E06FCF80915A
:108600001E02882309F44EC04091BA1050E06EE07B
:1086100070E08EE190E00E94F30A4091BB1050E0C0
:1086200069E070E08EE190E00E94F30A60919D1095
:1086300070919E108EE490E00E94EE1B4091A3107A
:108640005091A4106091A5107091A6108AE490E05A
:108650000E94BB1A4091A7105091A8106091A910D8
:108660007091AA1088E490E00E94BB1A4091AB1070
:108670005091AC106091AD107091AE108CE490E010
:108680000E94BB1A6091C0107091C11081E390E00C
:108690000E94EE1B6091050B7091060B82E390E047
:1086A0000E94EE1B40911C0F50911D0F60911E0FF8
:1086B00070911F0F8BE290E00E94BB1A4091F20E66
:1086C0005091F30E6091F40E7091F50E8FE290E0F0
:1086D00005CF80911E02882309F446C04091F30F14
:1086E00050E062E070E08EE190E00E94F30A409179
:1086F000F40F50E06AE070E08EE190E00E94F30A2F
:108700006091DA0F7091DB0F83E490E00E94EE1B22
:108710004091E00F5091E10F6091E20F7091E30FF3
:1087200088E390E00E94BB1A4091E40F5091E50F5E
:108730006091E60F7091E70F89E390E00E94BB1A09
:108740004091E80F5091E90F6091EA0F7091EB0FA3
:108750008AE390E00E94BB1A6091F50F7091F60FCA
:1087600083E690E00E94EE1B4091F20E5091F30ED2
:108770006091F40E7091F50E83E390E0AFCE80919E
:108780001E02882309F478CB80911F0B0E94BF083A
:108790006AE173E0019711F064E273E0CE010196A3
:1087A0000E94C920BE016F5F7F4F85E690E00E9466
:1087B000881D80911F0B0E94BF0841E050E0019787
:1087C00011F450E040E06EE070E08BE190E00E9438
:1087D000F30A609110027091110282E690E00E940B
:1087E000EE1B4091C91050E063E070E08EE190E034
:1087F0000E94F30A4091CA1050E064E070E08EE1FC
:1088000090E00E94F30A4091D21050E065E070E0E1
:108810008EE190E00E94F30A4091D31050E066E0B0
:1088200070E08EE190E00E94F30A4091730E50E0F8
:1088300065E170E08EE190E00E94F30A4091710ED4
:1088400050E066E170E08EE190E00E94F30ACE0114
:108850000196CDCB80911E02882309F40DCB409167
:10886000E01050E06DE070E08EE190E00E94F30ACD
:108870004091E11050E06CE070E08EE190E00E94E9
:10888000F30A4091D91050E067E170E08EE190E08A
:108890000E94F30A4091DA1050E068E170E05BCC8E
:1088A00080911E02882309F45DC0609116027091C8
:1088B000170284E190E00E94EE1B60911402709117
:1088C000150287E090E00E94EE1B60911202709109
:1088D000130288E190E00E94EE1B6091200B7091E2
:1088E000210B88E090E00E94EE1B8091160290918F
:1088F000170217E1189FB001199F700D11246F5CCA
:108900007D4E83E190E00E94881D80911402909139
:108910001502189FB001199F700D11246F5C7D4ED8
:1089200086E090E00E94881D8091120290911302CF
:10893000189FB001199F700D11246F5C7D4E87E167
:1089400090E00E94881D8091200B9091210B189F30
:10895000B001199F700D11246F5C7D4E82E190E093
:108960000E94881D809116029091170217E1189FAE
:10897000F001199FF00D1124EB5DFD4E40815181F6
:108980006281738185E190E00E94BB1A809114029C
:1089900090911502189FF001199FF00D1124EB5DC5
:1089A000FD4E408151816281738185E090E00E949B
:1089B000BB1A8091120290911302189FF001199F27
:1089C000F00D1124EB5DFD4E408151816281738178
:1089D00086E190E00E94BB1A8091200B9091210BC0
:1089E000189FF001199FF00D1124EB5DFD4E4081A1
:1089F0005181628173818AE190E070CD80911E0285
:108A0000882381F140917D0F50917E0F60917F0FFF
:108A10007091800F81E090E00E94BB1A4091810F1D
:108A20005091820F6091830F7091840F82E090E0EB
:108A30000E94BB1A40918D0F50918E0F60918F0F45
:108A40007091900F83E090E00E94BB1A4091910FCB
:108A50005091920F6091930F7091940F84E090E089
:108A60000E94BB1A8BE69FE00E940911AB01BC017A
:108A70008CE190E033CD80911E02882309F478C008
:108A80004091290F50912A0F60912B0F70912C0F5C
:108A90008EE390E00E94BB1A40912D0F50912E0F53
:108AA00060912F0F7091300F8DE390E00E94BB1A00
:108AB0004091390F50913A0F60913B0F70913C0FEC
:108AC0008CE390E00E94BB1A40913D0F50913E0F05
:108AD00060913F0F7091400F8BE390E00E94BB1AB2
:108AE0004091250F5091260F6091270F7091280F0C
:108AF0008FE090E00E94BB1A4091FF0E5091000F52
:108B00006091010F7091020F85E490E00E94BB1A02
:108B10004091030F5091040F6091050F7091060F63
:108B200084E490E00E94BB1A40910F0F5091100F07
:108B30006091110F7091120F82E490E00E94BB1AB5
:108B40004091130F5091140F6091150F7091160FF3
:108B50008FE390E00E94BB1A4091FB0E5091FC0EF7
:108B60006091FD0E7091FE0E80E190E00E94BB1AB4
:108B700087E19FE00E940911AB01BC018DE290E00A
:108B80000E94BB1A87E19FE00E94B310AB01BC01B9
:108B90008FE490E00E94BB1A8DEE9EE00E940911C6
:108BA000AB01BC018EE290E00E94BB1A8DEE9EE00C
:108BB0000E94B310AB01BC0180E590E08FCC0F9315
:108BC0001F93CF93DF9300D000D0CDB7DEB762EC18
:108BD00072E08AED9DE00E949F2000EE1DE0F8010A
:108BE00062818AED9DE00E9442206EE574E08AED8C
:108BF0009DE00E946D20F80163818AED9DE00E9456
:108C000042206EE574E08AED9DE00E946D20F8013F
:108C100064818AED9DE00E9442206EE574E08AED59
:108C20009DE00E946D20F80165818AED9DE00E9423
:108C3000422062EC72E084ED9DE00E949F200CE0F7
:108C400012E0F801608184ED9DE00E9442206EE513
:108C500074E084ED9DE00E946D20F801618184ED57
:108C60009DE00E9442206EE574E084ED9DE00E944C
:108C70006D20F801628184ED9DE00E9442206EE546
:108C800074E084ED9DE00E946D20F801638184ED25
:108C90009DE00E94422062EC72E088EC9DE00E9420
:108CA0009F2008E012E0F801608188EC9DE00E94BE
:108CB00042206EE574E088EC9DE00E946D20F80192
:108CC000618188EC9DE00E9442206EE574E088ECB2
:108CD0009DE00E946D20F801628188EC9DE00E9479
:108CE00042206EE574E088EC9DE00E946D20F80162
:108CF000638188EC9DE00E94422005E212E0F801C9
:108D0000808190E00E946B8240E1BC01CE0101961F
:108D10000E94AE29BE016F5F7F4F8EEC9DE00E94E6
:108D2000621FCE0101960E94F81964E37AE08EEC8E
:108D30009DE00E946D20F801818190E00E946B828D
:108D400040E1BC01CE0101960E94AE29BE016F5FD9
:108D50007F4F8EEC9DE00E947720CE0101960E940D
:108D6000F81964E37AE08EEC9DE00E946D20F80132
:108D7000828190E00E946B8240E1BC01CE010196AD
:108D80000E94AE29BE016F5F7F4F8EEC9DE00E9476
:108D90007720CE0101960E94F81964E37AE08EEC08
:108DA0009DE00E946D20F801838190E00E946B821B
:108DB00040E1BC01CE0101960E94AE29BE016F5F69
:108DC0007F4F8EEC9DE00E947720CE0101960E949D
:108DD000F81964E37AE08EEC9DE00E946D20F801C2
:108DE000848190E00E946B8240E1BC01CE0101963B
:108DF0000E94AE29BE016F5F7F4F8EEC9DE00E9406
:108E00007720CE0101960E94F81964E37AE08EEC97
:108E10009DE00E946D20F801858190E00E946B82A8
:108E200040E1BC01CE0101960E94AE29BE016F5FF8
:108E30007F4F8EEC9DE00E947720CE0101960E942C
:108E4000F81926960FB6F894DEBF0FBECDBFDF919E
:108E5000CF911F910F9108954F925F926F927F92E1
:108E60009F92AF92BF92CF92DF92EF92FF920F93B9
:108E70001F93CF93DF9300D000D0CDB7DEB78091A2
:108E8000460B882309F42CC28091DE0D9091DF0DF2
:108E9000892B09F43CC36AEF73E08091DA0D90915D
:108EA000DB0D0E949B82892B09F031C38091AC0AB3
:108EB00081112AC01092940A1092930A88EE93E0CE
:108EC000A0E0B0E08093950A9093960AA093970A49
:108ED000B093980A82E792E09093920A8093910A65
:108EE0008EEB92E09093A00A80939F0A1092A10AC1
:108EF0001092A20A1092A30A1092A40A82E0809310
:108F0000A90A81E08093AC0A8EE49AE090934D0A1E
:108F100080934C0A80915E0B882309F451C180E54F
:108F200091E00E94D70346E050E065E272E089E0FC
:108F300090E00E94C10B8EEB92E09A8389831B82A2
:108F40001C821D821E82CE0103960E94450D109246
:108F5000700A1092710A1092720A1092730A10929B
:108F6000740A1092750A1092760A1092770A10927B
:108F7000780A1092790A10927A0A10927B0A80E697
:108F80009AEEA0E0B0E08093840A9093850AA093C3
:108F9000860AB093870A80EA9FE0A0E0B0E0809361
:108FA000880A9093890AA0938A0AB0938B0AECE509
:108FB000FAE084E1DF011D928A95E9F786E0E5E2B7
:108FC000F2E0A6E5BAE001900D928A95E1F71092E1
:108FD000900A0E9434782FEC37E040E050E00E9485
:108FE0008D7EDC01CB010196A11DB11D8093520A3B
:108FF0009093530AA093540AB093550A80934E0A53
:1090000090934F0AA093500AB093510A81E99AE0D5
:109010000E94CA2A64E470E081E99AE00E94FB2F72
:10902000882309F4D1C00E94A80A6B017C0158EE84
:10903000452E53E0552E612C712C63E0962E02E0F4
:10904000B12CA12C8091900A833009F440C0811189
:109050005DC18091520A9091530AA091540AB09137
:10906000550A0196A11DB11D8093520A9093530A8F
:10907000A093540AB093550A0E94A80A6C197D095E
:109080008E099F09A30192010E946B7EA90161E0F4
:109090008EE49AE00E94A63881E08093900A91E0E5
:1090A000A916B10479F20E94A80A6C197D098E09EB
:1090B0009F092091840A3091850A4091860A509137
:1090C000870A261737074807590708F0B9CF81E9FB
:1090D0009AE00E94CA2A8091520A9091530AA09164
:1090E000540AB091550A0196A11DB11D8093520AF0
:1090F0009093530AA093540AB093550A0E94A80A69
:1091000060938C0A70938D0A80938E0A90938F0AD5
:10911000AA94AB2809F058C080E591E00E94D703DB
:1091200000914C0A10914D0AB801625F7F4FCE0149
:1091300001960E94461ACE0103960E94450DB80181
:109140006A5E7F4FCE0101960E94461A44E050E0CD
:10915000BE016D5F7F4F81E090E00E94C10BB801BE
:109160006E5E7F4FCE0101960E94461A44E050E0A9
:10917000BE016D5F7F4F85E090E00E94C10BB8019A
:10918000625E7F4FCE0101960E94461A8B819C81C0
:10919000AD81BE8180936A0D90936B0DA0936C0D91
:1091A000B0936D0D0E94510A7F73809121029091BE
:1091B000220268277927709322026093210204C05B
:1091C0000E94C22B8111ABCE68EE73E080E090E08C
:1091D0000E94760A8E010D5F1F4F82EEE82E8DE011
:1091E000F82E6E01B7E0CB0ED11C9EEBA92E92E0BB
:1091F000B92EBA82A9821B821C821D821E8280E542
:1092000091E00E94D70344E050E0BE016D5F7F4FC4
:109210008FE090E00E94FA29F80181918F01D70137
:109220008D937D01EC15FD0521F70E94DF4582E05D
:1092300094E00E94D41C8EEB92E09A8389831B8277
:109240001C821D821E8280E591E00E94D70344E0CB
:1092500050E0BE016D5F7F4F8FE090E00E94FA29E1
:1092600067EA7CE0CE0101960E948A1C60EC72E005
:1092700087EA9CE00E94F71B86E094E00E94D41CE1
:1092800064EF71E080E090E00E94760A05EA1CE954
:1092900086E090E00E946580FC01118300831382C8
:1092A0001282158214828091E60D9091E70D892B30
:1092B00009F042C1F093E70DE093E60DF093E90D5C
:1092C000E093E80D0F5F1F4F0732BDE91B0701F761
:1092D00064EF71E080E090E00E94760A0E94E5135E
:1092E00026960FB6F894DEBF0FBECDBFDF91CF91AB
:1092F0001F910F91FF90EF90DF90CF90BF90AF90B4
:109300009F907F906F905F904F900895843031F5DB
:109310008091520A9091530AA091540AB091550A33
:109320000196A11DB11D8093520A9093530AA093F8
:10933000540AB093550A0E94A80A6C197D098E0937
:109340009F09A30192010E946B7EA90163E08EE454
:109350009AE00E94A6380093900AA1CE813091F540
:109360004091880A5091890A60918A0A70918B0A0B
:109370009E012F5F3F4F8EE49AE00E94B439182F70
:10938000823009F0C1C089819A81AB81BC81809310
:10939000520A9093530AA093540AB093550A0E941C
:1093A000A80A6C197D098E099F09A30192010E94E8
:1093B0006B7EA90163E08EE49AE00E94A6381093C8
:1093C000900A6DCE823009F06ACE4091880A5091A1
:1093D000890A60918A0A70918B0A9E012F5F3F4F24
:1093E0008EE49AE00E94B439182F853009F087C0C6
:1093F0009092900A8091700A9091710AA091720ADD
:10940000B091730A892B8A2B8B2B61F484E893E04B
:10941000A0E0B0E08093700A9093710AA093720A62
:10942000B093730A8091740A9091750AA091760A9C
:10943000B091770A892B8A2B8B2BA1F48091700A2B
:109440009091710AA091720AB091730AB695A7958E
:10945000979587958093740A9093750AA093760ADE
:10946000B093770A8091780A9091790AA0917A0A4C
:10947000B0917B0A892B8A2B8B2BE9F48091700A9F
:109480009091710AA091720AB091730AAC01BD016A
:1094900033E076956795579547953A95D1F7841BB4
:1094A000950BA60BB70B8093780A9093790AA0933B
:1094B0007A0AB0937B0A8091740A9091750AA09100
:1094C000760AB091770A80937C0A90937D0AA093E4
:1094D0007E0AB0937F0A8091780A9091790AA091D0
:1094E0007A0AB0917B0A8093800A9093810AA093B4
:1094F000820AB093830AAA24A394B12CD0CD8630DB
:1095000019F41092900ACBCD1F3FD9F3C8CD8EEB42
:1095100092E09A8389838091E20D9091E30DA0916E
:10952000E40DB091E50D8B839C83AD83BE83CE01AA
:1095300001960E94BB2C7FCEA091E80DB091E90D61
:109540001596FC93EE931497B9CE4F925F926F925B
:109550007F928F929F92AF92BF92CF92DF92EF92C3
:10956000FF920F931F93CF93DF93CDB7DEB7AD97E5
:109570000FB6F894DEBF0FBECDBF3091FB11332381
:10958000A1F08091F91126E0829FF0011124E756A5
:10959000FE4E408121811281938164818F5F8F70A3
:1095A0008093F91131503093FB11473009F049C0D5
:1095B0001092420B1092430B1092440B1092450BE9
:1095C0002E3109F0FFC0193128F5E12FF0E088278E
:1095D000E351F54B8F4F0C944F80064B5B4B3C4B4C
:1095E0006D4B764B7F4B8A4B644B934B9A4B524B54
:1095F0000A4BBE4BB54B0A4BC74B0A4B0A4B0A4BA7
:109600000A4B0A4BD04BD94BA34BAC4B611130C02A
:109610001092EC0E8FE090E00E94580B0E94A80A76
:10962000605E7E45884F9F4F60931A0270931B02C5
:1096300080931C0290931D021092410B81E0809355
:109640001E02AD960FB6F894DEBF0FBECDBFDF9100
:10965000CF911F910F91FF90EF90DF90CF90BF902F
:10966000AF909F908F907F906F905F904F900895F4
:1096700081E08093EC0ECECF611103C01092F30F06
:10968000C9CF81E08093F30F8091F40F882311F20A
:1096900010920C0B8091460B882309F4BBCF0E94DB
:1096A000E513B8CF611103C01092F40FB3CF81E07E
:1096B0008093F40FAFCF611103C010925F11AACF56
:1096C00081E080935F11A6CF611103C010926011F9
:1096D000A1CF81E0809360119DCF611103C01092F2
:1096E000C91098CF81E08093C91094CF611103C055
:1096F0001092CA108FCF81E08093CA108BCF611176
:1097000003C01092D21086CF81E08093D210809354
:109710000B0B80CF611103C01092D3107BCF81E07F
:109720008093D31077CF662309F4B2CF81E0809382
:109730000C0BB0CF611103C01092BB106BCF81E056
:109740008093BB1067CF611103C01092D91062CF14
:1097500081E08093D9105ECF611103C01092DA10BE
:1097600059CF81E08093DA1055CF611103C0109278
:10977000E01050CF81E08093E0104CCF611103C026
:109780001092E11047CF81E08093E11043CF611147
:1097900003C01092EA0E3ECF81E08093EA0E3ACFEA
:1097A000611103C01092730E35CF81E08093730E68
:1097B00031CF611103C01092710E2CCF81E08093E4
:1097C000710E28CF21115CC0113059F140F01230D8
:1097D00009F020CF611144C01092460B1BCF6111DC
:1097E00017C01092160B1092150B83E00E94E80828
:1097F0008091460B882309F40DCF4091150B5091B1
:10980000160B64E670E086EE9DE00E94B50D02CF77
:10981000613071F781E090E09093160B8093150B07
:10982000E4CF611114C010921902109218028091B5
:10983000460B882309F4EECE40911802509119028C
:1098400065E670E086EE9DE00E94B50DE3CE6130E6
:1098500071F781E090E09093190280931802E7CFAE
:10986000613009F0D7CE6093460B6093C90A0E941D
:1098700036210E942C478FE094E00E94D41CCACE6F
:10988000263011F00C94725A62EC72E081E891E19A
:109890000E949F20153309F4DCC108F09AC01831EA
:1098A00009F461C108F049C0103109F432C190F4E3
:1098B000153009F423C1163011F0111112C084E0E3
:1098C00090E09093200280931F0250E040E064E01B
:1098D00070E095C0163109F427C108F02BC114318E
:1098E00071F38091B70A882309F494CE8091CE0A4F
:1098F000882309F457C2E090CA0AF090CB0A00917D
:10990000CC0A1091CD0A6BE771E1CE0101960E945D
:10991000C0209701A801BE016F5F7F4F8091D00AE0
:109920009091D10A0E945529CE0101960E94F81902
:109930001092CE0A1092B70A6DCE1C3109F443C1C1
:10994000A8F41A3109F42FC108F41DC160E674E0CF
:10995000CE0101960E94C92028E130E050E040E0AD
:10996000BE016F5F7F4F83EE9AE0F3C01A3209F4B5
:109970003AC1C8F4163209F0B4CF6EE674E0CE01F5
:1099800001960E94C92022E330E050E040E0BE0191
:109990006F5F7F4F80E590E10E945529CE010196CF
:1099A0000E94F8199ECF1B3209F430C11C3209F015
:1099B00098CF60EC74E0CE0101960E94C92020E2AD
:1099C0003EE450E040E0BE016F5F7F4F86E092E0F2
:1099D000E3CF163609F47CC108F046C0123509F40D
:1099E00028C190F41D3309F442C1163409F467CF3D
:1099F00050E040E068E070E0183309F072CF8AE090
:109A000090E00E94F30A6DCF173509F43CC198F439
:109A1000163509F066CF68E175E0CE0101960E9427
:109A2000C92028E130E050E040E0BE016F5F7F4F89
:109A30008EEB9AE0B1CF1D3509F435C11E3509F022
:109A400050CF6DE675E0CE0101960E94C920E12C51
:109A5000F12C0AE714E420E030E0A901BE016F5FB9
:109A60007F4F83EA90E131C11F3609F461C1E8F408
:109A7000193609F43DC11A3609F44AC1183609F0FD
:109A800030CF60E975E0CE0101960E94C920E12C3B
:109A9000F12C08EC12E420E030E040E85FEBBE017E
:109AA0006F5F7F4F88EB9AE010C1133709F450C104
:109AB000C0F4103709F015CF64ED75E0CE010196C2
:109AC0000E94C920E12C10E4F12E0CE116E420E004
:109AD00030E040E85FEBBE016F5F7F4F81E89FE0C1
:109AE000F4C0143709F449C11E3709F0FACE609169
:109AF0001F027091200250E040E081CF82E190E0AF
:109B00009093200280931F0250E040E065E070E0F7
:109B100076CF80E190E09093200280931F0250E086
:109B200040E060E170E06BCF81E08093C80A0E9462
:109B3000A726D7CE66E174E0CE0101960E94C92027
:109B400027E030E050E040E0BE016F5F7F4F8FEDD7
:109B50009AE00E945529CE0101960E94F81981E0F1
:109B60008093C80ABECE6DE374E0CE0101960E94D8
:109B7000C9202FE130E050E040E0BE016F5F7F4F31
:109B800089EE9AE0E6CF61E474E0CE0101960E948E
:109B9000C9202CE030E050E040E0BE016F5F7F4F15
:109BA00087EE9AE0D6CF67E474E0CE0101960E947A
:109BB000C92024E630E050E040E0BE016F5F7F4FF7
:109BC00085EE9AE0C6CF66E674E0CE0101960E946B
:109BD000C9202BE330E050E040E0BE016F5F7F4FD3
:109BE00081EE9AE0B6CF00910602109107026AE872
:109BF00074E0CE0101960E94C920980150E040E037
:109C0000BE016F5F7F4F86EC9AE0C6CE00910602E0
:109C10001091070264EA74E0CE0101960E94C92007
:109C2000980150E040E0BE016F5F7F4F84EC9AE006
:109C3000B3CE61ED74E0CE0101960E94C92022E30B
:109C400030E050E040E0BE016F5F7F4F82E590E181
:109C5000A3CE6CEE74E0CE0101960E94C920BE0135
:109C60006F5F7F4F82EC9AE00E940E2997CE63E0EF
:109C700075E0CE0101960E94C920BE016F5F7F4F43
:109C800080EC9AE0F1CF6AE375E0CE0101960E9484
:109C9000C92024E630E050E040E0BE016F5F7F4F16
:109CA0008CEB9AE079CE60E675E0CE0101960E94D9
:109CB000C920E12CF12C0AE714E420E030E0A901EE
:109CC000BE016F5F7F4F84E490E10E949D2866CEC5
:109CD0006AE775E0CE0101960E94C9202AE030E0D3
:109CE0004FEF5FEFBE016F5F7F4F84E092E054CE95
:109CF00063EA75E0CE0101960E94C92022E330E0BC
:109D00004FEF5FEFBE016F5F7F4F82E092E044CE86
:109D100066EB75E0CE0101960E94C92022E330E097
:109D20004FEF5FEFBE016F5F7F4F80E092E034CE78
:109D300067EC75E0CE0101960E94C92020E137E270
:109D40004FEF5FEFBE016F5F7F4F8CE69FE024CE49
:109D500065EE75E0CE0101960E94C920E12C10E469
:109D6000F12E0CE116E420E030E040E85FEBBE01AC
:109D70006F5F7F4F8DE89FE0A8CF69EE75E0CE0161
:109D800001960E94C920E12C10E4F12E0CE116E4AA
:109D900020E030E040E85FEBBE016F5F7F4F81E97C
:109DA0009FE093CFC090D20AD090D30AE090D40A1B
:109DB000F090D50A8090D60A9090D70AA090D80A41
:109DC000B090D90A6BE771E1CE0101960E94C020E4
:109DD00087017601A5019401BE016F5F7F4F8091DD
:109DE000DA0A9091DB0A0E949D28CE0101960E941A
:109DF000F819A0CD1E3608F00DCCE12FF0E0882731
:109E0000EB5FF04B8F4F0C944F800D502850F84F64
:109E1000AE52F8504950245158506A504950BB54E2
:109E2000AB549B54C850AF5095507C503A50495059
:109E30004950DB54705249505051695183519C51E3
:109E4000E7510052195232524B5284579156734F78
:109E50007F5261528E523A5049509E524950974F0C
:109E60003A504950CB54FB541855355569558655D1
:109E7000A355C055B94F3A503A56E25057560E5175
:109E80003A51EB4FA856BF567456EB4FF84FD65683
:109E9000F3561057495049504950B551CE51DE55EF
:109EA000F5550C5623562D574A576757EB545255C4
:109EB000C84F9E570A4B0A4B0A4B0A4B0A4B0A4B98
:109EC0000A4B0A4B0A4B0A4B0A4B0A4B0A4B0A4BEA
:109ED0000A4B0A4B0A4B0A4B0A4B0A4B0A4B0A4BDA
:109EE0000A4B0A4B3A5081E090E09093160B809316
:109EF000150B61E083E00E94E80860911F027091F9
:109F0000200250E040E08AE090E00E94F30A809155
:109F1000460B882309F47ECB4091150B5091160B0C
:109F200064E670E086EE9DE00E94B50D73CB109262
:109F3000160B1092150B60E083E00E94E808609118
:109F40001F027091200250E040E08AE090E00E9401
:109F5000F30A8091460B882309F45CCB4091150BE2
:109F60005091160B64E670E086EE9DE00E94B50D00
:109F700051CB81E090E09093200280931F0250E04B
:109F800040E061E070E08AE090E00E94F30A42CB9A
:109F90008091150B9091160B019709F03BCB8091A6
:109FA0004B11811109C08091350B811105C0809141
:109FB0001D0B882309F42ECB83E190E090932002BF
:109FC00080931F0250E040E063E170E08AE090E09F
:109FD0000E94F30A1FCB8AE090E0909320028093C6
:109FE0001F0250E040E06AE070E00E94F30A12CBEA
:109FF00084E090E09093200280931F026DEE75E064
:10A000008BE791E10E949F2050E040E065E070E026
:10A010008AE090E00E94F30AFDCA1092410B0E9470
:10A02000A80A605E7E45884F9F4F60931A02709326
:10A030001B0280931C0290931D0260911F0270917D
:10A04000200250E040E08AE090E00E94F30AE2CA79
:10A050006CEF75E0CE0101960E94C920BE016F5FD2
:10A060007F4F8AED9DE00E945428CE0101960E9408
:10A07000F819D0CA82E190E09093200280931F02E9
:10A0800050E040E062E170E08AE090E00E94F30A74
:10A09000C1CA84E090E09093200280931F0250E0B8
:10A0A00040E064E070E08AE090E00E94F30AB2CA07
:10A0B00066E076E0CE0101960E94C920BE016F5F86
:10A0C0007F4F84ED9DE00E945428CE0101960E94AE
:10A0D000F819A0CA6EE076E0CE0101960E94C92070
:10A0E000BE016F5F7F4F88EC9DE00E945428CE0137
:10A0F00001960E94F8198ECA63E176E0CE010196BE
:10A100000E94C920E12CF12C0AE714E420E030E0A1
:10A11000A901BE016F5F7F4F8DE79FE00E949D28E0
:10A12000CE0101960E94F81975CA6FE276E0CE0161
:10A1300001960E94C920E12C10E4F12E0CE915E4EF
:10A1400020E030E0A901BE016F5F7F4F81E89FE012
:10A150000E949D28CE0101960E94F8195BCA6BE40B
:10A1600076E0CE0101960E94C920E12CF12C0AE78D
:10A1700014E420E030E0A901BE016F5F7F4F8DE85D
:10A180009FE00E949D28CE0101960E94F81942CAC4
:10A1900060E676E0CE0101960E94C920E12C10E431
:10A1A000F12E0CE116E420E030E0A901BE016F5F62
:10A1B0007F4F81E99FE00E949D28CE0101960E9479
:10A1C000F81928CA64E776E0CE0101960E94C920FA
:10A1D00026E030E050E040E0BE016F5F7F4F82E15B
:10A1E00092E00E945529CE0101960E94F81912CAE8
:10A1F0006CE776E0CE0101960E94C92026E030E0AF
:10A2000050E040E0BE016F5F7F4F84E192E00E942A
:10A210005529CE0101960E94F819FCC964E876E040
:10A22000CE0101960E94C92028EE33E050E040E0C4
:10A23000BE016F5F7F4F86E192E00E945529CE01FB
:10A2400001960E94F819E6C96EE876E0CE01019603
:10A250000E94C92028EE33E050E040E0BE016F5F6D
:10A260007F4F80E29BE00E945529CE0101960E941B
:10A27000F819D0C969E976E0CE0101960E94C9209B
:10A280002CE330E050E040E0BE016F5F7F4F87E19C
:10A290009BE00E945529CE0101960E94F819BAC987
:10A2A00067EA76E0CE0101960E94C920E12CF12CEC
:10A2B00008EC12E420E030E0A901BE016F5F7F4F9F
:10A2C0008DE39FE00E949D28CE0101960E94F8191F
:10A2D000A1C961EB76E0CE0101960E94C920E12C74
:10A2E000F12C08EC12E420E030E040EA51ECBE0131
:10A2F0006F5F7F4F89E39FE00E949D28CE0101960A
:10A300000E94F81987C96AEB76E0CE0101960E9497
:10A31000C920E12CF12C0AE714E420E030E0A90187
:10A32000BE016F5F7F4F8DE29FE00E949D28CE01AE
:10A3300001960E94F8196EC962ED76E0CE01019691
:10A340000E94C920E12CF12C0AE714E420E030E05F
:10A35000A901BE016F5F7F4F89E29FE00E949D28A7
:10A36000CE0101960E94F81955C96AEE76E0CE0139
:10A3700001960E94C920E12CF12C0AE714E420E0A8
:10A3800030E0A901BE016F5F7F4F85E29FE00E9430
:10A390009D28CE0101960E94F8193CC96DEF76E028
:10A3A000CE0101960E94C920E12CF12C0AE714E4A9
:10A3B00020E030E0A901BE016F5F7F4F8BEF9EE090
:10A3C0000E949D28CE0101960E94F81923C964E1DC
:10A3D00077E0CE0101960E94C920E12CF12C0AE71A
:10A3E00014E420E030E0A901BE016F5F7F4F83E1FC
:10A3F0009FE00E949D28CE0101960E94F8190AC98B
:10A4000061E277E0CE0101960E94C920E12CF12C97
:10A410000AE714E420E030E0A901BE016F5F7F4F3E
:10A420008FE09FE00E949D28CE0101960E94F819BE
:10A43000F1C86EE277E0CE0101960E94C920E12CBE
:10A44000F12C0AE714E420E030E0A901BE016F5FBF
:10A450007F4F83E09FE00E949D28CE0101960E94DD
:10A46000F819D8C865E477E0CE0101960E94C920AA
:10A47000E12CF12C0AE714E420E030E0A901BE0150
:10A480006F5F7F4F8FEF9EE00E949D28CE01019667
:10A490000E94F819BFC86CE577E0CE0101960E94D2
:10A4A000C92024E630E050E040E0BE016F5F7F4FFE
:10A4B00080EC90E10E945529CE0101960E94F81986
:10A4C000A9C880E190E09093200280931F0250E0A1
:10A4D00040E060E170E08AE090E00E94F30A9AC8F0
:10A4E0008FE090E09093200280931F0250E040E0C4
:10A4F0006FE070E08AE090E00E94F30A8BC88BE086
:10A5000090E09093200280931F0250E040E06BE0C7
:10A5100070E08AE090E00E94F30A7CC881E190E05C
:10A520009093200280931F0250E040E061E170E0D0
:10A530008AE090E00E94F30A0C940A4B8DE090E0D0
:10A540009093200280931F0250E040E06DE070E0A5
:10A550008AE090E00E94F30A0C940A4B82E090E0BB
:10A56000909313028093120281E090E09093150281
:10A570008093140283E090E0909317028093160278
:10A580001092210B1092200B86E090E09093BF0A6E
:10A590008093BE0A8FE590E09093BD0A8093BC0A39
:10A5A00084EF91E090930702809306028CE291E0A1
:10A5B0009093C70A8093C60A88EC90E09093C50AEE
:10A5C0008093C40A8AED92E09093C30A8093C20AF2
:10A5D0008CE697E09093C10A8093C00A40E050E077
:10A5E00060E87FE340933311509334116093351149
:10A5F000709336114093371150933811609339118D
:10A6000070933A118DEC9CECACECBDE380933B1164
:10A6100090933C11A0933D11B0933E1180E090E0E7
:10A62000A0ECB0E48093471190934811A093491196
:10A63000B0934A1124E130E030934D1120934C1136
:10A6400088E592E090935A118093591182E390E04B
:10A6500090934F1180934E118AE090E090935C119B
:10A6600080935B1180E090E0A0E2B1E48093CA0E99
:10A670009093CB0EA093CC0EB093CD0E4093CE0E04
:10A680005093CF0E6093D00E7093D10EEAE08E2ED1
:10A69000E7ED9E2EE3E2AE2EECE3BE2E8092D20ECC
:10A6A0009092D30EA092D40EB092D50E8093D60E77
:10A6B0009093D70EA093D80EB093D90E4093DA0E94
:10A6C0005093DB0E6093DC0E7093DD0E8092DE0EF5
:10A6D0009092DF0EA092E00EB092E10EC12CD12C30
:10A6E000FCE5EF2EF2E4FF2EC092A310D092A4104E
:10A6F000E092A510F092A6104093A7105093A810D6
:10A700006093A9107093AA108092AB109092AC1035
:10A71000A092AD10B092AE10E1E0E093BA101092AA
:10A72000C1101092C0108093E00F9093E10FA0939E
:10A73000E20FB093E30F4093E40F5093E50F609363
:10A74000E60F7093E70F8092E80F9092E90FA092C6
:10A75000EA0FB092EB0FE093F30FC12CD12C10E86D
:10A76000E12E10E4F12EC0924010D0924110E09200
:10A770004210F09243104093441050934510609360
:10A780004610709347101092481010924910109282
:10A790004A1010924B104EE150E050934D104093F0
:10A7A0004C1030934F1020934E1049E150E05093DD
:10A7B0005110409350103093531020935210109228
:10A7C0007D0F10927E0F10927F0F1092800F40E04D
:10A7D00050E060EA70E44093810F5093820F6093E1
:10A7E000830F7093840F10928D0F10928E0F109222
:10A7F0008F0F1092900F40E050E066E973E44093B1
:10A80000910F5093920F6093930F7093940F109247
:10A81000FF0E1092000F1092010F1092020F809302
:10A82000030F9093040FA093050FB093060F10929F
:10A83000070F1092080F1092090F10920A0F8093C1
:10A840000B0F90930C0FA0930D0FB0930E0F10925F
:10A850000F0F1092100F1092110F1092120F40E074
:10A8600050E068EC72E44093130F5093140F609320
:10A87000150F7093160F1092290F10922A0F109235
:10A880002B0F10922C0F80932D0F90932E0FA093CF
:10A890002F0FB093300F1092310F1092320F109291
:10A8A000330F1092340F8093350F9093360FA0938F
:10A8B000370FB093380F80E090E0A0EAB1EC8093BE
:10A8C000390F90933A0FA0933B0FB0933C0F80E069
:10A8D00090E0A0EAB2E480933D0F90933E0FA093E6
:10A8E0003F0FB093400F80E090E0A8E4B2E4809383
:10A8F000B80A9093B90AA093BA0AB093BB0A88E247
:10A9000090E090930102809300028FE090E090939A
:10A9100003028093020210920502109204028CE35B
:10A9200090E09093060B8093050B0E945E120E94AC
:10A93000A6130C940A4B86E090E09093200280933B
:10A940001F0250E040E066E070E08AE090E00E9484
:10A95000F30A0C940A4B87E090E0909320028093D6
:10A960001F0250E040E067E070E08AE090E00E9463
:10A97000F30A0C940A4B88E090E0909320028093B5
:10A980001F0250E040E068E070E08AE090E00E9442
:10A99000F30A0C940A4B8EE090E09093200280938F
:10A9A0001F0250E040E06EE070E08AE090E00E941C
:10A9B000F30A0C940A4B8CE090E090932002809371
:10A9C0001F0250E040E06CE070E08AE090E00E94FE
:10A9D000F30A0C940A4B82E090E09093200280935B
:10A9E0001F0250E040E062E070E08AE090E00E94E8
:10A9F000F30A0C940A4B81E08093F20F6DE677E046
:10AA0000CE0101960E94C920E12CF12C0AE714E442
:10AA100020E030E0A901BE016F5F7F4F80EE9FE034
:10AA20000E949D28CE0101960E94F8190C940A4BB1
:10AA300081E08093F20F69E877E0CE0101960E94F1
:10AA4000C920E12CF12C0AE714E420E030E0A90150
:10AA5000BE016F5F7F4F84EE9FE00E949D28CE0174
:10AA600001960E94F8190C940A4B81E08093F20F32
:10AA700065EA77E0CE0101960E94C920E12CF12C15
:10AA80000AE714E420E030E0A901BE016F5F7F4FC8
:10AA900088EE9FE00E949D28CE0101960E94F81941
:10AAA0000C940A4B61EC77E0CE0101960E94C9201C
:10AAB00024E630E050E040E0BE016F5F7F4F85EF5D
:10AAC0009FE00E945529CE0101960E94F8190C942E
:10AAD0000A4B81E080935E1161ED77E0CE01019633
:10AAE0000E94C920E12CF12C0AE714E420E030E0B8
:10AAF000A901BE016F5F7F4F83E391E10E949D2812
:10AB0000CE0101960E94F8190C940A4B81E08093C3
:10AB10005E1166EE77E0CE0101960E94C920E12C1D
:10AB2000F12C0AE714E420E030E0A901BE016F5FD8
:10AB30007F4F87E391E10E949D28CE0101960E94FC
:10AB4000F8190C940A4B81E080935E116BEF77E06B
:10AB5000CE0101960E94C920E12CF12C0AE714E4F1
:10AB600020E030E0A901BE016F5F7F4F8BE391E1F0
:10AB70000E949D28CE0101960E94F8190C940A4B60
:10AB800081E080935E1160E178E0CE0101960E9441
:10AB9000C920E12C10E4F12E0CE116E420E030E0B5
:10ABA000A901BE016F5F7F4F87E491E10E949D285C
:10ABB000CE0101960E94F8190C940A4B6AE278E0E3
:10ABC000CE0101960E94C92028EC30E04AE050E016
:10ABD000BE016F5F7F4F8CE491E10E945529CE0149
:10ABE00001960E94F8190C940A4B6BE378E0CE01B1
:10ABF00001960E94C92020EB34E050E040E0BE0105
:10AC00006F5F7F4F89E591E10E945529CE01019642
:10AC10000E94F8190C940A4B69E478E0CE01019681
:10AC20000E94C92028EC30E050E040E0BE016F5F98
:10AC30007F4F8EE491E10E945529CE0101960E943A
:10AC4000F8190C940A4B6EE578E0CE0101960E944B
:10AC5000C92020EB34E050E040E0BE016F5F7F4F41
:10AC60008BE591E10E945529CE0101960E94F819C9
:10AC70000C940A4B81E08093B91060E778E0CE0134
:10AC800001960E94C920E12CF12C0AE714E420E08F
:10AC900030E0A901BE016F5F7F4F83EA90E10E941F
:10ACA0009D28CE0101960E94F8190C940A4B81E070
:10ACB0008093B91066E778E0CE0101960E94C92022
:10ACC000E12CF12C0AE714E420E030E0A901BE01F8
:10ACD0006F5F7F4F87EA90E10E949D28CE01019629
:10ACE0000E94F8190C940A4B81E08093B9106CE72C
:10ACF00078E0CE0101960E94C920E12CF12C0AE7F0
:10AD000014E420E030E0A901BE016F5F7F4F8BEAC1
:10AD100090E10E949D28CE0101960E94F8190C94A2
:10AD20000A4B62E878E0CE0101960E94C92026E431
:10AD300030E04EE150E0BE016F5F7F4F85E09BE069
:10AD40000E945529CE0101960E94F8190C940A4BD5
:10AD500065E978E0CE0101960E94C92024E630E042
:10AD600050E040E0BE016F5F7F4F89E19BE00E94B1
:10AD70005529CE0101960E94F8190C940A4B67EAF6
:10AD800078E0CE0101960E94C92026EE30E048E727
:10AD900050E0BE016F5F7F4F8BE19BE00E94552921
:10ADA000CE0101960E94F8190C940A4B81E0809321
:10ADB000EB0E69EB78E0CE0101960E94C920E12CF0
:10ADC000F12C0AE714E420E030E0A901BE016F5F36
:10ADD0007F4F8AEC9EE00E949D28CE0101960E9442
:10ADE000F8190C940A4B81E08093EB0E68EC78E044
:10ADF000CE0101960E94C920E12CF12C0AE714E44F
:10AE000020E030E0A901BE016F5F7F4F8EEC9EE035
:10AE10000E949D28CE0101960E94F8190C940A4BBD
:10AE200081E08093EB0E67ED78E0CE0101960E9401
:10AE3000C920E12CF12C0AE714E420E030E0A9015C
:10AE4000BE016F5F7F4F82ED9EE00E949D28CE0184
:10AE500001960E94F8190C940A4B81E08093EB0E46
:10AE600065EE78E0CE0101960E94C920E12CF12C1C
:10AE70000AE714E420E030E0A901BE016F5F7F4FD4
:10AE800086ED9EE00E949D28CE0101960E94F81951
:10AE90000C940A4B81E08093EB0E63EF78E0CE01D7
:10AEA00001960E94C920E12CF12C0AE714E420E06D
:10AEB00030E0A901BE016F5F7F4F8AED9EE00E94E6
:10AEC0009D28CE0101960E94F8190C940A4B81E04E
:10AED0008093EB0E61E079E0CE0101960E94C920DB
:10AEE000E12CF12C0AE714E420E030E0A901BE01D6
:10AEF0006F5F7F4F8EED9EE00E949D28CE010196F0
:10AF00000E94F8190C940A4B6EE079E0CE0101968C
:10AF10000E94C920E12CF12C08EC12E420E030E082
:10AF2000A901BE016F5F7F4F86EE9EE00E949D28C3
:10AF3000CE0101960E94F8190C940A4B6EE179E05B
:10AF4000CE0101960E94C92028EE33E050E040E097
:10AF5000BE016F5F7F4F80E192E00E945529CE01D4
:10AF600001960E94F8190C940A4B049709F0E4C268
:10AF700081E891E10E94571F64397642810591056D
:10AF8000B1F182E190E09093200280931F0250E0A3
:10AF900040E062E170E08AE090E00E94F30A62EC37
:10AFA00072E081E891E10E949F208091B60A8111B0
:10AFB0000AC060911F027091200250E040E08AE0D8
:10AFC00090E00E94F30A8091C90A882331F0109220
:10AFD000C90A0E9436210E942C470E94E513109254
:10AFE000400B88EE93E00E9432230C940A4B50E011
:10AFF00040E064E070E0CFCF81E08093B60A4AE0A1
:10B00000B601CE0182960E94AE2966E379E0CE01B8
:10B0100001960E94C920BE016E5D7F4FCE01019650
:10B020000E9401200E94EF1F4C01B5010E941420D4
:10B03000811103C0C4010E94E619B401CE018896B3
:10B040000E94C0209501A601BE01685D7F4F8091DE
:10B05000D00A9091D10A0E945529CE0188960E946B
:10B06000F819CE0101960E94F819CE0182960E942D
:10B07000F81998C28091DC0A882309F485C01092DF
:10B08000DC0A61E871E18091DD0A9091DE0A0E949C
:10B09000A9208091460B81110E94E5131091B50AF9
:10B0A000112319F01092B50A7DC28091CF0A88232E
:10B0B00009F478C261E871E1CE0182960E94C02055
:10B0C0008EA19FA1049791F521E030E050E040E08F
:10B0D000BE016E5D7F4FCE0101960E94DE20CE0143
:10B0E00001960E94571F4B01CE0101960E94F8194C
:10B0F00023E030E042E050E0BE016E5D7F4FCE01C4
:10B1000001960E94DE20CE0101960E94571F6B011E
:10B11000CE0101960E94F819F8E18F16910434F4DB
:10B1200011E02CE3C216D1040CF010E0CE0182969F
:10B130000E94F819112321F1C090D00AD090D10AB1
:10B14000F6010081118181E891E10E94571FF6010B
:10B15000718360832091C20A3091C30A8091C00A32
:10B160009091C10A2817390734F081E08093B60A1C
:10B170001183008317C21092B60A1092CF0A12C22E
:10B1800081E08093B60A0EC2809181119091821164
:10B1900020E030E0A901009721F00E948C789B010B
:10B1A000AC016091D60A7091D70A8091D80A90912B
:10B1B000D90A0E94057D18164CF581E08093B60AE5
:10B1C0004090D20A5090D30A6090D40A7090D50A69
:10B1D0008090D60A9090D70AA090D80AB090D90A49
:10B1E00019A618A61BA61AA61DA61CA68E010F5FDF
:10B1F0001F4F22E044E0C501B4010E94CA770097C6
:10B2000099F5CE0188960E94E61933C0809181118C
:10B210009091821120E030E0A901009721F00E9476
:10B220008C789B01AC016091D20A7091D30A809115
:10B23000D40A9091D50A0E94E37F87FDBECF00918A
:10B24000DA0A1091DB0A80918111909182110097A6
:10B2500009F456C00E948C78F80160837183828360
:10B2600093831092B60A99C1BC01CE0188960E94C0
:10B270009F2066E379E0CE0182960E94C920BE013C
:10B28000685D7F4FCE0182960E9401200E94EF1FD1
:10B290006C018E010F5F1F4F22E044E0C301B20139
:10B2A0000E94CA77FC0101900020E9F73197AF01B5
:10B2B000481B590BBC01C6010E94C31F811103C06A
:10B2C000C6010E94E619B601CE0101960E94C02077
:10B2D00083017201A5019401BE016F5F7F4F8091D0
:10B2E000DA0A9091DB0A0E949D28CE0101960E9405
:10B2F000F819CE0182960E94F819CE018896B7CE31
:10B3000060E070E0CB01A8CF6B307105A1F58091B2
:10B310005E11811110925E118091EB0E81111092DD
:10B32000EB0E8091B91081111092B91080913510F7
:10B3300081111092351062EC72E081E891E10E9477
:10B340009F2080911F0290912002049731F482E1A6
:10B3500090E09093200280931F0260911F027091F1
:10B36000200250E040E08AE090E00E94F30A109250
:10B37000400B0C940A4B6A30710571F46EE574E071
:10B3800081E891E10E946D2061E871E18AE090E03E
:10B390000E94881D0C940A4B6D307105E1F42091D8
:10B3A000851130918611C90101978217930758F4CE
:10B3B000E0918111F0918211E80FF91F90938611AD
:10B3C00080938511108261E871E18AE090E00E942B
:10B3D000881D0C940A4B6E30710509F061C0809194
:10B3E000851190918611892BC1F1E0918111F09125
:10B3F0008211309791F1608187EA9CE00E94C20738
:10B4000060EC72E087EA9CE00E94F71B8091851156
:10B4100090918611892B19F1E0918111F09182119F
:10B420003097E9F080818D32D1F441E050E061E85D
:10B4300071E1CE0101960E942A21BE016F5F7F4F0C
:10B4400081E891E10E94621FCE0101960E94F819E5
:10B450008DE499E00E94D41CB6CF60E0CDCF61E8C6
:10B4600071E1CE0101960E94C02060E579E0CE0135
:10B4700082960E94C920BE016F5F7F4FCE018296E7
:10B480000E940120BC0181E891E10E94A920CE0127
:10B4900082960E94F819CE0101960E94F81993CF66
:10B4A00081E891E10E94142061E871E18AE090E076
:10B4B0000E94881D82E599E00E94831D40918511BC
:10B4C00050918611609181117091821187EA9CE000
:10B4D0000E94FF0660EC72E087EA9CE00E94F71B86
:10B4E0000C940A4B213211F40C94FA4E2D3011F0C9
:10B4F0000C940A4B11110C940A4B892F90E0982F51
:10B500008827680F792F711D6C30710509F0FCCE0A
:10B510001092B60A8EE299E00E94831D80911F026C
:10B52000909120028630910509F01FCD8CE3809325
:10B530006B0F60E00E9416098091CE0A882309F4FF
:10B5400099CD81E891E10E94571FC090CC0AD0901C
:10B55000CD0AA090CA0AB090CB0A86010D2C000C2F
:10B56000220B330B60177107820793070CF444CD4D
:10B5700085010B2C000C220B330B0617170728072D
:10B5800039070CF439CDE091D00AF091D10A7183DA
:10B5900060831092B60A1092CE0A8091460B8111F8
:10B5A0000E94E51380915E118823F1F0C0903B1159
:10B5B000D0903C11E0903D11F0903E110091371178
:10B5C000109138112091391130913A114091331175
:10B5D00050913411609135117091361182EE90E1E5
:10B5E0000E94470E10925E118091F20F8823F1F0B5
:10B5F000C090E80FD090E90FE090EA0FF090EB0FC9
:10B600000091E40F1091E50F2091E60F3091E70FC4
:10B610004091E00F5091E10F6091E20F7091E30FC4
:10B6200085E99FE00E94470E1092F20F8091EB0E89
:10B630008823D1F1C090D20ED090D30EE090D40EDA
:10B64000F090D50E0091CE0E1091CF0E2091D00E1D
:10B650003091D10E4091CA0E5091CB0E6091CC0E1C
:10B660007091CD0E84E79EE00E94470EC090DE0EE2
:10B67000D090DF0EE090E00EF090E10E0091DA0E37
:10B680001091DB0E2091DC0E3091DD0E4091D60E34
:10B690005091D70E6091D80E7091D90E84E79EE03C
:10B6A0000E94470E1092EB0E8091B9108823F1F0A2
:10B6B000C090AB10D090AC10E090AD10F090AE10F8
:10B6C0000091A7101091A8102091A9103091AA10F4
:10B6D0004091A3105091A4106091A5107091A610F4
:10B6E00088E590E10E94470E1092B91080913510C4
:10B6F0008823F1F0C0904810D0904910E0904A1093
:10B70000F0904B100091441010914510209146107C
:10B71000309147104091401050914110609142107B
:10B720007091431087EF9FE00E94470E10923510F2
:10B730008091B40A882309F432CC0E945E121092E0
:10B74000B40A2DCC1F920F920FB60F9211240BB694
:10B750000F922F933F934F935F936F937F938F93AA
:10B760009F93AF93BF93EF93FF938DE69BE00E946F
:10B77000A007FF91EF91BF91AF919F918F917F9122
:10B780006F915F914F913F912F910F900BBE0F9052
:10B790000FBE0F901F9018951F920F920FB60F9229
:10B7A00011240BB60F922F933F934F935F936F9398
:10B7B0007F938F939F93AF93BF93EF93FF938DE608
:10B7C0009BE00E942C07FF91EF91BF91AF919F9159
:10B7D0008F917F916F915F914F913F912F910F903A
:10B7E0000BBE0F900FBE0F901F9018951F920F92D7
:10B7F0000FB60F9211240BB60F922F933F934F93D6
:10B800005F936F937F938F939F93AF93BF93EF93C8
:10B81000FF938AE09CE00E94A007FF91EF91BF9107
:10B82000AF919F918F917F916F915F914F913F91D8
:10B830002F910F900BBE0F900FBE0F901F90189579
:10B840001F920F920FB60F9211240BB60F922F93E7
:10B850003F934F935F936F937F938F939F93AF9398
:10B86000BF93EF93FF938AE09CE00E942C07FF9127
:10B87000EF91BF91AF919F918F917F916F915F9168
:10B880004F913F912F910F900BBE0F900FBE0F90D5
:10B890001F9018951F920F920FB60F9211240BB69E
:10B8A0000F922F933F934F935F936F937F938F9359
:10B8B0009F93AF93BF93EF93FF9387EA9CE00E941F
:10B8C000A007FF91EF91BF91AF919F918F917F91D1
:10B8D0006F915F914F913F912F910F900BBE0F9001
:10B8E0000FBE0F901F9018951F920F920FB60F92D8
:10B8F00011240BB60F922F933F934F935F936F9347
:10B900007F938F939F93AF93BF93EF93FF9387EAB8
:10B910009CE00E942C07FF91EF91BF91AF919F9106
:10B920008F917F916F915F914F913F912F910F90E8
:10B930000BBE0F900FBE0F901F9018951F920F9285
:10B940000FB60F9211242F933F938F939F93AF9332
:10B95000BF938091F00A9091F10AA091F20AB09100
:10B96000F30A3091EF0A23E0230F2D3758F50196A3
:10B97000A11DB11D2093EF0A8093F00A9093F10A64
:10B98000A093F20AB093F30A8091F40A9091F50A19
:10B99000A091F60AB091F70A0196A11DB11D8093FE
:10B9A000F40A9093F50AA093F60AB093F70ABF91B0
:10B9B000AF919F918F913F912F910F900FBE0F905C
:10B9C0001F90189526E8230F0296A11DB11DD2CF16
:10B9D000CF92DF92EF92FF920F931F93E82FF92FF0
:10B9E00005C0015011092109310961F190819623A7
:10B9F0009417B9F305C0015011092109310911F15A
:10BA0000908196239413F7CFC12CD12CE12CF12CEB
:10BA10000AC08FEFC81AD80AE80AF80A0C151D05E3
:10BA20002E053F0579F080818623841791F36C2DD4
:10BA30007D2D8E2D9F2D1F910F91FF90EF90DF9008
:10BA4000CF90089560E070E080E090E01F910F914A
:10BA5000FF90EF90DF90CF9008954F925F926F929A
:10BA60007F92AF92BF92CF92DF92EF92FF920F93AD
:10BA70001F93CF93DF931092700B10926F0B48EED1
:10BA800053E060E070E04093710B5093720B609351
:10BA9000730B7093740B8CE992E090936E0B809310
:10BAA0006D0B25ED30E030937A0B2093790B24ED6C
:10BAB00030E030937C0B20937B0B20ED30E0309313
:10BAC0007E0B20937D0B21ED30E03093800B209393
:10BAD0007F0B22ED30E03093820B2093810B26ED1B
:10BAE00030E03093840B2093830B1092860B1092DE
:10BAF000870B1092880B1092890B10920D0C1092EC
:10BB00000C0C40930E0C50930F0C6093100C709320
:10BB1000110C90930B0C80930A0C2DEC30E03093B9
:10BB2000170C2093160C2CEC30E03093190C20935A
:10BB3000180C28EC30E030931B0C20931A0C29ECE5
:10BB400030E030931D0C20931C0C2AEC30E0309335
:10BB50001F0C20931E0C2EEC30E03093210C209310
:10BB6000200C1092230C1092240C1092250C109291
:10BB7000260C1092AA0C1092A90C4093AB0C509377
:10BB8000AC0C6093AD0C7093AE0C9093A80C8093AA
:10BB9000A70C85EC90E09093B40C8093B30C84ECEC
:10BBA00090E09093B60C8093B50C80EC90E090936D
:10BBB000B80C8093B70C81EC90E09093BA0C809312
:10BBC000B90C82EC90E09093BC0C8093BB0C86EC9B
:10BBD00090E09093BE0C8093BD0C1092C00C10921C
:10BBE000C10C1092C20C1092C30C8EEB92E0909399
:10BBF000450D8093440D1092460D1092470D109202
:10BC0000480D1092490D90934B0D80934A0D109260
:10BC10004C0D10924D0D10924E0D10924F0D9093B1
:10BC2000510D8093500D1092520D1092530D1092A1
:10BC3000540D1092550D9093570D8093560D109200
:10BC4000580D1092590D10925A0D10925B0D909351
:10BC50005D0D80935C0D10925E0D10925F0D109241
:10BC6000600D1092610D9093630D8093620D1092A0
:10BC7000640D1092650D1092660D1092670D9093F1
:10BC80006F0D80936E0D1092700D1092710D1092C9
:10BC9000720D1092730D9093690D8093680D109240
:10BCA0006A0D10926B0D10926C0D10926D0D9093A9
:10BCB000750D8093740D1092760D1092770D109281
:10BCC000780D1092790D90937B0D80937A0D1092E0
:10BCD0007C0D10927D0D10927E0D10927F0D24E64A
:10BCE00030E03093810D2093800D1092880D1092DA
:10BCF000890D10928A0D10928B0D10928C0D10925E
:10BD00008D0D10928E0D10928F0D1092900D10923D
:10BD1000910D1092920D1092930D1092940D10921D
:10BD2000950D1092960D1092970D9093BE128093E0
:10BD3000BD121092BF121092C0121092C112109236
:10BD4000C21260E08BE00E941609E0E7F6E0E491A1
:10BD5000E093AF12EFE1F6E0E491F0E0EE0FFF1FA9
:10BD6000E650FA4F859194919093B1128093B0125E
:10BD70001092BA121092BC121092BB121092B91209
:10BD80001092B8121092B7121092B6121092B51209
:10BD90001092B4121092B3121092B212D0E0C0E01E
:10BDA00062EC72E0CE018F5C9D4E0E94C9206796C6
:10BDB000CA38D105A9F71092201210921F121092C2
:10BDC0002212109221121092241210922312109219
:10BDD0001E1210921D121092FC118CEF91E19093A3
:10BDE00011128093101288EE93E0909313128093B7
:10BDF0001212109215121092141210921712109221
:10BE000016121092181210921A121092191267E557
:10BE100079E083E991E10E94C92060E679E08DE84C
:10BE200091E10E94C92068E679E087E891E10E94EB
:10BE3000C92062EC72E081E891E10E94C92062ECC5
:10BE400072E08BE791E10E94C92063E779E085E722
:10BE500091E10E94C92062EC72E08FE691E10E94BC
:10BE6000C92062EC72E089E691E10E94C92062EC8F
:10BE700072E083E691E10E94C92080913B1190918C
:10BE80003C1120913D1130913E11A0903711B0909E
:10BE90003811C0903911D0903A11E0903311F090E0
:10BEA000341100913511109136111F921F923F935A
:10BEB0002F939F938F9325E231E14FE251E16FE39E
:10BEC00071E182EE90E10E9418178BE180932011BE
:10BED00089E0809321111092221161E08BE10E9490
:10BEE000160961E0809121110E94160960E080919D
:10BEF00022110E94160910924B1110925D1110929E
:10BF00005E1180E090E0A0E0B0E480934711909350
:10BF10004811A0934911B0934A11412C512C80E84B
:10BF2000682E8FE3782E4092331150923411609234
:10BF300035117092361110923711109238111092FB
:10BF4000391110923A1110923B1110923C1110923B
:10BF50003D1110923E1184E190E090934D11809339
:10BF60004C118CE390E090934F1180934E1180E23E
:10BF70009FEB90935A118093591180E197E290932F
:10BF80005C1180935B1180E280931F1187E18093A5
:10BF9000DD1061E00E9416091092DE101092DF1091
:10BFA000C4E0C093DC10D8E1D093D61061E088E102
:10BFB0000E9416091092D7101092D810C093D51075
:10BFC00087E08093CD1061E00E9416091092D11095
:10BFD000C8E0C093CC108AE18093C41061E00E9455
:10BFE00016091092C810C093C3108091AB109091A5
:10BFF000AC102091AD103091AE10A090A710B09071
:10C00000A810C090A910D090AA10E090A310F090B2
:10C01000A4100091A5101091A6101F921F923F939B
:10C020002F939F938F9329E930E14FE950E16FEA15
:10C0300070E188E590E10E94181786E180939610E0
:10C04000C093971061E088E00E9416091092B81022
:10C050001092B9104092A3105092A4106092A510B3
:10C060007092A6101092A7101092A8101092A9100A
:10C070001092AA101092AB101092AC101092AD104A
:10C080001092AE1084E690E09093B4108093B310B9
:10C090001092B6101092B510D09395108091481060
:10C0A0009091491020914A1030914B10A09044106B
:10C0B000B0904510C0904610D0904710E0904010CE
:10C0C000F090411000914210109143101F921F9266
:10C0D0003F932F939F938F9326E330E14CE350E1FE
:10C0E00064E570E187EF9FE00E94181740924010CE
:10C0F000509241106092421070924310109244107E
:10C10000109245101092461010924710109248104D
:10C110001092491010924A1010924B1084E18093B3
:10C1200034108091E80F9091E90F2091EA0F30913F
:10C13000EB0FA090E40FB090E50FC090E60FD09009
:10C14000E70FE090E00FF090E10F0091E20F109107
:10C15000E30F1F921F923F932F939F938F9326ED90
:10C160003FE04CED5FE06CEE7FE085E99FE00E94F0
:10C1700018178DE08093D40F61E00E9416098FE1BB
:10C180008093D30F61E00E9416091092F10F109274
:10C19000F20F4092E00F5092E10F6092E20F709226
:10C1A000E30F1092E40F1092E50F1092E60F109239
:10C1B000E70F1092E80F1092E90F1092EA0F109219
:10C1C000EB0F80E18093D20F10927D0F10927E0FC3
:10C1D00010927F0F1092800FC12CD12C90EAE92E83
:10C1E00090E4F92EC092810FD092820FE092830FDB
:10C1F000F092840F1092850F1092860F1092870F85
:10C200001092880FC092890FD0928A0FE0928B0F04
:10C21000F0928C0F10928D0F10928E0F10928F0F44
:10C220001092900F412C512C26E9622E23E4722E9D
:10C230004092910F5092920F6092930F7092940FD0
:10C240008CE380936B0F60E00E941609C2E1C093FB
:10C250006F0F80E090E0A0E0BFE38093530F9093D6
:10C26000540FA093550FB093560F80E090E0A0E9D3
:10C27000B0E48093570F9093580FA093590FB09349
:10C280005A0F10925B0F10925C0F10925D0F10927C
:10C290005E0FC0925F0FD092600FE092610FF0923C
:10C2A000620F1092630F1092640F1092650F10923C
:10C2B000660F4092670F5092680F6092690F7092FC
:10C2C0006A0F8EE38093410F60E00E941609C093CD
:10C2D000450F1092290F10922A0F10922B0F1092D7
:10C2E0002C0FC12CD12C30E2E32E31E4F32EC0927E
:10C2F0002D0FD0922E0FE0922F0FF092300F109250
:10C30000310F1092320F1092330F1092340FC092EF
:10C31000350FD092360FE092370FF092380F80E051
:10C3200090E0A0EAB1EC8093390F90933A0FA0937C
:10C330003B0FB0933C0F80E090E0A0EAB2E4809322
:10C340003D0F90933E0FA0933F0FB093400F85E4B5
:10C350008093170F60E00E941609C0931B0F109284
:10C36000FF0E1092000F1092010F1092020FC09258
:10C37000030FD092040FE092050FF092060F109277
:10C38000070F1092080F1092090F10920A0FC09217
:10C390000B0FD0920C0FE0920D0FF0920E0F109237
:10C3A0000F0F1092100F1092110F1092120F80E0C9
:10C3B00090E0A8ECB2E48093130F9093140FA09335
:10C3C000150FB093160F84E48093ED0E60E00E9489
:10C3D0001609C093F10E4CE061E084E79EE00E94F4
:10C3E0000B1840E066E08BEF9DE00E940B18109266
:10C3F000E70D1092E60D1092E90D1092E80D1092E3
:10C40000F10D1092F00D8EEA92E09093EF0D809373
:10C41000EE0D86EF91E09093F30D8093F20D8091F5
:10C420002B028093290280912302805C80932A0250
:10C430008EEB92E09093E10D8093E00D80EC809381
:10C44000E20D88EA8093E30D84E68093E40D88EFA3
:10C450008093E50D62EC72E08AED9DE00E94C920B8
:10C4600062EC72E084ED9DE00E94C92062EC72E013
:10C470008EEC9DE00E94C9208DB79EB748960FB6FE
:10C48000F8949EBF0FBE8DBF62EC72E088EC9DE019
:10C49000DF91CF911F910F91FF90EF90DF90CF90A0
:10C4A000BF90AF907F906F905F904F900C94C92099
:10C4B000CF93DF93CDB7DEB76D970FB6F894DEBF9D
:10C4C0000FBECDBF789484B5826084BD84B5816091
:10C4D00084BD85B5826085BD85B5816085BD80914F
:10C4E0006E00816080936E001092810080918100C7
:10C4F00082608093810080918100816080938100BF
:10C50000809180008160809380008091B100846080
:10C510008093B1008091B00081608093B0008091E1
:10C52000910082608093910080919100816080935E
:10C530009100809190008160809390008091A10093
:10C5400082608093A1008091A10081608093A1000E
:10C550008091A00081608093A00080912101826081
:10C56000809321018091210181608093210180913C
:10C57000200181608093200180917A008460809303
:10C580007A0080917A00826080937A0080917A00AC
:10C59000816080937A0080917A00806880937A002D
:10C5A0001092C1001092C40D1092C50D1092C60DCC
:10C5B0001092C70D1092840D1092850D1092860D69
:10C5C0001092870D0E94A80A6B017C014B015C014F
:10C5D00028EB820E2BE0921EA11CB11C0E94A80A1F
:10C5E0006C157D058E059F0528F086169706A80612
:10C5F000B906A0F768EE73E080E090E00E94760A4A
:10C6000087EA9CE00E9490030E94A80A6093840D30
:10C610007093850D8093860D9093870D86E899E041
:10C620000E94831D0E94A80A6B017C014B015C01E2
:10C630003AE0830E911CA11CB11C0E94A80A6C1543
:10C640007D058E059F0528F086169706A806B90673
:10C65000A0F781E08093980D0E94A80A6093840D52
:10C660007093850D8093860D9093870D87E999E0EF
:10C670000E94831D8EE999E00E94D41C2091FA0A41
:10C680003091FB0A8091F80A9091F90A281739072E
:10C6900031F480E290E09093F90A8093F80A809157
:10C6A000F80A9091F90A9093FB0A8093FA0A60E0E5
:10C6B0008BE00E94160960E08CE30E94160987EA6D
:10C6C0009CE00E9490038AE09CE00E9490038DE62B
:10C6D0009BE00E94900387EA99E00E94D41C88EEB8
:10C6E00093E00E94477E90932402809323028AEE77
:10C6F00093E00E94397E80932B028BEE93E00E94A0
:10C70000477E90931302809312028DEE93E00E9475
:10C71000477E90931502809314028FEE93E00E945F
:10C72000477E909317028093160281EF93E00E9458
:10C73000477E9093210B8093200B85EF93E00E941E
:10C74000477E909319028093180287EF93E00E942E
:10C75000477E21E0892B09F420E02093460B89EFE6
:10C7600093E00E94477E90931A0B8093190B8BEFF6
:10C7700093E00E94477E9093180B8093170B8DEFE8
:10C7800093E00E94477E90931C0B80931B0BF2EE6C
:10C79000AF2EFDE0BF2EACE0CA2EA2E0DA2EB8E04C
:10C7A000EB2EB2E0FB2E0FEF13E0C8010E94397EA2
:10C7B000D5018D935D01C80101960E94397EF60175
:10C7C00081936F01C80102960E94397ED7018D9333
:10C7D0007D010D5F1F4F0B30B4E01B0731F70E9446
:10C7E000DF458DE080931E1110911F11E12EF12C79
:10C7F000E3EFEE1AEBEFFE0ABE016F5F7F4F8DE0B5
:10C8000090E00E94533B89819A81AB81BC818093E7
:10C81000331190933411A0933511B0933611BE01AA
:10C820006F5F7F4F81E190E00E94533B89819A8145
:10C83000AB81BC818093371190933811A09339114B
:10C84000B0933A11BE016F5F7F4F85E190E00E9487
:10C85000533B89819A81AB81BC8180933B1190933A
:10C860003C11A0933D11B0933E11BE016F5F7F4F0D
:10C8700089E190E00E94533B89819A81AB81BC8120
:10C880008093471190934811A0934911B0934A1196
:10C890008DE190E00E94477E21E0892B09F420E0A1
:10C8A00020935F118FE190E00E94477E90934D119D
:10C8B00080934C1181E290E00E94477E21E0892B19
:10C8C00009F420E02093601183E290E00E94477E0B
:10C8D000909362118093611185E290E00E94477EFF
:10C8E00090934D1180934C1187E290E00E94477E17
:10C8F00090934F1180934E1189E290E00E94417E07
:10C9000070935A11609359118BE290E00E94417E1E
:10C9100070935C1160935B11135F1093B00E0091E4
:10C92000B10E5701A00EB11C87011127BE016F5F28
:10C930007F4FC8010E94533B89819A81AB81BC81A2
:10C940008093CA0E9093CB0EA093CC0EB093CD0ED5
:10C95000BE016F5F7F4FC80104960E94533B8981DF
:10C960009A81AB81BC818093CE0E9093CF0EA09321
:10C97000D00EB093D10EBE016F5F7F4FC8010896F5
:10C980000E94533B89819A81AB81BC818093D20EF6
:10C990009093D30EA093D40EB093D50EBE016F5FCB
:10C9A0007F4FC8010C960E94533B89819A81AB81CD
:10C9B000BC818093D60E9093D70EA093D80EB093DF
:10C9C000D90EBE016F5F7F4FC80140960E94533B56
:10C9D00089819A81AB81BC818093DA0E9093DB0EC2
:10C9E000A093DC0EB093DD0EBE016F5F7F4FC801D8
:10C9F00044960E94533B89819A81AB81BC8180938C
:10CA0000DE0E9093DF0EA093E00EB093E10EC8010E
:10CA100048960E94477E9093E30E8093E20EC801F1
:10CA20004A960E94477E9093E50E8093E40EC801DB
:10CA30004C960E94477EBC0190E080E00E940A7DF7
:10CA40006093E60E7093E70E8093E80E9093E90EE4
:10CA5000C8014E960E94397E81708093EA0EA092A2
:10CA60009410009195106501C00ED11C850111270D
:10CA7000BE016F5F7F4FC8010E94533B89819A813D
:10CA8000AB81BC818093A3109093A410A093A510B8
:10CA9000B093A610BE016F5F7F4FC80104960E943D
:10CAA000533B89819A81AB81BC818093A71090937D
:10CAB000A810A093A910B093AA10BE016F5F7F4F7A
:10CAC000C80108960E94533B89819A81AB81BC8141
:10CAD0008093AB109093AC10A093AD10B093AE10B8
:10CAE000C8010C960E94477E9093B4108093B310B7
:10CAF000C8010E960E94477E9093B6108093B510A1
:10CB0000C80140960E94477E21E0892B09F420E06D
:10CB10002093BA10C80142960E94477E9093C1109C
:10CB20008093C010C80144960E94417E0E940A7DF5
:10CB30006093BC107093BD108093BE109093BF1093
:10CB4000C0923310E09034105601AE0CB11C860137
:10CB50001127BE016F5F7F4FC8010E94533B89813F
:10CB60009A81AB81BC818093401090934110A09337
:10CB70004210B0934310BE016F5F7F4FC80104960F
:10CB80000E94533B89819A81AB81BC818093441080
:10CB900090934510A0934610B0934710BE016F5F6D
:10CBA0007F4FC80108960E94533B89819A81AB81CF
:10CBB000BC818093481090934910A0934A10B09381
:10CBC0004B10C8010C960E94477E90934D108093A5
:10CBD0004C10C8010E960E94477E90934F10809390
:10CBE0004E10C80140960E94477E9093511080934A
:10CBF0005010C80142960E94477E90935310809334
:10CC00005210A0926E0FE0906F0FEA0CFB2CF11CFB
:10CC10008BE69FE00E945D3BE092D10F0091D20F26
:10CC20006701C00ED11C87011127BE016F5F7F4FC6
:10CC3000C8010E94533B89819A81AB81BC8180935A
:10CC4000E00F9093E10FA093E20FB093E30FBE01CA
:10CC50006F5F7F4FC80104960E94533B89819A8180
:10CC6000AB81BC818093E40F9093E50FA093E60F16
:10CC7000B093E70FBE016F5F7F4FC80108960E9417
:10CC8000533B89819A81AB81BC818093E80F90935B
:10CC9000E90FA093EA0FB093EB0FC8010C960E9426
:10CCA000477E21E0892B09F420E02093F30FC8018F
:10CCB0000E960E94477E9093F60F8093F50FC092D8
:10CCC000440F0091450F0C0D1D2D111D81E49FE0B7
:10CCD0000E945D3B00931A0FE0901B0F0E0D111D7B
:10CCE00087E19FE00E945D3B0093F00EE090F10E23
:10CCF000E00EF12EF11C8DEE9EE00E945D3BE09275
:10CD0000DB100091DC10E00EF11C8BED90E10E9435
:10CD1000DA29E092D4100091D5100E0D1F2D111DAF
:10CD200084ED90E10E94DA29C8010E94477E21E04B
:10CD3000892B09F420E02093FC0AC80102960E9486
:10CD4000477E9093060B8093050BC80104960E94C2
:10CD5000477E9093110280931002C80106960E94AC
:10CD6000477E21E0892B09F420E020930C0B0E94E0
:10CD70005E120E94A6130E94A3188AE09CE0909382
:10CD80001C1280931B1280E00E9426041092F9115D
:10CD90001092FA111092FB1185EA9AE490932012F6
:10CDA00080931F1261E08DE20E94160960E08DE21F
:10CDB0000E94E80868EE73E080E090E00E94760A46
:10CDC00061E08DE20E94E80868E273E280E090E0B2
:10CDD0000E94760A8FE090E00E94580B0E94A80AF9
:10CDE0006093420B7093430B8093440B9093450BDD
:10CDF00050E040E065E070E08AE090E00E94F30AD5
:10CE000082E190E09093200280931F0250E040E086
:10CE100062E170E08AE090E00E94F30A1092BA1298
:10CE20001092BC121092BB121092B9121092B8124A
:10CE30001092B7121092B6121092B5121092B4124C
:10CE40001092B3121092B21265E2C62E62E1D62E93
:10CE500001E812E17601BB24B39472E0A72EE3E06F
:10CE60009E2E8091BC12811104C00E94A8068111DF
:10CE700035C01092BA121092BC121092BB12D70198
:10CE80005296BC928EEA99E00E94831DF70144817C
:10CE900050E070E060E02AE087EA9CE00E94061C17
:10CEA00060EC72E087EA9CE00E94F71BD7011496C1
:10CEB00028E0E0E0215009F477C08D918E27E82F1B
:10CEC000EF70F0E0E652FA4F9491E82FE295EF70A0
:10CED000F0E0E651FA4FE491E927ECCF60E080EF13
:10CEE0000E94790677247394512C412C88248394D2
:10CEF0000E945406682E0E945406F1E06F121DC075
:10CF00008130D9F540E4481508F0B3CF4092BA1209
:10CF1000411002C0B092BC128091B212882309F471
:10CF2000A8CFA2EBB2E1F7013496C7010C962D9180
:10CF300021938E179F07D9F7B9CFE52DF0E068123E
:10CF400012C08091BA128816B0F4DF01A155BD4E0F
:10CF500013968C91872189F4612C28E0281510F014
:10CF60008092BB12482CE155FD4E8381972D909500
:10CF7000892383830BC08811EFCFE52DF0E0E155C5
:10CF8000FD4E83818729838366246394862D0E94C6
:10CF900024068394770C19F453947724739437E020
:10CFA000351508F0A5CFAECFD7011B968C911B97F6
:10CFB0008E1731F05296AC9286ED99E00E94831D57
:10CFC000F7018481883229F0928A8EEF99E00E94DD
:10CFD000831DD70152961C92B7E1EB0EF11C0E1582
:10CFE0001F0509F03ECF8601045F1F4F62EC72E01F
:10CFF000C8010E949F20F6016481C8010E9442205E
:10D000006EE574E0C8010E946D20D60115966C9102
:10D01000C8010E9442206EE574E0C8010E946D20A4
:10D02000F6016681C8010E9442206EE574E0C801E5
:10D030000E946D20D60117966C91C8010E94422073
:10D040006EE574E0C8010E946D20F6016085C8019C
:10D050000E9442206EE574E0C8010E946D20D60156
:10D0600019966C91C8010E9442206EE574E0C801D7
:10D070000E946D20F6016285C8010E9442206EE583
:10D0800074E0C8010E946D20D6011B966C91C80106
:10D090000E944220B7E1CB0ED11CCE14DF0409F070
:10D0A000A2CF0E94E71C68EC70E080E090E00E9454
:10D0B000760A0E94A80A605E7E45884F9F4F609363
:10D0C0001A0270931B0280931C0290931D024091E0
:10D0D0002302485D50E070E060E02AE087EA9CE0CF
:10D0E0000E94061C60EC72E087EA9CE00E94F71B3D
:10D0F00080912B028093290280912302885D809386
:10D100002A028091460B882321F00E94DF450E946D
:10D110002C4780912B021A8219821C821B821E824C
:10D120001D828A8B1B8ABE016E5E7F4FCE010196E7
:10D130000E949F20BE016F5F7F4F8DE891E10E94AA
:10D140007720CE0101960E94F819809123029091D8
:10D1500024021B8A1A8A1D8A1C8A1F8A1E8A4AE098
:10D16000BE016F5F7F4F0E941179BE016F5F7F4FDD
:10D17000CE0142960E949F20BE016E5E7F4F8DE8D9
:10D1800091E10E947720CE0142960E94F8191092F8
:10D19000160B1092150B81E08093710E10926D0E9C
:10D1A00010926E0E10926F0E1092700E0E94BC3B89
:10D1B00085E29AE00E94D41C57E1352E0E94A80A0D
:10D1C000672B682B692B09F4F9C00E94A80A00910B
:10D1D000470B1091480B2091490B30914A0B601777
:10D1E00071078207930708F434C30091470B10912D
:10D1F000480B2091490B30914A0B6B017C01C01AFE
:10D20000D10AE20AF30A970186010A3F11052105B6
:10D21000310508F4DBC06093470B7093480B809393
:10D22000490B90934A0B24EF31E040E050E020930B
:10D23000900D3093910D4093920D5093930D109259
:10D24000940D1092950D1092960D1092970D80915D
:10D25000880D9091890DA0918A0DB0918B0D8093CE
:10D260008C0D90938D0DA0938E0DB0938F0D0E9419
:10D27000A80A6093880D7093890D80938A0D90930E
:10D280008B0D87EA9CE00E946807843611F40E94A7
:10D29000091F0E94A80A6093840D7093850D8093E6
:10D2A000860D9093870D0E94A80A6B017C018BE28A
:10D2B0009AE00E94831D2AE041E050E060E070E0C7
:10D2C00087EA9CE00E94061C82E39AE00E94831D8C
:10D2D0002AE0B701A60187EA9CE00E94061C84E3CD
:10D2E0009AE00E94831D8091880D9091890DA091F4
:10D2F0008A0DB0918B0DB701A601481B590B6A0B23
:10D300007B0B2AE087EA9CE00E94061C84E39AE0FB
:10D310000E94831D4091880D5091890D60918A0D66
:10D3200070918B0D80918C0D90918D0DA0918E0D33
:10D33000B0918F0D481B590B6A0B7B0B2AE087EAD3
:10D340009CE00E94061C86E39AE00E94831D0E94D6
:10D35000A80AAB01BC012AE087EA9CE00E94061CF7
:10D3600088E39AE00E94D41C0E94A80A6B017C0109
:10D370004B015C0135E0830E911CA11CB11C0E9485
:10D38000A80A6C157D058E059F0528F08616970660
:10D39000A806B906A0F787EA9CE00E9468078436D1
:10D3A00011F40E94091F0E94A80A6093880D7093CF
:10D3B000890D80938A0D90938B0D08C00E94A80A56
:10D3C000623071058105910508F0FFCE0E94A80A20
:10D3D0002B013C0181E00E94A7048091150B9091E4
:10D3E000160B009709F43EC2019709F43EC28091E2
:10D3F0006011882309F445C280915F1180935D110B
:10D4000080911B0B90911C0B9093241180932311FE
:10D4100080915D11882309F43DC28BE69FE00E9454
:10D4200009116B017C0120E030E0A9010E94E37F3B
:10D4300087FD2CC2C701B6010E94EE7F20914711E3
:10D44000309148114091491150914A110E946B7DD1
:10D4500026E636E646E650E40E946B7D60933F1177
:10D460007093401180934111909342116091231168
:10D4700070912411072E000C880B990B0E940C7DD3
:10D480006093251170932611809327119093281192
:10D4900082EE90E10E940A0F60915D11809120114F
:10D4A0000E94E808C0902F11D0903011E090311107
:10D4B000F0903211C701B6010E94AD7F9B01AC0113
:10D4C000A4E6B0E00E94AC7E2FEF30E040E050E0F8
:10D4D0000E948D7E30932E1120932D11C701B6012D
:10D4E0000E94AD7F809121110E945D098091150BF2
:10D4F0009091160B009709F4E2C1019709F4E2C17B
:10D500008091EA0E882309F47EC38091EC0E80930B
:10D51000C90E8091E60E9091E70EA091E80EB091B1
:10D52000E90E8093C00E9093C10EA093C20EB093EB
:10D53000C30E8091D110811173C380911F0B0E9483
:10D54000BF08019709F464C381E08093500E809175
:10D55000710E882309F45FC38091730E8093500E7F
:10D560008BEF9DE00E94711084E79EE00E94711095
:10D570000E94A80A6B017C010091150B1091160BFB
:10D580000115110509F44FC30130110509F45CC3FD
:10D590008091CA10882309F475C38091C9108093C3
:10D5A000C8106091C8108091C4100E94E80801154D
:10D5B000110509F46CC30130110509F46BC38091A6
:10D5C0000C0B882309F47CC31092F10F1092F30F17
:10D5D0008091F10F882309F493C38091F20E90910A
:10D5E000F30EA091F40EB091F50E8093EC0F909392
:10D5F000ED0FA093EE0FB093EF0F85E99FE00E942F
:10D600000A0F6091F10F8091D30F0E94E808C0903B
:10D61000DC0FD090DD0FE090DE0FF090DF0FC70140
:10D62000B6010E94AD7F9B01AC01A4E6B0E00E9470
:10D63000AC7E2FEF30E040E050E00E948D7E3093D2
:10D64000DB0F2093DA0FC701B6010E94AD7F8091F6
:10D65000D40F0E945D098091150B9091160B0097D5
:10D6600009F45FC3019709F45FC36091B81080911A
:10D6700096100E94E808C0909F10D090A010E090F3
:10D68000A110F090A210C701B6010E94AD7F9B01CE
:10D69000AC01A4E6B0E00E94AC7E2FEF30E040E0A9
:10D6A00050E00E948D7E30939E1020939D10C70104
:10D6B000B6010E94AD7F809197100E945D09809114
:10D6C000500E811108C08091D310882321F08091E1
:10D6D000D2108093D1108091D110882381F0809155
:10D6E0000B0B882361F00E94A80A6093070B7093CC
:10D6F000080B8093090B90930A0B10920B0B0E945E
:10D70000A80A0091070B1091080B2091090B30918A
:10D710000A0B601B710B820B930B613574438340C2
:10D72000910510F01092D2106091D1108091CD101F
:10D730000E94E8088091460B882311F40C944175EF
:10D740006EEE7DE0CE0101960E9440328D858230E2
:10D7500008F05CC6CE0101960E940D2B882309F4C7
:10D7600055C644EF5DE0598F488F8A01CE0101967E
:10D770000E941733892B61F0CE0101960E94F23787
:10D78000D8018D938D01EBEFFDE0EA17FB0771F7F0
:10D790008091F90D81508093EC0D9091F60D9111CF
:10D7A00035C69091F70D911131C6893C08F02EC60F
:10D7B00090E00E9465809093EB0D8093EA0D10E05D
:10D7C00000E0CE0101960E941733892B91F0CE0123
:10D7D00001960E94F237E091EA0DF091EB0DE00F17
:10D7E000F11F80830F5F1F4F8091EC0D8017110692
:10D7F00041F7E090EA0DF090EB0DD7019C91119666
:10D800008D909C90129798248924982413960D91BA
:10D810001C911497102701271027EFEFE90FE03133
:10D8200008F0E0C5F0E08827E75EF3498F4F0C94DD
:10D830004F80F86F71704A6FEC703D71EE6EF2714F
:10D84000F271F271F271F271F271F271F271717141
:10D850009B6F6093470B7093480B8093490B909399
:10D860004A0BC3CC10925D11C2CD81E080935D1153
:10D8700080911B0B90911C0B90932411809323118A
:10D88000B6CD80915D1180935F11C2CD60E070E0F4
:10D89000CB01E4CD80E090E0AAE7B4EC80932511C1
:10D8A00090932611A0932711B093281110922F1155
:10D8B000109230111092311110923211EDCD109260
:10D8C000C90E1ECE80911F0B0E94BF08019709F060
:10D8D00017CE81E08093C90E6091190B70911A0BDD
:10D8E000072E000C880B990B0E940C7D2091F20EE4
:10D8F0003091F30E4091F40E5091F50E0E94E37FAB
:10D9000018160CF04EC0C090DE0ED090DF0EE090E6
:10D91000E00EF090E10E0091DA0E1091DB0E2091F6
:10D92000DC0E3091DD0E4091D60E5091D70E6091F5
:10D93000D80E7091D90E84E79EE00E94470E609148
:10D94000170B7091180B072E000C880B990B0E9477
:10D950000C7D6093B80E7093B90E8093BA0E9093BD
:10D96000BB0E8091120290911302389EF001399EF5
:10D97000F00D1124EB5DFD4E80819181A281B38178
:10D980008093B40E9093B50EA093B60EB093B70EDD
:10D9900084E79EE00E940A0F84E79EE00E947110D7
:10D9A000AFCD6091170B7091180B072E000C880BF0
:10D9B000990B0E940C7D9B01AC0160911C0F709132
:10D9C0001D0F80911E0F90911F0F0E94E37F18166C
:10D9D0000CF0E2C00E94A80A4B015C018091FD0A94
:10D9E0009091FE0AA091FF0AB091000B881699064B
:10D9F000AA06BB0608F484CDC090DE0ED090DF0EE0
:10DA0000E090E00EF090E10E0091DA0E1091DB0E46
:10DA10002091DC0E3091DD0E4091D60E5091D70E44
:10DA20006091D80E7091D90E84E79EE00E94470E57
:10DA30006091190B70911A0B072E000C880B990B33
:10DA40000E940C7D6093B80E7093B90E8093BA0E4D
:10DA50009093BB0E8091F20E9091F30EA091F40E74
:10DA6000B091F50E8093B40E9093B50EA093B60EC0
:10DA7000B093B70E84E79EE00E940A0FC090C00EDC
:10DA8000D090C10EE090C20EF090C30EC88ED98E19
:10DA9000EA8EFB8EC090D20ED090D30EE090D40EC2
:10DAA000F090D50E0091CE0E1091CF0E2091D00E99
:10DAB0003091D10E4091CA0E5091CB0E6091CC0E98
:10DAC0007091CD0E84E79EE00E94470E6091170B87
:10DAD0007091180B072E000C880B990B0E940C7D7F
:10DAE0006093B80E7093B90E8093BA0E9093BB0EEC
:10DAF00080911C0F90911D0FA0911E0FB0911F0FD0
:10DB00008093B40E9093B50EA093B60EB093B70E5B
:10DB100084E79EE00E940A0F2091C00E3091C10E52
:10DB20004091C20E5091C30E688D798D8A8D9B8D68
:10DB30000E94CF7E6B017C0120E030E04FE753E490
:10DB40000E94E37F1816DCF0C092C00ED092C10E86
:10DB5000E092C20EF092C30E84E79EE00E94711024
:10DB600024EF820E21E0921EA11CB11C8092FD0ABE
:10DB70009092FE0AA092FF0AB092000BC1CC80E006
:10DB800090E0AFE7B3E48093C00E9093C10EA093F2
:10DB9000C20EB093C30EE0CFC090DE0ED090DF0E69
:10DBA000E090E00EF090E10E0091DA0E1091DB0EA5
:10DBB0002091DC0E3091DD0E4091D60E5091D70EA3
:10DBC0006091D80E7091D90E84E79EE00E94470EB6
:10DBD0006091190B70911A0B072E000C880B990B92
:10DBE0000E940C7D6093B80E7093B90E8093BA0EAC
:10DBF0009093BB0E8091F20E9091F30EA091F40ED3
:10DC0000B091F50EBDCE8091C90E8093EC0E91CCF3
:10DC10001092500E9CCC8091500E8093730EA0CC2D
:10DC20001092500E9DCC8091010B9091020BA0910F
:10DC3000030BB091040BC816D906EA06FB0608F4DC
:10DC4000A7CC1092C810A4CC80911F0B0E94BF08D3
:10DC5000019749F781E08093C810A0911002B0911C
:10DC6000110228EE33E00E945E80C60ED71EE81E29
:10DC7000F91EC092010BD092020BE092030BF092BE
:10DC8000040B86CC8091C8108093C9108ACC109266
:10DC9000F10F95CC81E08093F10F6091190B709199
:10DCA0001A0B072E000C880B990B0E940C7D6093B9
:10DCB000D60F7093D70F8093D80F9093D90F7FCC46
:10DCC0008091F40F8823B9F08091F30F8093F10FC6
:10DCD0006091190B70911A0B072E000C880B990B91
:10DCE0000E940C7D6093D60F7093D70F8093D80F4E
:10DCF0009093D90F6DCC8091F10F8093F30F68CC86
:10DD00001092D60F1092D70F1092D80F1092D90FF1
:10DD10001092DC0F1092DD0F1092DE0F1092DF0FC9
:10DD200070CC1092B810A1CC6091050B7091060BCD
:10DD3000072E000C880B990B0E940C7D9B01AC01F7
:10DD400060911C0F70911D0F80911E0F90911F0FFD
:10DD50000E94057D87FF2EC081E08093B8106091FE
:10DD6000170B7091180B072E000C880B990B0E9453
:10DD70000C7D6093991070939A1080939B109093F0
:10DD80009C108091B8108823C1F080911C0F909155
:10DD90001D0FA0911E0FB0911F0F8093AF10909395
:10DDA000B010A093B110B093B21088E590E10E943A
:10DDB0000A0F5BCC1092B810E4CF10929910109219
:10DDC0009A1010929B1010929C1010929F1010921B
:10DDD000A0101092A1101092A21047CCA801B4017B
:10DDE00086EE9DE00E94B50D62E0882359F0B401F3
:10DDF0006F5B734686EE9DE00E94C70D08171907FA
:10DE000029F064E086E00E94FF1903C082E080935D
:10DE1000ED0D8091ED0D813009F4F0C2EDB6FEB646
:10DE20002091EC0D822F90E0AC014F5F5F4F50933B
:10DE3000F80D2F5F2093F90D4A5F5F4FEDB7FEB7E6
:10DE4000E41BF50B0FB6F894FEBF0FBEEDBF6DB728
:10DE50007EB76F5F7F4FFB012DB73EB7285F3F4F07
:10DE6000A88DB98D1D91B98FA88F1193E217F30773
:10DE7000B9F72091EA0D3091EB0DDB011796F9010E
:10DE80008F01021B130B081719070CF0AEC211917A
:10DE90001D93F6CFC801019763E08D37910560F4BB
:10DEA000BFEB8B1AB3E69B0AB40186EE9DE00E949D
:10DEB000A60D892B19F462E083E0A5CFC7010E946B
:10DEC0000181C8010196F82EFF0CF092EC0D8F2D08
:10DED00090E00E9465809093EB0D8093EA0D64E0E2
:10DEE000009751F323E0FC012083FA94FA94F18225
:10DEF000F12CE12CC090EA0DD090EB0DB701680D2C
:10DF0000791D86EE9DE00E94C70DFFEFEF1AFF0A14
:10DF10009701220F331FD601A20FB31F9C93E091EC
:10DF2000EA0DF091EB0DE20FF31F81830E151F0533
:10DF300009F783E06CCF15962C91C80101978B37B8
:10DF40009105C0F4C801880F991F2817190691F48C
:10DF5000D12CC12C5401BFEBAB1AB3E6BB0AB501FF
:10DF60006C0D7D1D86EE9DE00E94A60D892B29F487
:10DF700062E001C063E080E146CFEFEFCE1ADE0A37
:10DF8000C016D10661F7C7010E940181F5E0F09348
:10DF9000EC0D85E090E00E946580FC019093EB0D14
:10DFA0008093EA0D892B11F464E0E5CF80E1808352
:10DFB0009182828213820483D12CC12C22E0E20E52
:10DFC000F11C0C151D0509F4B4CFD70114964C9122
:10DFD000149715968C91542F482FB4016C0D7D1D0C
:10DFE00086EE9DE00E94B50DBFEFCB1ADB0AE6CFAF
:10DFF000C801019763E0803D974050F4B4016F5F22
:10E000007F4F86EE9DE00E94A60D892B19F462E0F9
:10E0100081E0F9CEC7010E940181C80123E09695F5
:10E0200087952A95E1F722E0280F2093EC0D9801BF
:10E0300027703327232B19F08D5F8093EC0DF09020
:10E04000EC0D8F2D90E00E9465809093EB0D8093F6
:10E05000EA0D009711F464E0DBCF21E0DC012C93A2
:10E06000FA94FA941196FC925801BFEFAB1ABB0ACE
:10E07000D12CEE24E394F12C0091EA0D1091EB0DDC
:10E08000B701680D791D86EE9DE00E94C70D41E045
:10E0900050E060E070E00D2C04C0440F551F661F77
:10E0A000771F0A94D2F7F701A3E0F695E795AA95B2
:10E0B000E1F73296E00FF11F208181159F4F79F033
:10E0C000409524232083D39448E0D41201C0D12C5E
:10E0D000EFEFEE1AFE0AAE14BF0471F62ACF242B1E
:10E0E000F1CFC801019763E0803D974078F5C40106
:10E0F0008F5E984D9D8F8C8FBC0186EE9DE00E94B7
:10E10000A60D892B09F483CFC7010E940181C801A4
:10E11000F3E096958795FA95E1F722E0280F209392
:10E12000EC0D980127703327232B19F08D5F809316
:10E13000EC0DF090EC0D8F2D90E00E946580909397
:10E14000EB0D8093EA0D009719F464E082E05BCE5A
:10E1500022E0DC012C93FA94FA941196FC92212C83
:10E1600070E060E0812C912C54018394E090EA0DE2
:10E17000F090EB0D6B01BFEFCB1ADB0AEC8DFD8D40
:10E180006E0F7F1F86EE9DE00E94C70DB501A401B2
:10E19000022C04C0440F551F661F771F0A94D2F744
:10E1A000F60163E0F695E7956A95E1F73296EE0D94
:10E1B000FF1D208181159F4F69F040952423208306
:10E1C000239448E0241201C0212CB601C016D106C8
:10E1D00069F6AFCE242BF3CFC801019763E08D37EA
:10E1E000910500F55FEC851A5AE8950AB40186EEB0
:10E1F0009DE00E94A60D892B09F409CFC7010E945A
:10E200000181C8010196F82EFF0CF092EC0D8F2DC4
:10E2100090E00E9465809093EB0D8093EA0D00974B
:10E2200019F464E084E0EFCD24E0DC012C93FA944F
:10E23000FA941196FC92F12CE12CC090EA0DD0904A
:10E24000EB0DB701680D791D86EE9DE00E94C70DAC
:10E25000BFEFEB1AFB0A9701220F331FD601A20F63
:10E26000B31F9C93E091EA0DF091EB0DE20FF31FC9
:10E2700081830E151F0509F75CCE0115EFEF1E0710
:10E2800039F063E00115110551F5F12CE12C03C0C3
:10E29000E12CFF24FA94FFEF8F1A9F0AB40186EE57
:10E2A0009DE00E94A60D0097C9F0DC011396FC9238
:10E2B000EE921297B40186EE9DE00E94C70DAC016C
:10E2C00021E0012B09F420E091E041155F4F09F0B6
:10E2D00090E0291709F49ACD64E001C062E085E07E
:10E2E00092CDF7012581C80133E0969587953A953F
:10E2F000E1F7A80147705527452B09F00196A801C1
:10E3000041505109403B5740A0F42817190689F4A1
:10E31000D12CC12C54012FEFA21AB20AB5016C0DF9
:10E320007D1D86EE9DE00E94A60D892B29F462E0FA
:10E3300001C063E08FE067CD3FEFC31AD30A0C152D
:10E340001D0561F7C7010E94018145E04093EC0D76
:10E3500085E090E00E946580FC019093EB0D809336
:10E36000EA0D892B11F464E0E5CF8FE08083918280
:10E3700082821383048358015FEFA51AB50A212C0A
:10E3800001E010E0F80193E0F695E7959A95E1F742
:10E39000EE0DFF1D868190E0022C02C095958795B9
:10E3A0000A94E2F7D12CC12C80FF03C0C12CDD24DC
:10E3B000DA94B801680D791D86EE9DE00E94A60DE5
:10E3C000009729F0DC011396DC92CE9212972394E9
:10E3D000B8E02B1201C0212C0F5F1F4FA016B10611
:10E3E00089F6A7CD61E0892F0ECDCE0101960E945E
:10E3F00098310FB6F894FEBE0FBEEDBE8091EA0DC7
:10E400009091EB0D0E9401811092EC0D0E94A80AE0
:10E410006B017C018091110B9091120BA091130B59
:10E42000B091140BA7019601281B390B4A0B5B0B0B
:10E43000DA01C901883E9340A105B10508F402C381
:10E44000C092110BD092120BE092130BF092140BAE
:10E4500065EA7CE986EE9DE00E94C70D9093160B5D
:10E460008093150B66EA7CE986EE9DE00E94C70D5D
:10E47000909319028093180260EB7CE986EE9DE090
:10E480000E94C70D9093180B8093170B61EB7CE9EA
:10E4900086EE9DE00E94C70D90931A0B8093190B96
:10E4A00062EB7CE986EE9DE00E94C70D90931C0B09
:10E4B00080931B0B64E27DE986EE9DE00E94C70D10
:10E4C00021E0892B09F420E020930C0B80911602A7
:10E4D00090911702389EF001399EF00D1124EB5DEA
:10E4E000FD4E60817181828193810E94B47FAB0176
:10E4F0006BE670E086EE9DE00E94B50D80911402FF
:10E5000090911502389EF001399EF00D1124EB5DBB
:10E51000FD4E60817181828193810E94B47FAB0145
:10E520006CE670E086EE9DE00E94B50D80911202CF
:10E5300090911302389EF001399EF00D1124EB5D8D
:10E54000FD4E60817181828193810E94B47FAB0115
:10E550006DE670E086EE9DE00E94B50D8091200B87
:10E560009091210B389EF001399EF00D1124EB5D46
:10E57000FD4E60817181828193810E94B47FAB01E5
:10E580006EE670E086EE9DE00E94B50D4091C710EA
:10E5900050E062E770E086EE9DE00E94B50D40918C
:10E5A000C81050E063E770E086EE9DE00E94B50D74
:10E5B0004091C91050E064E770E086EE9DE00E9453
:10E5C000B50D4091CA1050E065E770E086EE9DE021
:10E5D0000E94B50D4091D01050E066E770E086EEE5
:10E5E0009DE00E94B50D4091D11050E067E770E0CA
:10E5F00086EE9DE00E94B50D4091D21050E068E794
:10E6000070E086EE9DE00E94B50D4091D31050E081
:10E6100069E770E086EE9DE00E94B50D4091DE1046
:10E6200050E06AE770E086EE9DE00E94B50D4091F3
:10E63000DF1050E06BE770E086EE9DE00E94B50DC4
:10E640004091E01050E06CE770E086EE9DE00E94A3
:10E65000B50D4091E11050E06DE770E086EE9DE071
:10E660000E94B50D4091D71050E06EE770E086EE45
:10E670009DE00E94B50D4091D81050E06FE770E02A
:10E6800086EE9DE00E94B50D4091D91050E060E803
:10E6900070E086EE9DE00E94B50D4091DA1050E0EA
:10E6A00061E870E086EE9DE00E94B50D4091B810E3
:10E6B00050E062E870E086EE9DE00E94B50D40916A
:10E6C000BA1050E065E870E086EE9DE00E94B50D5E
:10E6D0004091BB1050E066E870E086EE9DE00E943D
:10E6E000B50D4091B71050E067E870E086EE9DE010
:10E6F0000E94B50D40919D1050919E1068E870E009
:10E7000086EE9DE00E94B50D6091991070919A106F
:10E7100080919B1090919C100E94B47FAB0169E89E
:10E7200070E086EE9DE00E94B50D4091C0105091C2
:10E73000C1106AE870E086EE9DE00E94B50D409140
:10E74000F10F50E062E970E086EE9DE00E94B50DA9
:10E750004091F30F50E063E970E086EE9DE00E9487
:10E76000B50D4091F40F50E064E970E086EE9DE055
:10E770000E94B50D4091F00F50E065E970E086EE23
:10E780009DE00E94B50D4091DA0F5091DB0F66E9D4
:10E7900070E086EE9DE00E94B50D6091D60F7091FD
:10E7A000D70F8091D80F9091D90F0E94B47FAB0101
:10E7B00069E970E086EE9DE00E94B50D4091F50F8D
:10E7C0005091F60F6AE970E086EE9DE00E94B50D6B
:10E7D0004091C90E50E060EA70E086EE9DE00E9434
:10E7E000B50D4091EC0E50E06AEA70E086EE9DE0D7
:10E7F0000E94B50D4091EA0E50E06BEA70E086EEA3
:10E800009DE00E94B50D4091C80E50E06CEA70E0AA
:10E8100086EE9DE00E94B50D6091BC0E7091BD0E1C
:10E820008091BE0E9091BF0E0E94B47FAB016DEA45
:10E8300070E086EE9DE00E94B50D6091B80E70917B
:10E84000B90E8091BA0E9091BB0E0E94B47FAB01BD
:10E850006EEA70E086EE9DE00E94B50D6091E60ED6
:10E860007091E70E8091E80E9091E90E0E94B47FBE
:10E87000AB016FEA70E086EE9DE00E94B50D40911D
:10E880005D1150E065EB70E086EE9DE00E94B50DF5
:10E8900040914B1150E066EB70E086EE9DE00E94E7
:10E8A000B50D60913F11709140118091411190918F
:10E8B00042110E94B47FAB0167EB70E086EE9DE0F1
:10E8C0000E94B50D409123115091241168EB70E026
:10E8D00086EE9DE00E94B50D40912D1150912E11B4
:10E8E00069EB70E086EE9DE00E94B50D40915F11EE
:10E8F00050E06AEB70E086EE9DE00E94B50D40911D
:10E90000601150E06BEB70E086EE9DE00E94B50D6B
:10E910006091700F7091710F8091720F9091730FD1
:10E920000E94B47FAB0160EC70E086EE9DE00E9437
:10E93000B50D4091500E50E069EC70E086EE9DE020
:10E940000E94B50D40914F0E50E06AEC70E086EEEB
:10E950009DE00E94B50D4091710E50E06BEC70E0AF
:10E9600086EE9DE00E94B50D4091730E50E06CEC78
:10E9700070E086EE9DE00E94B50D6091460F7091AB
:10E98000470F8091480F9091490F0E94B47FAB01CF
:10E990006DEC70E086EE9DE00E94B50D60911C0F5D
:10E9A00070911D0F80911E0F90911F0F0E94B47FD8
:10E9B000AB0162ED70E086EE9DE00E94B50D6091C6
:10E9C000F20E7091F30E8091F40E9091F50E0E946C
:10E9D000B47FAB0167ED70E086EE9DE00E94B50D5F
:10E9E0006091300B7091310B8091320B9091330B11
:10E9F0000E94B47FAB016CED70E086EE9DE00E945A
:10EA0000B50D4091350B50E06DED70E086EE9DE068
:10EA10000E94B50D40911E0B50E06EED70E086EE49
:10EA20009DE00E94B50D40911D0B50E06FED70E030
:10EA300086EE9DE00E94B50D62E370E080E090E01C
:10EA40000E94760A80910D0B90910E0BA0910F0BF6
:10EA5000B091100BA7019601281B390B4A0B5B0BD9
:10EA6000DA01C90180329E44A105B10550F0C0927F
:10EA70000D0BD0920E0BE0920F0BF092100B0E9438
:10EA8000E5138091420B9091430BA091440BB09100
:10EA9000450B481659066A067B0608F4D2C08091D9
:10EAA0001F0B0E94BF08019709F4F6C181E0809313
:10EAB0001D0B81E49FE00E94091120E030E048E452
:10EAC00052E40E94E37F18160CF0E9C181E08093C4
:10EAD0004A0F60911B0B70911C0B072E000C880BCA
:10EAE000990B0E940C7D20E030E040E45FE30E943F
:10EAF0006B7D4B015C018BE69FE00E9409116B016D
:10EB00007C0120E030E0A9010E94E37F20E030E0BA
:10EB1000A90187FD16C0C701B6010E94EE7F2091B2
:10EB20004711309148114091491150914A110E946A
:10EB30006B7D26E636E646E650E40E946B7D9B013F
:10EB4000AC0120933F1130934011409341115093F9
:10EB50004211C501B4010E94E37F18160CF0A2C156
:10EB600081E080934B1120E030E048EC52E460916A
:10EB7000300B7091310B8091320B9091330B0E94CE
:10EB8000057D87FF92C18091180290911902892B0F
:10EB900009F08BC181E08093350B8091150B90912A
:10EBA000160B019709F097C161E083E00E94E80825
:10EBB0008091350B811109C080914B11811105C0E5
:10EBC00080911D0B882309F473C16FE37AE083E61B
:10EBD00091E10E949F2061E082E00E94E80850E0FD
:10EBE00040E063E570E081E290E00E94F30A8091EA
:10EBF000410B811106C08091400B811102C00E941F
:10EC0000BC3B80911F029091200220913E0B3091DD
:10EC10003F0B2817390739F021E020931E0290930B
:10EC20003F0B80933E0BD301C2018C509E4FAF4FE0
:10EC3000BF4F8093420B9093430BA093440BB09330
:10EC4000450B80913A0B90913B0BA0913C0BB091FE
:10EC50003D0B481659066A067B0608F470C0809181
:10EC6000200B9091210B389EF001399EF00D11245C
:10EC7000EB5DFD4EC080D180E280F38020E030E08B
:10EC800040EF51E4C701B6010E94E37F18161CF45F
:10EC900081E08093D81020E030E048ED51E4C701D6
:10ECA000B6010E94057D87FD1092D81020E030E06B
:10ECB0004CE052E4C701B6010E94E37F18161CF431
:10ECC00081E08093DF1020E030E040EF51E4C701A5
:10ECD000B6010E94057D87FD1092DF108091E11042
:10ECE000882309F409C18091E0108093DF1080919E
:10ECF000DA10882309F405C18091D9108093D810C7
:10ED00006091DF108091DD100E94E8086091D810BA
:10ED10008091D6100E94E8080E94E71C81E0809351
:10ED20001E02D301C20188579C4EAF4FBF4F809344
:10ED30003A0B90933B0BA0933C0BB0933D0B80910F
:10ED4000360B9091370BA091380BB091390B4816C8
:10ED500059066A067B0608F46DC00E94A72668EC77
:10ED600070E082E00E945D0961E08091340B0E94B6
:10ED70001E1A6093260B7093270B8093280B909399
:10ED8000290B60E08091340B0E941E1A6093220BC5
:10ED90007093230B8093240B9093250B0091260BEB
:10EDA0001091270B2091280B3091290B600F711FB8
:10EDB000821F931F60932A0B70932B0B80932C0B55
:10EDC00090932D0B0E940C7D2DEB37E346E855E325
:10EDD0000E946B7D9B01AC0160E070E080E89FE3E6
:10EDE0000E943B7F0E94AD7F70932F0B60932E0B90
:10EDF000072E000C880B990B0E940C7D20E030E060
:10EE000040EF50E40E946B7D6093300B7093310BA8
:10EE10008093320B9093330BD301C201805D9A48EB
:10EE2000AF4FBF4F8093360B9093370BA093380BA7
:10EE3000B093390B80911A0290911B02A0911C0291
:10EE4000B0911D02481659066A067B0608F18091AA
:10EE5000410B81111DC081E090E00E94580B50E0F1
:10EE600040E070E060E08AE090E00E94F30A81E018
:10EE70008093410BD301C201805E9E45A84FBF4FD6
:10EE800080931A0290931B02A0931C02B0931D0260
:10EE90000E942F080C94DE6810921D0B0ACE10926F
:10EEA0004A0F17CE10924B115ECE1092350B75CED5
:10EEB00060E082E00E94E80841E050E063E570E035
:10EEC00081E290E00E94F30A62EC72E083E691E155
:10EED0000E949F208CCE41E050E063E570E081E22B
:10EEE00090E00E94F30A60E082E00E94E80860E09F
:10EEF00083E00E94E808E8CF8091DF108093E01063
:10EF0000F6CE8091D8108093D910FACECF93DF93AC
:10EF100088EC9DE00E94F8198EEC9DE00E94F819A3
:10EF200084ED9DE00E94F8198AED9DE00E94F81999
:10EF300083E691E10E94F81989E691E10E94F819AF
:10EF40008FE691E10E94F81985E791E10E94F81996
:10EF50008BE791E10E94F81981E891E10E94F8198C
:10EF600087E891E10E94F8198DE891E10E94F81973
:10EF700083E991E10E94F819CFEAD2E16797CE01C7
:10EF80000C960E94F81982E1C532D807B9F7DF91D3
:10EF9000CF910895EF920F931F93CF93DF93E801E2
:10EFA00034E047FD34E1042E000C550B57FF03C03D
:10EFB000519541955109E32E022F242FAE010E9455
:10EFC0002B79CE01DF91CF911F910F91EF90089592
:10EFD0008F929F92AF92BF92CF92DF92EF92FF9269
:10EFE000CF93DF93EC01688179818A819B816115E0
:10EFF00071058105910521F464E279ED8BE597E0D7
:10F000002DE133EF41E050E00E948D7E49015A012D
:10F010009B01AC01A7EAB1E40E94AC7E6B017C01CC
:10F02000ACEEB4EFA50194010E94BA7EC60ED71EC5
:10F03000E81EF91EF7FE06C081E0C81AD108E108F3
:10F0400080E8F80AC882D982EA82FB82C701B60149
:10F050009F77DF91CF91FF90EF90DF90CF90BF909F
:10F06000AF909F908F9008958F929F92AF92BF9292
:10F07000CF92DF92EF92FF9260912C0270912D025D
:10F0800080912E0290912F026115710581059105E5
:10F0900021F464E279ED8BE597E02DE133EF41E077
:10F0A00050E00E948D7E49015A019B01AC01A7EA04
:10F0B000B1E40E94AC7E6B017C01ACEEB4EFA50123
:10F0C00094010E94BA7EC60ED71EE81EF91EF7FEF6
:10F0D00006C081E0C81AD108E10880E8F80AC092A9
:10F0E0002C02D0922D02E0922E02F0922F02C70144
:10F0F000B6019F77FF90EF90DF90CF90BF90AF90D9
:10F100009F908F90089560932C0270932D028093AE
:10F110002E0290932F020895662777270C94A47AE5
:10F12000FC0188279927E89421912032E9F32930BE
:10F1300010F02E30C8F32B3241F02D3239F46894A0
:10F1400004C00E940979820F911D219120532A3019
:10F15000C0F31EF4909581959F4F08951F93FC0175
:10F1600099278827BC01E89411911032E9F31930EE
:10F1700010F01E30C8F31B3251F01D3249F4689470
:10F1800006C00E94F478610F711D811D911D1191BF
:10F1900010531A30B0F33EF49095809570956195B8
:10F1A0007F4F8F4F9F4F1F91089591110C94DA7CE0
:10F1B000803219F089508550C8F7089545325105BD
:10F1C00020F4423010F00C94E978FB011082CB015E
:10F1D0000895BB274A3031F4992322F4BDE290957B
:10F1E00081959F4F0C941279592F482F372F262F36
:10F1F000660F771F881F991F660F771F881F991F3B
:10F20000620F731F841F951F660F771F881F991F3A
:10F2100008957AE0979F902D879F802D910D11245E
:10F220000895BB27FB015527AA27880F991FAA1FFE
:10F23000A41710F0A41B83955051B9F7A05DAA3311
:10F2400008F0A95DA193009779F7B111B1931192DC
:10F25000CB010C94F57C8F929F92AF92BF92CF928C
:10F26000DF92EF92FF920F931F93CF93DF9300D023
:10F2700000D000D0CDB7DEB76A01F22EB02E102F2D
:10F28000FBE3AF2EA01608F41BE31F5F012F27E05E
:10F29000AE014F5F5F4F0E94027CBC018981982FB5
:10F2A0009970913009F44EC09BE2E1FC04C09E2DA0
:10F2B0009170E0FC49C05E2D5071E82FE87083FF2B
:10F2C00055C084E0911101C083E0EF2DE81B8F153C
:10F2D00008F0E0E0D6018E2F20E25523C9F19923F2
:10F2E00029F0D6019C93C60101966C0196012D5F11
:10F2F0003F4FE2FE33C08EE4D6018C9391E4119629
:10F300009C93119712968C93D9018E2F90E28111C4
:10F310002AC0E20FF32FF11D10828EEF9FEF299686
:10F320000FB6F894DEBF0FBECDBFDF91CF911F9116
:10F330000F91FF90EF90DF90CF90BF90AF909F9094
:10F340008F9008959DE2B7CF90E2B5CF2D93815075
:10F350008111FCCFCE0ED11CE0E0C1CF8EE6D601EC
:10F360008C9391E6CCCF9D938150D1CF482F4470A0
:10F3700082FF3DC084E0911101C083E08F1510F43D
:10F38000EF2DE81BD6018E2F20E2552309F199239A
:10F3900029F0D6019C93C60101966C0196012D5F60
:10F3A0003F4FE2FE1BC089E4D6018C938EE4119698
:10F3B0008C93119786E412968C93D9018E2F90E24C
:10F3C000882309F4A6CF9D938150FACF2D938150C5
:10F3D0008111FCCFCE0ED11CE0E0D9CF89E6D60159
:10F3E0008C938EE611968C93119786E6E4CF9B0161
:10F3F00077FF02C030E020E0A1E0B0E0911102C050
:10F40000B0E0A0E0F9013196AE0FBF1F8B2C912C1C
:10F41000BB2009F461C05401EFEFAE1ABE0AAA0D79
:10F42000BB1DFA161B0619F014F04F2D4A1B511183
:10F4300088C0E3FC59C07601A42FB0E2A1114FC0EF
:10F44000C40ED11C992309F45BC040E0D60111968B
:10F45000F60190836D01552309F448C0012F060F72
:10F460009A81582F507184FF03C0913309F40150E1
:10F4700010160CF047C0093008F008E0EEE2FE2E4E
:10F480005B01A01AB10885019194819491082F3FE6
:10F49000320729F4D601FC92F60131966F0162170A
:10F4A000730794F1021713077CF5DB01A21BB30B62
:10F4B000AA24A394B12CAC0EBD1EAA0DBB1D11969F
:10F4C0008C9121503109D601119628153905F4F097
:10F4D000F60180836D01DBCFB12CA12CA0CFF70109
:10F4E000B1937F01A150AACF9111B0CFD601942F33
:10F4F00050E302C05D9391509111FCCFC40ED11C1A
:10F5000040E0ACCF01E0BACF80E3DBCF62177307F6
:10F5100031F4963388F4953311F4552369F0F601EC
:10F520008083FD01842F90E2811108C0A40FB11DDA
:10F530001C9290E080E0F3CE81E3F1CF9193815073
:10F54000F3CF911183CF8ACF8F929F92AF92BF92C8
:10F55000CF92DF92EF92FF920F931F93CF93DF939F
:10F560005C017B016115710519F0DB018D939C93A2
:10F5700085010F5F1F4FF501D0818D2F90E00E9414
:10F58000D5786C01892BB9F5DD32B9F50F5F1F4FC6
:10F59000D5011196DC91C1E05801F1E0AF1AB10834
:10F5A00043E050E068E274E0C5010E94DD7C892BF5
:10F5B00069F5680182E0C80ED11C45E050E063E2C5
:10F5C00074E0C6010E94DD7C892B21F4680197E07C
:10F5D000C90ED11CE114F10419F0D701CD92DC92CF
:10F5E00060E070E080E89FEFC111FFC060E070E074
:10F5F00080E89FE7FAC05801BBCFDB3229F48501D0
:10F600000E5F1F4FF501D181C0E0C6CF43E050E04F
:10F6100060E274E0C5010E94DD7C892BE9F0F8010D
:10F6200010E000E020E030E0A9015F01B0ED8B2E9A
:10F630008D0E89E08815C8F19C2E689491F88C2F66
:10F640008870C2FF16C0811102C00F5F1F4F319634
:10F65000D501DC91C92DE9CFE114F10429F00E5F49
:10F660001F4FF7011183008360E070E080EC9FE79B
:10F67000BCC0882311F001501109A5E0B0E00E9440
:10F68000AC7E9B01AC01220F331F441F551F280D78
:10F69000311D411D511D283999E93907490799E163
:10F6A0005907A8F2C6609C2ED2CFAEEF8A1206C0D0
:10F6B000C3FD3CC09C2E689493F8C9CFDF7DD53440
:10F6C000A9F580818D3239F4C061DF011296818104
:10F6D00062E070E006C0DF018B32C1F3119661E099
:10F6E00070E080535D01A61AB70A8A30F8F4E0E8AA
:10F6F000CE16ECE0DE065CF4B601660F771F660FEF
:10F70000771FC60ED71ECC0CDD1CC80ED11C5D01A8
:10F71000FFEFAF1ABF0A8C9180538A30A8F1C4FF63
:10F7200003C0D194C194D1080C0D1D1DC1FF09C0A7
:10F73000E114F10431F081E0A81AB108D701AD92CB
:10F74000BC92CA01B9010E940A7DC370C33009F49A
:10F7500090584B015C0120E030E0A9010E94057D3A
:10F76000882309F440C0C7E5D4E017FF05C0119510
:10F7700001951109CFE3D4E06E01B8E1CB1AD108AD
:10F7800080E2E82EF12C0FC0D501B1CFFE0125910A
:10F790003591459154910E191F09C501B4010E947C
:10F7A0006B7D4B015C01D501C4010E151F0574F77B
:10F7B0002497F594E794CC16DD06A9F78A2F880FD5
:10F7C0008B2F881F8F3F49F020E030E0A901C50151
:10F7D000B4010E94057D811106C082E290E0909301
:10F7E000C4128093C312C501B401DF91CF911F9160
:10F7F0000F91FF90EF90DF90CF90BF90AF909F90D0
:10F800008F900895283008F027E03327DA01990F08
:10F81000311D87FD916000966105710539F43260F4
:10F820002E5F3D9330E32A95E1F708959F3F30F036
:10F8300080387105610509F03C5F3C5F3D93913074
:10F8400008F08068911DDF93CF931F930F93FF9271
:10F85000EF92192F987F9695E92F96959695E90F37
:10F86000FF27EB54FB4F99273327EE24FF24A701F2
:10F87000E70105900894079428F4360FE71EF81E58
:10F88000491F511D660F771F881F991F0694A1F706
:10F890000590079428F4E70EF81E491F561FC11D56
:10F8A000770F881F991F661F0694A1F7059007948C
:10F8B00028F4F80E491F561FC71FD11D880F991F26
:10F8C000661F771F0694A1F70590079420F4490F4F
:10F8D000561FC71FD81F990F661F771F881F0694D2
:10F8E000A9F784911095177041F0D695C795579553
:10F8F0004795F794E7941A95C1F7EBE5F4E068941F
:10F900001590159135916591959105907FE27395CC
:10F91000E118F10A430B560BC90BD009C0F7E10CF3
:10F92000F11E431F561FC91FD01D7EF4703311F402
:10F930008A95E6CFE894015030F0080F0AF40027CA
:10F94000021708F4202F2395022F7A3328F079E349
:10F950007D932A95E9F710C07D932A9589F6069440
:10F9600097956795379517951794E118F10A430B0A
:10F97000560BC90BD00998F023957E9173957A3375
:10F9800008F070E37C932013B8F77E9170617D934B
:10F9900030F0839571E37D9370E32A95E1F71124AC
:10F9A000EF90FF900F911F91CF91DF91992787FDE5
:10F9B00090950895992788270895FB01DC0141500F
:10F9C000504088F08D9181341CF08B350CF4805EB2
:10F9D000659161341CF06B350CF4605E861B61111F
:10F9E00071F3990B0895881BFCCFDC01FC01672F94
:10F9F00071917723E1F7329704C07C916D93708306
:10FA00006291AE17BF07C8F308950E94477D08F4BE
:10FA100081E00895E89409C097FB3EF490958095A5
:10FA2000709561957F4F8F4F9F4F9923A9F0F92FC4
:10FA300096E9BB279395F695879577956795B79542
:10FA4000F111F8CFFAF4BB0F11F460FF1BC06F5F28
:10FA50007F4F8F4F9F4F16C0882311F096E911C03A
:10FA6000772321F09EE8872F762F05C0662371F05B
:10FA700096E8862F70E060E02AF09A95660F771F6F
:10FA8000881FDAF7880F9695879597F90895990F4B
:10FA90000008550FAA0BE0E8FEEF16161706E80758
:10FAA000F907C0F012161306E407F50798F0621B79
:10FAB000730B840B950B39F40A2661F0232B242B4E
:10FAC000252B21F408950A2609F4A140A6958FEF6D
:10FAD000811D811D08950E947E7D0C94EF7D0E9402
:10FAE000E17D38F00E94E87D20F0952311F00C9420
:10FAF000D87D0C94DE7D11240C94237E0E94007E20
:10FB000070F3959FC1F3950F50E0551F629FF00170
:10FB1000729FBB27F00DB11D639FAA27F00DB11D89
:10FB2000AA1F649F6627B00DA11D661F829F222712
:10FB3000B00DA11D621F739FB00DA11D621F839F99
:10FB4000A00D611D221F749F3327A00D611D231F6F
:10FB5000849F600D211D822F762F6A2F11249F57BD
:10FB600050409AF0F1F088234AF0EE0FFF1FBB1FC0
:10FB7000661F771F881F91505040A9F79E3F51057F
:10FB800080F00C94D87D0C94237E5F3FE4F3983E84
:10FB9000D4F3869577956795B795F795E7959F5F29
:10FBA000C1F7FE2B880F911D9695879597F90895BB
:10FBB00097F99F6780E870E060E008959FEF80EC20
:10FBC000089500240A9416161706180609060895C3
:10FBD00000240A9412161306140605060895092E29
:10FBE0000394000C11F4882352F0BB0F40F4BF2B98
:10FBF00011F460FF04C06F5F7F4F8F4F9F4F0895D8
:10FC000057FD9058440F551F59F05F3F71F04795CD
:10FC1000880F97FB991F61F09F3F79F087950895B2
:10FC2000121613061406551FF2CF4695F1DF08C0D1
:10FC3000161617061806991FF1CF869571056105EE
:10FC400008940895E894BB2766277727CB0197F996
:10FC50000895DC01CB01FC01F999FECF06C0F2BD8D
:10FC6000E1BDF89A319600B40D9241505040B8F77A
:10FC70000895F999FECF92BD81BDF89A992780B574
:10FC80000895A6E1B0E044E050E00C942B7EA8E19A
:10FC9000B0E042E050E00C942B7E262FF999FECF85
:10FCA0001FBA92BD81BD20BD0FB6F894FA9AF99A99
:10FCB0000FBE01960895DB018F939F930E94AC7E47
:10FCC000BF91AF91A29F800D911DA39F900DB29FF8
:10FCD000900D11240895A1E21A2EAA1BBB1BFD0151
:10FCE0000DC0AA1FBB1FEE1FFF1FA217B307E4071B
:10FCF000F50720F0A21BB30BE40BF50B661F771F73
:10FD0000881F991F1A9469F7609570958095909552
:10FD10009B01AC01BD01CF010895052E97FB1EF498
:10FD200000940E94A47E57FD07D00E946B7E07FCC2
:10FD300003D04EF40C94A47E5095409530952195B7
:10FD40003F4F4F4F5F4F0895909580957095619507
:10FD50007F4F8F4F9F4F08950E94BF7EA59F900DAC
:10FD6000B49F900DA49F800D911D11240895B7FF9D
:10FD70000C94AC7E0E94AC7E821B930B0895A29FD4
:10FD8000B001B39FC001A39F700D811D1124911D6F
:10FD9000B29F700D811D1124911D08955058BB27ED
:10FDA000AA270E94E67E0C94EF7D0E94E17D38F048
:10FDB0000E94E87D20F039F49F3F19F426F40C945A
:10FDC000DE7D0EF4E095E7FB0C94D87DE92F0E94D0
:10FDD000007E58F3BA17620773078407950720F06F
:10FDE00079F4A6F50C94227E0EF4E0950B2EBA2F32
:10FDF000A02D0B01B90190010C01CA01A001112431
:10FE0000FF27591B99F0593F50F4503E68F11A16DC
:10FE1000F040A22F232F342F4427585FF3CF46956D
:10FE200037952795A795F0405395C9F77EF41F168F
:10FE3000BA0B620B730B840BBAF09150A1F0FF0F59
:10FE4000BB1F661F771F881FC2F70EC0BA0F621F45
:10FE5000731F841F48F4879577956795B795F79535
:10FE60009E3F08F0B0CF9395880F08F09927EE0FCA
:10FE70009795879508950E944F7F0C94EF7D0E947F
:10FE8000E87D58F00E94E17D40F029F45F3F29F0C1
:10FE90000C94D87D51110C94237E0C94DE7D0E942D
:10FEA000007E68F39923B1F3552391F3951B550B0D
:10FEB000BB27AA2762177307840738F09F5F5F4F3D
:10FEC000220F331F441FAA1FA9F335D00E2E3AF07C
:10FED000E0E832D091505040E695001CCAF72BD094
:10FEE000FE2F29D0660F771F881FBB1F26173707E5
:10FEF0004807AB07B0E809F0BB0B802DBF01FF2717
:10FF000093585F4F3AF09E3F510578F00C94D87D9E
:10FF10000C94237E5F3FE4F3983ED4F38695779567
:10FF20006795B795F7959F5FC9F7880F911D9695CF
:10FF3000879597F90895E1E0660F771F881FBB1F2B
:10FF4000621773078407BA0720F0621B730B840BD8
:10FF5000BA0BEE1F88F7E09508950E94B47F68946D
:10FF6000B1110C94237E08950E94087E88F09F575B
:10FF700098F0B92F9927B751B0F0E1F0660F771FCD
:10FF8000881F991F1AF0BA95C9F714C0B13091F0C3
:10FF90000E94227EB1E008950C94227E672F782F74
:10FFA0008827B85F39F0B93FCCF386957795679588
:10FFB000B395D9F73EF490958095709561957F4FF4
:10FFC0008F4F9F4F08950E94477D08F48FEF08954B
:10FFD00019F416F40C94DE7D0C942E800E94087E99
:10FFE000B8F39923C9F3B6F39F57550B87FF0E94C7
:10FFF0003C800024A0E640EA9001805856959795F1
:020000021000EC
:1000000028F4805C660F771F881F20F026173707BB
:10001000480730F4621B730B840B202931294A2BCB
:10002000A69517940794202531254A2758F7660F7F
:10003000771F881F20F026173707480730F4620B18
:10004000730B840B200D311D411DA09581F7B90163
:10005000842F9158880F9695879508959F3F31F08A
:10006000915020F4879577956795B795880F911DE6
:100070009695879597F9089591505040660F771F90
:10008000881FD2F70895991B79E004C0991F96172D
:1000900008F0961B881F7A95C9F780950895EE0F92
:1000A000FF1F881F8BBF0790F691E02D19946927D9
:1000B0009627692778278727782708950E94BF7E8B
:1000C000B7FF0895821B930B08950F931F93CF934F
:1000D000DF938230910510F482E090E0E091C71246
:1000E000F091C81230E020E0B0E0A0E0309799F441
:1000F0002115310509F44AC0281B390B243031057C
:10010000D8F58A819B816115710589F1FB01938383
:100110008283FE0111C04081518102811381481701
:100120005907E0F04817590799F4109761F01296B3
:100130000C93129713961C933296CF01DF91CF91B7
:100140001F910F9108950093C7121093C812F4CF16
:100150002115310551F04217530738F0A901DB0191
:100160009A01BD01DF01F801C1CFEF01F9CF9093F2
:10017000C8128093C712CDCFFE01E20FF31F819307
:1001800091932250310939832883D7CF2091C5120A
:100190003091C612232B41F4209132023091330268
:1001A0003093C6122093C512209130023091310253
:1001B0002115310541F42DB73EB7409134025091DD
:1001C0003502241B350BE091C512F091C612E217DF
:1001D000F307A0F42E1B3F0B2817390778F0AC016A
:1001E0004E5F5F4F2417350748F04E0F5F1F509347
:1001F000C6124093C512819391939FCFF0E0E0E047
:100200009CCFCF93DF930097E9F0FC0132971382E4
:100210001282A091C712B091C812ED0130E020E027
:100220001097A1F420813181820F931F2091C51274
:100230003091C6122817390709F061C0F093C61231
:10024000E093C512DF91CF910895EA01CE17DF0741
:10025000E8F54A815B819E0141155105B1F7E9013D
:10026000FB83EA8349915991C40FD51FEC17FD0711
:1002700061F4808191810296840F951FE901998331
:100280008883828193819B838A83F0E0E0E01296E9
:100290008D919C9113970097B9F52D913C911197F1
:1002A000CD010296820F931F2091C5123091C61284
:1002B0002817390739F6309751F51092C812109265
:1002C000C712B093C612A093C512BCCFD383C2830A
:1002D00040815181840F951FC817D90761F44E5F83
:1002E0005F4F88819981480F591F518340838A81CC
:1002F0009B81938382832115310509F0B0CFF09360
:10030000C812E093C7129ECFFD01DC01C0CF13825B
:100310001282D7CF4F925F926F927F928F929F926D
:10032000AF92BF92CF92DF92EF92FF920F931F9303
:10033000CF93DF938C01009799F4CB01DF91CF919C
:100340001F910F91FF90EF90DF90CF90BF90AF90F3
:100350009F908F907F906F905F904F900C946580EE
:10036000FC01E60FF71F9C0122503109E217F30749
:1003700008F4AEC0D901CD91DC911197C617D7070B
:1003800020F1C530D10578F0CE0104978617970784
:1003900050F0C61BD70B2297C193D1936D937C93DA
:1003A000CF010E940181C801DF91CF911F910F9170
:1003B000FF90EF90DF90CF90BF90AF909F908F9085
:1003C0007F906F905F904F9008955B01AC1ABD0ACB
:1003D0004C018C0E9D1EA091C712B091C812512CD9
:1003E000412CF12CE12C109731F58091C5129091A0
:1003F000C6128815990509F05CC04616570608F024
:1004000058C08091300290913102009741F48DB72D
:100410009EB74091340250913502841B950BE8172A
:10042000F90708F055C0F093C612E093C512F90120
:1004300071836083B8CF8D919C91119712966C90C7
:10044000129713967C901397A815B90559F56C016E
:1004500042E0C40ED11CCA14DB0420F1AC014A19DD
:100460005B09DA011296159780F0628273825183DC
:100470004083D9016D937C93E114F10471F0D701AD
:100480001396FC93EE9312978ECF22968C0F9D1F9E
:10049000F90191838083F301EFCFF093C812E093C9
:1004A000C71281CF4816590608F42C017D01D301EB
:1004B0009ACFCB010E9465807C01009749F0AE0184
:1004C000B8010E948082C8010E94018187016BCF20
:1004D00010E000E068CF9111089581568A5108F428
:1004E000805285580895FB01DC0104C08D91019074
:1004F000801921F441505040C8F7881B990B08958A
:10050000FB01DC0102C001900D9241505040D8F730
:100510000895DC0101C06D9341505040E0F708950B
:10052000FC018191861721F08823D9F79927089536
:100530003197CF010895FB01DC018D910190801965
:100540000110D9F3990B0895FB01DC0101900D9284
:100550000020E1F70895FB01DC014150504048F0D4
:1005600001900D920020C9F701C01D9241505040EA
:10057000E0F7089513E0CCE5D3E000E006C0802F5B
:10058000FE010E944F802196011DCD35D10780E0EC
:080590000807A9F7F894FFCF5A
:10059800190012000300D007FFFFFF00C0A8640184
:1005A8003C00020001000300010020A10700011225
:1005B8000000C0C05DDEADBEEF00004601000000D7
:1005C8000000C912800001005E0000000000000069
:1005D800130D9831383123311733F237982D792F8D
:1005E80067370C382F2B0D2B3C0D440DFD19390D99
:1005F800370D080D2D0D7B3840381538290D0000B2
:100608000000DC0CB331A30DFD06F9060E34892D6C
:10061800FB2F9A2ECA2A4D0DF436682B3834EF3347
:100628009C0D8C0D880D840D00000000C207FF068C
:1006380045070F0876075407680700000000F20C0A
:10064800C032A30DFE062030E52A000000008A1CF7
:100658000D0A0074656D7065726174757265206548
:1006680072726F720020616E64200057495A6E657D
:10067800740041697220666C6F77206465666175E5
:100688006C7400576174657220666C6F77206465BE
:100698006661756C74005761746572206C65766567
:1006A8006C2064656661756C740054616E6B2066BD
:1006B800756C6C0054616E6B206E6F742066756C7F
:1006C8006C002F004D6F64653A2000202053544F72
:1006D800505045442000202052554E4E494E472048
:1006E800004D6F6E6461792000547565736461799B
:1006F80020005765646E65736461792000546875DD
:1007080072736461792000467269646179200053CC
:1007180061747572646179200053756E6461792023
:10072800004A616E75617279200046656272756172
:10073800727920004D617263682000417072696CA3
:1007480020004D617920004A756E6520004A756C5D
:10075800792000417567757374200053657074655E
:100768006D62657220004F63746F62657220004E7F
:100778006F76656D6265722000446563656D6265BC
:1007880072200032303000323000312E312E312EBE
:1007980031004E554C00434F4E4E45435445004F93
:1007A8004E2047544300446179206F662074686581
:1007B8002064617920313A4D6F6E64617920323A54
:1007C8005475657361646179202E2E2E0044617919
:1007D800004D6F6E74680059656172203230323393
:1007E8003D32332C323032343D3234202E2E2E001E
:1007F800486F757273004D696E7574657300436F49
:100808006E732E2054656D702E20536F7566666C5E
:1008180061676520486976657200436F6E73205082
:1008280072657373696F6E20726570726973652083
:100838004F636300436F6E73205072657373696F03
:100848006E207265707269736520496E6F6363000C
:100858005072657373696F6E204D617820435441FF
:100868000054656D7065726174757265206869768B
:10087800657220496E6F63637570650048657572AF
:1008880065206465627574206F636375706174694F
:100898006F6E0048657572652066696E206F6363C8
:1008A80075706174696F6E00736575696C20616C31
:1008B80061726D6520706572696F64697175652014
:1008C80028656E206D6F69732900416C61726D65D2
:1008D80020736575696C2076697465737365207615
:1008E800656E74696C61746575722028252920000D
:1008F800545F6169725F6561752E4B6900545F6171
:1009080069725F6561752E4B7000736575696C203F
:1009180074656D7073206172726574204354410070
:100928002520416D6269616E742F5265707269731A
:10093800652000736575696C20616C61726D652056
:10094800686976657200736575696C20616C61729F
:100958006D65206574650050696E206175746F6DF2
:10096800617465004D617820766F6C7420636170E6
:1009780074657572004D696E004D61780061646D33
:10098800696E2070617373776F72640049502061DB
:1009980064726573730067617465776179006D616E
:1009A800736B006D696E20766F6C7461676520707B
:1009B800726573737572652073656E736F72006DFF
:1009C800617820766F6C74616765207072657373E7
:1009D8007572652073656E736F72006D696E202085
:1009E80070726573737572652073656E736F7200CC
:1009F8006D61782070726573737572652073656EAA
:100A0800736F720045575420494420004C575420B6
:100A18004944200048454154455220494400414D2D
:100A28004249414E542049440054656D7020736515
:100A380074706F696E74006D61782074656D7020D4
:100A4800006D696E2074656D70006D617820766F39
:100A58006C746167652074656D702073656E736F63
:100A680072006D696E20766F6C74616765207465BD
:100A78006D702073656E736F72006F666673657450
:100A88002074656D702073656E736F72006F666693
:100A98007365742068756D69646974792073656E0F
:100AA800736F72006D61782068756D696469747917
:100AB800006D696E2068756D6964697479006D618F
:100AC8007820766F6C746167652068756D20736532
:100AD8006E736F72006D696E20766F6C74616765F6
:100AE8002068756D2073656E736F72006865617438
:100AF800696E6720736574706F696E74004B70203F
:100B080068756D6964696669636174657572205397
:100B18006F7566666C616765004B692068756D69FD
:100B28006469666963617465757220536F7566667A
:100B38006C616765004B642068756D6964696669F6
:100B480063617465757220536F7566666C6167655D
:100B580000466F7263656420736574706F696E74A4
:100B6800004B702056656E74696C6F20536F756604
:100B7800666C616765004B692056656E74696C6FB9
:100B880020536F7566666C616765004B6420566517
:100B98006E74696C6F20536F7566666C616765006B
:100BA8004B666163746F722056656E74696C6F2052
:100BB800536F7566666C6167650044656661756C40
:100BC800742074726573686F6C640044656661753F
:100BD8006C742074656D706F004C6F772064656667
:100BE80061756C742074726573686F6C64004C6F07
:100BF800772064656661756C742074656D706F002C
:100C080042432E4B700042432E4B690042432E4B09
:100C180064005361666574792054656D706572610E
:100C2800747572650068756D696469747920736597
:100C380074706F696E7400666C6F7772617465208A
:100C4800736574706F696E740054656D70204B70B5
:100C58002076616E6E65200054656D70204B6920AA
:100C680076616E6E65200054656D70204B64207649
:100C7800616E6E650048756D204B702076616E6EF2
:100C880065200048756D204B692076616E6E652081
:100C98000048756D204B642076616E6E6500466F66
:100CA8007263656420536574706F696E740054656F
:100CB8006D706F2073746F702070756D7000766141
:100CC8006C696465720076616C7565206D75737406
:100CD800206265206265747765656E20006F6B0021
:100CE8002D007374723A004B49542D636C696D0082
:100CF8004B4954636C696D004B49545F323530324F
:100D08003035006B69745F636C696D617469717506
:100D1800652E696E6F00564D4450565F317C315FC9
:100D2800564D4450560A00564D4450525F005345A4
:100D3800545550204F4B0053544152543100746560
:100D48006D70657261747572655B695D2E7374612F
:100D5800747573203D204E4F5F53454E534F525F7D
:100D6800464F554E440074656D70657261747572B6
:100D7800655B695D2E737461747573203D20494EFF
:100D880056414C49445F41444452455353007465AD
:100D98006D70657261747572655B695D2E737461DF
:100DA800747573203D20494E56414C49445F534564
:100DB8004E534F5200535441525400564D445045DF
:100DC8005F003A323A007C005F564D445045006E51
:0C0DD8006F74696669636174696F6E0076
:00000001FF
